:020000040800F2
:10000000A0090024490300086D0300086F030008DD
:1000100055120090730300087503000800000000EB
:10002000000000000000000000000000770300084E
:1000300079030008000000007B0300087D0300082E
:100040007F0300087F0300087F0300087F03000888
:100050007F0300087F0300087F0300087F03000878
:100060007F0300087F0300087F0300087F03000868
:100070007F0300087F0300087F0300087F03000858
:100080007F0300087F0300087F0300087F03000848
:100090007F0300087F0300087F0300087F03000838
:1000A0007F0300087F0300087F0300087F03000828
:1000B0007F0300087F0300087F0300087F03000818
:1000C0007F0300087F0300087F0300087F03000808
:1000D0007F030008AD0500087F0300087F030008C8
:1000E0007F0300087F030008000000007F03000872
:1000F0007F0300087F0300087F0300087F030008D8
:100100007F0300087F0300087F0300087F030008C7
:100110007F0300087F0300087F0300087F030008B7
:100120007F0300087F0300087F0300087F030008A7
:100130007F0300087F0300087F0300087F03000897
:1001400000000000000000000000000000000000AF
:100150007F0300087F0300087F0300087F03000877
:100160007F0300087F0300087F0300087F03000867
:100170007F0300087F0300087F0300087F03000857
:100180007F0300087F0300087F0300087F03000847
:100190007F0300087F0300087F0300087F03000837
:1001A0007F0300087F0300087F0300087F03000827
:1001B0007F0300087F0300087F0300087F03000817
:1001C0007F0300087F0300087F0300087F03000807
:1001D0007F0300087F0300087F0300087F030008F7
:1001E0007F0300087F0300087F0300087F030008E7
:1001F0007F0300087F0300087F0300087F030008D7
:100200007F0300087F0300087F0300087F030008C6
:100210007F0300087F0300087F0300087F030008B6
:100220007F0300087F0300087F0300080000000030
:100230007F0300087F030008000000007F03000820
:100240007F0300087F0300087F0300087F03000886
:100250007F0300087F0300087F0300087F03000876
:100260007F0300087F0300087F0300087F03000866
:100270007F0300087F0300087F03000800000000E0
:100280007F0300087F0300087F03000800000000D0
:10029000000000007F03000800F002F800F044F8BE
:1002A0000AA090E8000C82448344AAF10107DA45D1
:1002B00001D100F039F8AFF2090EBAE80F0013F0DF
:1002C000010F18BFFB1A43F0010318472C1100005F
:1002D0004C110000103A24BF78C878C1FAD85207F0
:1002E00024BF30C830C144BF04680C6070470000B0
:1002F0000023002400250026103A28BF78C1FBD82F
:10030000520728BF30C148BF0B6070471FB501F0CE
:1003100063F800F04DF804000020002101F046F8D9
:10032000E0601FBD10B510BD00F04AF81146FFF7A0
:10033000EDFF00F0F3FA00F068F803B4FFF7F2FF06
:1003400003BC00F079F90000DFF84000016841F4D7
:1003500070010160BFF34F8FDFF83400016821F0B6
:1003600040410160BFF36F8F0A480047FEE7FEE798
:10037000FEE7FEE7FEE7FEE7FEE7FEE7FEE7FEE755
:1003800005480649044A064B7047000088ED00E026
:1003900034EF00E099020008A0010024A009002425
:1003A000A0010024704770477047704770470000F5
:1003B000004870475C010024004870473C0100245D
:1003C0007546FFF7F9FFAE4605006946534620F033
:1003D0000700854618B020B5FFF7D2FFBDE82040E2
:1003E0004FF000064FF000074FF000084FF0000BF1
:1003F00021F00701AC46ACE8C009ACE8C009ACE8A4
:10040000C009ACE8C0098D46704710B50446AFF38B
:1004100000802046BDE81040FFF78FBF44F6A55C82
:10042000C9F2000C604742F2C91CC9F2000C6047D7
:1004300045F6B90CC9F2000C604745F6AD2CC9F27F
:10044000000C604745F6C91CC9F2000C604744F631
:10045000556CC9F2000C604742F2B90CC9F2000CAD
:10046000604742F2291CC9F2000C604746F2F10CC9
:10047000C9F2000C604745F6E53CC9F2000C604744
:1004800046F2D15CC9F2000C604740F2B92CC9F2C7
:10049000000C604710B50023234C236000BF00BF51
:1004A00000BFBFF34F8F00BF00BF00BF231F1868FE
:1004B000C0F34E3100BFC0F3C90200BF43F6E07382
:1004C00003EA41134FF0404404EA82742343174C7B
:1004D000236000BF00BF131EA2F10102EED10B1E6C
:1004E000A1F10101E7D100BF00BF00BFBFF34F8FF3
:1004F00000BF00BF00BF0C4B703B1B6843F4803350
:10050000094C703C236000BF00BF00BFBFF34F8F9A
:1005100000BF00BF00BF00BF00BF00BFBFF36F8FB1
:1005200000BF00BF00BF10BD84ED00E060EF00E041
:1005300000BF00BF00BFBFF34F8F00BF00BF00BFB1
:1005400000BF00BF00BFBFF36F8F00BF00BF00BF81
:1005500000201449086000BF00BF00BFBFF34F8FE9
:1005600000BF00BF00BF00BF00BF00BFBFF36F8F61
:1005700000BF00BF00BF0C48006840F400300A49CB
:10058000086000BF00BF00BFBFF34F8F00BF00BFB8
:1005900000BF00BF00BF00BFBFF36F8F00BF00BF31
:1005A00000BF704750EF00E014ED00E01F49C9693B
:1005B00001F0200109B31D49496AC8B21C490988E4
:1005C00001F40041C9B91A49098801F4804161B1B7
:1005D0000A2803D00021164A118020E01449098816
:1005E00041F40041124A118019E00D2806D110494A
:1005F000098841F480410E4A118010E00C490988B5
:10060000C1F30D010B4A505409490988491C084A95
:10061000118011460988C72901DD00211180034995
:10062000096A41F00801014A116270470010014057
:10063000080000246400002400BF70478CB0002430
:10064000002505264648808841F21801884200D1DD
:100650000A2683E04348416800208847002468E078
:100660004048808E0121A140084000285AD03D48D2
:100670000C3030F814003A490988884257DA394872
:10068000203030F814003649498888424FDA02A8F1
:1006900030F824004FF6FF7188420DD131480C30FC
:1006A00030F8140002A921F824002E48203030F838
:1006B000140001EB840148802B4830F8140002211B
:1006C000284F2037CDE9001037F81430143F37F8A1
:1006D000142002AF07EB8407798802AF37F82400B3
:1006E00000F098F81F480C3030F8140002A921F8E7
:1006F00024001C48203030F8140001EB84014880AD
:1007000018480C3030F81410154800881838814209
:100710000DDD1448203030F81400142807DA00F0FA
:10072000E3F804E04FF6FF7002A921F82400601CF2
:10073000C4B2B44294DB0A2000F030F8681CC5B2A1
:10074000142095FBF0F100FB115038B900BF0748A9
:10075000006880F010000549086000BF7AE70000DB
:100760002C01002418000024E2130008140402588D
:100770004FF0E021096941F004014FF0E0221161DE
:10078000054908601146096941F0010111616FF0E6
:1007900070415161704700000000002410B504460C
:1007A0004FF47A7104FB01F000F002F810BD000074
:1007B00070B5034600224FF0E02675690D4E36688D
:1007C00003FB06F44FF0E026B16910E04FF0E0269D
:1007D000B06988420BD0884202D20E1A324402E03D
:1007E0002E1A0E4432440146A24200D300E0EDE747
:1007F00000BF70BD0000002400BF054AD26902F0AE
:100800004002002AF9D0C2B2014B9A627047000040
:10081000001001402DE9FF4F85B080468946129FA8
:10082000002003900290B84507DB0798B84204DB2C
:10083000B94502DB0898B84202DA09B0BDE8F08F8A
:100840000798A0EB08040898A0EB0905CDF80480F0
:10085000CDF80090002C02DD4FF0010A06E014B93B
:100860004FF0000A02E04FF0FF3A6442002D02DD33
:100870004FF0010B06E015B94FF0000B02E04FF00E
:10088000FF3B6D42AC4201DD264600E02E460020D3
:10089000049023E0009A91B2019A90B23A46139BD9
:1008A000FFF7BCFD0398204403900298284402906F
:1008B0000398B04205DD0398801B039001985044D3
:1008C00001900298B04205DD0298801B02900098CA
:1008D000584400900498401C80B20490711C049805
:1008E0008842D7DD00BFA8E70EB54FF6FF70FFF7CF
:1008F0009AFD1F2007A11022CDE900210290064990
:100900000988183988B21346C8220021FFF790FDE4
:100910000EBD0000525354002C0100240EB50423D8
:1009200002221146F02000F099FC4FF4F070FFF71E
:100930001FFF4FF4E131782000F0C6FCFFF77DFD8A
:10094000FFF780FDFFF783FDFFF786FD2549086867
:1009500080474FF4784024A110221346CDE90021AE
:100960000290C82232211E20FFF762FD4FF478402A
:100970001FA110221346CDE900210290C822462172
:100980001E20FFF755FD4FF478401CA1102213469E
:10099000CDE900210290C8225A211E20FFF748FD10
:1009A000104890F84400FF280CD04FF4784017A16D
:1009B00010221346CDE900210290C8226E211E208C
:1009C000FFF736FD40F2DC50FFF7E8FEFFF78CFF43
:1009D000044890F8440000F0800008B1FFF72EFEB4
:1009E00000F020F81800002453544D33320000006A
:1009F000544F5543482054455354000041544F4DE3
:100A000040414C49454E54454B00000050726573BF
:100A100073204B45593020746F2041646A7573749C
:100A20000000000000254DE00020FFF71AFD0446FD
:100A300025484168002088472348808E00F4004004
:100A400008B3214880892149098888421EDA1E4856
:100A5000008C1E494988884218DA1B4881891B4846
:100A600000881838814206DD1748008C102802DA09
:100A7000FFF73AFF0AE0144A118C90894FF478424C
:100A8000FFF7F4FC02E00A20FFF788FE012C09D1F1
:100A90004FF6FF70FFF7C7FCFFF7EDFCFFF7F0FC28
:100AA000FFF722FF681CC5B2142095FBF0F100FB94
:100AB000115038B900BF0648006880F010000449A2
:100AC000086000BFB0E70000180000242C010024DB
:100AD0001404025810B5FFF72BFDFFF7DBFC0348A9
:100AE000006840F004000149086010BD9CEF00E080
:100AF000F0B504460D46002100200026CA4F3F688D
:100B000027F00407DFF820C3CCF80070C64F0C377D
:100B10003F6847F44047DFF810C30CF10C0CCCF8E9
:100B20000070C24F3F6847F00207DFF800C3CCF8FF
:100B30000070BF4F3F6847F00107DFF8F4C2CCF800
:100B4000007000BFB84F0C373F6807F40057002F04
:100B5000F8D0B64FF43F3F6847F48037DFF8CCC297
:100B6000ACF1F40CCCF8007000E0491CAF4FF43F3E
:100B70003F6807F400371FB947F6FF77B942F4D34F
:100B800047F6FF77B94201D101204BE1A74FCC3F97
:100B90003F6847F00207DFF894C2ACF1CC0CCCF808
:100BA000007067463F6847EA0517CCF800709F4F12
:100BB000C43F3F68A4F1010C47EA0C07DFF86CC2A0
:100BC000ACF1C40CCCF800706746D7F800C0571ED3
:100BD0004CEA4727DFF854C2ACF1C40CCCF80070E3
:100BE0006746D7F800C05F1E4CEA0747DFF83CC2F3
:100BF000ACF1C40CCCF8007067463F6847F08077D2
:100C0000CCF80070ACF104073F6847F00807ACF17E
:100C1000040CCCF8007067463F68CCF8007067465B
:100C20003F6847F44037CCF80070804FF43F3F688E
:100C300047F08077DFF8F4C1ACF1F40CCCF8007029
:100C4000002105E0491CB1F5001F01D3022006E098
:100C5000764FF43F3F6807F00077002FF2D000BFD7
:100C6000724FCC3F3F6847F40047DFF8C0C1ACF19A
:100C7000CC0CCCF800706D4FBC3F3F6840F2B71C05
:100C800047EA0C07DFF8A4C1ACF1BC0CCCF800704B
:100C900067463F6847F40077CCF8007067463F68C6
:100CA00047F08077CCF80070604FC83F3F68DFF8AE
:100CB0007CC1ACF1C80CCCF8007067463F68CCF83A
:100CC000007067463F6847F40027CCF8007067461D
:100CD0003F6847F40017CCF80070544FA83F3F68B6
:100CE00027F00307DFF844C1ACF1A80CCCF8007082
:100CF00067463F6847F00207CCF800704B4FF43F5F
:100D00003F6847F08067DFF824C1ACF1F40CCCF801
:100D10000070002105E0491CB1F5001F01D303203C
:100D200006E0424FF43F3F6807F00067002FF2D023
:100D300000BF3E4FDC3F3F6847F00807DFF8ECC0DC
:100D4000ACF1DC0CCCF8007067463F68CCF8007062
:100D5000364FE43F3F6847F00307DFF8D0C0ACF1FF
:100D6000E40CCCF8007000210AE0304FE43F3F680B
:100D7000C7F3C206491CB1F5001F01D3042001E0EE
:100D8000032EF2D100BF2B4F3F6847F00207DFF878
:100D9000A4C0CCF8007067463F6847F02007CCF845
:100DA0000070224FDC3F3F6847F04007DFF87CC00F
:100DB000ACF1DC0CCCF800700CF104073F6847F094
:100DC00040070CF1040CCCF8007067463F6847F40C
:100DD0008067CCF800700CF104073F6847F04007CB
:100DE0000CF1040CCCF80070104FF43F3F6847F052
:100DF0008007DFF838C0ACF1F40CCCF800700B4F72
:100E00003F6847F00207DFF824C0CCF80070084FB5
:100E10000C3F3F6847F00107DFF814C0ACF10C0C41
:100E2000CCF80070F0BD00000C480258F4440258A1
:100E30002C04005800200052F0B503460020002486
:100E4000002500BF29E0012606FA00F401EA0405A6
:100E5000A54221D1C70803F1200656F827604707AD
:100E60004FEAD76C0F2707FA0CF7BE434FEAD00CB6
:100E700003F1200747F82C60C70803F1200656F855
:100E800027604707FF0E02FA07F73E434FEAD00CF0
:100E900003F1200747F82C60401C1028D3D3F0BD85
:100EA00002461069084008B1012070470020FCE7A5
:100EB00002F001031BB183690B43836103E0836983
:100EC00043EA0143836170472DE9F0470C46DDE9B1
:100ED0000867002100258C4600BF60E04FF0010844
:100EE00008FA01F504EA050CAC4557D1D0F80080AA
:100EF0004FEA410A4FF0030909FA0AF928EA0908FA
:100F0000C0F80080D0F800804FEA410902FA09F9E0
:100F100048EA0908C0F80080012A01D0022A27D136
:100F2000D0F808804FEA410A4FF0030909FA0AF99C
:100F300028EA0908C0F80880D0F808804FEA41097B
:100F400006FA09F948EA0908C0F80880D0F80490C0
:100F50004FF0010808FA01F829EA0809C0F80490DE
:100F6000D0F8048003FA01F948EA0908C0F80480BF
:100F7000D0F80C804FEA410A4FF0030909FA0AF948
:100F800028EA0908C0F80C80D0F80C804FEA410923
:100F900007FA09F948EA0908C0F80C80491C102929
:100FA0009CD3BDE8F08700002DE9F0410746884654
:100FB00014461D46284600F033F8C5F1040007FA30
:100FC00000F60F20284100EA0800064306F00F064D
:100FD000E21704EBD2625211920002F1E022D2F841
:100FE00000212146E31704EBD3635B11A4EB431C00
:100FF000012303FA0CF31A432046E31704EBD363EF
:101000005B119B0003F1E023C3F800210348005D5E
:1010100040EA061001490855BDE8F08100E400E00F
:101020000146072323EA01021202054B18684FF616
:10103000FF031840034B18431043014B18607047DF
:101040000CED00E00000FA054A0A52020243014B8F
:101050001A60704708ED00E03CB505460024724870
:10106000006840F00200704908600846006840F0DF
:10107000080008600846006840F0100008606A48F0
:101080000C38006840F4804067490C390860012042
:10109000032100230222CDE9001004216348FFF759
:1010A00013FF0120032100230222CDE9001040217B
:1010B0005E48FFF709FF0120032100230222CDE94A
:1010C00000104FF460515A48FFF7FEFE0120032143
:1010D00000230222CDE9001004215648FFF7F4FE58
:1010E000092204215148FFF7A7FE0A2240214F4858
:1010F000FFF7A2FE09224FF400614D48FFF79CFE66
:1011000009224FF480514A48FFF796FE09224FF416
:1011100000514748FFF790FE092204214548FFF798
:101120008BFE41486438006840F480403E49643991
:1011300008600846006820F48040086000BF3E4810
:10114000806800F020000028F9D137489438006802
:1011500020F030003449943908600846006840F0B7
:101160002000086035483449086035484860084622
:10117000006840F00100086000BF2F48806800F060
:1011800020000028F9D14FF483702B49486100BF3B
:101190002948806800F002000028F9D02648C0687D
:1011A00040F002002449C86000BF2348806800F076
:1011B00020000028F9D12049C861EB2444F4807450
:1011C00044F44064A81C44EA003444F4404400BFA2
:1011D00044F4801444F0407444F040640846446190
:1011E0001848006820F480301649086015487030AF
:1011F000006820F001001349703108600020091DCB
:1012000008604FF01040091D08600F48091D086074
:1012100005200C49703108600A48006840F48030AD
:10122000084908603CBD0000E04402580004025830
:10123000000C025800100258005000521003000128
:101240000102180024ED00E02D00030301480249CB
:10125000086070470400FA050CED00E02DE9F0414C
:1012600004460D4616461F46012015490860002019
:10127000134910310860124918310860091D0860CF
:10128000091D08600E4928310860091D08600C49D5
:101290006031086001200B4908603B463246294610
:1012A0002046FFF725FC0020FFF7D6FEFFF712FCD3
:1012B00000214FF00060FFF7C7FEBDE8F08100009D
:1012C00000440258088100517CB506460C4600BF18
:1012D0003248006840F001003049086000BF00BF9C
:1012E0000846006840F00100086000BF00BF2B48BE
:1012F0001030006840F0100028491031086000BF2D
:101300000120009000230222410201902448FFF7AF
:10131000DBFD012000900023022281020190204881
:10132000FFF7D2FD07224FF400711D48FFF784FD3F
:1013300007224FF480611A48FFF77EFD1948704379
:1013400000EB5400B0FBF4F51748C56000201649C7
:10135000086008460068086008460068086008469B
:10136000006808600846006840F008000860084609
:10137000006840F0040008600846006840F0200063
:1013800008600223252203210846FFF70DFE0648C8
:10139000006840F00100044908607CBDE044025848
:1013A0000000025840420F000010014010B5002913
:1013B0000AD00878002807D005487844FFF765F878
:1013C000002801D0002010BD0248784410BD000064
:1013D0005E000000560000004FF04070E1EE100A81
:1013E000704700F8E0071F0040BCE0FF1FF8FF0750
:1013F0007C7D07FC308400003414000800000024C9
:1014000064000000D402000898140008640000245E
:101410003C090000F00200081C000000430000002E
:10142000F8FFFFFF0C0000000E0000000F0000009E
:101430002E0000000000000000000000000000007E
:1014400000F80000FFFF000001000000C9610090EB
:10145000ED650090E55B00900000000000000000DA
:10146000000000000000000000000000000000007C
:10147000000000000000000000000000000000006C
:10148000000000000000000000000000000000005C
:0814900000000000000500004F
:0200000490006A
:10000000662906F0B383642900F05280782900F055
:100010008B80732900F01B84002070470FB40449C3
:1000200010B503AA029800F017FC10BC5DF814FB91
:10003000040000240FB41CB5074B06AA7B44694694
:100040000090059800F0D9FB0020694600F0E8FB1D
:100050001CBC5DF814FB0000E107000070B50C4605
:100060000546012A05D02878800600D5EA690023D4
:1000700002E0012305E05B1C934202D2E05C002811
:10008000F9D1A869E618C01AA861286A184428623C
:100090002846AFF3008004E0D5E9012114F8010BF4
:1000A0009047B442F8D32846AFF3008070BD0000FB
:1000B0002DE9F0410646002410687529314616A541
:1000C00010D0AFF30080002802DA404213A507E009
:1000D00031688A0701D512A502E0490704D511A5A8
:1000E000012401E0AFF3008000210A2206F1240779
:1000F00009E0B0FBF2FCB0FBF2F302FB1C00303075
:1001000078541846491C0028F3D123462A46304625
:10011000BDE8F04100F004B9000000002D0000002F
:100120002B0000002000000070B504460D4621465B
:100130001068AFF300802188090502D50F4A7A4480
:1001400002E00E4A7A440E32002104F1240305E055
:1001500000F00F060009965D5E54491C0028F7D197
:1001600020780023000704D5702D02D009B10223A6
:1001700011322046BDE8704000F0D2B890AD0000CA
:100180002DE9F05F894604464FF0000ADFF824B1FC
:10019000FB44C0F820A02046E168884700287DD0B5
:1001A000252806D0D4E901219047206A401C20620E
:1001B000F1E700255F462046E1688847202806468B
:1001C00007DB312E05D2B81910F8200C08B1054311
:1001D000F1E7A80701D525F00405C4F81CA0002705
:1001E000C4F818A02A2E09D0304601F07BF838B3A5
:1001F00004EB8708303EC8F8186019E059F8041B72
:10020000204604EB87029161E1688847012F06468A
:1002100018D1E069002820DA25F020051DE0D8F883
:10022000180000EB800006EB40003038C8F81800DA
:100230002046E1688847064601F054F80028EED1D0
:10024000012F0AD02E2E08D12046E16888477F1C56
:100250000646022F45F02005C4DBA069002803DA1A
:10026000404245F00105A061E80701D025F01005E6
:10027000A6B1A6F14100192802D8203645F4006540
:100280004A463146204625604D46FFF7B9FE60B12B
:10029000012807D0ED1D25F0070000E007E000F180
:1002A000080978E705F1040975E730467AE7206A1E
:1002B000BDE8F09F66AD00004FF0013C50F8042B04
:1002C00051F8043B9A4215D1A2EB0C03934313EA75
:1002D000CC130BD150F8042B51F8043B9A4209D1AE
:1002E000A2EB0C03934313EACC13E7D04FF00000CA
:1002F000704700BFD01A01BAB1FA81F101F01801BC
:1003000022FA01F0CB40C1F12001DBB2C0B2C01A29
:100310002CFA01F3D11A914311EAC311E6D17047C7
:100320002DE9F0470D4699469246044600F124080F
:100330000168880604D5E06921F01001216000E021
:100340000120A84201DD471B00E00027A1697A19BE
:1003500002EB0900081AA0612078C00602D42046EA
:10036000AFF30080002608E0D4E901211AF8060066
:100370009047206A401C761C20624E45F4DB2078B2
:10038000C0060AD52046AFF3008006E0D4E901217B
:1003900030209047206A401C2062381EA7F10107D8
:1003A000F4DC07E0D4E9012118F805009047206A41
:1003B000401C2062281EA5F10105F3DC2046AFF3A6
:1003C00000802078000602D50220BDE8F0870120D9
:1003D000FBE770472DE9FF4F0C461E464FF0FF37F5
:1003E0008BB0D2E90001DDF860800A908A46C1F343
:1003F0000A5505B93D46002108464FF00000BAF104
:10040000000F00F4400005DA00EB80004FF44001DB
:1004100001EA50004FEA9059B9F1010F00DDB946E9
:100420000A9850EA4A000ED044F61050A5F2FF3563
:1004300045432F14B8F1000F1ED07542291E1EDD52
:10044000C9F100021CE0B8F1010F4FF0000001D02B
:10045000302103E0F24305E02154401CB042FBDBB5
:1004600030460022002121540B99C1F80880C1E9CF
:1004700000200FB0BDE8F08FBD1B6D1CDEE74A46C3
:1004800000DA694206A800F07FFA06AB93E807009D
:1004900003AB83E8070050460A9900F0EBFA8DE8B9
:1004A0000700A0F500501F3800900398002D0ADDCA
:1004B00042F21F014A460844002303A903906846FC
:1004C00000F054FD09E0A0F500504A461F38002313
:1004D00003A90390684600F05EFD8DE80700000464
:1004E000000C03D04FF0FF30410800E01046B8F197
:1004F000000F03D00022009215461EE0751E05D4A1
:1005000000F0BCF9303262556D1EF9D5B3460122B8
:10051000084302D000227F1C04E02078302801D15B
:1005200000227F1E002A099784D01DE0112D07DAD2
:1005300000F0A4F9303262556D1C50EA0102F5D189
:10054000084302D00098C8B10EE00021681E05E003
:10055000235C625C63542254401E491C8142F7DBD9
:10056000AB46A81B401E0990002004F80B000B9816
:10057000099AC0F80880C0E9002B7AE711264FF0ED
:10058000000857E72DE9F04F88460446D21D22F0B7
:10059000070191B0D1E90001CDE90A0100F08AFE1E
:1005A00002460B98C00F01D02D2007E0206881077C
:1005B00001D52B2002E0202101EAC000032A099086
:1005C00001D0072A05DB03464146204600F09CF98E
:1005D0000BE12078800601D5E06900E00620B8F143
:1005E000650F814606D0B8F1660F18D0B8F1670FD5
:1005F00070D131E00020B9F1110F009001DB11231F
:1006000001E009F101030AAA01A90CA8FFF7E2FE23
:10061000DDE90C70002609F10105834647E0012061
:100620004B4600904FF000470AAA01A90CA8FFF71B
:10063000D1FEDDE90DB00C995D46002610B909F137
:1006400001000D18B9EB050003D4C0F1FF3609F124
:100650000105A5EB09002BE0B9F1010F01DA4FF01C
:1006600001090020B9F1110F0090484601DD112366
:1006700000E003460AAA01A90CA8FFF7ABFEDDE9DA
:100680000C704D4600268346207800070AD4AB45FF
:1006900000DA5D4601A8012D04DD411911F8011CA5
:1006A000302907D04F4502DA17F1040F04DA012090
:1006B00082460FE06D1EEEE7002F02DCED1B3E448C
:1006C00003E0781CA84200DD7D1CB81B00F1010A84
:1006D0004FF000472078000703D4AA4501DB4FF014
:1006E000FF3A0021B7F1004F0DF143088DF8431098
:1006F00024D002202B23002F01DA7F422D230A2150
:10070000021EA0F1010000DC5FB197FBF1FC97FB3A
:10071000F1F201FB1C7C17460CF1300C08F801CDFE
:10072000EEE7A8F1010003702188090501D54521F4
:1007300000E06521A0F1010800F8011C09980FA94B
:10074000A1EB0807FF1D00B10120411901EBEA7080
:10075000A1693844081A401EA0612078C00602D45E
:100760002046AFF30080099828B1D4E901219047D1
:10077000206A401C20622078C00622D52046AFF3B4
:1007800000801EE0002E04DBB34502DD01A8805D81
:1007900000E03020D4E901219047206A401C20620B
:1007A000761CAAF101005FEA000A0AD100F02AFDD6
:1007B000C0680168405CD4E901219047206A401C70
:1007C0002062281EA5F10105DCDC07E0D4E9012147
:1007D00018F8010B9047206A401C2062381EA7F1D0
:1007E0000107F3DC2046AFF30080032011B041E69F
:1007F00001694A1C02610878704700B58FB0CDE9E5
:1008000001310021059105497944CDE903101146D4
:100810006846FFF7B5FC0FB000BD0000E5FFFFFF25
:100820000A6802F8010B0A60704710B5436913B1FA
:10083000AFF3008001E0FFF711FC012010BD12783A
:1008400000F124010A7000224A700122EDE71168CC
:100850004FF0FF32E9E70000074B70B50D467B44CF
:10086000FFF7CBFF0446284600F000F910B14FF027
:10087000FF3070BD204670BD97FFFF7730B5B0F1F7
:100880000A024FEA900E71F100034EEA817EB0EB4E
:100890000E0061EB91014FEA101E4EEA017E10EB53
:1008A0000E0041EB11114FEA102E4EEA016E10EBD3
:1008B0000E0041EB11214FEA104E4EEA014E10EBB3
:1008C0000E0041EB1141401841F100014FEAD00008
:1008D00040EA41704FEAD10110EB80054FEA8104F4
:1008E00044EA907444EB01046D1944EB0404521B78
:1008F000A3414FF0000348BF0A3200D530BD401C71
:1009000041F1000130BD00002DE9F0411F460446D1
:1009100003260168072A01F4006004DB08B116A56C
:1009200005E016A503E008B115A500E015A521F026
:1009300010002060A069C01EA0610FB1401EA06120
:100940002046AFF300804FB1D4E9012138469047EB
:10095000206A401C2062C01C206206E0206AFAE780
:10096000D4E9012115F8010B9047761EF8D22046F4
:10097000AFF30080BDE8F0814E414E006E616E0025
:10098000494E4600696E66002DE9F04781461646DD
:100990008AB0354878440DC88DE80D003248784457
:1009A000801C03AC0DC884E80D0041F69B30084460
:1009B000372190FBF1F290FBF1F5A5F1800501FBE9
:1009C00012041B3C02D56442012000E00020DFF845
:1009D00098A080460027FA44AAF1BE0A0EE0E0077C
:1009E0000AD03246684607EB470101230AEB810132
:1009F00000F0D1FA8DE8070064107F1C002CEED1C6
:100A0000194F7F44AE3F19E0E80715D007EB0410FB
:100A10000DF1180A90E80E008AE80E00C068F04256
:100A200001D1981908903246012306A903A800F0C5
:100A3000B2FA03AB83E807006D10641C002DE3D10C
:100A40004FF0010332466946B8F1000F03A802D007
:100A500000F08CFA01E000F09EFAC9E90001C9F843
:100A600008200AB0BDE8F087F0A50000007B00F088
:100A7000800070475FEA400C08BF91F0000F4FEA1A
:100A80008C234FEAC12243EA51514FEA1C5018BF50
:100A900000F5F0404FEA300018BF41F000415FEA36
:100AA0006C5C00F02980BCF1FF3F08BF40F0804043
:100AB0007047130C06BF12044FF0100C4FF0000CDF
:100AC000130E04BF12020CF1080C130F04BF120125
:100AD0000CF1040C930F04BF92000CF1020CD30F25
:100AE00004BF52000CF1010C11464FF00002A0F1BE
:100AF0001F00A0EB0C00704711F0004F08BF7047BB
:100B000031F000413FF4D5AF0B0C06BF09044FF0A4
:100B1000100C4FF0000C0B0E04BF09020CF1080C76
:100B20000B0F04BF09010CF1040C8B0F04BF8900EB
:100B30000CF1020CCB0F04BF49000CF1010CCCF1FD
:100B40002003A0EB0C0022FA03F302FA0CF241EAB4
:100B5000030100F10100704720F07F4C80EA0300A0
:100B600023F07F47ACEB070303F57C5300F0004014
:100B700003F1FF032DE980494FEA154B09B44FEA11
:100B8000144325EA0B4E24EA03480FF2042606EB31
:100B9000132749083E785FEA320203FB0667C7F570
:100BA000000707FB06F64FEA54374FEAD64606F130
:100BB000020607FB066CCCF1005C4FEA1C472CEAEE
:100BC000074C07FB06F40CFB06F504EB15464FEA51
:100BD000961634BF00204FF000404FEAD13706FB95
:100BE00007FC4FEA1C4C0CFB0BF7D21B03FB0CF76A
:100BF00061EB07010CFB0EF7B0EB074072EB1742FD
:100C00000CFB08F734BFA2EB0742B2EB074261EBE3
:100C100017414FEA0C444FEA910706FB07FC4FEAE5
:100C20001C4C0CFB0BF7B0EBC74072EB573203FBCD
:100C30000CF734BFA2EBC742B2EBC74261EB5731AE
:100C40000CFB0EF7B0EBC70072EB57720CFB08F70A
:100C500034BFA2EBC702B2EBC70261EB5771039F2F
:100C60004FEA816141EA921104EBCC044FEAD1379B
:100C70004FEA826206FB07FC42EA90124FEA80606C
:100C80004FEA1C4C0CFB0BF7D21B03FB0CF761EB80
:100C900007010CFB0EF7B0EB074072EB17420CFBA1
:100CA00008F734BFA2EB0742B2EB074261EB1741F2
:100CB0004FEA8C554FEA910704EB9C2406FB07FC96
:100CC0004FEA1C4C0CFB0BF7B0EBC74072EB5732F2
:100CD00003FB0CF734BFA2EBC742B2EBC74261EB98
:100CE00057310CFB0EF7B0EBC70072EB57720CFBE1
:100CF00008F734BFA2EBC702B2EBC70261EB577132
:100D000015EB4C254FEA816141EA92114FEA82626C
:100D10004FEAD13742EA901206FB07FC44F1000487
:100D20004FEA80604FEA1C4C0CFB0BF7D21B03FB15
:100D30000CF761EB07010CFB0EF7B0EB074072EB11
:100D400017420CFB08F734BFA2EB0742B2EB074295
:100D500061EB174115EB1C154FEA813141EA9241D5
:100D60004FEA823242EA90424FEA80304FEA0C76F4
:100D700044F1000448EA03434EEA0B484FF0000EEA
:100D8000B2EB080C71EB030724BF624639464EEB09
:100D90000E0E4FF0000B0018524149414BEB0B0B6C
:100DA000B2EB080C71EB03077BF1000B24BF62462A
:100DB00039464EEB0E0E4FF0000B001852414941E0
:100DC0004BEB0B0BB2EB080C71EB03077BF1000B49
:100DD00024BF624639464EEB0E0E51EA020718BF99
:100DE00046F0010616EB0E7655F1000254F10001B3
:100DF00003D5BDE88901BDE80088BDE88901BDE8EB
:100E00000048B619524141EB0101A3F101037047BB
:100E100080807F7E7D7C7B7A797877767675747337
:100E2000727171706F6E6E6D6C6C6B6A6A696868F6
:100E3000676666656464636362616160605F5F5E8C
:100E40005E5D5D5C5C5B5B5A5A5959585857575602
:100E50005655555554545353525252515150505067
:100E60004F4F4F4E4E4D4D4D4C4C4C4B4B4B4A4AB9
:100E70004A494949484848474747474646464545FD
:100E80004544444444434343434242424241414136
:100E9000002B9C4630D477002BD01CB54FEA370787
:100EA00003B44FF010004FF01001BAF1000F06D05C
:100EB000BCF1000FDCBF40F0080040F008014FF02B
:100EC00000000FBCBDE810400BF1010BBBF1010F9E
:100ED00008BF5FEA170722BF12F1010211F10101F9
:100EE0004FF0004143F1000300F0004043EA0000EE
:100EF0007047F9D35708D0E746EA064613F1400F8A
:100F00004FEA16461FDD13F1200FDFBF16430A46D6
:100F1000002120335B42BED0C3F1200746EA0646DB
:100F200002FA07F74FEA164646EA0706C3F120071A
:100F300022FA03F201FA07F721FA03F14FF0000356
:100F400042EA0702A7E746EA020646EA06464FEAF1
:100F5000164646EA0106BCBF46EA0646360C4FF086
:100F600000034FF000024FF0000194E72DE9804CA0
:100F70009A46934670B491E8380007C831EA400CAD
:100F800048BF34EA430C03D5FFF7E6FDFFF780FFC7
:100F9000F0BCBDE8008C2DE9804C9A46934670B4B5
:100FA00091E8380007C810F0804F08BF13F0804F59
:100FB00003D100F005F8FFF76BFFF0BCBDE8008C33
:100FC00020F07F4780EA030023F07F4C07EB0C03FF
:100FD000A3F57C5300F00040A3F1FE0392F0000F54
:100FE00000F0B38095F0000F00F077802DE9014903
:100FF0004FEA11404FEA144621EA004800FB06FC84
:1010000024EA064708FB06F607FB08F800FB07F78B
:1010100018EB06484CEB164C4FEA124B18EB0748FE
:101020004FEA15464CEB174022EA0B4E0BFB06FC31
:1010300025EA06470EFB06F607FB0EFE0BFB07F73D
:101040001EEB064E4CEB164C4FF000061EEB074E07
:101050004CEB174B18EB0B0840F1000018EB0E0B94
:1010600058EB000840F100008F1A4FF000013CBF20
:10107000C943661B14BFB5EB040C00213CBFC94338
:10108000F61B4FEA17444EEA8E0E27EA04454FEA54
:101090001C4704FB07622CEA074C05FB07F70CFB17
:1010A00005F604FB0CFC16EB074642EB174216EB69
:1010B0000C4642EB1C421BEB060658EB0202414178
:1010C00046EA9E0601D5BDE80189B619524141EBB9
:1010D0000101A3F10103BDE801894FEA14454FEA7C
:1010E000114724EA054621EA074C05FB07F406FBF5
:1010F00007F70CFB06F105FB0CFC11EB074144EB79
:1011000017444FEA124711EB0C4144EB1C4422EA0E
:10111000074C05FB07F206FB07F70CFB06F605FB81
:101120000CFC16EB074642EB174216EB0C4642EB63
:101130001C456A1854F1000148BF7047B619524166
:1011400041EB0101A3F10103704795F0000F37D087
:101150004FEA11424FEA144721EA024624EA074CBB
:1011600002FB07F106FB07F70CFB06F402FB0CFC85
:1011700014EB074441EB17414FEA154714EB0C44BD
:1011800041EB1C4125EA074C02FB07F506FB07F77C
:101190000CFB06F602FB0CFC16EB074645EB17456D
:1011A00016EB0C4645EB1C42121951F1000148BFE9
:1011B0007047B619524141EB0101A3F10103704799
:1011C0004FEA14454FEA114724EA054621EA074C45
:1011D00005FB07F106FB07F70CFB06F24FF00006D4
:1011E00005FB0CFC12EB074241EB174112EB0C42E2
:1011F00051EB1C4148BF7047921841EB0101A3F12C
:101200000103704740F2B13CC0F6000C604740F665
:10121000B16CC0F6000C604740F29D7CC0F6000C3B
:10122000604741F24D2CC0F6000C604740F2B17CA3
:10123000C0F6000C604740F6C96CC0F6000C604771
:1012400040F6A16CC0F6000C604740F6396CC0F661
:10125000000C604710B5002240210A48FFF7D7FF75
:1012600009A0FEF7DBFE4FF47A70FFF7D5FF0CA064
:10127000FEF7D4FE4FF47A70FFF7CEFFFFF7D1FFF1
:1012800010BD0000001002584D656D20416363657C
:101290007373204572726F7221210D0A00000000E5
:1012A000536F6674205265736574696E672E2E2EB7
:1012B0000D0A000003B401984100009850EAC120D3
:1012C00018BF04204A0D18BF40F0010040F2FF7221
:1012D000B2EB515F08BF40F00200012808BF0520B3
:1012E00002B0704730380A2801D201207047002030
:1012F000704710B500F0E0FD10BD70B505460C4616
:10130000164606E028466A1C95B200F008F804F874
:10131000010B301EA6F101018EB2F3D170BD70B584
:101320000446002600F060FE2112A02202EB4101DB
:10133000C8B200F031FE00F091FE2546E11704EB43
:1013400011610912A4EB0121C8B200F025FE00F0E2
:1013500085FE00F049FEA12000F01EFE00F07EFE9A
:10136000002000F0EDFD064600F05EFE304670BD48
:1013700070B505460C46164606E02178284600F072
:1013800009F8681C85B2641C301EA6F101018EB2FA
:10139000F3D170BD70B504460E4600F025FE211253
:1013A000A02202EB4101C8B200F0F6FD00F056FEAB
:1013B0002546E11704EB11610912A4EB0121C8B223
:1013C00000F0EAFD00F04AFE304600F0E5FD00F0D6
:1013D00045FE00F029FE0A20FFF71EFF70BD000049
:1013E00010B5002208210D48FFF711FF00F018F892
:1013F000012211460948FFF70AFF00F011F8002208
:1014000001210648FFF703FF00F00AF80122082136
:101410000248FFF7FCFE00F003F810BD000402587C
:1014200010B50220FFF702FF10BD00001CB500BF81
:101430001148006840F002000F49086000BF00BF7B
:101440000846006840F00200086000BF01200090DC
:1014500000230246014601900848FFF7ECFE0120F8
:10146000009003460246082101900448FFF7E3FE7E
:1014700000F08EF81CBD0000E04402580004025841
:1014800010B5012208210A48FFF7C1FEFFF7C8FF87
:10149000012211460648FFF7BAFEFFF7C1FF0022FE
:1014A00001210348FFF7B3FEFFF7BAFF10BD0000AC
:1014B0000004025870B505460024002618E06006B6
:1014C000040E012211460F48FFF7A1FEFFF7A8FF07
:1014D00008210C48FFF7B4FE08B1601CC4B200221A
:1014E00001210848FFF793FEFFF79AFF701CC6B270
:1014F000082EE4DB15B9FFF7C3FF01E0FFF770FF2B
:10150000204670BD0004025870B50446002516E060
:10151000E20908210E48FFF77AFEFFF781FF01225A
:1015200011460B48FFF773FEFFF77AFF00220121F7
:101530000748FFF76CFE6006040E681CC5B2082D54
:10154000E6DB012208210248FFF761FE70BD0000C2
:101550000004025810B5012208210C48FFF757FE7D
:10156000012211460948FFF752FEFFF759FF0022FA
:1015700008210648FFF74BFEFFF752FF002201212A
:101580000248FFF744FEFFF74BFF10BD000402586E
:1015900010B5002208210A48FFF739FEFFF740FF87
:1015A000012211460648FFF732FEFFF739FF0122FC
:1015B00008210348FFF72BFEFFF732FF10BD0000A4
:1015C0000004025870B500240025012208211348A8
:1015D000FFF71DFEFFF724FF012211460F48FFF71A
:1015E00016FEFFF71DFF09E0601CC4B2FA2C03DDF4
:1015F000FFF7CEFF012507E0FFF712FF082107489C
:10160000FFF71EFE0028EFD100BF00220121034892
:10161000FFF7FDFDFFF704FF284670BD00040258E8
:101620000EB500BF3A48006840F004003849086031
:1016300000BF00BF0846006840F00200086000BF1D
:101640000120009000230246202101903148FFF73D
:10165000F2FD0120009000231A46022101902E483D
:10166000FFF7E9FDFFF7E2FE002220212948FFF7FE
:10167000CEFD1420FFF7D0FD012220212548FFF7E1
:10168000C6FD3220FFF7C8FD00208DF808000122BA
:1016900002A900F047F9012202A9A42000F042F9B2
:1016A00016208DF80800012202A9802000F03AF9E6
:1016B0000C208DF80800012202A9882000F032F9E0
:1016C000022202A9A12000F02FF89DF8080030287E
:1016D00003D19DF8090003280DD09DF809000128C9
:1016E00009D09DF80900022805D09DF8080068B9C6
:1016F0009DF8090050B99DF809009DF8082000EBFD
:10170000022106A0FEF78AFC00200EBD0120FCE7A6
:10171000E044025800080258000402584354502084
:1017200049443A25780D0A002DE9F04106460F4656
:101730001546FFF70FFF7020FFF7E6FEFFF742FFA9
:10174000F0B2FFF7E1FEFFF73DFFFFF703FF712067
:10175000FFF7DAFEFFF736FF00240BE0691EA14217
:1017600001D0012100E000210846FFF7A3FE385513
:10177000601CC4B2AC42F1DBFFF70AFFBDE8F081A8
:101780002DE9FC4107460020019000240026614815
:101790000078401C5F490870084600780A2190FBD9
:1017A000F1F201FB120018B15A4800780A2867DAF2
:1017B000012201A90220FFF7B7FF9DF8040000F005
:1017C0000F0000285CD09DF8040000F00F000628F0
:1017D0007BDA9DF8040000F00F014FF6FF7088409F
:1017E00085B2E84380B240F440404B4988860420EB
:1017F000FFF712FD00245AE04748808E0121A140E6
:101800000840E0B3454931F8140004226946FFF767
:101810008BFF414890F8440000F00100C0B19DF8F2
:1018200001009DF8001001F00F0100EB01203A4982
:10183000203121F814009DF803009DF8021001F0FA
:101840000F0100EB012134480C3020F814101EE089
:101850009DF801009DF8001001F00F0100EB012040
:101860002F490988081A81B22B480C3020F814102F
:101870009DF803009DF8021001F00F0101E014E053
:1018800023E000EB01202449203121F814009DF8C9
:10189000000000F0F000802807D000211E48203012
:1018A00020F81410143820F81410601CC4B2052C51
:1018B000A2DB01261848808920B91748008C08B996
:1018C000002001900020134908709DF8040000F0EA
:1018D0001F00A8B91048808E00F4004030B10E48B7
:1018E000808E20F400400C49888609E04FF6FF7096
:1018F0000949888108840846808E00F46040888603
:1019000004480078F02802DD0A20024908703046B9
:10191000BDE8FC816000002418000024B4AE0090F3
:101920002C0100242DE9F04105460E4617464FF0E4
:101930000008FFF70FFE7020FFF7E6FDFFF742FEFD
:10194000E8B2FFF7E1FDFFF73DFE00240BE0305D5C
:10195000FFF7DAFDFFF736FE8046B8F1000F00D042
:1019600003E0601CC4B2BC42F1DB00BFFFF710FE15
:101970004046BDE8F08100001FB500BF4048006848
:1019800040F004003E49086000BF00BF0846006800
:1019900040F00200086000BF0120009000230246D2
:1019A000202101903748FFF746FC012000900023DA
:1019B0001A46022101903448FFF73DFCFFF736FD3F
:1019C000002220212F48FFF722FC0A20FFF724FCE9
:1019D000012220212B48FFF71AFC0A20FFF71CFCEC
:1019E0000020012103460246CDE9001002212648CD
:1019F000FFF721FC6420FFF70FFC042202A948F244
:101A0000401000F059F800208DF80C001FA102A82A
:101A1000FEF752FC70B11EA102A8FEF74DFC48B1C2
:101A20001DA102A8FEF748FC20B11DA102A8FEF7E7
:101A300043FC10B9012004B010BD02A91AA0FEF7A2
:101A4000EDFA17A102A8FEF737FC10B90A201949D0
:101A5000087002208DF80800012202A948F2400017
:101A600000F0D4F90A20FFF7D7FB00208DF808001A
:101A7000012202A948F2400000F0C8F90020DAE78C
:101A8000E04402580008025800040258393131007D
:101A900039313437000000003131353800000000A2
:101AA00039323731000000004354502049443A2570
:101AB000730D0A00610000242DE9F04105460F4630
:101AC0001646FFF747FD2820FFF71EFDFFF77AFDBA
:101AD0002812FFF719FDFFF775FDE8B2FFF714FDB7
:101AE000FFF770FDFFF736FD2920FFF70DFDFFF72B
:101AF00069FD00240BE0711EA14201D0012100E02C
:101B000000210846FFF7D6FC3855601CC4B2B44229
:101B1000F1DBFFF73DFDBDE8F081000071B583B05A
:101B2000002001900026B4480078401CB24908709B
:101B3000084601780A2091FBF0F200FB121018B160
:101B4000AD4800780A287DDA012203A948F24E1038
:101B5000FFF7B2FF9DF80C0000F0800078B19DF80F
:101B60000C0000F00F00A5490978884207DC00202E
:101B70000190012201A948F24E1000F047F99DF8AA
:101B80000C0000F00F0000285CD09DF80C0000F065
:101B90000F009A490978884254DC9DF80C0000F047
:101BA0000F014FF6FF70884084B29548858EE04360
:101BB00080B240F4404092498886084682898F4826
:101BC0000078401E0C3121F810208D48028C8B4883
:101BD0000078401E143121F8102000200190A7E069
:101BE0008748808E9DF804200121914008400028FC
:101BF0003FD084499DF8042031F81200042202A944
:101C0000FFF75AFF8048808845F2105188420BD078
:101C10007D48808849F60601884205D07A48808848
:101C200047F29671884240D1754890F8440000F020
:101C30000100F8B19DF80A009DF80B1000EB01209F
:101C4000714900E0B2E00988081A81B26C480C3092
:101C50009DF8042020F812109DF808009DF8091046
:101C600000EB012081B2664820309DF8042020F866
:101C7000121058E09DF808009DF8091000EB0120B3
:101C800081B25F480C309DF8042020F812109DF8B6
:101C90000A009DF80B1000EB012081B2584820305B
:101CA0009DF8042020F812103DE0554890F84400BB
:101CB00000F00100D0B19DF808009DF8091000EB7C
:101CC000012081B24E480C309DF8042020F81210FB
:101CD0009DF80A009DF80B1000EB012081B24848E6
:101CE00020309DF8042020F812101CE09DF80A0016
:101CF0009DF80B1000EB012043490988081A81B2B6
:101D00003F480C309DF8042020F812109DF8080080
:101D10009DF8091000EB012081B2394820309DF870
:101D2000042020F812109DF80400401CC0B201905D
:101D30009DF80400314909788842FFF651AF012629
:101D40002F48808930490988884205DC2C48008C5E
:101D50002D494988884226DD9DF80C0000F00F00CF
:101D600001280ADD2648C089254988810846408C1B
:101D7000088400202049087018E020480078401EA0
:101D80001F490C3131F810000C3988811B4800784C
:101D9000401E203131F81000203908848020039043
:101DA0000846858602E00020134908709DF80C0063
:101DB00000F08F00802815D11148808E00F400407B
:101DC00030B10F48808E20F400400D49888609E02C
:101DD0004FF6FF700A49888108840846808E00F417
:101DE0006040888604480078F02802DD0A20024915
:101DF0000870304604B070BD620000246100002409
:101E000018000024BEAE00902C0100242DE9F04102
:101E100004460E4617464FF00008FFF79BFB2820AC
:101E2000FFF772FBFFF7CEFB2012FFF76DFBFFF70A
:101E3000C9FBE0B2FFF768FBFFF7C4FB00250BE02E
:101E4000705DFFF761FBFFF7BDFB8046B8F1000F47
:101E500000D003E0681CC5B2BD42F1DB00BFFFF754
:101E600097FB4046BDE8F08110B500224FF40061B9
:101E70000D48FFF7CCF900F019F8012291020A4849
:101E8000FFF7C5F900F012F800224FF48061064810
:101E9000FFF7BDF900F00AF80122D1020248FFF76E
:101EA000B6F900F003F810BD0004025810B5022086
:101EB000FFF7BCF910BD00001CB500BF1148006859
:101EC00040F002000F49086000BF00BF08460068EC
:101ED00040F00200086000BF01200090002302468D
:101EE000810201900848FFF7A6F9012000900346FF
:101EF0000246C10201900448FFF79DF900F094F8F2
:101F00001CBD0000E04402580004025810B5012234
:101F1000D1020A48FFF77BF9FFF7C8FF01229102BF
:101F20000648FFF774F9FFF7C1FF00224FF4806104
:101F30000248FFF76CF9FFF7B9FF10BD0004025823
:101F400070B50546002400261AE06006040E012242
:101F500091021048FFF75BF9FFF7A8FF4FF400610B
:101F60000C48FFF76DF908B1601CC4B200224FF4B1
:101F700080610848FFF74BF9FFF798FF701CC6B265
:101F8000082EE2DB15B9FFF7C1FF01E0FFF76CFF98
:101F9000204670BD0004025870B50446002518E0C4
:101FA000E2094FF400610F48FFF731F9FFF77EFFB8
:101FB000012291020B48FFF72AF9FFF777FF002271
:101FC0004FF480610748FFF722F96006040E681C91
:101FD000C5B2082DE4DB0122D1020248FFF717F950
:101FE00070BD00000004025810B50122D1020D4856
:101FF000FFF70DF9012291020A48FFF708F9FFF7F0
:1020000055FF00224FF400610648FFF700F9FFF783
:102010004DFF00224FF480610248FFF7F8F8FFF708
:1020200045FF10BD0004025810B500224FF40061B6
:102030000948FFF7ECF8FFF739FF01229102064843
:10204000FFF7E5F8FFF732FF0122D1020248FFF760
:10205000DEF8FFF72BFF10BD0004025870B5002416
:1020600000250122D1021348FFF7D1F8FFF71EFF28
:10207000012291020F48FFF7CAF8FFF717FF07E0A8
:10208000601CC4B2FA2C03DDFFF7CEFF012506E089
:102090004FF400610748FFF7D3F80028F0D100BFE4
:1020A00000224FF480610348FFF7B1F8FFF7FEFE0E
:1020B000284670BD000402581CB500BF18480068CF
:1020C00040F001001649086000BF00BF08460068E4
:1020D00040F00100086000BF00BF0846006840F003
:1020E0000100086000BF0120009000231A46022171
:1020F00001900C48FFF79FF80120009000231A463A
:10210000C10301900748FFF796F802200121002340
:102110001A46CDE900100348FFF78DF81CBD0000FA
:10212000E04402580000025870B50446002514B17E
:102130000120234908702248007858B30221214821
:10214000FFF77EF858B14FF400411E48FFF778F8CA
:1021500028B101211B48FFF773F801281AD10A2082
:10216000FFF75AF800201649087002211548FFF7BA
:1021700067F800B901254FF400411248FFF760F8F5
:1021800000B9022501210F48FFF75AF8012815D19F
:10219000032513E002210B48FFF752F801280DD167
:1021A000C1030848FFF74CF8012807D10121054871
:1021B000FFF746F810B9012001490870284670BDA4
:1021C000140000240000025870B504460026094897
:1021D0000588408845430021084603F03DFA03F096
:1021E000E1FB00BF02E004480480761CAE42FAD353
:1021F00070BD00002C0100240000106010B50446E2
:1022000058488471002C58D1F020564908804FF46A
:10221000A07048800846808845F21051884210D14D
:102220004FF430504F4908814FF4285048814FF403
:102230002C5088814FF4F07008804FF4487048802B
:102240001AE04848808841F6631188420DD12C205D
:10225000444908812B2048812A2088814FF4F0705E
:1022600008804FF44870488006E02C203D490881E2
:102270002A2048812B2088813A48808845F21031F5
:10228000884205D03748808847F29671884206D147
:102290004FF4A070334908804FF4F0704880314803
:1022A000808849F60601884258D14FF4F0702D49D4
:1022B00008804FF44870488050E04FF4A0702949DE
:1022C0000880F02048800846808845F210518842F6
:1022D00010D14FF43050234908814FF428504881E1
:1022E0004FF42C5088814FF4487008804FF4F07000
:1022F000488020E01B48808841F66311884205D061
:102300001848808849F6060188420DD12C201549CD
:1023100008812A2048812B2088814FF4487008804A
:102320004FF4F070488006E02C200E4908812A20E6
:1023300048812B2088810B48808845F210318842E3
:1023400005D00848808847F29671884206D14FF43C
:10235000F070044908804FF4A0704880002003F01A
:102360005DF810BD2C0100242DE9F04706460F460C
:1023700090469A46002445460320A0EB480944E0D5
:102380007A1B91B2321990B2524600F0B5F83A1B5E
:1023900091B2721990B2524600F0AEF83A1991B269
:1023A000721990B2524600F0A7F87A1991B2321918
:1023B00090B2524600F0A0F87A1991B2321B90B256
:1023C000524600F099F83A1991B2721B90B25246F7
:1023D00000F092F87A1B91B2321B90B2524600F094
:1023E0008BF83A1B91B2721B90B2524600F084F8FF
:1023F000641CB9F1000F03DAA000801D814404E0E1
:10240000601B80000A3081446D1EAC42B8DDBDE81F
:10241000F0870000F8B504460D4616461F463EB14B
:1024200009480088A04203DB07484088A84200DA38
:10243000F8BDA019401E82B22B46294620460097BF
:1024400002F086FC00BFF3E72C0100242DE9FF4FCA
:1024500084B081468A460020029083460698A0EB0D
:1024600009050798A0EB0A06CDF80490CDF800A066
:10247000002D01DD012705E00DB9002702E04FF036
:10248000FF376D42002E02DD4FF0010806E016B95D
:102490004FF0000802E04FF0FF387642B54201DD10
:1024A0002C4600E03446002003901EE0009A91B2D2
:1024B000019A90B2119A00F01FF8029828440290F5
:1024C000B3440298A04205DD0298001B02900198D7
:1024D00038440190A34504DDABEB040B0098404465
:1024E00000900398401C80B20390611C03988842BE
:1024F000DCDD08B0BDE8F08F70B505460E46144629
:102500003146284603F0A8F803F04CFA01490C8044
:1025100070BD00000000106010B5CF2003F036FA47
:10252000002003F027FAC12003F024FA302003F042
:1025300021FAED2003F02AFA642003F01BFA0320AD
:1025400003F018FA122003F015FA812003F012FAB2
:10255000E82003F01BFA852003F00CFA102003F0AA
:1025600009FA7A2003F006FACB2003F00FFA39209B
:1025700003F000FA2C2003F0FDF9002003F0FAF933
:10258000342003F0F7F9022003F0F4F9F72003F008
:10259000FDF9202003F0EEF9EA2003F0F7F900201E
:1025A00003F0E8F9002003F0E5F9C02003F0EEF9AC
:1025B0001B2003F0DFF9C12003F0E8F9012003F04C
:1025C000D9F9C52003F0E2F9302003F0D3F9302027
:1025D00003F0D0F9C72003F0D9F9B72003F0CAF906
:1025E000362003F0D3F9482003F0C4F93A2003F071
:1025F000CDF9552003F0BEF9B12003F0C7F9002052
:1026000003F0B8F91A2003F0B5F9B62003F0BEF9CB
:102610000A2003F0AFF9A22003F0ACF9F22003F096
:10262000B5F9002003F0A6F9262003F0AFF9012048
:1026300003F0A0F9E02003F0A9F90F2003F09AF9C4
:102640002A2003F097F9282003F094F9082003F0DA
:1026500091F90E2003F08EF9082003F08BF9542035
:1026600003F088F9A92003F085F9432003F082F9EB
:102670000A2003F07FF90F2003F07CF9002003F01B
:1026800079F9002003F076F9002003F073F90020B7
:1026900003F070F9E12003F079F9002003F06AF902
:1026A000152003F067F9172003F064F9072003F001
:1026B00061F9112003F05EF9062003F05BF92B208D
:1026C00003F058F9562003F055F93C2003F052F975
:1026D000052003F04FF9102003F04CF90F2003F010
:1026E00049F93F2003F046F93F2003F043F90F205A
:1026F00003F040F92B2003F049F9002003F03AF9E8
:10270000002003F037F9012003F034F93F2003F0F3
:1027100031F92A2003F03AF9002003F02BF90020C8
:1027200003F028F9002003F025F9EF2003F022F947
:10273000112003F02BF97820FEF76EFD292003F01D
:1027400025F910BD10B5FF2003F020F9FF2003F09C
:1027500011F9982003F00EF9062003F00BF9BC20C4
:1027600003F014F9012003F005F90F2003F002F93A
:10277000612003F0FFF8FF2003F0FCF8012003F0D4
:10278000F9F8012003F0F6F80B2003F0F3F810201D
:1027900003F0F0F8372003F0EDF8632003F0EAF8D7
:1027A000FF2003F0E7F8FF2003F0E4F8012003F036
:1027B000E1F8012003F0DEF8002003F0DBF8002050
:1027C00003F0D8F8FF2003F0D5F8522003F0D2F838
:1027D000012003F0CFF8002003F0CCF8402003F0F4
:1027E000C9F8BD2003F0D2F8012003F0C3F823207C
:1027F00003F0C0F8452003F0BDF8672003F0BAF8F5
:10280000012003F0B7F8232003F0B4F8452003F0CB
:10281000B1F8672003F0AEF8BE2003F0B7F800204F
:1028200003F0A8F8012003F0A5F8AB2003F0A2F80C
:10283000602003F09FF8222003F09CF8222003F090
:1028400099F8222003F096F8222003F093F8222032
:1028500003F090F8C72003F099F8362003F08AF8C7
:10286000ED2003F093F87F2003F084F80F2003F0AD
:1028700081F8C02003F08AF80F2003F07BF80B20CA
:1028800003F078F80A2003F075F8FC2003F07EF8D6
:10289000082003F06FF8DF2003F078F8002003F041
:1028A00069F8002003F066F8002003F063F80020C8
:1028B00003F060F8002003F05DF8202003F05AF8E0
:1028C000F32003F063F8742003F054F8B42003F00D
:1028D0005DF8002003F04EF8002003F04BF80020D4
:1028E00003F048F8F72003F051F8822003F042F893
:1028F000B12003F04BF8002003F03CF8132003F064
:1029000039F8132003F036F8F22003F03FF8802066
:1029100003F030F8042003F02DF8402003F02AF8EB
:10292000282003F027F8C12003F030F8172003F027
:1029300021F8882003F01EF8882003F01BF82020DF
:1029400003F018F8E02003F021F8002003F012F85B
:102950000A2003F00FF8122003F00CF8102003F007
:1029600009F80E2003F006F8202003F003F8CC202D
:1029700003F000F8072002F0FDFF062002F0FAFF46
:102980000B2002F0F7FF0E2002F0F4FF0F2002F000
:10299000F1FF0D2002F0EEFF152002F0EBFF1020FA
:1029A00002F0E8FF002002F0E5FFE12002F0EEFF78
:1029B000002002F0DFFF0B2002F0DCFF132002F00A
:1029C000D9FF0D2002F0D6FF0E2002F0D3FF1B200E
:1029D00002F0D0FF712002F0CDFF062002F0CAFF06
:1029E000062002F0C7FF0A2002F0C4FF0F2002F009
:1029F000C1FF0E2002F0BEFF0F2002F0BBFF15202A
:102A000002F0B8FF0C2002F0B5FF002002F0B2FF88
:102A10002A2002F0BBFF002002F0ACFF002002F0F1
:102A2000A9FF012002F0A6FFDF2002F0A3FF2B2068
:102A300002F0ACFF002002F09DFF002002F09AFFA0
:102A4000032002F097FF1F2002F094FF3A2002F0CB
:102A50009DFF552002F08EFF362002F097FF0020E8
:102A600002F088FF112002F091FF7820FEF7D4FBDE
:102A7000292002F08BFF1420FEF7CEFB2C2002F061
:102A800085FF10BD10B5ED2002F080FF012002F09F
:102A900071FFFE2002F06EFFEE2002F077FFDE20D5
:102AA00002F068FF212002F065FFF12002F06EFFC6
:102AB000012002F05FFFDF2002F068FF102002F02B
:102AC00059FFC42002F062FF8F2002F053FFC6209E
:102AD00002F05CFF002002F04DFFE22002F04AFF0E
:102AE000E22002F047FFE22002F044FFBF2002F0A4
:102AF0004DFFAA2002F03EFFB02002F047FF0D205C
:102B000002F038FF002002F035FF0D2002F032FF06
:102B1000002002F02FFF112002F02CFF002002F015
:102B200029FF192002F026FF002002F023FF2120B8
:102B300002F020FF002002F01DFF2D2002F01AFFFE
:102B4000002002F017FF3D2002F014FF002002F0E9
:102B500011FF5D2002F00EFF002002F00BFF5D2050
:102B600002F008FF002002F005FFB12002F00EFF86
:102B7000802002F0FFFE002002F0FCFE8B2002F01D
:102B8000F9FE002002F0F6FE962002F0F3FE00208F
:102B900002F0F0FEB22002F0F9FE002002F0EAFEA0
:102BA000002002F0E7FE022002F0E4FE002002F026
:102BB000E1FE032002F0DEFE002002F0DBFEB32087
:102BC00002F0E4FE002002F0D5FE002002F0D2FE6A
:102BD000002002F0CFFE002002F0CCFE002002F028
:102BE000C9FE002002F0C6FE002002F0C3FE002055
:102BF00002F0C0FE002002F0BDFE002002F0BAFE8E
:102C0000002002F0B7FE002002F0B4FE002002F027
:102C1000B1FE002002F0AEFE002002F0ABFE00206C
:102C200002F0A8FE002002F0A5FE002002F0A2FEA5
:102C3000002002F09FFE002002F09CFE002002F027
:102C400099FE002002F096FE002002F093FE002084
:102C500002F090FEB42002F099FE8B2002F08AFE72
:102C6000002002F087FE962002F084FE002002F091
:102C700081FEA12002F07EFE002002F07BFEB52046
:102C800002F084FE022002F075FE002002F072FEC7
:102C9000032002F06FFE002002F06CFE042002F020
:102CA00069FE002002F066FEB62002F06FFE0020F2
:102CB00002F060FE002002F05DFEB72002F066FE2A
:102CC000002002F057FE002002F054FE3F2002F0E8
:102CD00051FE002002F04EFE5E2002F04BFE00206E
:102CE00002F048FE642002F045FE002002F042FEA1
:102CF0008C2002F03FFE002002F03CFEAC2002F0EF
:102D000039FE002002F036FEDC2002F033FE002007
:102D100002F030FE702002F02DFE002002F02AFEAC
:102D2000902002F027FE002002F024FEEB2002F0AB
:102D300021FE002002F01EFEDC2002F01BFE00201F
:102D400002F018FEB82002F021FE002002F012FE70
:102D5000002002F00FFE002002F00CFE002002F026
:102D600009FE002002F006FE002002F003FE002013
:102D700002F000FE002002F0FDFDBA2002F006FE87
:102D8000242002F0F7FD002002F0F4FD002002F004
:102D9000F1FD002002F0EEFDC12002F0F7FD202041
:102DA00002F0E8FD002002F0E5FD542002F0E2FD13
:102DB000002002F0DFFDFF2002F0DCFD002002F029
:102DC000D9FDC22002F0E2FD0A2002F0D3FD00206E
:102DD00002F0D0FD042002F0CDFD002002F0CAFD7B
:102DE000C32002F0D3FD3C2002F0C4FD002002F01D
:102DF000C1FD3A2002F0BEFD002002F0BBFD3920EB
:102E000002F0B8FD002002F0B5FD372002F0B2FD5F
:102E1000002002F0AFFD3C2002F0ACFD002002F0EB
:102E2000A9FD362002F0A6FD002002F0A3FD32200D
:102E300002F0A0FD002002F09DFD2F2002F09AFD7F
:102E4000002002F097FD2C2002F094FD002002F0FB
:102E500091FD292002F08EFD002002F08BFD26203E
:102E600002F088FD002002F085FD242002F082FDA2
:102E7000002002F07FFD242002F07CFD002002F003
:102E800079FD232002F076FD002002F073FD3C2046
:102E900002F070FD002002F06DFD362002F06AFDA8
:102EA000002002F067FD322002F064FD002002F0F5
:102EB00061FD2F2002F05EFD002002F05BFD2C2062
:102EC00002F058FD002002F055FD292002F052FDCD
:102ED000002002F04FFD262002F04CFD002002F001
:102EE00049FD242002F046FD002002F043FD24208D
:102EF00002F040FD002002F03DFD232002F03AFDEB
:102F0000002002F037FDC42002F040FD622002F0F4
:102F100031FD002002F02EFD052002F02BFD0020E7
:102F200002F028FD842002F025FD002002F022FDA1
:102F3000F02002F01FFD002002F01CFD182002F01E
:102F400019FD002002F016FDA42002F013FD002060
:102F500002F010FD182002F00DFD002002F00AFD25
:102F6000502002F007FD002002F004FD0C2002F0CA
:102F700001FD002002F0FEFC172002F0FBFC002007
:102F800002F0F8FC952002F0F5FC002002F0F2FCC3
:102F9000F32002F0EFFC002002F0ECFCE62002F04F
:102FA000E9FC002002F0E6FCC52002F0EFFC322034
:102FB00002F0E0FC002002F0DDFC442002F0DAFC2C
:102FC000002002F0D7FC652002F0D4FC002002F0C3
:102FD000D1FC762002F0CEFC002002F0CBFC882051
:102FE00002F0C8FC002002F0C5FCC62002F0CEFCB6
:102FF000202002F0BFFC002002F0BCFC172002F0F1
:10300000B9FC002002F0B6FC012002F0B3FC002065
:1030100002F0B0FCC72002F0B9FC002002F0AAFCCC
:10302000002002F0A7FC002002F0A4FC002002F027
:10303000A1FCC82002F0AAFC002002F09BFC0020AA
:1030400002F098FC002002F095FC002002F092FCB7
:10305000C92002F09BFC002002F08CFC002002F052
:1030600089FC002002F086FC002002F083FC002096
:1030700002F080FC002002F07DFC002002F07AFCCF
:10308000002002F077FC002002F074FC002002F027
:1030900071FC002002F06EFC002002F06BFC0020AE
:1030A00002F068FC002002F065FC002002F062FCE7
:1030B000002002F05FFCE02002F068FC162002F025
:1030C00059FC002002F056FC1C2002F053FC0020AA
:1030D00002F050FC212002F04DFC002002F04AFCDE
:1030E000362002F047FC002002F044FC462002F0AB
:1030F00041FC002002F03EFC522002F03BFC00208C
:1031000002F038FC642002F035FC002002F032FCB2
:103110007A2002F02FFC002002F02CFC8B2002F021
:1031200029FC002002F026FC992002F023FC00205C
:1031300002F020FCA82002F01DFC002002F01AFC86
:10314000B92002F017FC002002F014FCC42002F0A9
:1031500011FC002002F00EFCCA2002F00BFC002043
:1031600002F008FCD22002F005FC002002F002FC74
:10317000D92002F0FFFB002002F0FCFBE02002F06F
:10318000F9FB002002F0F6FBF32002F0F3FB002035
:1031900002F0F0FBE12002F0F9FB162002F0EAFB5E
:1031A000002002F0E7FB1C2002F0E4FB002002F00C
:1031B000E1FB222002F0DEFB002002F0DBFB3620E8
:1031C00002F0D8FB002002F0D5FB452002F0D2FB34
:1031D000002002F0CFFB522002F0CCFB002002F0D6
:1031E000C9FB642002F0C6FB002002F0C3FB7A207A
:1031F00002F0C0FB002002F0BDFB8B2002F0BAFB06
:10320000002002F0B7FB992002F0B4FB002002F08E
:10321000B1FBA82002F0AEFB002002F0ABFBB9200E
:1032200002F0A8FB002002F0A5FBC42002F0A2FBE4
:10323000002002F09FFBCA2002F09CFB002002F05D
:1032400099FBD22002F096FB002002F093FBD820DD
:1032500002F090FB002002F08DFBE02002F08AFBE0
:10326000002002F087FBF32002F084FB002002F034
:1032700081FBE22002F08AFB052002F07BFB0020AC
:1032800002F078FB0B2002F075FB002002F072FBCD
:103290001B2002F06FFB002002F06CFB342002F0D8
:1032A00069FB002002F066FB442002F063FB002073
:1032B00002F060FB4F2002F05DFB002002F05AFBA1
:1032C000612002F057FB002002F054FB792002F04D
:1032D00051FB002002F04EFB882002F04BFB002047
:1032E00002F048FB972002F045FB002002F042FB71
:1032F000A62002F03FFB002002F03CFBB72002F0CA
:1033000039FB002002F036FBC22002F033FB002024
:1033100002F030FBC72002F02DFB002002F02AFB58
:10332000D12002F027FB002002F024FBD62002F07F
:1033300021FB002002F01EFBDD2002F01BFB002021
:1033400002F018FBF32002F015FB002002F012FB44
:10335000E32002F01BFB052002F00CFB002002F032
:1033600009FB0A2002F006FB002002F003FB1C20F0
:1033700002F000FB002002F0FDFA332002F0FAFA1E
:10338000002002F0F7FA442002F0F4FA002002F0E4
:10339000F1FA502002F0EEFA002002F0EBFA62207F
:1033A00002F0E8FA002002F0E5FA782002F0E2FAF2
:1033B000002002F0DFFA882002F0DCFA002002F0A0
:1033C000D9FA972002F0D6FA002002F0D3FAA6200C
:1033D00002F0D0FA002002F0CDFAB72002F0CAFACB
:1033E000002002F0C7FAC22002F0C4FA002002F066
:1033F000C1FAC72002F0BEFA002002F0BBFAD120C9
:1034000002F0B8FA002002F0B5FAD52002F0B2FAC4
:10341000002002F0AFFADD2002F0ACFA002002F04A
:10342000A9FAF32002F0A6FA002002F0A3FAE420A1
:1034300002F0ACFA012002F09DFA002002F09AFAA4
:10344000012002F097FA002002F094FA022002F024
:1034500091FA002002F08EFA2A2002F08BFA002066
:1034600002F088FA3C2002F085FA002002F082FA8D
:103470004B2002F07FFA002002F07CFA5D2002F07F
:1034800079FA002002F076FA742002F073FA002034
:1034900002F070FA842002F06DFA002002F06AFA5D
:1034A000932002F067FA002002F064FAA22002F0F2
:1034B00061FA002002F05EFAB32002F05BFA00200D
:1034C00002F058FABE2002F055FA002002F052FA3B
:1034D000C42002F04FFA002002F04CFACD2002F096
:1034E00049FA002002F046FAD32002F043FA002005
:1034F00002F040FADD2002F03DFA002002F03AFA34
:10350000F32002F037FA002002F034FAE52002F04E
:103510003DFA002002F02EFA002002F02BFA0020E3
:1035200002F028FA002002F025FA022002F022FA26
:10353000002002F01FFA292002F01CFA002002F0FD
:1035400019FA3C2002F016FA002002F013FA4B2080
:1035500002F010FA002002F00DFA5D2002F00AFAE3
:10356000002002F007FA742002F004FA002002F0B2
:1035700001FA842002F0FEF9002002F0FBF993200A
:1035800002F0F8F9002002F0F5F9A22002F0F2F9B9
:10359000002002F0EFF9B32002F0ECF9002002F075
:1035A000E9F9BE2002F0E6F9002002F0E3F9C420B8
:1035B00002F0E0F9002002F0DDF9CD2002F0DAF9A6
:1035C000002002F0D7F9D32002F0D4F9002002F055
:1035D000D1F9DC2002F0CEF9002002F0CBF9F32083
:1035E00002F0C8F9002002F0C5F9E62002F0CEF999
:1035F000112002F0BFF9002002F0BCF9342002F0E3
:10360000B9F9002002F0B6F9562002F0B3F9002013
:1036100002F0B0F9762002F0ADF9002002F0AAF92C
:10362000772002F0A7F9002002F0A4F9662002F04A
:10363000A1F9002002F09EF9882002F09BF90020F9
:1036400002F098F9992002F095F9002002F092F921
:10365000BB2002F08FF9002002F08CF9992002F0D3
:1036600089F9002002F086F9662002F083F9002033
:1036700002F080F9552002F07DF9002002F07AF97D
:10368000552002F077F9002002F074F9452002F08D
:1036900071F9002002F06EF9432002F06BF900206E
:1036A00002F068F9442002F065F9002002F062F9A6
:1036B000E72002F06BF9322002F05CF9002002F002
:1036C00059F9552002F056F9002002F053F97620FE
:1036D00002F050F9002002F04DF9662002F04AF99C
:1036E000002002F047F9672002F044F9002002F0C0
:1036F00041F9672002F03EF9002002F03BF98720F3
:1037000002F038F9002002F035F9992002F032F980
:10371000002002F02FF9BB2002F02CF9002002F06B
:1037200029F9992002F026F9002002F023F97720E8
:1037300002F020F9002002F01DF9442002F01AF9ED
:10374000002002F017F9562002F014F9002002F0D0
:1037500011F9232002F00EF9002002F00BF93320BA
:1037600002F008F9002002F005F9452002F002F904
:10377000002002F0FFF8E82002F008F9002002F033
:10378000F9F8002002F0F6F8992002F0F3F8002092
:1037900002F0F0F8872002F0EDF8002002F0EAF8DD
:1037A000882002F0E7F8002002F0E4F8772002F029
:1037B000E1F8002002F0DEF8662002F0DBF80020DD
:1037C00002F0D8F8882002F0D5F8002002F0D2F8F4
:1037D000AA2002F0CFF8002002F0CCF8BB2002F0C3
:1037E000C9F8002002F0C6F8992002F0C3F80020C2
:1037F00002F0C0F8662002F0BDF8002002F0BAF82E
:10380000552002F0B7F8002002F0B4F8552002F07D
:10381000B1F8002002F0AEF8442002F0ABF800202E
:1038200002F0A8F8442002F0A5F8002002F0A2F867
:10383000552002F09FF8002002F09CF8E92002F0E9
:10384000A5F8AA2002F096F8002002F093F80020D4
:1038500002F090F8002002F08DF8002002F096F8B7
:10386000AA2002F087F8CF2002F090F8002002F0A2
:1038700081F8002002F07EF8002002F07BF80020A2
:1038800002F078F8002002F075F8002002F072F8DB
:10389000002002F06FF8002002F06CF8002002F027
:1038A00069F8002002F066F8002002F063F80020BA
:1038B00002F060F8002002F05DF8002002F05AF8F3
:1038C000002002F057F8002002F054F8002002F027
:1038D00051F8F02002F05AF8002002F04BF8502086
:1038E00002F048F8002002F045F8002002F042F80B
:1038F000002002F03FF8F32002F048F8002002F028
:1039000039F8F92002F042F8062002F033F81020CE
:1039100002F030F8292002F02DF8002002F02AF8F9
:103920003A2002F033F8552002F024F8112002F07A
:103930002DF86420FDF770FC292002F027F83520CF
:1039400002F024F8002002F015F8512002F01EF8D1
:10395000FF2002F00FF8532002F018F82C2002F09C
:1039600009F8552002F012F8822002F003F82C200A
:1039700002F00CF810BD10B555214FF4704002F064
:103980001BF8AA214FF2010002F016F852214FF263
:10399000020002F011F808214FF2030002F00CF8C7
:1039A00001214FF2040002F007F80D214FF43040DE
:1039B00002F002F80D214BF2010001F0FDFF0D2194
:1039C0004BF2020001F0F8FF34214FF4364001F0D1
:1039D000F3FF34214BF2016001F0EEFF34214BF292
:1039E000026001F0E9FF0D214FF4314001F0E4FFE6
:1039F0000D214BF2011001F0DFFF0D214BF20210FF
:103A000001F0DAFF34214FF4374001F0D5FF3421C3
:103A10004BF2017001F0D0FF34214BF2027001F043
:103A2000CBFF00214FF4324001F0C6FF00214BF2E2
:103A3000012001F0C1FF00214BF2022001F0BCFF88
:103A400024214FF4384001F0B7FF24214BF6010048
:103A500001F0B2FF24214BF6020001F0ADFF01217D
:103A60004FF43F4001F0A8FF0F214FF4334001F025
:103A7000A3FF0F214BF2013001F09EFF0F214BF20B
:103A8000023001F099FF34214FF4394001F094FFE6
:103A900034214BF6011001F08FFF34214BF6021058
:103AA00001F08AFF08214FF4354001F085FF08211D
:103AB0004BF2015001F080FF08214BF2025001F05F
:103AC0007BFF03214FF4424001F076FF24214FF4A5
:103AD0003A4001F071FF24214BF6012001F06CFF08
:103AE00024214BF6022001F067FF00214FF43C40F7
:103AF00001F062FF78214BF6014001F05DFF0021EB
:103B00004BF6024001F058FF00214FF43D4001F018
:103B100053FF78214BF6015001F04EFF00214BF688
:103B2000025001F049FF00214FF43E4001F044FFF4
:103B300064214BF6016001F03FFF00214FF451403A
:103B400001F03AFF33214DF2011001F035FF002161
:103B50004DF2021001F030FF34214DF2031001F05C
:103B60002BFF00214DF2041001F026FF3A214DF207
:103B7000051001F021FF00214DF2061001F01CFF9D
:103B80004A214DF2071001F017FF00214DF20810F5
:103B900001F012FF5C214DF2091001F00DFF002130
:103BA0004DF20A1001F008FF81214DF20B1001F0D7
:103BB00003FF00214DF20C1001F0FEFEA6214DF294
:103BC0000D1001F0F9FE00214DF20E1001F0F4FE8F
:103BD000E5214DF20F1001F0EFFE01214DF2101022
:103BE00001F0EAFE13214DF2111001F0E5FE012172
:103BF0004DF2121001F0E0FE54214DF2131001F0CD
:103C0000DBFE01214DF2141001F0D6FE82214DF2AF
:103C1000151001F0D1FE01214DF2161001F0CCFE7D
:103C2000CA214DF2171001F0C7FE02214DF2181003
:103C300001F0C2FE00214DF2191001F0BDFE02217B
:103C40004DF21A1001F0B8FE01214DF21B1001F0E7
:103C5000B3FE02214DF21C1001F0AEFE34214DF2F4
:103C60001D1001F0A9FE02214DF21E1001F0A4FE6C
:103C700067214DF21F1001F09FFE02214DF220102E
:103C800001F09AFE84214DF2211001F095FE0221EF
:103C90004DF2221001F090FEA4214DF2231001F00C
:103CA0008BFE02214DF2241001F086FEB7214DF269
:103CB000251001F081FE02214DF2261001F07CFE5C
:103CC000CF214DF2271001F077FE02214DF228108E
:103CD00001F072FEDE214DF2291001F06DFE02218D
:103CE0004DF22A1001F068FEF2214DF22B1001F086
:103CF00063FE02214DF22C1001F05EFEFE214DF21A
:103D00002D1001F059FE03214DF22E1001F054FE4A
:103D100010214DF22F1001F04FFE03214DF2301013
:103D200001F04AFE33214DF2311001F045FE03212E
:103D30004DF2321001F040FE6D214DF2331001F0D2
:103D40003BFE00214FF4524001F036FE33214DF28C
:103D5000012001F031FE00214DF2022001F02CFE85
:103D600034214DF2032001F027FE00214DF2042002
:103D700001F022FE3A214DF2052001F01DFE002146
:103D80004DF2062001F018FE4A214DF2072001F005
:103D900013FE00214DF2082001F00EFE5C214DF2D1
:103DA000092001F009FE00214DF20A2001F004FE75
:103DB00081214DF20B2001F0FFFD00214DF20C207E
:103DC00001F0FAFDA6214DF20D2001F0F5FD0021D4
:103DD0004DF20E2001F0F0FDE5214DF20F2001F033
:103DE000EBFD01214DF2102001F0E6FD13214DF213
:103DF000112001F0E1FD01214DF2122001F0DCFD66
:103E000054214DF2132001F0D7FD01214DF2142071
:103E100001F0D2FD82214DF2152001F0CDFD0121EE
:103E20004DF2162001F0C8FDCA214DF2172001F015
:103E3000C3FD02214DF2182001F0BEFD00214DF21C
:103E4000192001F0B9FD02214DF21A2001F0B4FD54
:103E500001214DF21B2001F0AFFD02214DF21C208B
:103E600001F0AAFD34214DF21D2001F0A5FD022133
:103E70004DF21E2001F0A0FD67214DF21F2001F040
:103E80009BFD02214DF2202001F096FD84214DF290
:103E9000212001F091FD02214DF2222001F08CFD44
:103EA000A4214DF2232001F087FD02214DF22420B0
:103EB00001F082FDB7214DF2252001F07DFD0221A8
:103EC0004DF2262001F078FDCF214DF2272001F0A0
:103ED00073FD02214DF2282001F06EFDDE214DF22E
:103EE000292001F069FD02214DF22A2001F064FD34
:103EF000F2214DF22B2001F05FFD02214DF22C202A
:103F000001F05AFDFE214DF22D2001F055FD032157
:103F10004DF22E2001F050FD10214DF22F2001F026
:103F20004BFD03214DF2302001F046FD33214DF2CF
:103F3000312001F041FD03214DF2322001F03CFD22
:103F40006D214DF2332001F037FD00214FF4534035
:103F500001F032FD33214DF2013001F02DFD002141
:103F60004DF2023001F028FD34214DF2033001F012
:103F700023FD00214DF2043001F01EFD3A214DF2E7
:103F8000053001F019FD00214DF2063001F014FD5D
:103F90004A214DF2073001F00FFD00214DF20830AB
:103FA00001F00AFD5C214DF2093001F005FD002110
:103FB0004DF20A3001F000FD81214DF20B3001F08D
:103FC000FBFC00214DF20C3001F0F6FCA6214DF275
:103FD0000D3001F0F1FC00214DF20E3001F0ECFC4F
:103FE000E5214DF20F3001F0E7FC01214DF21030D8
:103FF00001F0E2FC13214DF2113001F0DDFC012152
:104000004DF2123001F0D8FC54214DF2133001F082
:10401000D3FC01214DF2143001F0CEFC82214DF28F
:10402000153001F0C9FC01214DF2163001F0C4FC3D
:10403000CA214DF2173001F0BFFC02214DF21830B9
:1040400001F0BAFC00214DF2193001F0B5FC02215B
:104050004DF21A3001F0B0FC01214DF21B3001F09D
:10406000ABFC02214DF21C3001F0A6FC34214DF2D4
:104070001D3001F0A1FC02214DF21E3001F09CFC2C
:1040800067214DF21F3001F097FC02214DF22030E4
:1040900001F092FC84214DF2213001F08DFC0221CF
:1040A0004DF2223001F088FCA4214DF2233001F0C2
:1040B00083FC02214DF2243001F07EFCB7214DF249
:1040C000253001F079FC02214DF2263001F074FC1C
:1040D000CF214DF2273001F06FFC02214DF2283044
:1040E00001F06AFCDE214DF2293001F065FC02216D
:1040F0004DF22A3001F060FCF2214DF22B3001F03C
:104100005BFC02214DF22C3001F056FCFE214DF2F9
:104110002D3001F051FC03214DF22E3001F04CFC0A
:1041200010214DF22F3001F047FC03214DF23030C9
:1041300001F042FC33214DF2313001F03DFC03210E
:104140004DF2323001F038FC6D214DF2333001F088
:1041500033FC00214FF4544001F02EFC33214DF28A
:10416000014001F029FC00214DF2024001F024FC45
:1041700034214DF2034001F01FFC00214DF20440B8
:1041800001F01AFC3A214DF2054001F015FC002126
:104190004DF2064001F010FC4A214DF2074001F0BB
:1041A0000BFC00214DF2084001F006FC5C214DF2B1
:1041B000094001F001FC00214DF20A4001F0FCFB36
:1041C00081214DF20B4001F0F7FB00214DF20C4034
:1041D00001F0F2FBA6214DF20D4001F0EDFB0021B4
:1041E0004DF20E4001F0E8FBE5214DF20F4001F0E9
:1041F000E3FB01214DF2104001F0DEFB13214DF2F3
:10420000114001F0D9FB01214DF2124001F0D4FB25
:1042100054214DF2134001F0CFFB01214DF2144027
:1042200001F0CAFB82214DF2154001F0C5FB0121CE
:104230004DF2164001F0C0FBCA214DF2174001F0CB
:10424000BBFB02214DF2184001F0B6FB00214DF2FC
:10425000194001F0B1FB02214DF21A4001F0ACFB14
:1042600001214DF21B4001F0A7FB02214DF21C4041
:1042700001F0A2FB34214DF21D4001F09DFB022113
:104280004DF21E4001F098FB67214DF21F4001F0F6
:1042900093FB02214DF2204001F08EFB84214DF270
:1042A000214001F089FB02214DF2224001F084FB04
:1042B000A4214DF2234001F07FFB02214DF2244066
:1042C00001F07AFBB7214DF2254001F075FB022188
:1042D0004DF2264001F070FBCF214DF2274001F056
:1042E0006BFB02214DF2284001F066FBDE214DF20E
:1042F000294001F061FB02214DF22A4001F05CFBF4
:10430000F2214DF22B4001F057FB02214DF22C40DF
:1043100001F052FBFE214DF22D4001F04DFB032137
:104320004DF22E4001F048FB10214DF22F4001F0DC
:1043300043FB03214DF2304001F03EFB33214DF2AF
:10434000314001F039FB03214DF2324001F034FBE2
:104350006D214DF2334001F02FFB00214FF4554009
:1043600001F02AFB33214DF2015001F025FB002121
:104370004DF2025001F020FB34214DF2035001F0C8
:104380001BFB00214DF2045001F016FB3A214DF2C7
:10439000055001F011FB00214DF2065001F00CFB1D
:1043A0004A214DF2075001F007FB00214DF2085061
:1043B00001F002FB5C214DF2095001F0FDFA0021F1
:1043C0004DF20A5001F0F8FA81214DF20B5001F044
:1043D000F3FA00214DF20C5001F0EEFAA6214DF255
:1043E0000D5001F0E9FA00214DF20E5001F0E4FA0F
:1043F000E5214DF20F5001F0DFFA01214DF210508E
:1044000001F0DAFA13214DF2115001F0D5FA012131
:104410004DF2125001F0D0FA54214DF2135001F038
:10442000CBFA01214DF2145001F0C6FA82214DF26F
:10443000155001F0C1FA01214DF2165001F0BCFAFD
:10444000CA214DF2175001F0B7FA02214DF218506F
:1044500001F0B2FA00214DF2195001F0ADFA02213B
:104460004DF21A5001F0A8FA01214DF21B5001F053
:10447000A3FA02214DF21C5001F09EFA34214DF2B4
:104480001D5001F099FA02214DF21E5001F094FAEC
:1044900067214DF21F5001F08FFA02214DF220509A
:1044A00001F08AFA84214DF2215001F085FA0221AF
:1044B0004DF2225001F080FAA4214DF2235001F078
:1044C0007BFA02214DF2245001F076FAB7214DF229
:1044D000255001F071FA02214DF2265001F06CFADC
:1044E000CF214DF2275001F067FA02214DF22850FA
:1044F00001F062FADE214DF2295001F05DFA02214D
:104500004DF22A5001F058FAF2214DF22B5001F0F1
:1045100053FA02214DF22C5001F04EFAFE214DF2D9
:104520002D5001F049FA03214DF22E5001F044FACA
:1045300010214DF22F5001F03FFA03214DF230507F
:1045400001F03AFA33214DF2315001F035FA0321EE
:104550004DF2325001F030FA6D214DF2335001F03E
:104560002BFA00214FF4564001F026FA33214DF288
:10457000016001F021FA00214DF2026001F01CFA05
:1045800034214DF2036001F017FA00214DF204606E
:1045900001F012FA3A214DF2056001F00DFA002106
:1045A0004DF2066001F008FA4A214DF2076001F071
:1045B00003FA00214DF2086001F0FEF95C214DF292
:1045C000096001F0F9F900214DF20A6001F0F4F9F7
:1045D00081214DF20B6001F0EFF900214DF20C60EA
:1045E00001F0EAF9A6214DF20D6001F0E5F9002194
:1045F0004DF20E6001F0E0F9E5214DF20F6001F09F
:10460000DBF901214DF2106001F0D6F913214DF2D2
:10461000116001F0D1F901214DF2126001F0CCF9E5
:1046200054214DF2136001F0C7F901214DF21460DD
:1046300001F0C2F982214DF2156001F0BDF90121AE
