:020000040800F2
:10000000B0C70724390300080F0C0090030B0090C1
:10001000090B00902D040090B755009000000000DF
:10002000000000000000000000000000F139009016
:10003000D904009000000000D10200905530000863
:100040005303000853030008530300085303000838
:100050005303000853030008530300085303000828
:100060005303000853030008530300085303000818
:100070005303000853030008530300085303000808
:1000800053030008530300085303000853030008F8
:1000900053030008530300085303000853030008E8
:1000A00053030008530300085303000853030008D8
:1000B00053030008530300085303000853030008C8
:1000C00053030008530300085303000853030008B8
:1000D00053030008153100085303000853030008B8
:1000E00053030008530300080000000053030008F6
:1000F0005303000853030008530300085303000888
:100100005303000853030008530300085303000877
:100110005303000853030008530300085303000867
:100120005303000853030008530300085303000857
:100130005303000853030008530300085303000847
:1001400000000000000000000000000000000000AF
:100150005303000853030008530300085303000827
:100160005303000853030008530300085303000817
:100170005303000853030008530300085303000807
:1001800053030008530300085303000853030008F7
:1001900053030008530300085303000853030008E7
:1001A00053030008530300085303000853030008D7
:1001B00053030008530300085303000853030008C7
:1001C00053030008530300085303000853030008B7
:1001D00053030008530300085303000853030008A7
:1001E0005303000853030008530300085303000897
:1001F0005303000853030008530300085303000887
:100200005303000853030008530300085303000876
:100210005303000853030008530300085303000866
:1002200053030008530300085303000800000000B4
:1002300053030008530300080000000053030008A4
:100240005303000853030008530300085303000836
:100250005303000853030008530300085303000826
:100260005303000853030008530300085303000816
:100270005303000853030008530300080000000064
:100280005303000853030008530300080000000054
:10029000000000005303000800F002F800F03CF8F2
:1002A0000AA090E8000C82448344AAF10107DA45D1
:1002B00001D100F031F8AFF2090EBAE80F0013F0E7
:1002C000010F18BFFB1A43F001031847C8330000A1
:1002D000E8330000103A24BF78C878C1FAD8520732
:1002E00024BF30C830C144BF04680C6070470000B0
:1002F0000023002400250026103A28BF78C1FBD82F
:10030000520728BF30C148BF0B6070471FB503F0CC
:10031000B3F91FBD10B510BD00F0AAF81146FFF7E4
:10032000F5FF02F0B1FF00F0C8F803B4FFF7F2FFE9
:1003300003BC02F037FF0000094880470948004726
:10034000FEE7FEE7FEE7FEE7FEE7FEE7FEE7FEE785
:10035000FEE7FEE704480549054A064B70470000E2
:100360006D30000899020008B0BD0724B0C707240B
:10037000B0BF0724B0BF0724704753EA020C00F057
:1003800069802DE9F04B4FF00006002B1FBFB3FA38
:1003900083F503FA05F424FA05F65E4012BF16430E
:1003A000B2FA82F502FA05F4C5F120051EBF22FA61
:1003B00005FC44EA0C04203556EA044C4FEA144488
:1003C00018BF641C4FF000084FF00009904271EB19
:1003D000030C39D3002919BFB1FA81F701FA07F6E6
:1003E000B0FA80F700FA07F6C7F120071EBF20FA1F
:1003F00007FC46EA0C062037B6FBF4FCA7EB050722
:10040000103F07F01F0BCBF120060CFA0BFB2CFA68
:1004100006F644BFB3460026202FA4BF5E464FF029
:10042000000B5BEA060C08BF4FF0010B19EB0B0940
:10043000ABFB027C48EB0608C01B06FB02CC0BFBA7
:1004400003CC71EB0C01C1E70B460246414648461E
:10045000BDE8F08B13B54FF000004FF00001AFF393
:100460000080BDE81C407047704770477047704778
:10047000754600F02BF8AE4605006946534620F05D
:100480000700854618B020B5FFF764FFBDE820409F
:100490004FF000064FF000074FF000084FF0000B40
:1004A00021F00701AC46ACE8C009ACE8C009ACE8F3
:1004B000C009ACE8C0098D46704710B50446AFF3DB
:1004C00000802046BDE81040FFF72FBF004870476E
:1004D0004CBD072442F23B0CC9F2000C604740F6C9
:1004E000A15CC9F2000C604740F2417CC9F2000CEB
:1004F000604740F2317CC9F2000C604740F6C51CF1
:10050000C9F2000C604740F6CD5CC9F2000C6047B0
:1005100041F2552CC9F2000C604741F2293CC9F266
:10052000000C604748F6ED0CC9F2000C604748F635
:10053000250CC9F2000C604747F6B14CC9F2000C1B
:10054000604745F2BD5CC9F2000C604748F6052CD7
:10055000C9F2000C604749F26D0CC9F2000C60470B
:1005600040F64D1CC9F2000C6047000070B504460F
:100570000CB9012070BD94F83500022803D080200A
:1005800060650120F6E7DC492068884249D0DA49F5
:1005900018312068884244D0D749303120688842D9
:1005A0003FD0D5494831206888423AD0D24960319D
:1005B0002068884235D0D04978312068884230D0D0
:1005C000CD499031206888422BD0CB49A831206892
:1005D000884226D0C9492068884222D0C7491831AC
:1005E000206888421DD0C54930312068884218D023
:1005F000C24948312068884213D0C0496031206820
:1006000088420ED0BD4978312068884209D0BB4964
:1006100090312068884204D0B849A83120688842C7
:1006200001D1012000E00020F0B3042084F835005F
:10063000B149206888424BD0AF49183120688842C0
:1006400046D0AD4930312068884241D0AA4948316E
:10065000206888423CD0A84960312068884237D061
:10066000A54978312068884232D0A349903120686A
:1006700088422DD0A049A8312068884228D09F49BF
:100680002068884224D09D491831206888421FD0B4
:100690009A493031206888421AD0984948312068F8
:1006A000884215D0954900E020E0603120688842FA
:1006B0000ED0924978312068884209D08F49903114
:1006C0002068884204D08D49A8312068884206D12C
:1006D0002068006820F001002168086009E12068B6
:1006E000006820F001002168086002E120680068CD
:1006F00020F00E00216808607F492068884249D0B8
:100700007D4918312068884244D07B4930312068C7
:1007100088423FD078494831206888423AD07649AB
:1007200060312068884235D073497831206888422A
:1007300030D071499031206888422BD06E49A83161
:100740002068884226D06D492068884222D06B49B3
:100750001831206888421DD06849303120688842AD
:1007600018D0664948312068884213D06349603107
:10077000206888420ED0614978312068884209D0CB
:100780005E4990312068884204D05C49A8312068D5
:10079000884206D12068006820F0010021680860C6
:1007A00005E02068006820F00100216808605249D7
:1007B0002068884270D050491831206888426BD038
:1007C0004D4930312068884266D04B494831206815
:1007D000884261D048496031206888425CD04649EF
:1007E00078312068884257D0434990312068884248
:1007F00052D04149A831206888424DD03F492068F5
:10080000884249D03D4918312068884244D03B494C
:100810003031206888423FD03849483120688842CA
:100820003AD0364960312068884235D03349783132
:100830002068884230D031499031206888422BD0DE
:100840002E49A8312068884226D02D492068884248
:1008500022D02B491431206888421DD028492831E4
:100860002068884218D026493C312068884213D03D
:1008700023495031206888420ED0214964312068D4
:10088000884209D01E4978312068884204D01C492A
:100890008C312068884201D1012000E00020D8B1CD
:1008A000206E006820F48070216E0860A56D94F8B9
:1008B0005C0000F01F01012088406860D4E9191035
:1008C0004860E06E40B1E06E006820F48070E16E38
:1008D0000860D4E91C10486000BF002084F8340090
:1008E00000BF012084F83500206D10B12046216D35
:1008F000884700203EE6000010000240100402403D
:10090000085402580348006840F00100014908609B
:100910007047000020040058F8B502460023734DCC
:10092000DEE001279F400E6806EA0704002C71D024
:100930004E68022E02D04E68122E13D1DF0802F14B
:10094000200656F827005E07F70E0F26BE40B0437C
:100950005F07FF0E0E69BE403043DF0802F120063C
:1009600046F8270010685F000326BE40B0430E79AA
:1009700006F003065F00BE40304310604E68012E53
:1009800008D04E68022E05D04E68112E02D04E6857
:10099000122E13D190685F000326BE40B0435F0063
:1009A000CE68BE4030439060506801269E40B04300
:1009B0000E79C6F300169E4030435060D0685F0049
:1009C0000326BE40B0435F008E68BE403043D06017
:1009D0004E6806F08056B6F1805F1BD100BF444ED2
:1009E000366846F00206424F3E603E46366806F0E4
:1009F0000206009600BF00BF3E4E9F0856F8270033
:100A00009E07370F0F26BE40B0433B4EB24202D185
:100A100000262EE063E0394EB24201D1012628E0E3
:100A2000374EB24201D1022623E0364EB24201D106
:100A300003261EE0344EB24201D1042619E0334EA3
:100A4000B24201D1052614E0314EB24201D1062650
:100A50000FE0304EB24201D107260AE02E4EB242DC
:100A600001D1082605E02D4EB24201D1092600E051
:100A70000A269F073F0FBE4030431E4E9F0846F890
:100A800027002868A0434E6806F48036B6F5803FFC
:100A900000D1204328606868A0434E6806F4003601
:100AA000B6F5003F00D1204368604FF0B046306893
:100AB000A0434E6806F48016B6F5801F00D120438F
:100AC0004FF0B04630607068A0434E6806F40016E0
:100AD000B6F5001F00D120434FF0B04670605B1C9C
:100AE0000E68DE40002E7FF41CAFF8BD8000005879
:100AF000F444025808040058000002580004025848
:100B000000080258000C0258001002580014025845
:100B100000180258001C02580020025800240258F5
:100B2000024613690B400BB1012000E00020704722
:100B300042690A408A4202D10A04826100E081616E
:100B400070470AB1816101E00B04836170470000C6
:100B500001480068000C70470010005C0148006804
:100B6000704700001C00002403480068034909780E
:100B700008440149086070471C0000242400002438
:100B800010B5032000F00AF901F0CCFA1049096809
:100B9000C1F303210F4A515C01F01F01C8400E4907
:100BA00008600B48006800F00F001146085C00F078
:100BB0001F0109480068C840084908600F2000F07C
:100BC0000FF808B1012010BD00F09AF80020FAE7F4
:100BD0001844025882360008000000240400002453
:100BE00070B504461148007808B9012070BD0F485F
:100BF00000784FF47A71B1FBF0F00D490968B1FB50
:100C0000F0F5284601F078FF08B10120EEE7102C3E
:100C100007D200222146501E00F083F805480460E8
:100C200001E00120E2E70020E0E7000024000024CA
:100C300000000024200000244178154A116001784A
:100C4000F9B1121D41681160017B0907C27A41EABE
:100C50000261827A41EAC241427B41EA8241827B5F
:100C600041EA4241C27B41EA0241427A41EA022121
:100C7000027A41EA420102781143054A08321160C2
:100C800005E00021024A121D1160121D116070471B
:100C900098ED00E000BF00BF00BFBFF35F8F00BF53
:100CA00000BF00BF0548006820F480300349086099
:100CB00000200249703108607047000024ED00E018
:100CC00040F001010D4A11600C497039096841F486
:100CD00080310A4A703A116000BF00BF00BFBFF305
:100CE0004F8F00BF00BF00BF00BF00BF00BFBFF3FA
:100CF0006F8F00BF00BF00BF7047000094ED00E0A1
:100D0000704701460846002809DB00F01F03012256
:100D10009A4043099B0003F1E023C3F8002100BF80
:100D200070472DE9F05F80460D46164602F01EFA28
:100D3000074639462A46334601F00700C0F1070A44
:100D4000BAF1040F02D94FF0040A01E0C0F1070A1A
:100D5000D14600F1040ABAF1070F02D24FF0000A9F
:100D600001E0A0F1030AD4464FF0010A0AFA09FA99
:100D7000AAF1010A0AEA020A0AFA0CFA4FF0010B78
:100D80000BFA0CFBABF1010B0BEA030B4AEA0B0469
:100D90002146404602F0F2F9BDE8F09F00BF00F0A6
:100DA0000702064B19684FF6FF031940044B0B432B
:100DB00043EA0221014B196000BF70470CED00E0CF
:100DC0000000FA050348006840F08070014908609F
:100DD000704700000C48025810B501F0A3F907490C
:100DE0000968C1F30321064A515C01F01F01C840A4
:100DF000044908600846006810BD00001844025805
:100E0000823600080000002410B501F04FF90549B2
:100E10000968C1F30211044A515C01F01F01C84086
:100E200010BD0000204402588236000870B501460B
:100E3000844D2D6805F00303824D2D68C5F3053000
:100E4000804D2D1D2D68C5F300147E4D14352D6881
:100E5000C5F3CC0515FB04F501EE105AB8EE411AA6
:100E6000F0EE410A00286FD023B1012B4ED0022BA7
:100E70006BD16BE0734D283D2D68C5F340153DB334
:100E8000704D283D2D68C5F3C1066F4D25FA06F259
:100E900001EE102AF8EE411A01EE100AB8EE411ADE
:100EA00081EE812A9FED691AC0EE811A654D1035D9
:100EB0002D68C5F3080501EE105AB8EE411A31EE5F
:100EC000811AF7EE001A31EE211A22EE010A1CE017
:100ED00001EE100AB8EE411ADFED5D1A81EE812AAB
:100EE0009FED5A1AC0EE811A564D10352D68C5F384
:100EF000080501EE105AB8EE411A31EE811AF7EEEC
:100F0000001A31EE211A22EE010A5BE001EE100A0E
:100F1000B8EE411ADFED4F1A81EE812A9FED4B1A90
:100F2000C0EE811A474D10352D68C5F3080501EE56
:100F3000105AB8EE411A31EE811AF7EE001A31EE6E
:100F4000211A22EE010A3DE077E01DE001EE100AD1
:100F5000B8EE411A9FED402AC2EE011A9FED3B1AEE
:100F600080EE812A374D10352D68C5F3080501EE56
:100F7000105AB8EE411A32EE011AB7EE002A31EEDD
:100F8000021A21EE810A1DE001EE100AB8EE411AA4
:100F9000DFED301A81EE812A9FED2C1AC0EE811A06
:100FA000284D10352D68C5F3080501EE105AB8EE2E
:100FB000411A31EE811AF7EE001A31EE211A22EEB3
:100FC000010A00BF00BF1F4D10352D68C5F346252F
:100FD00001EE105AB8EE411AF7EE001A31EE211A5E
:100FE000C0EE011ABCEEE11A81ED001A154D103564
:100FF0002D68C5F3064501EE105AB8EE411AF7EE1A
:10100000001A31EE211AC0EE011ABCEEE11A81ED90
:10101000011A0C4D10352D68C5F3066501EE105A06
:10102000B8EE411AF7EE001A31EE211AC0EE011A9D
:10103000BCEEE11A81ED021A03E000250D604D605F
:101040008D6070BD284402580090D0030000004617
:101050000024744C0024744A0024F44A70B50146FC
:10106000844D2D6805F00303824D2D68C5F30550AE
:10107000804D2D1D2D68C5F300247E4D1C352D6837
:10108000C5F3CC0515FB04F501EE105AB8EE411A74
:10109000F0EE410A00286FD023B1012B4ED0022B75
:1010A0006BD16BE0734D283D2D68C5F340153DB302
:1010B000704D283D2D68C5F3C1066F4D25FA06F227
:1010C00001EE102AF8EE411A01EE100AB8EE411AAC
:1010D00081EE812A9FED691AC0EE811A654D18359F
:1010E0002D68C5F3080501EE105AB8EE411A31EE2D
:1010F000811AF7EE001A31EE211A22EE010A1CE0E5
:1011000001EE100AB8EE411ADFED5D1A81EE812A78
:101110009FED5A1AC0EE811A564D18352D68C5F349
:10112000080501EE105AB8EE411A31EE811AF7EEB9
:10113000001A31EE211A22EE010A5BE001EE100ADC
:10114000B8EE411ADFED4F1A81EE812A9FED4B1A5E
:10115000C0EE811A474D18352D68C5F3080501EE1C
:10116000105AB8EE411A31EE811AF7EE001A31EE3C
:10117000211A22EE010A3DE077E01DE001EE100A9F
:10118000B8EE411A9FED402AC2EE011A9FED3B1ABC
:1011900080EE812A374D18352D68C5F3080501EE1C
:1011A000105AB8EE411A32EE011AB7EE002A31EEAB
:1011B000021A21EE810A1DE001EE100AB8EE411A72
:1011C000DFED301A81EE812A9FED2C1AC0EE811AD4
:1011D000284D18352D68C5F3080501EE105AB8EEF4
:1011E000411A31EE811AF7EE001A31EE211A22EE81
:1011F000010A00BF00BF1F4D18352D68C5F34625F5
:1012000001EE105AB8EE411AF7EE001A31EE211A2B
:10121000C0EE011ABCEEE11A81ED001A154D183529
:101220002D68C5F3064501EE105AB8EE411AF7EEE7
:10123000001A31EE211AC0EE011ABCEEE11A81ED5E
:10124000011A0C4D18352D68C5F3066501EE105ACC
:10125000B8EE411AF7EE001A31EE211AC0EE011A6B
:10126000BCEEE11A81ED021A03E000250D604D602D
:101270008D6070BD284402580090D00300000046E5
:101280000024744C0024744A0024F44A2DE9F041EF
:1012900004460025A846206800F00060B0F1006F09
:1012A00030D1606E48B1B0F5801F0DD0B0F5001F91
:1012B00010D0B0F5401F15D113E0F948006840F494
:1012C0000030F74908600FE00221201D01F0D2FC38
:1012D000054609E0022104F1240001F07DFD0546E8
:1012E00002E001E0012500BF00BF55B9EC48243001
:1012F000006820F44010616E0843E9492431086019
:1013000000E0A846208800F48070B0F5807F2DD1E1
:10131000606D05281AD2DFE800F0030A10171800E4
:10132000DF48006840F40030DD49086010E000212B
:10133000201D01F09FFC05460AE0002104F1240075
:1013400001F04AFD054603E002E001E0012500BF8F
:1013500000BF55B9D2482430006820F00700616D05
:101360000843CF492431086000E0A846208800F4F3
:101370000070B0F5007F33D1A06D802817D003DC5A
:1013800040B140281CD10CE0C02817D0B0F5807FB8
:1013900016D114E0C248006840F40030C04908602B
:1013A00010E00021201D01F065FC05460AE0002147
:1013B00004F1240001F010FD054603E002E001E025
:1013C000012500BF00BF55B9B5482430006820F49E
:1013D000E070A16D0843B2492431086000E0A846DE
:1013E000208800F48060B0F5806F38D1D4F8A40074
:1013F000B0F5800F19D004DC50B1B0F5001F1DD13D
:101400000DE0B0F5C00F17D0B0F5000F16D114E005
:10141000A348006840F40030A149086010E00021B2
:10142000201D01F027FC05460AE0002104F12400FC
:1014300001F0D2FC054603E002E001E0012500BF17
:1014400000BF5DB996482C30006820F46000D4F8E5
:10145000A410084392492C31086000E0A846208877
:1014600000F40060B0F5006F38D1D4F8A800B0F1F6
:10147000007F19D004DC50B1B0F1807F1DD10DE0A8
:10148000B0F1407F17D0B0F1806F16D114E08448DE
:10149000006840F400308249086010E00021201DFF
:1014A00001F0E8FB05460AE0002104F1240001F008
:1014B00093FC054603E002E001E0012500BF00BF08
:1014C0005DB977482C30006820F0E060D4F8A810AF
:1014D000084373492C31086000E0A846206800F0FA
:1014E0000070B0F1007F27D1A06CA0B1102804D00B
:1014F000202809D030280FD10CE06948006840F45A
:1015000000306749086009E00221201D01F0B2FBAC
:10151000054603E002E001E0012500BF00BF55B928
:101520005F482030006820F03000A16C08435C491F
:101530002031086000E0A846208800F48050B0F513
:10154000805F36D1E06DB0F5005F19D004DC50B19A
:10155000B0F5805F1DD10DE0B0F5405F17D0B0F55C
:10156000804F16D114E04E48006840F400304C49DA
:10157000086010E00021201D01F07CFB05460AE018
:10158000002104F1240001F027FC054603E002E0FD
:1015900001E0012500BF00BF55B941482430006873
:1015A00020F4E040E16D08433D492431086000E04B
:1015B000A846208800F40050B0F5005F34D1206EBA
:1015C000B0F5403F1DD007DC68B1B0F5803F0BD0CF
:1015D000B0F5003F18D10DE0B0F5802F12D0B0F576
:1015E000A02F11D10FE011E00121201D01F042FBDD
:1015F00005460BE0012104F1240001F0EDFB054656
:1016000004E003E002E001E0012500BF00BF55B99E
:1016100023482430006820F4E020216E084320494C
:101620002431086000E0A846208800F48040B0F52E
:10163000804F38D1D4F8AC00B0F1405F1DD007DC4A
:1016400068B1B0F1805F0BD0B0F1005F18D10DE050
:10165000B0F1804F12D0B0F1A04F11D10FE011E0E6
:101660000121201D01F006FB05460BE0012104F1DC
:10167000240001F0B1FB054604E003E002E001E0D4
:10168000012500BF00BF6DB905482C30006820F06F
:10169000E040D4F8AC10084301492C31086002E066
:1016A0002C440258A846208800F40040B0F5004FB2
:1016B00026D1E06E98B1B0F1805F03D0B0F1005F49
:1016C0000ED106E0F948006840F40030F7490860A0
:1016D00008E00121201D01F0CDFA054602E001E0FD
:1016E000012500BF00BF55B9F0482430006820F044
:1016F0004050E16E0843ED492431086000E0A846FF
:10170000206800F08070B0F1807F27D1606CA0B1BC
:10171000012804D0022809D003280FD10CE0E348A7
:10172000006840F40030E149086009E00221201D12
:1017300001F0A0FA054603E002E001E0012500BF48
:1017400000BF55B9D9482030006820F00300616C13
:101750000843D6492031086000E0A846206800F41C
:101760008000B0F5800F7DD1D148006840F48070D2
:10177000CF490860FFF7F2F9064606E0FFF7EEF9F9
:10178000801B642801D9032505E0C948006800F4DE
:1017900080700028F2D000BF85BBC4484430006888
:1017A00000F44070B4F8B01001F44071884213D0D6
:1017B000BE484430006820F44077BC48443000689C
:1017C00040F48030B949443108600846006820F48C
:1017D0008030086008460760D4F8B000B0F5807F1C
:1017E00015D1FFF7BBF9064609E0FFF7B7F9801BF3
:1017F00041F28831884202D9032507E038E0AB483E
:1018000044300068C0F340000028EED000BF55BB54
:1018100000BFB4F8B00000F44070B0F5407F0ED1C6
:10182000A2481C38006820F47C51A24AD4F8B000C9
:10183000104041EA10109D491C39086007E09B48A0
:101840001C38006820F47C5098491C39086097487F
:1018500044300068B4F8B010C1F30B010843934959
:10186000443101E005E001E0086002E0A84600E044
:10187000A846207800F0010068B3A06F182819D09E
:1018800005DC48B1082808D0102816D10BE0202824
:1018900011D0282811D10FE011E00121201D01F005
:1018A000E9F905460BE0012104F1240001F094FA66
:1018B000054604E003E002E001E0012500BF00BFAF
:1018C00055B97A482830006820F03800A16F0843E5
:1018D00076492831086000E0A846207800F0020030
:1018E000022828D1606F062815D2DFE800F0030433
:1018F0000A11121311E00121201D01F0BBF9054668
:101900000BE0012104F1240001F066FA054604E031
:1019100003E002E001E0012500BF00BF55B96348C4
:101920002830006820F00700616F08435F492831C4
:10193000086000E0A846207800F0040004282AD1BE
:10194000D4F89000062815D2DFE800F003040A114D
:10195000121311E00121201D01F08CF905460BE066
:10196000012104F1240001F037FA054604E003E008
:1019700002E001E0012500BF00BF5DB94B482C30FB
:10198000006820F00700D4F89010084347492C3134
:10199000086000E0A846207800F02000202836D11A
:1019A000D4F88C00B0F1405F1DD007DC68B1B0F115
:1019B000805F0BD0B0F1005F18D10DE0B0F1804F27
:1019C00012D0B0F1A04F11D10FE011E00021201D85
:1019D00001F050F905460BE0022104F1240001F06A
:1019E000FBF9054604E003E002E001E0012500BF49
:1019F00000BF5DB92D482830006820F0E040D4F8E1
:101A00008C10084329492831086000E0A846207856
:101A100000F04000402836D1D4F89800B0F5406F6F
:101A20001DD007DC68B1B0F5806F0BD0B0F5006F4A
:101A300018D10DE0B0F5805F12D0B0F5A05F11D1E4
:101A40000FE011E00021201D01F014F905460BE024
:101A5000022104F1240001F0BFF9054604E003E08F
:101A600002E001E0012500BF00BF5DB90F482C3046
:101A7000006820F4E050D4F8981008430B492C314A
:101A8000086000E0A846207800F0800080283AD165
:101A9000D4F89C00B0F5C04F23D00DDC98B1B0F560
:101AA000005F11D0B0F5804F1ED113E02C440258D6
:101AB00000480258FFFCFF0FB0F5004F12D0B0F500
:101AC000204F11D10FE011E00021201D01F0D2F8CC
:101AD00005460BE0022104F1240001F07DF90546E2
:101AE00004E003E002E001E0012500BF00BF4DB9C2
:101AF000AD48006820F46040D4F89C100843AA491F
:101B0000086000E0A846207800F00800082817D1F7
:101B1000D4F88000B0F5805F07D1022104F12400E1
:101B200001F05AF908B14FF001089F48001F006802
:101B300020F44050D4F8801008439B49091F0860E6
:101B4000207800F01000102815D1D4F89400B0F5DA
:101B5000807F07D1022104F1240001F03DF908B192
:101B60004FF001089048006820F44070D4F89410B9
:101B700008438D490860206800F40020B0F5002F6C
:101B800026D1D4F8A00030B1B0F5803F09D0B0F52F
:101B9000003F0ED10CE00021201D01F06BF805463E
:101BA00009E0022104F1240001F016F9054602E0E3
:101BB00001E0012500BF00BF4DB97B48006820F45B
:101BC0004030D4F8A01008437749086000E0A846E8
:101BD000206800F48020B0F5802F2DD1D4F8840047
:101BE000B0F5801F06D0B0F5001F0CD0B0F5401F37
:101BF00011D10FE06C482C38006840F400306A497D
:101C00002C39086009E0012104F1240001F0E4F816
:101C1000054602E001E0012500BF00BF5DB9624852
:101C2000001F006820F44010D4F8841008435E4977
:101C3000091F086000E0A846206800F48030B0F575
:101C4000803F24D1E06C18B1B0F5803F0FD108E09F
:101C500055482C38006840F4003053492C3908604E
:101C600007E00221201D01F005F8054601E00125ED
:101C700000BF00BF55B94C480C38006820F48030D4
:101C8000E16C084348490C39086000E0A846206828
:101C900000F00050B0F1005F07D1022104F12400F0
:101CA00001F09AF808B14FF00108206800F4003004
:101CB000B0F5003F27D1E06FA0B1B0F5807F06D02E
:101CC000B0F5007F0CD0B0F5407F0CD109E036486C
:101CD0002C38006840F4003033492C39086004E0A7
:101CE00003E002E001E0012500BF00BF55B92E4826
:101CF000001F006820F44070E16F08432A49091F63
:101D0000086000E0A846206800F48010B0F5801F4D
:101D100009D125480838006820F00040216F0843A9
:101D2000214908390860206800F40010B0F5001F50
:101D300009D11D480838006820F08070A16E084362
:101D4000194908390860206800F08040B0F1804FE0
:101D500011D100BF14484838006820F400401249EF
:101D60004839086008460068D4F8B81008430E499E
:101D70004839086000BF206800F00040B0F1004F13
:101D800009D109480C38006820F04050216D084303
:101D900005490C390860B8F1000F02D10020BDE8F8
:101DA000F0810120FBE70000584402582DE9F04182
:101DB00004460D4614B90120BDE8F081B64800681C
:101DC00000F00F00A8420ED2B348006820F00F00C8
:101DD0002843B14908600846006800F00F00A84297
:101DE00001D00120E8E7207800F0040004280ED19B
:101DF000AA492069096801F07001884207D9A748FB
:101E0000006820F0700021690843A4490860207828
:101E100000F00800082811D1A049091D606909686F
:101E200001F07001884209D99C48001D006820F02B
:101E30007000616908439949091D0860207800F025
:101E40001000102811D19549091DA069096801F4F5
:101E5000E061884209D99148001D006820F4E060E3
:101E6000A16908438D49091D0860207800F0200011
:101E7000202811D189490831E069096801F0700111
:101E8000884209D985480830006820F07000E1696F
:101E90000843824908310860207800F002000228D7
:101EA0000ED17E49E068096801F00F01884207D928
:101EB0007A48006820F00F00E1680843774908601D
:101EC000207800F00100002850D07448006820F409
:101ED0007060A1680843714908606068022807D1F2
:101EE0006E4818380068C0F34040F8B9012063E735
:101EF0006068032807D1694818380068C0F340605B
:101F0000A0B9012058E76068012807D16348183854
:101F10000068C0F3002048B901204DE75F48183839
:101F20000068C0F3800008B9012045E75B48083825
:101F3000006820F0070061680843584908390860C4
:101F4000FEF70CFE064608E0FEF708FE801B41F295
:101F50008831884201D903202EE7504808380068AC
:101F600000F038006168B0EBC10FEDD1207800F0CF
:101F7000020002280ED14949E068096801F00F010A
:101F8000884207D24548006820F00F00E168084306
:101F9000424908604048006800F00F00A8420ED98E
:101FA0003D48006820F00F0028433B490860084680
:101FB000006800F00F00A84201D00120FCE6207864
:101FC00000F0040004280ED134492069096801F0AA
:101FD0007001884207D23148006820F07000216902
:101FE00008432E490860207800F00800082811D125
:101FF0002A49091D6069096801F07001884209D207
:102000002648001D006820F07000616908432349DC
:10201000091D0860207800F01000102811D11F4918
:10202000091DA069096801F4E061884209D21B48D2
:10203000001D006820F4E060A16908431749091DEC
:102040000860207800F02000202811D113490831C1
:10205000E069096801F07001884209D20F48083030
:10206000006820F07000E16908430C4908310860FD
:1020700000F058F809490968C1F30321084A515C86
:1020800001F01F01C8400749086007480068FEF7D3
:10209000A7FD074638468FE6002000521844025834
:1020A00082360008000000242000002410B5FEF74E
:1020B00093FE0749096801F00F01064A515C01F0DF
:1020C0001F01C840044908600846006810BD0000B0
:1020D00018440258823600080400002410B5FFF7A7
:1020E000E5FF05490968C1F30211044A515C01F09A
:1020F0001F01C84010BD00001C4402588236000871
:1021000010B5FFF7D3FF05490968C1F30221044A5E
:10211000515C01F01F01C84010BD00001C44025872
:1021200082360008F0B5824E366806F0380636B1C1
:10213000082E15D0102E15D0182E7DD114E07C4E0F
:10214000103E3668C6F3401646B1794E103E3668EA
:10215000C6F3C107774E26FA07F000E07548E5E0C0
:102160007548E3E07548E1E0714E1836366806F0D0
:1021700003046F4E18363668C6F305116C4E1C36D4
:10218000366806F001056A4E24363668C6F3CC067A
:1021900016FB05F601EE106AB8EE410A002971D06F
:1021A00024B1012C50D0022C6DD16DE0604E103E58
:1021B0003668C6F340163EB35D4E103E3668C6F331
:1021C000C1075C4E26FA07F301EE103AF8EE411A09
:1021D00001EE101AB8EE411A81EE812A9FED581ACD
:1021E000C0EE011A524E20363668C6F3080601EEDC
:1021F000106AB8EE411A31EE811AF7EE001A31EE8C
:10220000211A62EE010A1EE001EE101AB8EE411A20
:10221000DFED4C1A81EE812A9FED491AC0EE011ABA
:10222000434E20363668C6F3080601EE106AB8EE53
:10223000411A31EE811A00E076E0F7EE001A31EE35
:10224000211A62EE010A5BE001EE101AB8EE411AA3
:102250009FED3D2AC2EE011A9FED391A80EE012A48
:10226000334E20363668C6F3080601EE106AB8EE23
:10227000411A32EE011AB7EE002A31EE021A61EE6F
:10228000810A3DE04EE01DE001EE101AB8EE411A61
:10229000DFED2E1A81EE812A9FED291AC0EE011A78
:1022A000234E20363668C6F3080601EE106AB8EEF3
:1022B000411A31EE811AF7EE001A31EE211A62EE60
:1022C000010A1DE001EE101AB8EE411A9FED1E2A18
:1022D000C2EE011A9FED1A1A80EE012A144E203622
:1022E0003668C6F3080601EE106AB8EE411A32EEFF
:1022F000011AB7EE002A31EE021A61EE810A00BF20
:1023000000BF0B4E20363668C6F34626721C01EE1F
:10231000102AB8EE411AC0EE811ABCEEE11A11EE95
:10232000100A00E0002001E0034800BF00BFF0BD3C
:10233000104402580090D00300093D0000127A00BA
:10234000000000460024744C0024744A0024F44A1F
:102350002DE9F047044614B90120BDE8F087207844
:1023600000F00100002872D0F948006800F0380839
:10237000F7481830D0F80090B8F1100F06D0B8F137
:10238000180F0FD109F0030002280BD1F0481038C4
:102390000068C0F3404000286ED0606800286BD110
:1023A0000120DAE700BF6068B0F5803F08D1E84857
:1023B0001038006840F48030E549103908602EE09C
:1023C000606868B9E2481038006820F48030E0495D
:1023D000103908600846006820F4802008601EE07C
:1023E0006068B0F5A02F0DD1D9481038006840F4CE
:1023F0008020D749103908600846006840F48030D2
:1024000008600CE0D2481038006820F48030D049D1
:10241000103908600846006820F48020086000BF7A
:102420006068A8B1FEF79AFB054608E0FEF796FB48
:10243000401B41F28831884201D903208DE7C4480E
:1024400010380068C0F340400028EFD014E014E0DA
:10245000FEF784FB054608E0FEF780FB401B41F2D7
:102460008831884201D9032077E7B94810380068DD
:10247000C0F340400028EFD100BF207800F00200F8
:1024800002286BD1B248006800F03808B048183014
:10249000D0F80090B8F1000F05D0B8F1180F2BD18B
:1024A00009F0030040BBAA4810380068C0F3800060
:1024B00018B1E06808B901204FE700BFFEF748FBFC
:1024C00041F2030188420BD8A1480C38006820F47F
:1024D0007C30216940EA01309D490C3908600AE0EE
:1024E0009B480C38006820F0FE40217C40EA0160E7
:1024F00097490C39086058E0E06870B39448103888
:10250000006820F01900E16808439149103908601B
:10251000FEF724FB054606E0FEF720FB401B0228E1
:1025200001D9032019E78A4810380068C0F38000F9
:102530000028F1D000BFFEF70BFB41F203018842F7
:102540000DD883480C38006820F47C30216940EABB
:1025500001307F490C3908600CE00CE026E07C4833
:102560000C38006820F0FE40217C40EA0160784988
:102570000C39086019E076481038006820F0010036
:10258000734910390860FEF7E9FA054606E0FEF7E0
:10259000E5FA401B022801D90320DEE66C4810381A
:1025A0000068C0F380000028F1D100BF207800F05F
:1025B000100010286ED16648006800F038086448A2
:1025C0001830D0F80090B8F1080F06D0B8F1180F05
:1025D0002FD109F0030001282BD15D481038006885
:1025E000C0F3002020B1E069802801D00120B4E6CA
:1025F00000BFFEF7ADFA41F2030188420CD85448FF
:102600000C38006820F0F84094F8201040EA81600F
:102610004F490C3908600BE04D48001F006820F05E
:102620007C5094F8201040EA01604949091F086075
:1026300058E0E06968B346481038006840F0800010
:10264000434910390860FEF789FA054606E0FEF7AF
:1026500085FA401B022801D903207EE63C48103849
:102660000068C0F300200028F1D000BFFEF770FA28
:1026700041F2030188420ED835480C38006820F03A
:10268000F84094F8201040EA816031490C39086024
:102690000DE00DE027E02E48001F006820F07C5080
:1026A00094F8201040EA01602949091F086019E0E8
:1026B00027481038006820F080002549103908604C
:1026C000FEF74CFA054606E0FEF748FA401B0228E2
:1026D00001D9032041E61E4810380068C0F30020ED
:1026E0000028F1D100BF207800F00800082837D179
:1026F0006069D0B116486430006840F001001449A8
:1027000064310860FEF72AFA054606E0FEF726FA6D
:10271000401B022801D903201FE60D4864300068E1
:10272000C0F340000028F1D01AE009486430006886
:1027300020F00100064964310860FEF70FFA0546F3
:1027400008E0FEF70BFA401B022803D9032004E639
:1027500010440258DC480068C0F340000028F0D163
:10276000207800F02000202836D1A069D0B1D648CA
:102770007438006840F48050D34974390860FEF71B
:10278000EDF9054606E0FEF7E9F9401B022801D9FC
:102790000320E2E5CC4874380068C0F340300028DC
:1027A000F1D019E0C8487438006820F48050C64958
:1027B00074390860FEF7D2F9054606E0FEF7CEF957
:1027C000401B022801D90320C7E5BF4874380068C0
:1027D000C0F340300028F1D1207800F00400042834
:1027E0007DD1BA48006840F48070B8490860FEF7AF
:1027F000B5F9054606E0FEF7B1F9401B642801D99A
:102800000320AAE5B148006800F480700028F2D0E7
:1028100000BFA068012808D1AB48001F006840F045
:102820000100A949091F08602DE0A06868B9A64801
:10283000001F006820F00100A349091F0860084636
:10284000006820F0040008601DE0A06805280DD194
:102850009D48001F006840F004009B49091F086064
:102860000846006840F0010008600CE09648001F30
:10287000006820F001009449091F086008460068BC
:1028800020F00400086000BFA068A0B1FEF766F960
:10289000054608E0FEF762F9401B41F288318842A4
:1028A00001D9032059E58848001F0068C0F34000A3
:1028B0000028EFD013E0FEF751F9054608E0FEF7D7
:1028C0004DF9401B41F28831884201D9032044E58B
:1028D0007D48001F0068C0F340000028EFD1606A07
:1028E00000287DD078486438006800F03800182847
:1028F00077D0606A022875D173487438006820F078
:102900008070714974390860FEF728F9054606E0C1
:10291000FEF724F9401B022801D903201DE56A486F
:1029200074380068C0F340600028F1D100BFD4E9DA
:102930000A1041EA001064494C39096840F2F33248
:102940009143084360494C390860208E401EC0F313
:102950000800616B491E4FF47E4202EA41210843A0
:10296000218F491ED20102EA014108433C21095D41
:10297000491E120202EA01610843534944390860C2
:1029800000BF081F006820F00100091F08604E48C2
:10299000403800684FF6F8718843A16C40EAC100E6
:1029A00049494039086048484838006820F00C0020
:1029B000216C08434449483908600846006820F003
:1029C0000200616C084340494839086008460068C5
:1029D00040F4803008600846006840F4003002E0AF
:1029E0006FE041E025E008600846006840F4802080
:1029F00008600846006840F00100086032487438FA
:102A0000006840F08070304974390860FEF7A6F81D
:102A1000054606E0FEF7A2F8401B022801D9032074
:102A20009BE4294874380068C0F340600028F1D066
:102A300047E025487438006820F0807022497439D6
:102A40000860FEF78BF8054606E0FEF787F8401BA6
:102A5000022801D9032080E41B4874380068C0F3C1
:102A600040600028F1D12CE017484C380768164820
:102A700044380668606A012821D007F00301A06A83
:102A800081421CD1C7F30511E06A884217D1C6F311
:102A90000801206B401E814211D1606B401EC6F3BD
:102AA000462188420BD1A06B401EC6F306418842E6
:102AB00005D1E06B401EC6F30661884201D00120BB
:102AC0004BE4002049E400007444025800480258D6
:102AD000042808D14FF0E021096941F004014FF0CA
:102AE000E022116107E04FF0E021096921F00401C3
:102AF0004FF0E0221161704770B504462546681E0C
:102B0000B0F1807F01D301200FE0681E4FF0E0217B
:102B100048610F214FF0FF3000F030FB00204FF0F4
:102B2000E021886107200861002070BD10B586B0E3
:102B300004462B492068884250D100BF00BF294875
:102B4000006840F01000274908600846006800F05F
:102B50001000009000BF00BF00BF00BF00BF2148B1
:102B60001038006840F001001E491039086008461E
:102B7000006800F00100009000BF00BF00BF00BF70
:102B800000BF0846006840F0010008600846006881
:102B900000F00100009000BF00BF00BF4FF40070C4
:102BA000019002200290012003900220049007204F
:102BB000059001A90C48FDF7AFFE4FF4806001902D
:102BC0000720059001A90848FDF7A6FE2520FEF77D
:102BD00098F8032211462520FEF7A3F806B010BD91
:102BE00000100140F0440258000002581D4A0168DC
:102BF000914236D11C49098801F4004189BB1A4928
:102C0000098801F4804171B1184909780A2903D073
:102C10000021154A118024E01349098841F400413C
:102C2000114A11801DE0114909780D2906D10E497C
:102C3000098841F480410C4A118012E00B4909785F
:102C4000094A1288C2F30D02094B995406490988B2
:102C5000491C054A118011460988C72901DD002158
:102C60001180704700100140180000241A00002451
:102C7000680B00242DE9F04104460E460027554814
:102C8000006800F00300032802D10120BDE8F081B4
:102C900050482838006820F080604E492839086084
:102CA000FDF75CFF054606E0FDF758FF401B0228D4
:102CB00001D90320EAE7474828380068C0F3C0601C
:102CC0000028F1D100BF4348006820F47C3021681F
:102CD00040EA01303F490860A088401EC0F3080068
:102CE000A168491E4FF47E4202EA41210843A189AE
:102CF000491ED20102EA01410843217C491E120209
:102D000002EA0161084333491031086000BF3148CD
:102D1000001D006820F0C000616908432D49091DAD
:102D200008600846006820F02000A169084329498E
:102D3000091D08600846006820F01000086025485A
:102D4000143000684FF6F8718843E16940EAC10029
:102D50002049143108601F48001D006840F0100031
:102D60001C49091D08602EB90846006840F400207F
:102D7000086012E0012E08D11648001D006840F4DA
:102D800080101449091D086007E01248001D006802
:102D900040F400100F49091D08600E4828380068EB
:102DA00040F080600B4928390860FDF7D7FE0546E2
:102DB00006E0FDF7D3FE401B022801D9032065E79A
:102DC000044828380068C0F3C0600028F1D03846B5
:102DD0005CE70000284402582DE9F04104460E4605
:102DE00000275548006800F00300032802D10120A5
:102DF000BDE8F08150482838006820F080504E49E6
:102E000028390860FDF7AAFE054606E0FDF7A6FE94
:102E1000401B022801D90320EAE747482838006808
:102E2000C0F340700028F1D100BF4348006820F093
:102E30007C70218840EA01503F490860A088401E0C
:102E4000C0F30800A168491E4FF47E4202EA412106
:102E50000843A189491ED20102EA01410843217CAD
:102E6000491E120202EA0161084333491831086021
:102E700000BF3148001D006820F4406061690843CC
:102E80002D49091D08600846006820F40070A169FA
:102E900008432949091D08600846006820F480702D
:102EA000086025481C3000684FF6F8718843E169D6
:102EB00040EAC10020491C3108601F48001D00681D
:102EC00040F480701C49091D08602EB9084600684E
:102ED00040F48000086012E0012E08D11648001D61
:102EE000006840F400001449091D086007E012481A
:102EF000001D006840F080700F49091D08600E48F1
:102F00002838006840F080500B4928390860FDF7E8
:102F100025FE054606E0FDF721FE401B022801D9EB
:102F2000032065E7044828380068C0F34070002893
:102F3000F1D038465CE700002844025810B5002361
:102F4000234C236000BF00BF00BFBFF34F8F00BF03
:102F500000BF00BF231F1868C0F34E3100BFC0F38D
:102F6000C90200BF43F6E07303EA41134FF0404447
:102F700004EA82742343174C236000BF00BF131E72
:102F8000A2F10102EED10B1EA1F10101E7D100BFB8
:102F900000BF00BFBFF34F8F00BF00BF00BF0C4B8F
:102FA000703B1B6843F48033094C703C236000BFC6
:102FB00000BF00BFBFF34F8F00BF00BF00BF00BF07
:102FC00000BF00BFBFF36F8F00BF00BF00BF10BDC9
:102FD00084ED00E060EF00E000BF00BF00BFBFF382
:102FE0004F8F00BF00BF00BF00BF00BF00BFBFF3D7
:102FF0006F8F00BF00BF00BF00201449086000BFF2
:1030000000BF00BFBFF34F8F00BF00BF00BF00BFB6
:1030100000BF00BFBFF36F8F00BF00BF00BF0C48F1
:10302000006840F400300A49086000BF00BF00BFDC
:10303000BFF34F8F00BF00BF00BF00BF00BF00BF86
:10304000BFF36F8F00BF00BF00BF704750EF00E0BD
:1030500014ED00E010B504480078012801D1FDF717
:1030600039FAFDF781FD10BD79000024244800687D
:1030700040F47000224908602248006840F00100D6
:103080002049086000201F49103108601D48006871
:103090001D4908401B49086000201A491831086082
:1030A000091D0860091D0860164928310860091DBE
:1030B0000860091D0860091D0860091D0860091DD8
:1030C0000860091D0860091D08600E48006820F4AA
:1030D00080200C49086000200A49603108600B48D4
:1030E00000686FF30F00B0F1005F02D201200849C1
:1030F00008604FF0006002498039086070470000A6
:1031000088ED00E0004402587FEDF6EA0010005C14
:103110000881005170B50024114DFDF7E0F9114808
:10312000FDF7E2F900BF03E0641CAC4200D904E003
:103130000C48FDF7DEF92028F6D100BF002403E09B
:10314000641CAC4200D906E0012207490548FDF79E
:10315000D5F90028F4D100BFFDF7D5F970BD000006
:10316000FFFF0100300C00241A0000240248006810
:10317000C0F30220704700000CED00E010B50028FD
:1031800004DB0A07130E054A135406E00A07140E5F
:10319000034A00F00F031B1FD45410BD00E400E0ED
:1031A00018ED00E000BF704770B5044600204FF0F6
:1031B000E02108610420FFF78BFC0C4804602546E1
:1031C0000B4800680B49B1FBF0F045434FF0E0209D
:1031D000006940F002004FF0E021086108464561B7
:1031E000006940F00100086170BD0000100000247B
:1031F000B4DB009040420F0070B50446002504E0A7
:103200004FF47A7000F004F86D1CA542F8D370BD3D
:103210002DE9F843074600264FF0E020D0F814903F
:103220001148006807FB00F86846FDF771F94FF098
:10323000E020856911E04FF0E0208469AC420CD0B9
:10324000AC4202D2281B064403E0A9EB0400284448
:1032500006442546464500D300E0ECE700BF68463B
:10326000FDF75BF9BDE8F8831000002400BF054AB4
:10327000D26902F04002002AF9D0C2B2014B9A6230
:10328000704700000010014010B500F02BF8FDF76A
:1032900077FC042302221146F02000F01DF94FF4C0
:1032A000F070FFF781FF4FF4E13000F0C9F9FDF74E
:1032B00039F9FDF73CF9FDF73FF9FDF742F9002038
:1032C000FDF744F90120FDF741F90220FDF73EF931
:1032D0000320FDF73BF90420FDF738F9FDF73BF932
:1032E000002010BD10B5FFF777FEFFF727FE03485B
:1032F000006840F004000149086010BD9CEF00E048
:1033000030B587B00546002400BF6A48006840F029
:103310000200684908600846006800F00200019059
:1033200000BF00BF00BF0846006840F0080008600A
:103330000846006800F00800019000BF00BF00BF11
:103340000846006840F0100008600846006800F079
:103350001000019000BF00BF00BF56480C38006845
:1033600040F4804053490C3908600846006800F476
:103370008040019000BF00BF4020029002200390D7
:1033800003200590012004900A20069002A94A48D3
:10339000FDF7C2FA042002900920069002A94648CF
:1033A000FDF7BAFA4FF4605002900920069002A986
:1033B0004248FDF7B1FA042002900920069002A9C4
:1033C0003F48FDF7A9FA3B486438006840F4804064
:1033D0003849643908600846006820F48040086075
:1033E00000BF3848806800F020000028F9D1364836
:1033F00034490860354848600846006840F00100DC
:10340000086000BF2F48806800F020000028F9D134
:103410004FF483702B49486100BF2A48806800F050
:1034200002000028F9D02748C06840F00200254972
:10343000C86000BF2348806800F020000028F9D150
:103440002049C861EB2444F4807444F44064A81C0F
:1034500044EA003444F4404400BF44F4801444F08F
:10346000407444F04064084644611948006820F400
:1034700080301749086016487030006820F001005D
:103480001349703108600020091D08604FF010409A
:10349000091D08600F48091D086005200C4970319E
:1034A00008600B48006840F480300949086007B0A4
:1034B00030BD0000E044025800040258000C0258DD
:1034C00000100258005000521003000101021800C1
:1034D00024ED00E02D0003032DE9F041CCB080463F
:1034E0000D4616461F4600245148006820F004008F
:1034F0004F49086000BF002001904E48006820F04E
:1035000001004C4908600846006800F00100019085
:1035100047480C30006840F4404045490C31086091
:103520000846006800F44040019000BF00BF00BFA3
:103530003F480C30006800F40050B0F5005FF7D150
:10354000212031904FF48030329000203490389018
:103550000120379002203A90022131A88162CDF8F3
:10356000F480C562466387630021416408210164D9
:1035700000218164FEF7ECFE04461CB101204CB032
:10358000BDE8F0813F204490032045900020469004
:10359000082047904020499000014A9040204890E0
:1035A0004B90042144A8FEF701FC04460CB1012015
:1035B000E5E721480290082003904FF4DC71049164
:1035C00002210591069107910021089109910A9124
:1035D000022013902020149000201F9020904FF480
:1035E0004010239002A8FDF751FE04460CB10120C3
:1035F000C5E70020FFF784FEFDF7E4FB0F480068F5
:1036000040F080000D49086000BF0C48F4300068AD
:1036100040F002000949F43108600846006800F0F3
:103620000200019000BF00BFFDF76CF90020A6E783
:103630000C4802582C0400580300040300440258AC
:1036400010B5044609480A4908600846446000214C
:103650008160C160016181610C214161FCF780FFE3
:10366000012204490248FCF749FF10BD0010014047
:10367000300C00241A0000244FF04070E1EE100AD4
:103680007047000000000102030401020304060762
:1036900008090000B4360008000000241C010000E6
:1036A000D4020008D03700081C01002494C607008B
:1036B000F00200080090D0030090D003000000004A
:1036C00000000000000000000000000000000000FA
:1036D00000000000100000000101000000F80000E0
:1036E000FFFF0000058A0090DD8A0090400D002455
:1036F0000000003000000038000000200000000042
:103700004075072400E0033000F8003800F0012085
:1037100000F80000000000000000000000000000B1
:103720000000000000000000000000000000000099
:103730000000000000000000000000000000000089
:103740000000000000000000000000000000000079
:103750000000000000000000000000000000000069
:103760000000000000000000000000000000000059
:103770000000000000000000000000000000000049
:103780000000000000000000000000000000000039
:103790000000000000000000000000000000000029
:1037A0000000000000000000000000000000000019
:1037B0000000000000000000000000000000000009
:1037C00000000000000000000000000000000000F9
:0200000490006A
:10000000782900F06D8000207047000072B67047BC
:1000100062B6704772B602B4EFF3118180F31188B3
:10002000BFF34F8FBFF36F8F084602BC62B67047B5
:1000300072B680F31188BFF34F8FBFF36F8F62B634
:10004000704730BF704720BF7047B0FA80F07047EC
:1000500090FAA0F0B0FA80F0704790FAA0F07047E4
:100060000FB4044910B503AA029800F0BFF810BC01
:100070005DF814FB140000242DE9F0410E460446FF
:10008000002020622046E168884730B3252805D04B
:10009000D4E901219047206A401CF2E7E16820463C
:1000A00000278847050018D0A5F14100192802D87B
:1000B00020354FF400673246294620462760FFF777
:1000C0009FFF40B1012804D0F61D26F00706083630
:1000D000D8E7361DD6E72846DAE7206ABDE8F08182
:1000E00070B504460D4621461068AFF300802188A4
:1000F000090502D50F4A7A4402E00E4A7A440E32CC
:10010000002104F1240305E000F00F060009965DCC
:100110005E54491C0028F7D120780023000704D53D
:10012000702D02D009B1022311322046BDE8704083
:1001300000F002B842DC00002DE9F0470D46994678
:100140009246044600F124080168880604D5E06957
:1001500021F01001216000E00120A84201DD471BD1
:1001600000E00027A1697A1902EB0900081AA061D2
:100170002078C00602D42046AFF30080002608E0B5
:10018000D4E901211AF806009047206A401C761C29
:1001900020624E45F4DB2078C0060AD52046AFF336
:1001A000008006E0D4E9012130209047206A401CFD
:1001B0002062381EA7F10107F4DC07E0D4E9012131
:1001C00018F805009047206A401C2062281EA5F1FF
:1001D0000105F3DC2046AFF300802078000602D54D
:1001E0000220BDE8F0870120FBE70000074B70B557
:1001F0000D467B4400F011F80446284600F020F834
:1002000010B14FF0FF3070BD204670BD77300078E0
:1002100001694A1C02610878704700B58FB0CDE9CA
:1002200001310021059105497944CDE903101146BA
:100230006846FFF721FF0FB000BD0000E5FFFFFF9C
:10024000007B00F08000704772B64EF62250CEF26E
:10025000000040F2FF01C0F200010170002080F3B5
:10026000098840F26C00C2F20040016881F30888FE
:1002700001F034FE40F29A00C2F2004040F29B01CD
:10028000C2F200410A78027040F21410C2F200403B
:1002900040F21811C2F200410A680260106880F34F
:1002A0000988EFF3148040F0020020F0040080F38E
:1002B0001488BFF36F8FBDE8F04F0FBCBDE800504E
:1002C00006BC62B6084726484FF08051016070476F
:1002D00072B640F27002C2F20042116881F31188D6
:1002E000BFF34F8FBFF36F8F62B6EFF309801EF03D
:1002F000100F08BF20ED108A20E9F04F40F21415CE
:10030000C2F2004529680860744601F0E7FD40F23A
:100310009A00C2F2004040F29B01C2F200410A780A
:10032000027040F21811C2F200410A682A6044F0DB
:10033000040E1068B0E8F04F1EF0100F08BFB0ECCC
:10034000108A80F3098840F20002C0F2000272B6FF
:1003500082F31188BFF34F8FBFF36F8F62B6704780
:1003600004ED00E042F2251CC0F6000C604740F6A8
:10037000191CC0F6000C604740F26D5CC0F6000C22
:10038000604742F62D3CC0F6000C604740F6433C07
:10039000C0F6000C604743F2F91CC0F6000C604741
:1003A00040F65D3CC0F6000C604742F6ED3CC0F6FE
:1003B000000C604740F6096CC0F6000C604740F640
:1003C0002D6CC0F6000C604741F25D0CC0F6000CCD
:1003D000604740F27B3CC0F6000C604742F2DD0C07
:1003E000C0F6000C604742F2011CC0F6000C6047EA
:1003F00040F6213CC0F6000C604743F2112CC0F6D9
:10040000000C604740F6954CC0F6000C604740F683
:10041000394CC0F6000C604740F6C14CC0F6000CE9
:10042000604740F6313CC0F6000C604700BFFEE775
:1004300010B500F021F800F019F810BD10B5002437
:1004400000BF00BF4020FFF7E5FD044600BF00BF2E
:100450001021054800F0A8FB00BF00BF2046FFF7B1
:10046000E7FD00BF00BF10BD80B0072410B5FFF747
:10047000E5FF10BD00BFFEE710B50020024908608F
:1004800000F00AF810BD000068000024014908606F
:10049000704700006800002410B50A48006840F06A
:1004A00080700849086000200749486008460068D5
:1004B00040F001000860FFF755FF0446FFF7E6FF34
:1004C00010BD0000FCED00E0001000E001484068B5
:1004D00070470000001000E07047000070B504464F
:1004E000B3F5804F13D1D1E9000540EA05108D68BE
:1004F00040EA05208D6928438D8940EA054054F87B
:100500002250064E3540284344F8220003E06FF0A5
:10051000704044F82200002070BD00000000F0CFC1
:1005200030B50246086852F8200020F001000C683F
:1005300042F824008868082801D1402300E0002305
:10054000486818438C682043CC6820430C692043DA
:100550004C6920438C692043CC6920430C6A2043BA
:100560004C6A20438C6A2043CC6A20430C6B2043A6
:100570004C6B20438C6B20430C6852F824400D4D8B
:100580002C4020430C6842F82400086BB0F5801F13
:1005900007D1086828B1106820F480100C6B204344
:1005A0001060086818B110684C6B20431060002080
:1005B00030BD00008004C0FF30B50346D1E900051E
:1005C00040EA05108D6840EA05208D8940EA05451E
:1005D000088A401E45EA0055087D801E45EA0060F5
:1005E0008D692843551C53F8255005F04045284394
:1005F000551C43F82500186800F48010B0F5801FE2
:100600000BD1586820F47004088A401E44EA005454
:10061000586820F4700020435860002030BD00006E
:1006200070B504460E4615460CB9012070BD94F80D
:10063000450028B9002084F84400204600F028F83E
:1006400004F108012068FFF76BFF3146A2682068BB
:10065000FFF7B2FF2946E36AD4E90102FFF73EFF44
:10066000A168206850F8210040F00100A2682168CC
:1006700041F822000548006840F000400349086046
:10068000012084F845000020D0E70000004000521F
:1006900010B586B0044600BF2048006840F4805082
:1006A0001E4908600846006800F48050009000BFB2
:1006B00000BF00BF19480C30006840F0080017491F
:1006C0000C3108600846006800F00800009000BF88
:1006D00000BF00BF0846006840F0100008600846F0
:1006E000006800F01000009000BF00BF4CF20370E3
:1006F00001900220029001200390032004900C201E
:10070000059001A90648FFF732FE4FF68070019070
:1007100001A90448FFF72BFE06B010BDD4440258CF
:10072000000C02580010025870477047704770471D
:100730000146D1F88030D1F8842043EA02007047A6
:100740002DE9F04704462068C569206806682068DE
:10075000876840F60F0005EA0008B8F1000F0FD1D6
:1007600005F0200060B106F0200010B907F08050BD
:1007700030B1E06E10B12046E16E8847BDE8F087E9
:10078000B8F1000F7ED06E48384018B96D4830403F
:100790000028F7D005F0010058B106F4807040B190
:1007A000012021680862D4F8880040F00100C4F8F4
:1007B000880005F0020058B107F0010040B10220A6
:1007C00021680862D4F8880040F00400C4F888006A
:1007D00005F0040058B107F0010040B10420216881
:1007E0000862D4F8880040F00200C4F8880005F0E0
:1007F000080070B106F0200010B95148384040B1EF
:10080000082021680862D4F8880040F00800C4F885
:10081000880005F4006060B106F0806048B14FF4D4
:10082000006021680862D4F8880040F02000C4F815
:100830008800D4F88800002844D005F0200050B18A
:1008400006F0200010B907F0805020B1E06E10B122
:100850002046E16E8847D4F888902068806800F0D0
:100860004000402802D009F0280028B3204603F0B9
:1008700083F92068806800F04000402818D1206883
:10088000806800E01FE020F0400021688860A06FD1
:1008900050B12D48A16F0865A06FFFF76DFD88B1BD
:1008A000A06F016D88470DE02046FFF740FF09E08B
:1008B0002046FFF73CFF05E02046FFF738FF002009
:1008C000C4F888005AE705F4801050B107F480009E
:1008D00038B14FF48010216808622046FFF726FFE8
:1008E0004CE705F0800058B106F0800010B907F41D
:1008F000000028B1206F10B12046216F88473DE7E6
:1009000005F0400030B106F0400018B1204603F079
:1009100047F933E705F4000030B106F0804018B124
:100920002046FFF702FF29E705F0807030B106F09E
:10093000004018B12046FFF7F7FE1FE700BF1DE794
:1009400001000010200100045F3B009010B5044638
:100950000CB9012010BDA06900B100E000BFD4F8BF
:10096000800028B9002084F87C002046FFF709FDAC
:100970002420C4F880002068006820F0010021686D
:100980000860204603F040FA012800D1E2E7A06A9F
:1009900010B1204603F02DF82068406820F4904004
:1009A000216848602068806820F02A0021688860FB
:1009B0002068006840F0010021680860204603F0CC
:1009C00094F8C7E710B50346D3F88400202874D103
:1009D00001B10AB9012010BD00BF93F87C000128C5
:1009E00001D10220F7E7012083F87C0000BF996560
:1009F000A3F85C20A3F85E200020D86600BF9868AA
:100A0000B0F5805F0AD1186920B940F2FF10A3F851
:100A1000600020E0FF20A3F860001CE0986848B95F
:100A2000186918B9FF20A3F8600014E07F20A3F82C
:100A3000600010E09868B0F1805F09D1186918B9BA
:100A40007F20A3F8600006E03F20A3F8600002E0EA
:100A50000020A3F8600000BF0020C3F88800222017
:100A6000C3F884001868806840F001001C68A0602A
:100A7000586EB0F1005F21D1B3F8680090421DDCE0
:100A80009868B0F5805F04D1186910B91848D86625
:100A900001E01848D86600BF002083F87C0000BF42
:100AA0001868006840F480701C68206018688068CE
:100AB00040F080501C68A06016E017E09868B0F520
:100AC000805F04D1186910B90B48D86601E00B4863
:100AD000D86600BF002083F87C0000BF186800685B
:100AE00040F490701C682060002074E7022072E7D8
:100AF000353C0090553D0090C33B0090E93C009090
:100B0000704700BFFEE7000000BF002240211848E8
:100B1000FFF73CFC00BF17A0FFF7A2FA4FF47A7072
:100B2000FFF739FC19A0FFF79BFA4FF47A70FFF733
:100B300032FC00BF00BF00BF00BF00BFBFF34F8F3C
:100B400000BF00BF00BF1648006800F4E060154910
:100B50000843001D1249086000BF00BF00BFBFF37B
:100B60004F8F00BF00BF00BF00BF00BFFDE7000008
:100B7000001002584D656D20416363657373204515
:100B800072726F7221210D0A00000000536F6674AB
:100B9000205265736574696E672E2E2E0D0A000053
:100BA0000CED00E00000FA0530B505460C46224683
:100BB0000021284600F001F830BD2DE9F04105463E
:100BC0000B4694460027002402E03F021F43641CAA
:100BD000042CFAD3604605F00306294646B1344694
:100BE00003E001F8013B401E641C08B1042CF8D35B
:100BF0000A4601E080C2001F0428FBD2114602E031
:100C000001F8013B401E0028FAD1BDE8F081704791
:100C10007047000070B5044600F09EF80020394986
:100C200008703949087039490870394908603949EC
:100C300008603949087039490870394908703948DD
:100C400000680A21B0FBF1F03749086037480568B1
:100C500045B13748066803E0761E002028602D1D48
:100C6000002EF9D1324801683048006802F03AFAA3
:100C700001F096FD01F0B8FD00202E4908602E49D4
:100C80000880204601F07EFB208800B170BD204620
:100C900001F084FB208800B1F8E7002027490860B4
:100CA00027490880274908602749088027490860A4
:100CB00027490880204602F08FF9208800B1E5E737
:100CC000204601F027FB208800B1DFE7204602F034
:100CD00015FA208800B1D9E7204602F049F82088AB
:100CE00000B1D3E7204602F09BFC208800B1CDE79D
:100CF00001F0D8F9FFF78CFF01201649087000BFFA
:100D0000C4E700007800002479000024A600002435
:100D100014010024180100249A0000249B000024E0
:100D2000AC000024B4DB0090A800002480DB00901D
:100D300084DB0090840000248800002494000024B8
:100D400098000024A0000024A4000024B000002487
:100D5000B40000247A0000240C4909680C4A126887
:100D600001EB82010B4A11601146096821F007016D
:100D700011600949086800F04041B1F1404F01D0CD
:100D800000BFFEE74021054A1160704780DB0090FC
:100D900084DB00906C00002434EF00E0700000243D
:100DA00008480078012800D0704707480078FA28E2
:100DB00000D3F9E704480078401C0349087000BFDD
:100DC000F2E70000790000247800002470B50025C7
:100DD00038480078012800D070BD00BF4020FFF7E0
:100DE00019F9054600BF3448007828B900BF2846E5
:100DF000FFF71EF900BFEFE72F480078401E2E498D
:100E000008700846007828B100BF2846FFF710F99F
:100E100000BFE1E72948007828B100BF2846FFF766
:100E200007F900BFD8E7264801682648006802F0A5
:100E300045F90446012C02D0002000F0ABF901F086
:100E4000A5FC214908700846007800EB40001F49C6
:100E500051F820001E490860084600681D490968CD
:100E600088420FD1002000F05BFF0446012C03D024
:100E70001848006800F08EF900BF2846FFF7D8F840
:100E800000BFA9E712480068D0F89400401C104940
:100E90000968C1F8940010480068401C0E490860B9
:100EA000FFF711FA00BF2846FFF7C2F800BF00BFE6
:100EB00092E700007900002478000024A6000024B6
:100EC00084DB009080DB00909B000024F0B90724B5
:100ED0001801002414010024D40000242DE9F0415D
:100EE00004460E46154600272148007820B142F6F8
:100EF000E1602880BDE8F0811CB945F6C350288028
:100F0000F8E700BF00BF4020FFF784F8074600BFA6
:100F100000BF1849206888420AD100BF00BF384688
:100F2000FFF786F800BF00BF45F6C1502880E1E713
:100F300010482060666000202062606284F828000B
:100F4000E06204F1080001F06CFB204601F08CFA2D
:100F500009480088401C0849088000BF00BF384687
:100F6000FFF766F800BF00BF0020288000BFC1E780
:100F7000780000244D555458980000242DE9F0477E
:100F80000646894617461C46089D4FF0000A7C48D5
:100F9000007820B146F2AE102880BDE8F08779488D
:100FA0000078012803D045F689602880F5E71EB94E
:100FB00045F6C3502880F0E71FB1B7F5004F02D1C6
:100FC00000E000BF03E045F625602880E5E700BFAC
:100FD0006D493068884203D045F6C4502880DCE76C
:100FE00000BF00BF4020FFF715F8824600BF00BFDA
:100FF00096F82800B8B9654800687062012086F844
:1010000028000CB1F06A206031466048006801F0A9
:1010100043FA00BF00BF5046FFF70AF800BF00BF09
:1010200000202880B9E75949706A0968884221D1AF
:1010300096F82800FF280AD100BF00BF5046FEF7EF
:10104000F7FF00BF00BF45F284702880A5E796F83F
:101050002800401C86F828000CB1F06A206000BF10
:1010600000BF5046FEF7E4FF00BF00BF45F28270AC
:10107000288092E707F4004068B100BF00BF5046E7
:10108000FEF7D6FF00BF00BF0CB10020206046F283
:10109000B010288081E73E48007868B100BF00BFEB
:1010A0005046FEF7C5FF00BF00BF0CB10020206016
:1010B00046F66350288070E7D6F8248098F83B0005
:1010C0003249096891F83B10884206DD2F480068D4
:1010D00090F83B10404601F0D1FE4B4604222B48CD
:1010E0000168304601F02EFA00BF00BF5046FEF7FF
:1010F0009FFF00BF00BF00F055F800BF00BF4020B9
:10110000FEF788FF824600BF00BF2048006890F8C5
:10111000390030B101280CD002281AD0032821D17F
:1011200010E01CB119480068C06C206000202880C5
:101130001CE01CB115480068C06C206046F2A91084
:10114000288013E00CB10020206047F2D9202880CD
:101150000CE01CB10D480068C06C206045F6C25020
:10116000288003E046F62E60288000BF00BF00BF45
:1011700000BF5046FEF75CFF00BF00BF00BF0CE79A
:1011800078000024790000244D555458140100249F
:10119000A600002410B5044600BFFFF76BF900BF9E
:1011A00010BD000010B5002422480078012800D0AE
:1011B00010BD2148007800B1FAE72048007800B15E
:1011C000F6E700BF4020FEF725FF044600BF01F010
:1011D000DDFA1B4908700846007800EB4000194909
:1011E00051F8200018490860084600681749096846
:1011F000884205D100BF2046FEF71AFF00BFD7E79F
:1012000011480068D0F89400401C0F490968C1F8E3
:1012100094000F480068401C0D490860FFF753F820
:1012200000BF2046FEF704FF00BFBFF36F8F00BF73
:10123000BEE700007900002478000024A600002406
:101240009B000024F0B90724180100241401002495
:10125000D400002470B5044600251748007818B162
:1012600046F66250208070BD14480078012803D0F3
:1012700045F689602080F6E711480078FA2803D304
:1012800045F209202080EEE700BF00BF4020FEF7B6
:10129000C1FE054600BF00BF09480078401C084950
:1012A000087000BF00BF2846FEF7C2FE00BF00BFA7
:1012B0000020208000BFD6E77800002479000024B9
:1012C000A60000242DE9F04105460C4616460027ED
:1012D00000BF00BF4020FEF79DFE074600BF00BFD5
:1012E0001DB900200D49087002E001200B4908706B
:1012F00014B10B48046006E00A4800680A21B0FBFC
:10130000F1F00749086000BF00BF3846FEF790FEC5
:1013100000BF00BF00203080BDE8F081AC00002499
:10132000A8000024B4DB009070B5044600251F48D7
:10133000007818B146F66550208070BD1C480078D2
:10134000012803D045F689602080F6E71948007827
:1013500018B946F664502080EFE700BF00BF402078
:10136000FEF758FE054600BF00BF12480078401E39
:10137000104908700846007850B100BF00BF2846E9
:10138000FEF756FE00BF00BF46F663502080D4E74C
:1013900000BF00BF2846FEF74BFE00BF00BFFFF7AF
:1013A00001FF0020208000BFC7E700007800002474
:1013B00079000024A600002470B504461C4800787B
:1013C000012803D045F68B60208070BD00256D1C80
:1013D0006D1C6D1C17480088A84203DC45F68C6024
:1013E0002080F2E714480078E8B901F0CFF91349FA
:1013F000087008460078124908701048007800EB21
:101400004000104951F820000F4908600846006864
:101410000E490860012008490870FEF715FF43F6E1
:101420009920208002E045F68A60208000BFCCE74A
:101430007A000024DC000024790000249B000024B2
:101440009A000024F0B90724180100241401002494
:101450002DE9F04107464FF0000800BF00BF4020D3
:10146000FEF7D8FD804600BF00BF00203B49088042
:101470003B4908603B4908603B4908603B490860BC
:101480003B4908603B49088100BF00BF4046FEF76A
:10149000CFFD00BF00BF00BF00BF4020FEF7BAFD78
:1014A000804600BF00BF3448046800BF00BF40460C
:1014B000FEF7BEFD00BF00BF21E000BF00BF40201F
:1014C000FEF7A8FD804600BF00BF002044F8800F53
:1014D000E06260612082608220626062FEF7F6FF57
:1014E000E061803C04F16C060020B081D4F8BC407F
:1014F00000BF00BF4046FEF79BFD00BF00BF002CB1
:10150000DBD100BF00BF4020FEF784FD804600BF56
:1015100000BF1A48056800BF00BF4046FEF788FDBF
:1015200000BF00BF13E000BF00BF4020FEF772FD08
:10153000804600BF00BF05F120060020B081AD69E4
:1015400000BF00BF4046FEF773FD00BF00BF002D87
:10155000E9D100203880BDE8F0810000BA00002405
:10156000D0000024EC000024F0000024040100243A
:1015700008010024E4B90724D8000024A0000024B6
:10158000F8B504460026002000903848007801286D
:1015900003D045F689602080F8BD6946344800F0E4
:1015A000DBFBBDF8000018B1BDF800002080F3E7B8
:1015B0006A460021022000F0C5FCBDF8000018B109
:1015C000BDF800002080E7E700BF00BF4020FEF725
:1015D00021FD064600BF00BF00202649086000BF6D
:1015E00000BF3046FEF724FD00BF00BF00252248A3
:1015F000006822490968884205D91F4800681F49C8
:101600000968B0FBF1F525B91B4800680A21B0FB59
:10161000F1F56A460021284600F094FC694614481A
:1016200000F0ECF9BDF8000018B1BDF80000208012
:10163000B2E700BF00BF4020FEF7ECFC064600BF4B
:1016400000BF00200E4908600A4800680D49086084
:1016500001200D49087000BF00BF3046FEF7E8FCCE
:1016600000BF00BF0020208000BF95E77900002464
:1016700088BC0724BC000024B4DB00909CDB0090F5
:10168000D0000024C0000024C800002470470000DF
:101690002DE9FF4F85B004469346DDE91995DDE954
:1016A0001286159F002002906248007828B147F208
:1016B0004A10288009B0BDE8F08F1CB947F2AD1080
:1016C0002880F7E7BBF1000F03D147F24F102880C5
:1016D000F0E71EB946F62F602880EBE75648006811
:1016E000874203D246F630602880E3E71498B84278
:1016F00003D346F631602880DCE7B8F11E0F06D927
:10170000B8F11F0F03D046F273202880D2E7B8F15A
:101710001F0F06D14948844203D046F27320288027
:10172000C8E7204601F068FC0020288009F001008D
:1017300010B909F0020088B109F0020070B1B24698
:101740000020049007E00020CAF800000AF1040A13
:101750000498401C04900498B842F4D3149806EB03
:1017600080000390CDE9007932465846039B0899E2
:1017700000F06EFA8246B24503D246F63260288007
:1017800098E73946304601F0ADFCC4F824B008981B
:10179000A0620698E06084F83B8084F83C80C4F83E
:1017A00000A00398A0601798E065179818B924481E
:1017B0000068206601E0179820661898606026622D
:1017C0006764A4F8489004F16C00169900F044FE98
:1017D000204600F03BF800BF00BF4020FEF71AFC97
:1017E000029000BF00BF94F83B0000F0E5FF2046E8
:1017F00001F042F8204601F0B5FB12480088401C79
:101800001049088010480078012807D000BF00BFA9
:101810000298FEF70DFC00BF00BF4BE700BF00BF02
:101820000298FEF705FC00BF00BFFFF7BBFC00BF3E
:1018300040E7000078000024B0DB009020B90724C6
:10184000A8000024DC000024790000247047000078
:101850002DE9F04104460E464FF00008614800783B
:1018600020B147F24E103080BDE8F0815E4800782C
:10187000012803D045F689603080F5E75B48844253
:1018800003D147F24C103080EEE784B900BF00BFAF
:101890004020FEF7BFFB804600BF00BF54480468ED
:1018A00000BF00BF4046FEF7C3FB00BF00BF00BF44
:1018B00000BF4020FEF7AEFB804600BF00BF94F89B
:1018C0003A0008285ED2DFE800F004090E10080A8A
:1018D0000F11204601F00EF85FE05EE000BF2046E9
:1018E00001F0B6FC59E000BF00BF00BF94F838001B
:1018F000082839D2DFE800F0040705380D0809068A
:1019000000BF00BF31E000BF00BF204600F0C1FEB5
:101910002BE0606B456A15F83B7F204600F0B9FE6E
:10192000287869783B3D884212D095F83B0094F8BE
:101930003B1088420CD1284600F0E1FD074695F89F
:101940003C00B84202DA95F83C0000E03846074611
:10195000002084F8380095F83B00B84203D039469F
:10196000284601F08BFA00E000BF00BF94F83A006F
:10197000032803D094F83A00072802D1204601F04A
:1019800067FC0AE000BF00BF4046FEF751FB00BF06
:1019900000BF46F62D60308066E700BF206C10B1B6
:1019A000204600F07DFD04F16C0000F035FD20467E
:1019B00000F022F8204601F0EDFA0E480088401EA3
:1019C0000C490880FF2084F83A000020308000BFD6
:1019D00000BF4046FEF72CFB00BF00BFFFF7E2FB55
:1019E00000BF41E7780000247900002420B90724D3
:1019F00014010024DC0000247047000070B5044688
:101A00000D4600265648007818B147F25510288038
:101A100070BD54480078012803D045F689602880BD
:101A2000F6E700BF00BF4020FEF7F4FA064600BF0D
:101A300000BF1CB14C48006884420AD100BF00BFFF
:101A40003046FEF7F5FA00BF00BF47F25710288076
:101A5000DEE700BF00BF3046FEF7EAFA00BF00BF76
:101A600000BF00BF4020FEF7D5FA064600BF00BF0A
:101A70000020288094F83A0008285ED2DFE800F0C1
:101A8000040506071227394B00BF00BF00BF00BF87
:101A900000BF3046FEF7CCFA00BF00BF47F253103C
:101AA000288055E014F88E0F401E207014F88E091F
:101AB00028B9002084F83A00204600F0A7FE00BFB5
:101AC00000BF3046FEF7B4FA00BF00BF40E014F894
:101AD0008E0F401E207014F88E0910B9012084F872
:101AE0003A0000BF00BF3046FEF7A2FA00BF00BFB9
:101AF0002EE014F88E0F401E207014F88E0910B9D5
:101B0000022084F83A0000BF00BF3046FEF790FA8A
:101B100000BF00BF1CE014F88E0F401E207014F8A8
:101B20008E0910B9032084F83A0000BF00BF304688
:101B3000FEF77EFA00BF00BF0AE000BF00BF3046DC
:101B4000FEF776FA00BF00BF46F62D60288000BF82
:101B500000BF288800B15BE7FFF724FB00BF57E711
:101B6000780000247900002414010024704700004C
:101B70002DE9F05F05460E4617461C464FF0000B58
:101B80003148007820B147F259102080BDE8F09F1D
:101B90001EB946F2D5202080F8E71FB946F2D520BD
:101BA0002080F3E700BF00BF4020FEF733FA8346F2
:101BB00000BF00BF0DB925480568286868B900BF97
:101BC00000BF5846FEF734FA00BF00BF0020306067
:101BD000386047F252102080D8E795F8480000F0AE
:101BE000010068B900BF00BF5846FEF721FA00BFE8
:101BF00000BF00203060386047F254102080C5E7F5
:101C0000D5F820A00AF1200AD5F8449000BF00BF03
:101C10005846FEF70DFA00BF00BF4FF0000803E082
:101C20000AF1040A08F10108C84503D2DAF80000F5
:101C30000028F5D0C6F80080A9EB08003860002025
:101C4000208000BFA2E700007800002414010024D7
:101C5000F0B50446DDE9055602EB850020F00700EB
:101C60004FF0807C071F3846C7F800C0071F384672
:101C70003C60DFF8A8C0071F3846C7F800C04FF027
:101C8000123C071F3846C7F800C04FF0033C071F3F
:101C90003846C7F800C04FF0023C071F3846C7F867
:101CA00000C0071F38463B60071F384639606FF099
:101CB000020C071F3846C7F800C04FF0113C071F41
:101CC0003846C7F800C04FF0103C071F3846C7F829
:101CD00000C04FF0093C071F3846C7F800C04FF05E
:101CE000083C071F3846C7F800C04FF0073C071FE5
:101CF0003846C7F800C04FF0063C071F3846C7F803
:101D000000C04FF0053C071F3846C7F800C04FF031
:101D1000043C071F3846C7F800C0F0BDA53000904E
:101D200030B504460CB90B480468216A2068884223
:101D300006D3616C206A00EB81002168884201D8DB
:101D4000002030BD616C206A01F0B8F905462846D4
:101D5000F7E700001401002470B504460D46002684
:101D60005948007818B147F25D10288070BD574877
:101D7000844203D147F25B102880F7E700BF00BF21
:101D80004020FEF747F9064600BF00BF84B950481F
:101D9000007801280AD000BF00BF3046FEF748F99E
:101DA00000BF00BF45F689602880DFE74948046826
:101DB0004848006884420DD14748007850B100BFC0
:101DC00000BF3046FEF734F900BF00BF46F663504F
:101DD0002880CBE70020288094F83A0008285FD2BA
:101DE000DFE800F0041523313F404142042084F82D
:101DF0003A00012084F88E00204600F07BFD00BFF1
:101E000000BF3046FEF714F900BF00BF53E00520C5
:101E100084F83A00012084F88E0000BF00BF3046ED
:101E2000FEF706F900BF00BF45E0062084F83A003F
:101E3000012084F88E0000BF00BF3046FEF7F8F89E
:101E400000BF00BF37E0072084F83A00012084F883
:101E50008E0000BF00BF3046FEF7EAF800BF00BFAB
:101E600029E000BF00BF00BF94F88E00FF280AD110
:101E700000BF00BF3046FEF7DBF800BF00BF47F2EF
:101E80006010288072E794F88E00401C84F88E0061
:101E900000BF00BF3046FEF7CBF800BF00BF0AE02E
:101EA00000BF00BF3046FEF7C3F800BF00BF46F6D4
:101EB0002D6028805AE700BF05480078012801D12D
:101EC000FFF770F900BF51E77800002420B907241C
:101ED0007900002414010024A600002470B5FEF748
:101EE000F5FA05461548006815490968884215D075
:101EF00012480068D0F89C00281A10490968C1F8F7
:101F000098000E480068D0F8A0000C490968D1F884
:101F10009810084409490968C1F8A00008480068F9
:101F2000C0F89C500020FFF7FBFE0446012C03D0B4
:101F300002480068FFF72EF970BD0000140100246C
:101F4000180100242DE9F04106460D4614460027ED
:101F50002748007820B147F275202080BDE8F08145
:101F600024480078012803D045F689602080F5E7F1
:101F70002148007818B146F663502080EEE735B16D
:101F8000022D05D0042D05D0082D04D101E000BF9D
:101F900000BF00BF03E045F625602080DEE700BFFC
:101FA00000BF00BF4020FEF735F8074600BF00BF66
:101FB00023462A4631461148006801F003F920887B
:101FC00038B100BF00BF3846FEF732F800BF00BF8F
:101FD000C4E70A48006800F08DFC00BF00BF384627
:101FE000FEF726F800BF00BFFFF7DCF800BFB5E73B
:101FF0007800002479000024A600002414010024A5
:1020000010B50A480078012800D010BD00F014F87F
:102010000749097801EB4101064A02EB810000F013
:1020200097FC012001F0DEF900BFEEE77900002403
:102030009A000024F0B90724704710B5002400BFAF
:1020400000BF4020FDF7E6FF044600BF00BFFEF7DB
:10205000A7FE00BF00BF2046FDF7EAFF00BF00BF9C
:10206000FFF7CEFFFEF7B2FE10BD000010B501462F
:1020700040224B1E4FF0E0246361094B186820F0AA
:102080007F4040EA0260186023461B6943F0050365
:10209000236123461B6943F00203236110BD000046
:1020A00020ED00E00EB547480290474800904748B1
:1020B000029047480290474800904748029047489E
:1020C000019047480290474802904748029047488D
:1020D000029047480190474801904748019047487F
:1020E000029047480190474802904748019047486E
:1020F000019047480190474801904748029047485F
:10210000029047480290474801904748029047484C
:10211000029047480190474801904748019047483E
:10212000019047480190474801904748029047482E
:10213000029047480290474802904748019047481C
:10214000019047480190474802904748029047480D
:1021500002904748019047480190474801904748FE
:1021600000904748019047480290474802904748EE
:1021700002904748029047480290474802904748DB
:1021800002904748019047480290474802904748CC
:1021900001904748019047480290474802904748BD
:1021A00001904748019047480290474802904748AD
:1021B0000190474801900298029001980190009880
:1021C00000900EBDD4DB009038DD0090D5DB009090
:1021D000D6DB0090D8DB0090DCDB0090E0DB0090E9
:1021E000DDDB009008DC009009DC00900ADC009048
:1021F0000CDC00900EDC009010DC009030DC0090D5
:1022000032DC009034DC009036DC009038DC00904A
:102210003ADC00903CDC00906CDC00906DDC0090BF
:102220006EDC009070DC009072DC009073DC00903B
:1022300074DC009076DC009078DC00907ADC009012
:102240007CDC009080DC0090B0DC0090B1DC009081
:10225000B2DC0090B3DC0090B4DC0090B6DC0090FF
:10226000B8DC0090E0DC0090E1DC0090E2DC009063
:10227000E3DC0090E4DC0090E6DC0090E8DC009019
:10228000ECDC0090EDDC0090EEDC0090EFDC0090E8
:10229000F0DC0090F1DC0090F2DC0090F3DC0090C8
:1022A000F4DC0090F6DC0090F7DC0090F8DC0090A5
:1022B000FADC0090FCDC0090FDDC0090FEDC00907D
:1022C00000DD009030DD009031DD009032DD0090C7
:1022D00034DD0090002400BF00BF00BF4020FDF7A8
:1022E00099FE044600BF00BF08480068401C07492B
:1022F000086007480068401C0549086000BF00BF2F
