:020000040800F2
:10000000D8C4012089020008795C00088F2A000802
:100010005D5C0008710900085B79000800000000C1
:100020000000000000000000000000001560000853
:10003000CD10000800000000895C0008AD600008D9
:10004000A3020008A3020008A3020008A3020008FC
:10005000A3020008A3020008A3020008A3020008EC
:10006000A3020008A3020008A3020008A3020008DC
:10007000A3020008A30200082D0F0008A90F000822
:10008000A3020008A3020008A3020008A3020008BC
:10009000A3020008A3020008A3020008A3020008AC
:1000A000A3020008A3020008A3020008A30200089C
:1000B000A3020008A302000805610008A3020008CB
:1000C000A3020008A3020008A3020008A30200087C
:1000D000A302000829660008A3020008A302000882
:1000E000A3020008A3020008A3020008A30200085C
:1000F000A3020008A3020008A3020008A30200084C
:10010000A3020008A3020008A3020008A30200083B
:10011000A3020008A3020008A3020008A30200082B
:10012000A3020008A3020008A3020008A30200081B
:10013000A3020008A3020008A3020008A30200080B
:10014000A3020008A3020008A30200087D5C0008C7
:10015000A3020008A3020008A3020008A3020008EB
:10016000A3020008A3020008A3020008A3020008DB
:10017000A3020008A3020008A30200080000000078
:10018000A3020008A302000800F002F800F06DF8D6
:100190000AA090E8000C82448344AAF10107DA45E2
:1001A00001D100F062F8AFF2090EBAE80F0013F0C7
:1001B000010F18BFFB1A43F001031847D0E00000FD
:1001C000F0E000000A444FF0000C10F8013B13F07F
:1001D000070408BF10F8014B1D1108BF10F8015BA0
:1001E000641E05D010F8016B641E01F8016BF9D193
:1001F00013F0080F1EBF10F8014BAD1C0C1B09D1EA
:100200006D1E58BF01F801CBFAD505E014F8016B5B
:1002100001F8016B6D1EF9D59142D6D370470000ED
:100220000023002400250026103A28BF78C1FBD8FF
:10023000520728BF30C148BF0B607047642900F0E7
:100240001781752900F01481782900F04D81632908
:1002500000F0A182732900F0A682002070471FB52C
:1002600009F0AEFB1FBD10B510BD00F0CFFA11466E
:10027000FFF7F5FF07F008FE00F0EDFA03B4FFF713
:10028000F2FF03BC07F037FD0948804709480047E3
:10029000FEE7FEE7FEE7FEE7FEE7FEE7FEE7FEE736
:1002A000FEE7FEE704480549054A064B7047000093
:1002B000B160000889010008D8BE0120D8C401201F
:1002C000D8C00120D8C00120704753EA020C00F0CA
:1002D00069802DE9F04B4FF00006002B1FBFB3FAE9
:1002E00083F503FA05F424FA05F65E4012BF1643BF
:1002F000B2FA82F502FA05F4C5F120051EBF22FA12
:1003000005FC44EA0C04203556EA044C4FEA144438
:1003100018BF641C4FF000084FF00009904271EBC9
:10032000030C39D3002919BFB1FA81F701FA07F696
:10033000B0FA80F700FA07F6C7F120071EBF20FACF
:1003400007FC46EA0C062037B6FBF4FCA7EB0507D2
:10035000103F07F01F0BCBF120060CFA0BFB2CFA19
:1003600006F644BFB3460026202FA4BF5E464FF0DA
:10037000000B5BEA060C08BF4FF0010B19EB0B09F1
:10038000ABFB027C48EB0608C01B06FB02CC0BFB58
:1003900003CC71EB0C01C1E70B46024641464846CF
:1003A000BDE8F08B13B54FF000004FF00001AFF344
:1003B0000080BDE81C4070470FB4044910B503AA83
:1003C000029800F0F5F910BC5DF814FB180000204D
:1003D00070B5044685690068C10601D5302600E085
:1003E0002026C00707D070BDD4E9012130469047D0
:1003F000206A401C20626D1EF6D570BD70B50446A3
:1004000085690078C00707D170BDD4E9012120209B
:100410009047206A401C20626D1EF6D570BD70B5F5
:100420000C460546012A05D02878800600D5EA69E1
:10043000002302E0012305E05B1C934202D2E05C52
:100440000028F9D1A869E618C01AA861286A1844DA
:1004500028622846FFF7BCFF04E0D5E9012114F823
:10046000010B9047B442F8D32846FFF7C7FF70BD91
:100470002DE9F0410646002410687529314616A57D
:1004800010D0AFF30080002802DA404213A507E045
:1004900031688A0701D512A502E0490704D511A5E4
:1004A000012401E0AFF3008000210A2206F12407B5
:1004B00009E0B0FBF2FCB0FBF2F302FB1C003030B1
:1004C00078541846491C0028F3D123462A46304662
:1004D000BDE8F04100F0FCB8000000002D00000075
:1004E0002B0000002000000070B504460D46214698
:1004F0001068AFF300802188090502D50F4A7A44BD
:1005000002E00E4A7A440E32002104F1240305E091
:1005100000F00F060009965D5E54491C0028F7D1D3
:1005200020780023000704D5702D02D009B10223E2
:1005300011322046BDE8704000F0CAB8BADC0000B5
:100540002DE9F05F894604464FF0000ADFF874B1E8
:10055000FB44C0F820A02046E1688847002874D0FA
:10056000252806D0D4E901219047206A401C20624A
:10057000F1E700265F462046E168884720280546C7
:1005800007DB312D05D2781910F8200C08B106438D
:10059000F1E7B00701D526F00406C4F81CA0002737
:1005A000C4F818A02A2D09D0284607F09DFB38B3BF
:1005B00004EB8708303DC8F8185019E059F8041BBF
:1005C000204604EB87029161E1688847012F0546C8
:1005D00018D1E069002820DA26F020061DE0D8F8BE
:1005E000180000EB800005EB40003038C8F8180018
:1005F0002046E1688847054607F076FB0028EED1E3
:10060000012F0AD02E2D08D12046E16888477F1C93
:100610000546022F46F02006C4DBA069002803DA55
:10062000404246F00106A061F00701D026F0100616
:100630006C2D0BD0682D09D04C2D39D06A2D35D0BA
:10064000742D35D07A2D33D016E038E0E1682F468E
:1006500020468847B842054609D16C2F26D04FF472
:100660008060E168064320468847054604E06C2F19
:100670001AD04FF4807006430DB3A5F1410019283C
:1006800002D8203546F400664A46294620462660B0
:100690004E46FFF7D3FD80B101280BD0F61D26F0A2
:1006A000070000F1080956E74020E4E78020D8E77A
:1006B0000020D6E706F104094DE7284652E7206AF4
:1006C000BDE8F09F90DC00007047704770477047AE
:1006D0002DE9F0470D4699469246044600F124085C
:1006E0000168880604D5E06921F01001216000E06E
:1006F0000120A84201DD471B00E00027A1697A190B
:1007000002EB0900081AA0612078C00602D4204636
:10071000FFF75EFE002608E0D4E901211AF8060082
:100720009047206A401C761C20624E45F4DB2078FE
:10073000C0060AD52046FFF74BFE06E0D4E90121AA
:1007400030209047206A401C2062381EA7F1010724
:10075000F4DC07E0D4E9012118F805009047206A8D
:10076000401C2062281EA5F10105F3DC2046FFF79E
:1007700045FE2078000602D50220BDE8F087012062
:10078000FBE710B5436913B1AFF3008001E0FFF759
:1007900046FE012010BD127800F124010A700022EB
:1007A0004A700122EDE711684FF0FF32E9E70000DF
:1007B000074B70B50D467B4400F011F804462846FF
:1007C00000F020F810B14FF0FF3070BD204670BD32
:1007D000BB76000001694A1C02610878704700B5C9
:1007E0008FB0CDE901310021059105497944CDE96A
:1007F000031011466846FFF7A3FE0FB000BD0000CE
:10080000E5FFFFFF007B00F080007047754600F0B9
:100810002BF8AE4605006946534620F00700854692
:1008200018B020B5FFF73EFDBDE820404FF00006B0
:100830004FF000074FF000084FF0000B21F00701C8
:10084000AC46ACE8C009ACE8C009ACE8C009ACE80B
:10085000C0098D46704710B50446AFF300802046AE
:10086000BDE81040FFF70ABD0048704778BE012080
:1008700070B51F4D0E460524297851B1052908D0C1
:1008800013467208012B06D0022B23D0032B23D151
:1008900017E02C7020E00226012906D0042904D09C
:1008A000022902D0032904D016E0114600F022F8F4
:1008B00005E00146012000F0A9FC0028E9D12E70D6
:1008C00014E0022908D1022000F0C2FC0028E0D187
:1008D00004200AE0022901D0FF2070BD014600205B
:1008E00000F094FC0028D4D103202870002070BDB3
:1008F000100300202DE9F041164E0D460446F17814
:10090000B07810B1401EC0B200E0632001227270C6
:10091000491CCFB2632F00D90027874208D17F1C22
:10092000FFB2632F00D9002739460BA0FFF744FD23
:10093000F77000220D4806E0A15CF37850F82330F0
:100940009954521C92B2B2EB450FF5D3BDE8F04179
:1009500002F05ABA8403002062616420706F7369E8
:1009600074696F6E3A25640D0A000000E8BC01202E
:10097000FEE710B50B460C0601F07F0202EB820188
:1009800000EBC10102D501F58E7101E001F55D7149
:100990000A70DA094A7006F0D7FD002010BD0A4639
:1009A00010B5090602F07F0306D503EB830100EBC7
:1009B000C10101F58E7105E002EB820100EBC1017E
:1009C00001F55D7100248C700B70D2094A7006F03D
:1009D000A2FD002010BD70B50D460E0601F07F048B
:1009E00004EB840100EBC10102D501F58E7101E039
:1009F00001F55D71ED090C704D708A60CB7000D00F
:100A0000CC80022B01D100220A7106F05BFD002090
:100A100070BD10B501F07F0404EB840100EBC1014F
:100A2000C1F88833C1F880230023C1F88C3381F8E2
:100A3000753381F87443C37801F55D71012B00D1E2
:100A40000A6114F0FF0F03D006F0B0FD002010BDC6
:100A500006F0CDFCFAE70069002261F30A12016892
:100A60001143016070470A4610B5090602F07F0382
:100A700006D503EB830100EBC10101F58E7105E0A2
:100A800002EB820100EBC10101F55D7101248C7064
:100A90000B70D2094A7006F071FD002010BD70B5D0
:100AA00011F07F0404EB840100EBC1014FF001055C
:100AB00081F81D5181F81C41C1F82821C1F82C2171
:100AC00001F58E714FF00002C1E9053203D006F046
:100AD0006DFD002070BD06F08AFCFAE770B5044693
:100AE00006F06AFCE068C16821F47055C5602046D4
:100AF00006F062FE0146002003290FD00120A070FD
:100B00004020A08025F4705000F5A050E168C86036
:100B1000E1684FF400504861012070BDA0704FF4AF
:100B20000070A08025F4705000F51050EEE7000032
:100B30002DE9F0410646002406F061FE074650E02C
:100B4000F8074CD03069E1B20369426BCA4006EB4A
:100B5000810102F00102896943EAC2128D681540E1
:100B6000E9071AD00125426B05FA04F18A43426372
:100B700006EB8400806985601C48E1B20068426829
:100B800030469047F078012807D134B996F8110122
:100B9000042802D1304606F083FC280704D506EB72
:100BA0008400082580698560E80604D506EB84008A
:100BB000102580698560680604D506EB8400402511
:100BC00080698560A80704D506EB8400022580694A
:100BD0008560280603D52146304600F060F97F087D
:100BE000641C002FACD10120BDE8F081240200205C
:100BF0002DE9F0410546002406F007FE0746DFF820
:100C0000988043E0F8073FD0E1B2284606F003FEA3
:100C10000646C00725D005EB84000126416D8E6095
:100C2000E97801290CD1406D016904EB840005EBE2
:100C3000C000C1F31201D0F87C23511AC0F88C1304
:100C4000D8F80000E1B2026828469047E878012809
:100C500007D134B995F81101052802D1284606F0CC
:100C60001FFCB00704D505EB84000226406D8660AA
:100C7000300709D5D8F8000081682846884705EB79
:100C800084010820496D88607F08641C002FB9D159
:100C90000120BDE8F08100002402002070B5054667
:100CA000C068816921F010018161E868066A06F078
:100CB0000F0000EB800005EBC004C6F3434004F5D1
:100CC0005D74072821D2DFE800F0202004202020D6
:100CD000150047F6F070064217D0C6F30A163246E2
:100CE0002846E16806F09FFDE0683044E060A069B6
:100CF000304409E0082205F2CC51284606F093FD65
:100D0000A069C6F30A110844A061E868816941F04E
:100D100010018161012070BD38B5044600208DF8B6
:100D2000000094F812018DF8000015480068416930
:100D30002046884720698068E2684FF4006151616D
:100D4000A17AD1B1C00718D094F81501012814D1A7
:100D50009DF80000032810D1D4F80C01016841F07F
:100D600001010160D4F80C01016841F00301016048
:100D70000448016841F006010160012038BD00000F
:100D80002402002010ED00E070B504460069002543
:100D90000126416821F0010141602946204606F004
:100DA000E9FC0020FF2206E004EB80018B699A60D9
:100DB000496D8A60401C61788142F5D821694FF005
:100DC000FF3088612846216966F30F0066F31F40F3
:100DD000C861216945F00B004861216945F00B00AD
:100DE00008612069016821F4FE610160204606F077
:100DF00057FBE1684FF4805048610348006801697F
:100E000020468847012070BD2402002070B50446AA
:100E100006F01AFD0120002384F8120184F8143131
:100E20001A46402510E002EB820104EBC10181F873
:100E30001D0181F81C21A1F8222181F81F31C1E98F
:100E40004953521CC1F8303161789142EBD80020EF
:100E500010E000EB800104EBC10181F8753381F8EB
:100E60007403A1F87A0381F87733C1E9DF53401C9A
:100E7000C1F8883361788142EBD8204606F094FAB5
:100E8000204606F090F90021204606F03DFD204660
:100E900006F0C9F92046BDE8704006F045BC2DE9D2
:100EA000F0470E4601EB860100EBC1048046D4E911
:100EB0004C01401AD4F8241104F58E74814200D2FA
:100EC0000846C01C08EB86098708D9F81800816914
:100ED00020E0451AA068A84200D20546E81C870811
:100EE000ABB2F2B24046E16806F023FDE068284468
:100EF000E060A0692844A061D9F818108969626986
:100F0000824207D1207801228240D8F81000436B3A
:100F10009343436388B2B84205D9D4E905018142BD
:100F200001D20028D5D10120BDE8F08730B41A489D
:100F30001B4D1B4A0068194B194C603DB83A98424A
:100F400002D91649543903E0A04203D9134958394C
:100F5000096804E0A84201D9516800E0116811F065
:100F6000006F17D04FF00061984202D90B484C38FF
:100F700003E0A04203D909485038016004E0A842C8
:100F800001D9D16000E0916006484068002801D096
:100F900030BC004730BC7047400C00205864024011
:100FA000B86002402800002030B41A481B4D1B4A8C
:100FB0000068194B194C603DB83A984202D916495D
:100FC000543903E0A04203D913495839096804E0B1
:100FD000A84201D9516800E0116811F0200F16D025
:100FE0002021984202D90C484C3803E0A04203D992
:100FF00009485038016004E0A84201D9D16000E0FE
:10100000916007480068002801D030BC004730BC20
:1010100070470000E00B002058640240B8600240B6
:101020002800002001681823CAB2103AB2FBF3F27C
:10103000054B6FF30901032A9B5CC36500D9091DA9
:101040008165084670470000E299000810B5014626
:1010500000208B698A6A4FF0C07453B1B3F5005F0A
:1010600015D072B1012A0CD0022A0AD0032A09D164
:1010700004E01AB1012A06D0022A03D1C96AC901C3
:1010800000D5012010BDC96AA142FAD010BD002AC6
:10109000F7D0012AF2D0022AF3D0032AF3D010BDF0
:1010A00010B5046863608368402B036803D09960BF
:1010B0000068C26010BD9A600068C16010BD000089
:1010C000014900200870704710030020704700009D
:1010D0002DE9F0411E4D16460F460024C021002088
:1010E00007F0D2F845F82400641CA4B2642CF5D3B0
:1010F000D5F88C01E8B1012300225902104601F015
:10110000C7FC304601F0FEFC384600F0B9F8D5E9DE
:101110000001602201F030FD0F490E48086001F027
:1011200073FE324639460DA0FFF746F90020BDE8B0
:10113000F08110A0FFF740F90024002055F824109A
:1011400007F096F8641CA4B2642CF6D30120EEE7F5
:10115000E8BC0120717D0008280000204556414C64
:101160005F415544494F5F496E69743A25642C25A7
:10117000640D0A004D616C6C6F63204572726F7272
:10118000210D0A002DE9F04101282DED028B31D00F
:101190001B4E307808F003FB0F4647EC100B9FED19
:1011A000198B044653EC182B51EC100B08F00AFB7A
:1011B00008F0C8FA47EC104BC5B253EC182B51ECB1
:1011C000100B08F0FFFA08F0BDFAC0B2294606F08D
:1011D00081FC307808F0E3FA53EC182B08F0F2FAAF
:1011E00008F0B0FAC0B206F01CFDBDEC028B002086
:1011F000BDE8F0810021084606F06CFC0020F2E713
:1012000084030020295C8FC2F528E43F70B50E4AA4
:101210000023B8B101205070D078401CD070D07835
:10122000632800D9D370094B0020D5780C5C53F8A3
:1012300025502C54401C80B2C028F6D301F0E4FDA8
:10124000002070BD5370FBE784030020E8BC012040
:1012500010B5014603A0FFF7AFF808490020487019
:1012600010BD00004556414C5F415544494F5F5306
:10127000746F703A25640D0A00000000840300209A
:101280002DE9F041194D2DED028B287008F087FAF9
:101290000F4647EC100B9FED168B044653EC182BB2
:1012A00051EC100B08F08EFA08F04CFA47EC104B9A
:1012B000C6B253EC182B51EC100B08F083FA08F06F
:1012C00041FAC0B2314606F005FC287808F067FA0A
:1012D00053EC182B08F076FA08F034FAC0B206F096
:1012E000A0FCBDEC028B0020BDE8F081840300204F
:1012F000295C8FC2F528E43F70B5B3F5804F05D067
:101300006FF0704140F82210002070BD50F822307C
:10131000084C2340D1E9004544EA05148D688E89C4
:101320002D0245EA064589692C430C431C4340F8CD
:101330002240E9E70000F0CFF0B50C6850F82450E7
:10134000114A1540D1E90123D1E903671A433E430D
:1013500032434E6932438E693243CE6932430E6A5C
:1013600032434E6A32438E6A3243CE6A3243CE6B88
:10137000096B32430A432A43082B01D142F0400251
:1013800040F824200020F0BD8000F0FF30B500EBD5
:1013900082004268D1E9003443EA04138C688D89E5
:1013A000240244EA054423430C8A084D02F04042DB
:1013B00005EB045423430C7D6D0105EB046489693E
:1013C00023430B4313434360002030BD0000F0FF74
:1013D0000148007870470000100300202DE9F0411B
:1013E000044680680025069E80280ED094F83400BC
:1013F00001280FD0012084F8340094F8350001282A
:101400000AD002252846BDE8F0814FF4807060655F
:101410000125F7E70220F6E7022084F8350020686E
:10142000076847F480270760206803613346204639
:10143000FFF736FE2068016841F001010160E1E735
:1014400090F83510022903D08021416501207047B2
:10145000052180F835100068016821F00101016064
:101460000020704770B504002BD094F83500022896
:1014700026D02068016821F0010101602068002564
:10148000056020684560206885602068C560206828
:1014900005612168212048612046FFF7C3FDE5630F
:1014A00025646564A564E564256594F85C203F21A6
:1014B00091408160656584F8355084F8345000208F
:1014C00070BD012070BD00002DE9F041044600F020
:1014D00055F905465CB1002684F83460022084F892
:1014E00035002068016821F0010101600DE0012054
:1014F000BDE8F08100F042F9401B052805D9202005
:101500006065032084F83500F2E720680068C007B2
:10151000F0D121680A6820480240D4E90103184349
:10152000D4E903352B43184363691843A36918436F
:10153000E3691843236A18431043626A042A03D1FB
:10154000D4E90B231A431043086020684069656A98
:1015500020F0070128460D43012704280CD1A06A7A
:101560000543E06A40B12046FFF770FD20B14020FE
:10157000606584F83570BAE7206845612046FFF75A
:1015800051FD94F85C203F2191408160666584F8AC
:1015900035700020ACE700003F8010F02DE9F84FD7
:1015A000DFF88C91002209F1040A0AF1040B4FF0D4
:1015B0000F080BF1040E01260B6896403340B3422E
:1015C00071D14C68022C01D0122C11D1D40800EB3F
:1015D00084073D6A5407E40E08FA04FC25EA0C056A
:1015E000D1F810C00CFA04FC4CEA050CC7F820C076
:1015F00007685400032591F804C0A5400CF0030CC3
:10160000AF430CFA04FC4CEA070CC0F800C04F686A
:10161000012F05D0022F03D0112F01D0122F11D18D
:101620008768D1F80CC0AF430CFA04FC4CEA070CF5
:10163000C0F808C04768B7430E79C6F30016964055
:101640003E434660C668AE438D68A5403543C560DD
:101650004C68E40065D5374C256845F48045256025
:10166000246822F0030504F480440094324C2E19BF
:10167000D6F808789407250F08FA05F4A7432F4CED
:10168000A04201D1002424E02D4CA04201D101242C
:101690001FE02C4CA04201D102241AE02A4CA042A7
:1016A00002D1032415E03CE0284CA04201D10424DF
:1016B0000FE0274CA04201D105240AE0254CA042AE
:1016C00001D1062405E0244CA04201D1072400E00A
:1016D0000824AC403C43C6F80848D9F800404D46C1
:1016E0004E689C43F60300D51C432C60DAF800409A
:1016F00055464E689C43B60300D51C432C60DBF86E
:1017000000405D464E689C43F60200D51C432C60A9
:10171000DEF8004075464E689C43B60200D51C4377
:101720002C60521C102AFFF446AFBDE8F88F000071
:10173000003C0140443802400030014000000240BB
:101740000004024000080240000C02400010024069
:101750000014024000180240001C024000690840CA
:1017600000D0012070470AB1816170470904FBE78E
:1017700001480068000C7047002004E001488068C0
:1017800070470000040000202DE9FF410446006876
:101790008168784A784D4FF040260091904201D1FF
:1017A000294600E0314689680191406890460290E0
:1017B00001D1284600E030464068039060684FF051
:1017C0000107B0F5007F1CD0D8B1880705D5039874
:1017D000000602D5204601F06DFA0098C0070FD030
:1017E000029840067FD521682046CA68E16A8B1CB2
:1017F000E3620A80618E491E6186618E002967D08E
:1018000071E00098800719D50298000616D5616A24
:1018100020468A1C626222680988D160618D491E57
:101820006185618D51B901684A6822F0A0024A6061
:10183000418E19B980F8417000F0A0F80198C007F6
:1018400005D00398400602D5204601F003FA01981E
:10185000400622D5039880061FD52168414501D155
:10186000284600E03046406820F0600101D128465B
:1018700000E0304641602068416821F0A0014160ED
:101880002068C1688068019084F84170606C40F005
:1018900002006064204600F072F80098000767D5E7
:1018A0000298800664D52068416821F0A00141605B
:1018B0002168414501D1284600E03046406820F0CB
:1018C000600000D03546686020688068009043E082
:1018D00001684A6822F060024A60418D19B980F8B7
:1018E000417000F04BF8009840061ED50298800623
:1018F0001BD52068416821F06001416021684145A5
:1019000001D1284600E03046406820F0A00101D116
:10191000284600E03046416084F84170606C40F039
:1019200002006064204600F02AF8019800071FD5E5
:10193000039880061CD52168414501D1284600E066
:101940003046406820F0A00000D03546686020682E
:10195000416821F06001416084F84170606C40F0A2
:101960000400606404B02046BDE8F04100F007B810
:10197000BDE8FF81003800400034004070477047E8
:101980002DE9F047040005D094F841004FF000081D
:1019900018B109E00120BDE8F08784F84080514883
:1019A0006063204600F0A6F8022684F841602068B3
:1019B000C16940F6BF77B943C161206806626069BA
:1019C0004FF40079022828D0E06870B12025A06883
:1019D000202800D86D00012000F050F92169494508
:1019E00018D1E16819B1A90002E01025EFE7E9007C
:1019F000B0FBF1F000EB800061694000B0FBF1F05A
:101A0000401D0A21B0FBF1F000F00101401A40082E
:101A1000090204E0B0FBF5F0ECE702200021821E91
:101A2000FE2A04D3606C40F010006064B2E72269C3
:101A30000843024320680262D4E901100143A2690D
:101A4000E068104301432068C269BA43114341F47E
:101A50000061C161206A01283AD123486063234DA7
:101A6000226823484FF04021AA4201D1024600E0FB
:101A70000A46D36923EA070301D1024600E00A4679
:101A8000D3612268AA4201D1024600E00A461662EA
:101A90002368AB4201D1024600E00A46D26996B201
:101AA00062684A451BD0D2B100222789B4F80CC025
:101AB00047EA0C07B4F818C04CEA020C47EA0C07D6
:101AC000BAB2324342F40062AB4200D00846C2616F
:101AD000C4F84480012084F8410000205BE74FF403
:101AE0008072E2E7152D00088917000800380040D1
:101AF000003400401E4810B5016886B041F48041B2
:101B00000160006800F480400590194810380168B1
:101B100041F002010160016801F0020105910168D4
:101B200041F0040101600068694600F0040005907E
:101B30004FF44050009002200190012002900320B9
:101B40000390052004900B48FFF728FD4C200A4C19
:101B5000009069462046FFF721FD042100910621EF
:101B6000049169462046FFF719FD06B010BD00003C
:101B700040380240000402400008024070477047AD
:101B80000248816802781144816070470400002097
:101B9000094810B5016841F400710160016841F421
:101BA00080610160052000F057F80F2000F006F872
:101BB00000F024F8002010BD003C024070B50D4D2F
:101BC00004464FF47A712878B1FBF0F00A490968AD
:101BD000B1FBF0F000F0C4FD48B9102C07D2002290
:101BE0002146501E00F018F800206C6070BD0120E6
:101BF00070BD000004000020000000207047002895
:101C000009DB00F01F02012191404009800000F132
:101C1000E020C0F800117047F0B40E4B1B68C3F30E
:101C20000223C3F10704042C00D904241D1D072D31
:101C300001D2002300E0DB1E012606FA04F56D1E2A
:101C40000D409D409E40761E164045EA0601F0BCC0
:101C500006F03AB80CED00E0064A00F00701106803
:101C60004FF6FF03184040EA012003490843106083
:101C7000704700000CED00E00000FA05014600206E
:101C8000012907D11049096811F4000103D0012985
:101C900000D10E4870470C48001F016800684902D7
:101CA00000F03F0001D50A4900E00A49064AB1FBAD
:101CB000F0F07C321168C1F3881141431068C0F321
:101CC0000270B1FBF0F07047083802400080BB00A2
:101CD00000127A000024F4002DE9F843044600685D
:101CE0004FF00109C1074FF0000501D1400726D58B
:101CF000DFF80C81C8F86850FFF740FD0646414FF9
:101D000004E0FFF73BFD801B022857D8386800012C
:101D1000F7D46068217A800140EA01703949843142
:101D20000860C8F86890FFF729FD064604E0FFF751
:101D300025FD801B022841D838680001F7D520789E
:101D4000800752D52F484030016841F08051016032
:101D500000682D4F00F080500090386840F480708B
:101D60003860FFF70BFD064604E0FFF707FD801B18
:101D7000022823D83868C005F7D5224E703630685F
:101D800010F4407020D0A18901F4407181421BD031
:101D900030681E4920F44070C1F800900D6030603A
:101DA0003068C00710D0FFF7E9FC054641F28837DC
:101DB00007E0FFF7E3FC401BB84202D90320BDE86F
:101DC000F88330688007F4D5E0680E49C0F301223B
:101DD0000831032A0BD0086820F4F8100860306836
:101DE000A189C1F30B01084330600020E7E70A68CE
:101DF000074B22F4F812184002430A60EFE7000094
:101E0000000047420038024000700040400E474248
:101E1000FFFCFF0F2DE9F0470D46040065D0DFF809
:101E20001491D9F80000EFB200F00F00A84207D2D9
:101E300089F80070D9F8000000F00F00A84254D1D2
:101E400020683D4E810712D5400703D5306840F425
:101E5000E05030602078000703D5306840F46040DF
:101E600030603068A16820F0F000084330602078CE
:101E7000C0072DD0304960680839012812D00228E7
:101E800013D0032811D00968890700292DDA316899
:101E900021F0030101433160FFF770FC804641F2FD
:101EA000883A0EE009688903EFE709688901ECE7E1
:101EB000FFF764FCA0EB0801514502D90320BDE8FF
:101EC000F0873068616800F00C00B0EB810FEFD153
:101ED000D9F80010484601F00F01A94207D9077050
:101EE000006800F00F00A84201D00120E7E7207849
:101EF000400705D53068E16820F4E05008433060C1
:101F00002078000706D53068216920F4604040EA57
:101F1000C100306000F036F83168084AC1F303119F
:101F2000515CC840064908600F20FFF747FE0020BB
:101F3000C5E70000003C024008380240CA9900088A
:101F4000000000200448054900680968044AC1F3FC
:101F50008221515CC84070470000002008380240D0
:101F6000DA9900080448054900680968044AC1F381
:101F70004231515CC84070470000002008380240E0
:101F8000DA990008154810B5006810F00C011448E3
:101F900013D0431004290FD008290ED10F4C241F51
:101FA000216801F03F022168490207D52068C0F38B
:101FB0008810A0FB030106E0184610BD2168C1F39C
:101FC0008811A1FB00010023FEF77FF92168C1F30E
:101FD0000141491C4900B0FBF1F010BD0838024036
:101FE0000024F4002DE9F84F040073D02078BD4D93
:101FF000C00748D0BB4808300168C1F381010129FE
:1020000008D00068C0F3810002280AD1281D0068AA
:10201000400206D52868800335D560680028E4D0E2
:1020200031E06068B0F5803F10D0B0F5A02F28688F
:1020300010D020F480302860286820F480202860A8
:102040006068A0B1FFF79AFB06460CE0286840F4F0
:102050008030F4E740F480202860F7E7FFF78EFB3C
:10206000801B642872D828688003F7D50BE0FFF73F
:1020700085FB064604E0FFF781FB801B6428F1D84E
:1020800028688003F7D42078DFF85C9280074FF04F
:10209000000A3ED593480830016811F00C0F09D0B2
:1020A0000068C0F3810002280BD18E48001D006833
:1020B000400206D42868800715D5E068012809D1B8
:1020C00011E0E068B8B10120C9F80000FFF756FB45
:1020D000064605E003E1FFF751FB801B0228C1D84B
:1020E00028688007F7D52868216920F0F80040EAC1
:1020F000C10028600DE0C9F800A0FFF73FFB0646CD
:1021000004E0FFF73BFB801B02281FD828688007EC
:10211000F7D42078000722D5724F7449606974376C
:1021200070B101200860FFF729FB064604E0FFF7C5
:1021300025FB801B022809D838688007F7D50EE0F8
:10214000C1F800A0FFF71AFB064605E081E0FFF7A3
:1021500015FB801B02287CD838688007F7D42078CC
:10216000400769D5DFF87CB14FF000080BF1400B58
:10217000DBF80000C0000CD4DBF8001041F0805107
:10218000CBF80010DBF800004FF0010800F08050A1
:102190000090574F3868C0050FD4386840F48070FD
:1021A0003860FFF7EBFA064604E0FFF7E7FA801B1A
:1021B00002284ED83868C005F7D54A4FA068703756
:1021C00001280FD00528386810D020F001003860B1
:1021D000386820F004003860A068B0B1FFF7CEFA8C
:1021E00006460EE0386840F00100F4E740F00400D5
:1021F0003860F7E7FFF7C2FA811B41F2883081426D
:1022000065D838688007F5D50DE0FFF7B7FA0646C0
:1022100006E0FFF7B3FA811B41F28830814256D8BD
:1022200038688007F5D4B8F1000F05D0DBF800104E
:1022300021F08051CBF80010A069C8B329490831BA
:102240000968C1F38101022949D00228504607D00C
:1022500000E03CE0C9F86000FFF790FA044639E07E
:102260004F46C9F86000FFF789FA064604E0FFF719
:1022700085FA801B02282AD828688001F7D4D4E97F
:1022800007010843A16A1B4A490802EB0141626A3F
:1022900041EA8211084394F82C1040EA0161114888
:1022A000001D016001203866FFF768FA044605E06A
:1022B00013E0FFF763FA001B022808D828688001A2
:1022C000F7D50AE0FFF75AFA001B022802D90320CB
:1022D000BDE8F88F28688001F4D40020F8E70120D9
:1022E000F6E700000038024000004742800E4742F7
:1022F000007000400000FFFF70B5040004D094F8A7
:102300005100002510B106E0012070BD84F8505046
:10231000204600F037F8022084F851002068016858
:1023200021F040010160D4E901010843D4E903121E
:102330001143084361690843218B01F4007108438C
:10234000E1690843216A0843A16A084321680860DB
:10235000A069042101EA1040616A084321684860CD
:10236000A06AB0F5005F02D12168E06A08612068C8
:10237000C16921F40061C1616565012084F85100E3
:10238000002070BD114800B5016887B041F002011E
:102390000160006800F0020005900C4814300168EC
:1023A00041F4805101600068012100F480500590E3
:1023B000382000900220CDE901010390052004900F
:1023C00069460348FFF7EAF807B000BD303802401D
:1023D000000402402DE9F84F044690F85000012512
:1023E00000270A9E984692468B4601280FD001206E
:1023F00084F85000FFF7C2F994F8511081466268E2
:10240000404601290CD0B2F5827F07D102E00220BC
:10241000BDE8F88FA2680AB9042901D0022703E1B8
:10242000BBF1000F3CD0BAF1000F39D0B8F1000F6A
:1024300036D094F85110042902D0052184F85110A7
:1024400000216165C4F838A0A4F83E80A4F83C805F
:10245000C4F830B0A4F83680A4F8348021646164F4
:10246000A16A4FF40058414509D121680A6822F455
:1024700000520A6021680A6842F400520A6021682A
:102480000A68520603D40A6842F040020A60E16812
:10249000B1F5006F616805D0F1B301284DD08DE032
:1024A0000127C1E009B1012840D1206B21680088D3
:1024B000C860206B801C2063E08E401EE08635E003
:1024C00020688168890717D5E18EA9B1012D13D144
:1024D000216B0988C160206B801C2063E08E401E48
:1024E000E086E08E002538B9A06A404504D1206816
:1024F000016841F48051016020688168C9070DD0EE
:10250000E18F59B1C068A16B0880A06B801CA063EB
:10251000E08F401EE08700E00FE00125FFF72EF975
:10252000A0EB0900B04201D3701C5DD1E08E002801
:10253000C6D1E08F0028C3D146E0206B2168007827
:102540000873206B401C2063E08E401EE08635E05F
:1025500020688168890717D5E18EA9B1012D13D1B3
:10256000216B09780173206B401C2063E08E401EB4
:10257000E086E08E002538B9A06A404504D1206885
:10258000016841F48051016020688168C9070BD05F
:10259000E18F49B1C068A16B0870A06B401CA063BB
:1025A000E08F401EE0870125FFF7E8F8A0EB090067
:1025B000B04202D3701C01D016E0AEB1E08E00280C
:1025C000C6D1E08F0028C3D1A06A404510D10122B6
:1025D000334611462046CDF8009003F0D7FB28B1D2
:1025E000606D40F00200606503271DE02068C06850
:1025F00020688168C90607D5616D41F002016165F7
:102600004FF6EF71816001274A463146204603F0BC
:1026100091FB18B101272020606505E0A06818B97A
:102620002068C16880680090012084F85100002073
:1026300084F850003846EBE670B515460E460400A7
:1026400003D094F8490010B107E0012070BD0020CC
:1026500084F84800204600F01BF804F108012068C7
:10266000FEF76AFE3146A2682068FEF78FFED4E9C5
:1026700001022946236BFEF73FFEA168206850F84F
:10268000212042F0010240F82120002070BD00000E
:10269000284810B5016886B041F00101016000686A
:1026A00000F00100059023480838016841F0080156
:1026B0000160016801F008010591016841F0100115
:1026C0000160016801F010010591016841F02001ED
:1026D0000160016801F020010591016841F04001AD
:1026E00001600068694600F0400005904CF23370CC
:1026F00000900220019001200290032003900C2002
:1027000004900D48FEF74AFF4FF68070009069462E
:102710000A48FEF743FF4FF4805469460848009486
:10272000FEF73CFF694607480094FEF737FF06B006
:1027300010BD000038380240000C0240001002407A
:1027400000140240001802404FF0E02104280869FC
:1027500003D020F004000861704740F00400FAE75D
:1027600010B5401EB0F1807F01D3012010BD4FF0A5
:10277000E02460610F21601705F0A6FA0020A06137
:1027800007202061002010BD10B5040003D094F88C
:102790003D0010B107E0012010BD002084F83C008E
:1027A000204600F00CF8022084F83D00211D20682E
:1027B00003F0C2FC012084F83D00002010BD7047EA
:1027C0000168CA6842F00102CA600068816801F0CD
:1027D0000701062903D0016841F0010101600020D2
:1027E0007047704710F8391F407808437047000061
:1027F00070B5026804461068D168536910F00F0F75
:1028000050D003F0010501F4907635435DD0C20746
:1028100005D0CA0503D5E26B42F00102E26342072C
:1028200005D5DA0703D0E26B42F00202E2638207C9
:1028300005D5DA0703D0E26B42F00402E263020737
:1028400005D5DA0703D0E26B42F00802E263E26BDF
:10285000002A33D0800604D5880602D5204603F02E
:102860000FFD20684069E16BC0F38010090700D4B8
:1028700028B3204603F0F6FC2068416949061AD5C2
:10288000416921F040014161606BA0B11B490165C4
:10289000606BFEF7D5FD002810D0606B016DBDE8C0
:1028A00070400847830610D58B060ED52046BDE83C
:1028B000704003F0E5BC2046FFF793FF70BD204653
:1028C000FFF78FFF0020E06370BD030606D50B06FF
:1028D00004D52046BDE8704003F074BE4006F3D531
:1028E0004806F1D5D168204621F04001D160202171
:1028F00084F8391000F0CAF870BD00005562000875
:1029000070B5040004D094F83900002510B106E039
:10291000012070BD84F83850204600F023F82420B0
:1029200084F839002068C16821F40051C160204654
:1029300003F0F2FC2068016921F4904101612068F4
:10294000416921F02A0141612068C16841F40051C8
:10295000C160E563202084F8390084F83A00002043
:1029600070BD000010B500681A4986B088422FD1AA
:102970001948016841F001010160006800F00100A0
:10298000059015481430016841F01001016000689D
:10299000012100F0100005904FF40070009002201B
:1029A000CDE90101039007200C4C049069462046B4
:1029B000FEF7F4FD2115009169462046FEF7EEFD75
:1029C0002520FFF71CF9032211462520FFF724F9E3
:1029D00006B010BD00100140303802400000024037
:1029E00090F83A30202B22D1F9B1F2B190F838307A
:1029F000012B1CD081628285C2850021C163222205
:102A000080F83A2080F838100168CA6842F4807271
:102A1000CA6001684A6942F001024A610068C168FF
:102A200041F02001C1600020704701207047022062
:102A30007047000030B50068114988420CD1114A36
:102A40005088010408D41146440409784FF000036B
:102A500006D50A2901D0538030BD40F400400DE076
:102A60000D2909D0C0F30D04074D401C80B2295533
:102A70005080C728EFD830BD40F48040508030BD32
:102A80000010014014000020880900207047FEE774
:102A900070B51A4C184D2560C4E901106815C4E9D9
:102AA00003300220C4E905020020E0610120206219
:102AB0002046FEF765FF281D016841F00201016014
:102AC0000F48016841F0010101602068C16941F4CB
:102AD0008061C1610A482168001F4FF04022A9426D
:102AE00001D1014600E01146C96941F4806100D07E
:102AF0001046C16170BD000000380040980B0020F6
:102B0000043400407FB50021184A0A23B0FBF3F4D7
:102B100001EB810532F81550AC4203D0491CC9B213
:102B20000B29F3D30B294FF001001CD0009001EBCF
:102B3000810002EB400460880190A0880290684602
:102B4000FFF7CAF80A48016841F080610160016836
:102B50000901FCD5E088218940EA0120054940F4BB
:102B600000700860002004B070BD00002AE1000879
:102B70000038024020380040F8B50E46304915466E
:102B800007460A68002042F400120A6009682D4CCA
:102B900001F400110091A4F148018C63A1632A495A
:102BA000C4E900104021C4E9021009012161490073
:102BB00061618900A1614911E1614902C4E908101C
:102BC000E06220632046FEF74DFC2046FEF77CFCC9
:102BD00033461E4A394620460095FEF7FFFB206823
:102BE000016821F0010101600A2005F029F920683F
:102BF000016841F010010160154A206820219042CF
:102C000002D913484C3805E00F4A4832904203D9A4
:102C10000F485038016008E00B4B0B4A183B703AE4
:102C2000984201D9D16000E09160002211460F2046
:102C3000FEF7F2FFBDE8F8400F20FEF7E0BF00000E
:102C400030380240E00B0020706002400C38004039
:102C50005864024070B5154C0168154A4FF0402386
:102C6000A14201D1114600E01946CD68C16A8E1C0F
:102C7000C6620D80418E491E4186418E002914D1C5
:102C80000168A14201D1114600E01946496821F0CE
:102C9000600100D01A465160418D002905D14FF0E6
:102CA000010180F84110FEF769FE70BD0038004058
:102CB0000034004070B5416A144C8A1C42620D8891
:102CC000026813494FF04023A24201D10A4600E0B6
:102CD0001A46D560428D521E4285428D002A14D17B
:102CE0000268A24201D10A4600E01A46526822F068
:102CF000A00200D019464A60418E002905D14FF04C
:102D0000010180F84110FEF739FE70BD0038004027
:102D1000003400407CB5016804468868009094F84F
:102D200041000125042834D10098C00718D0486814
:102D3000C043400614D4C9682046E26A1180E16AA3
:102D4000891CE162618E491E6186618E41B901680C
:102D50004A6822F060024A6080F84150FEF70EFF98
:102D60000098400615D520684168C943890610D4EB
:102D7000416821F0600141602068C168806801906D
:102D800084F84150606C40F0020060642046FEF719
:102D9000F6FD94F84100032834D10098800719D536
:102DA00021684868C043000614D4626A204612882D
:102DB000CA60616A891C6162618D491E6185618D8D
:102DC00041B901684A6822F0A0024A6080F8415087
:102DD000FEF7D5FE0098000714D520684168C94366
:102DE00089060FD4416821F0A00141602068806805
:102DF000009084F84150606C40F00400606420460C
:102E0000FEF7BDFD7CBD000003480068016841F08D
:102E10000101016070470000E00B002003480068DA
:102E2000016821F00101016070470000E00B002003
:102E30000E4810B5016886B041F0020101600068DB
:102E4000012400F0020005904FF44070CDE9000429
:102E50000220CDE9024069460548FEF79FFB054880
:102E6000C0F8A442C0F8A04206B010BD30380240FD
:102E700000040240008040422DE9F041054614481C
:102E8000016821F440210160016841F48021016062
:102E9000104E0027C6F8A0723C464FF00108E80922
:102EA000C6F8A4026806050E022004F0C9FFC6F8A1
:102EB000A082022004F0C4FFC6F8A072022004F031
:102EC000BFFF641CE4B2082CE9D3BDE8F081000028
:102ED000000402400080404270B50D48016821F4B2
:102EE00040210160016841F480210160094C01200A
:102EF000C4F8A402C4F8A002042004F5287404F065
:102F00009FFF00256560042004F09AFF256070BDD6
:102F100000040240008040420E4810B5016821F4D0
:102F200040210160016841F4802101600A4C0020C9
:102F3000C4F8A002C4F8A402042004F5287404F024
:102F40007FFF012020606060BDE81040042004F095
:102F500077BF0000000402400080404270B5124874
:102F60000024016821F440210160016801600F4DD7
:102F70000126C5F8A462304604F062FFC5F8A062DD
:102F8000012004F05DFF07E0641CE4B2FA2C03D9D1
:102F9000FFF7C2FF012070BDD5F824020028F3D14D
:102FA000C5F8A00270BD000000040240008040424D
:102FB00070B5094C0125636853B90246C9B20420B3
:102FC000FEF786F818B105202070FF2070BD6560FF
:102FD0002570002070BD000010030020F0B5002314
:102FE0000A24302537261F4610E0B4EB107F02D9A3
:102FF00005EB107C01E006EB107C01F813C001EB3F
:10300000430C00015B1C8CF80170DBB29342ECD3E3
:10301000F0BD000070B5144886B00025016841F08D
:1030200001010160016801F001010591016841F0B1
:10303000100101600068032400F0100005900220D8
:103040000126CDE90204CDE9006569460748FEF78F
:10305000A5FA1C2003948DE8610069460448FEF738
:103060009DFA06B070BD00003038024000000240FA
:10307000001002402DE9F04101262E4C2E4F2F4D1D
:1030800001281DD02078A0B110212846FEF766FB4C
:10309000C0B108212846FEF761FB98B104212846FB
:1030A000FEF75CFB70B101213846FEF757FB0128A3
:1030B00008D010212846FEF751FB012826D037E022
:1030C0002670E1E70A2004F0ADFE002020701021F8
:1030D0002846FEF743FB80B108212846FEF73EFB59
:1030E00070B104212846FEF739FB58B1012138465A
:1030F000FEF734FB012807D01AE00120BDE8F0817B
:103100000220FBE70320F9E70420F7E7082128461F
:10311000FEF724FB01280BD104212846FEF71EFBF5
:10312000012805D101213846FEF718FB00B92670A9
:103130000020E3E7240000200000024000100240CD
:1031400070B506460A4800240188458820464D434C
:10315000214602F0D5FB02F049FDB1B24FF0D84054
:1031600002E0A0F88010641CAC42FAD370BD0000ED
:10317000E00A00202DE9F04F334B2C2419469871BA
:103180002A2589882B2645F2105B4FF4305E4FF4D8
:1031900048774FF0F00949F2413A4FF4A07845F2F0
:1031A000103C4FF4F07258B1A3F80080A3F80290DD
:1031B000514501D0614529D11C815D819E8139E055
:1031C000A3F80090A3F80280514501D0614508D1D1
:1031D0001C815D819E81614531D1A3F800805A80B8
:1031E0002DE0594508D1A3F808E04FF42850588144
:1031F0004FF42C50988106E0A1F5C85063381ED1D9
:103200001C815E819D811A805F8018E0594508D13C
:10321000A3F808E04FF4285058814FF42C509881BF
:1032200006E0A1F5C850633804D11C815D819E8100
:103230001F805A80614502D11A80A3F80280BDE840
:10324000F04F002002F080BAE00A00202DE9F041A2
:10325000374D90460C4602460F0AA8882946160AA2
:103260004989A0F51343413B0CD0A0F5A643103B80
:1032700008D0A0F5AA43103B11D0A0F5C853633B7A
:1032800027D04BE0084602F0A4FC304602F095FC43
:10329000D0B202F092FCA88902F09BFC38E008460C
:1032A00002F097FC304602F088FC6889401C80B22E
:1032B00002F08FFCD0B202F080FCA88902F089FCF9
:1032C000384602F07AFCA889401C80B202F081FCEA
:1032D00021E0A87918B92888801A401E82B20846D1
:1032E00002F077FC160A304602F067FCD0B202F01A
:1032F00064FC304602F061FCD0B202F05EFCA889AA
:1033000002F067FC384602F058FCE0B202F055FCCF
:10331000384602F052FCE0B202F04FFC4FF0D840C9
:10332000298920F87E1FA0F80280BDE8F081000006
:10333000E00A00202DE9F04FFF4895B00024016815
:1033400041F00201016000684FF0010900F0020045
:10335000139003204FF4004ACDE91090CDE90EA957
:103360000EA9F648FEF71AF9F548F6494FF0204540
:10337000C0E900510621C0E902141021C0E904414E
:1033800084610902C461C0E909418900C0E90B41B7
:1033900089014463C0E90E410F20CDE907043C20B8
:1033A00009900920CDE9000408200D9402900394AF
:1033B0006A4607A90694E248FFF73EF9322004F076
:1033C00031FDD32002F005FC02F08CF9DC4A5032CA
:1033D000908002F087F9908002F084F94FF6FF7B2D
:1033E0000BEA0020908002F07DF9918845F21036BA
:1033F0000843A0F51341908045F2105441F663173D
:10340000413949D0D42002F0E4FB02F06BF99080FE
:1034100002F068F9908002F065F90BEA0020D846C6
:10342000908002F05FF9918808439080B04233D0D9
:103430004FF45A4002F0CDFB02F054F990804FF463
:103440005B4002F0C6FB02F04DF908EA00209080D4
:103450004FF45C4002F0BDFB02F044F99188084350
:103460009080504501D1948016E0A04214D0A12054
:1034700002F0AFFB02F036F9908002F033F908EA6F
:103480000020908002F02EF991880843A0F5AE410B
:103490009080613900D1978092469188AAA0FCF76C
:1034A0008BFFBAF8040049F2413840457ED1CF2065
:1034B00002F08FFB002002F080FBC12002F07DFBB8
:1034C000302002F07AFBED2002F083FB642002F052
:1034D00074FB032002F071FB122002F06EFB8120CE
:1034E00002F06BFBE82002F074FB852002F065FB24
:1034F000102002F062FB7A2002F05FFBCB2002F08A
:1035000068FB392002F059FB2C2002F056FB00200A
:1035100002F053FB342002F050FB022002F04DFB7E
:10352000F72002F056FB202002F047FBEA2002F0D1
:1035300050FB002002F041FB002002F03EFBC020C7
:1035400002F047FB1B2002F038FBC12002F041FBD8
:10355000012002F032FBC52002F03BFB302002F0DC
:103560002CFB302002F029FBC72002F032FBB720F1
:1035700002F023FB362002F02CFB482002F01DFB5A
:103580003A2002F026FB552002F017FBB12002F092
:1035900020FB002002F011FB1A2002F00EFBB620E7
:1035A00002F017FB0A2002F008FB00E095E0A220E1
:1035B00002F003FBF22002F00CFB002002F0FDFA07
:1035C000262002F006FB012002F0F7FAE02002F0CC
:1035D00000FB0F2002F0F1FA2A2002F0EEFA282078
:1035E00002F0EBFA082002F0E8FA0E2002F0E5FA09
:1035F000082002F0E2FA542002F0DFFAA92002F0DB
:10360000DCFA432002F0D9FA0A2002F0D6FA0F20A1
:1036100002F0D3FA002002F0D0FA002002F0CDFA36
:10362000002002F0CAFA002002F0C7FAE12002F0FE
:10363000D0FA002002F0C1FA152002F0BEFA1720DD
:1036400002F0BBFA072002F0B8FA112002F0B5FA36
:10365000062002F0B2FA2B2002F0AFFA562002F058
:10366000ACFA3C2002F0A9FA052002F0A6FA1020DC
:1036700002F0A3FA0F2002F0A0FA3F2002F09DFA18
:103680003F2002F09AFA0F2002F097FA2B2002F066
:10369000A0FA002002F091FA002002F08EFA012038
:1036A00002F08BFA3F2002F088FA2A2002F091FA09
:1036B000002002F082FA002002F07FFA002002F0DF
:1036C0007CFAEF2002F079FA112002F082FA7820D9
:1036D00004F0A8FB292001F010BFB0427ED1ED20FC
:1036E00002F077FA012002F068FAFE2002F065FA93
:1036F000EE2002F06EFADE2002F05FFA212002F0E6
:103700005CFAF12002F065FA012002F056FADF209F
:1037100002F05FFA102002F050FAC42002F059FAC9
:103720008F2002F04AFAC62002F053FA002002F07D
:1037300044FAE22010E00000303802400004024069
:10374000900A0020040100A0204C43442049443A40
:1037500025780D0A0000000002F02FFAE22002F0A6
:103760002CFAE22002F029FABF2002F032FAAA2055
:1037700002F023FAB02002F02CFA0D2002F01DFA1C
:10378000002002F01AFA0D2002F017FA002002F0D1
:1037900014FA112002F011FA002002F00EFA19209A
:1037A00002F00BFA002002F008FA212002F005FADC
:1037B000002002F002FA2D2002F0FFF9002002F0B2
:1037C000FCF93D2002F0F9F9002002F0F6F95D2045
:1037D00002F0F3F9002002F0F0F900E0FDE35D20D3
:1037E00002F0EBF9002002F0E8F9B12002F0F1F963
:1037F000802002F0E2F9002002F0DFF98B2002F0D5
:10380000DCF9002002F0D9F9962002F0D6F9002068
:1038100002F0D3F9B22002F0DCF9002002F0CDF979
:10382000002002F0CAF9022002F0C7F9002002F0DD
:10383000C4F9032002F0C1F9002002F0BEF9B32060
:1038400002F0C7F9002002F0B8F9002002F0B5F943
:10385000002002F0B2F9002002F0AFF9002002F0DF
:10386000ACF9002002F0A9F9002002F0A6F900202E
:1038700002F0A3F9002002F0A0F9002002F09DF967
:10388000002002F09AF9002002F097F9002002F0DF
:1038900094F9002002F091F9002002F08EF9002046
:1038A00002F08BF9002002F088F9002002F085F97F
:1038B000002002F082F9002002F07FF9002002F0DF
:1038C0007CF9002002F079F9002002F076F900205E
:1038D00002F073F9B42002F07CF98B2002F06DF94C
:1038E000002002F06AF9962002F067F9002002F049
:1038F00064F9A12002F061F9002002F05EF9B52020
:1039000002F067F9022002F058F9002002F055F9A0
:10391000032002F052F9002002F04FF9042002F0D7
:103920004CF9002002F049F9B62002F052F90020CB
:1039300002F043F9002002F040F9B72002F049F903
:10394000002002F03AF9002002F037F93F2002F09F
:1039500034F9002002F031F95E2002F02EF9002047
:1039600002F02BF9642002F028F9002002F025F97A
:103970008C2002F022F9002002F01FF9AC2002F0A6
:103980001CF9002002F019F9DC2002F016F90020E1
:1039900002F013F9702002F010F9002002F00DF986
:1039A000902002F00AF9002002F007F9EB2002F063
:1039B00004F9002002F001F9DC2002F0FEF80020FA
:1039C00002F0FBF8B82002F004F9002002F0F5F84C
:1039D000002002F0F2F8002002F0EFF8002002F0E0
:1039E000ECF8002002F0E9F8002002F0E6F80020F0
:1039F00002F0E3F8002002F0E0F8BA2002F0E9F863
:103A0000242002F0DAF8002002F0D7F8002002F0BB
:103A1000D4F8002002F0D1F8C12002F0DAF820201A
:103A200002F0CBF8002002F0C8F8542002F0C5F8EC
:103A3000002002F0C2F8FF2002F0BFF8002002F0E0
:103A4000BCF8C22002F0C5F80A2002F0B6F8002047
:103A500002F0B3F8042002F0B0F8002002F0ADF854
:103A6000C32002F0B6F83C2002F0A7F8002002F0D4
:103A7000A4F83A2002F0A1F8002002F09EF83920C4
:103A800002F09BF8002002F098F8372002F095F839
:103A9000002002F092F83C2002F08FF8002002F0A3
:103AA0008CF8362002F089F8002002F086F83220E7
:103AB00002F083F8002002F080F82F2002F07DF859
:103AC000002002F07AF82C2002F077F8002002F0B3
:103AD00074F8292002F071F8002002F06EF8262018
:103AE00002F06BF8002002F068F8242002F065F87C
:103AF000002002F062F8242002F05FF8002002F0BB
:103B00005CF8232002F059F8002002F056F83C201F
:103B100002F053F8002002F050F8362002F04DF881
:103B2000002002F04AF8322002F047F8002002F0AC
:103B300044F82F2002F041F8002002F03EF82C203B
:103B400002F03BF8002002F038F8292002F035F8A6
:103B5000002002F032F8262002F02FF8002002F0B8
:103B60002CF8242002F029F8002002F026F8242066
:103B700002F023F8002002F020F8232002F01DF8C4
:103B8000002002F01AF8C42002F023F8622002F0AC
:103B900014F8002002F011F8052002F00EF80020C1
:103BA00002F00BF8842002F008F8002002F005F87B
:103BB000F02002F002F8002001F0FFFF182001F0D1
:103BC000FCFF002001F0F9FFA42001F0F6FF002027
:103BD00001F0F3FF182001F0F0FF002001F0EDFFED
:103BE000502001F0EAFF002001F0E7FF0C2001F077
:103BF000E4FF002001F0E1FF172001F0DEFF0020CC
:103C000001F0DBFF952001F0D8FF002001F0D5FF87
:103C1000F32001F0D2FF002001F0CFFFE62001F0F9
:103C2000CCFF002001F0C9FFC52001F0D2FF3220F7
:103C300001F0C3FF002001F0C0FF442001F0BDFFF0
:103C4000002001F0BAFF652001F0B7FF002001F06D
:103C5000B4FF762001F0B1FF002001F0AEFF882014
:103C600001F0ABFF002001F0A8FFC62001F0B1FF7A
:103C7000202001F0A2FF002001F09FFF172001F09B
:103C80009CFF002001F099FF012001F096FF002029
:103C900001F093FFC72001F09CFF002001F08DFF91
:103CA000002001F08AFF002001F087FF002001F0D2
:103CB00084FFC82001F08DFF002001F07EFF00206E
:103CC00001F07BFF002001F078FF002001F075FF7C
:103CD000C92001F07EFF002001F06FFF002001F0FD
:103CE0006CFF002001F069FF002001F066FF00205A
:103CF00001F063FF002001F060FF002001F05DFF94
:103D0000002001F05AFF002001F057FF002001F0D1
:103D100054FF002001F051FF002001F04EFF002071
:103D200001F04BFF002001F048FF002001F045FFAB
:103D3000002001F042FFE02001F04BFF162001F0CF
:103D40003CFF002001F039FF1C2001F036FF00206D
:103D500001F033FF212001F030FF002001F02DFFA2
:103D6000362001F02AFF002001F027FF462001F055
:103D700024FF002001F021FF522001F01EFF00204F
:103D800001F01BFF642001F018FF002001F015FF77
:103D90007A2001F012FF002001F00FFF8B2001F0CC
:103DA0000CFF002001F009FF992001F006FF002020
:103DB00001F003FFA82001F000FF002001F0FDFE4C
:103DC000B92001F0FAFE002001F0F7FEC42001F056
:103DD000F4FE002001F0F1FECA2001F0EEFE00200A
:103DE00001F0EBFED22001F0E8FE002001F0E5FE3C
:103DF000D92001F0E2FE002001F0DFFEE02001F01A
:103E0000DCFE002001F0D9FEF32001F0D6FE0020F8
:103E100001F0D3FEE12001F0DCFE162001F0CDFE22
:103E2000002001F0CAFE1C2001F0C7FE002001F0B6
:103E3000C4FE222001F0C1FE002001F0BEFE3620AB
:103E400001F0BBFE002001F0B8FE452001F0B5FEF8
:103E5000002001F0B2FE522001F0AFFE002001F080
:103E6000ACFE642001F0A9FE002001F0A6FE7A203D
:103E700001F0A3FE002001F0A0FE8B2001F09DFECA
:103E8000002001F09AFE992001F097FE002001F039
:103E900094FEA82001F091FE002001F08EFEB920D2
:103EA00001F08BFE002001F088FEC42001F085FEA9
:103EB000002001F082FECA2001F07FFE002001F008
:103EC0007CFED22001F079FE002001F076FED820A1
:103ED00001F073FE002001F070FEE02001F06DFEA5
:103EE000002001F06AFEF32001F067FE002001F0DF
:103EF00064FEE22001F06DFE052001F05EFE002070
:103F000001F05BFE0B2001F058FE002001F055FE91
:103F10001B2001F052FE002001F04FFE342001F082
:103F20004CFE002001F049FE442001F046FE002036
:103F300001F043FE4F2001F040FE002001F03DFE65
:103F4000612001F03AFE002001F037FE792001F0F7
:103F500034FE002001F031FE882001F02EFE00200A
:103F600001F02BFE972001F028FE002001F025FE35
:103F7000A62001F022FE002001F01FFEB72001F074
:103F80001CFE002001F019FEC22001F016FE0020E8
:103F900001F013FEC72001F010FE002001F00DFE1D
:103FA000D12001F00AFE002001F007FED62001F02A
:103FB00004FE002001F001FEDD2001F0FEFD0020E6
:103FC00001F0FBFDF32001F0F8FD002001F0F5FD0C
:103FD000E32001F0FEFD052000E00CE301F0EDFD23
:103FE000002001F0EAFD0A2001F0E7FD002001F0C9
:103FF000E4FD1C2001F0E1FD002001F0DEFD332096
:1040000001F0DBFD002001F0D8FD442001F0D5FDDA
:10401000002001F0D2FD502001F0CFFD002001F082
:10402000CCFD622001F0C9FD002001F0C6FD782022
:1040300001F0C3FD002001F0C0FD882001F0BDFDAE
:10404000002001F0BAFD972001F0B7FD002001F03B
:10405000B4FDA62001F0B1FD002001F0AEFDB720B7
:1040600001F0ABFD002001F0A8FDC22001F0A5FD8C
:10407000002001F0A2FDC72001F09FFD002001F00B
:104080009CFDD12001F099FD002001F096FDD52086
:1040900001F093FD002001F090FDDD2001F08DFD89
:1040A000002001F08AFDF32001F087FD002001F0DF
:1040B00084FDE42001F08DFD012001F07EFD002053
:1040C00001F07BFD012001F078FD002001F075FD7D
:1040D000022001F072FD002001F06FFD2A2001F0A6
:1040E0006CFD002001F069FD3C2001F066FD002020
:1040F00001F063FD4B2001F060FD002001F05DFD4B
:104100005D2001F05AFD002001F057FD742001F000
:1041100054FD002001F051FD842001F04EFD0020EF
:1041200001F04BFD932001F048FD002001F045FD1A
:10413000A22001F042FD002001F03FFDB32001F07C
:104140003CFD002001F039FDBE2001F036FD0020CD
:1041500001F033FDC42001F030FD002001F02DFD01
:10416000CD2001F02AFD002001F027FDD32001F031
:1041700024FD002001F021FDDD2001F01EFD0020C6
:1041800001F01BFDF32001F018FD002001F015FDEA
:10419000E52001F01EFD002001F00FFD002001F0E0
:1041A0000CFD002001F009FD002001F006FD0220B9
:1041B00001F003FD002001F000FD292001F0FDFCCD
:1041C000002001F0FAFC3C2001F0F7FC002001F097
:1041D000F4FC4B2001F0F1FC002001F0EEFC5D202E
:1041E00001F0EBFC002001F0E8FC742001F0E5FC9C
:1041F000002001F0E2FC842001F0DFFC002001F04F
:10420000DCFC932001F0D9FC002001F0D6FCA220B8
:1042100001F0D3FC002001F0D0FCB32001F0CDFC74
:10422000002001F0CAFCBE2001F0C7FC002001F014
:10423000C4FCC42001F0C1FC002001F0BEFCCD2074
:1042400001F0BBFC002001F0B8FCD32001F0B5FC6C
:10425000002001F0B2FCDC2001F0AFFC002001F0F6
:10426000ACFCF32001F0A9FC002001F0A6FCE62044
:1042700001F0AFFC112001F0A0FC002001F09DFC3A
:10428000342001F09AFC002001F097FC562001F048
:1042900094FC002001F091FC762001F08EFC0020BF
:1042A00001F08BFC772001F088FC002001F085FCF8
:1042B000662001F082FC002001F07FFC882001F0E4
:1042C0007CFC002001F079FC992001F076FC0020B4
:1042D00001F073FCBB2001F070FC002001F06DFCCC
:1042E000992001F06AFC002001F067FC662001F0D3
:1042F00064FC002001F061FC552001F05EFC002010
:1043000001F05BFC552001F058FC002001F055FC49
:10431000452001F052FC002001F04FFC432001F049
:104320004CFC002001F049FC442001F046FC002038
:1043300001F043FCE72001F04CFC322001F03DFC91
:10434000002001F03AFC552001F037FC002001F07C
:1043500034FC762001F031FC002001F02EFC6620B8
:1043600001F02BFC002001F028FC672001F025FC67
:10437000002001F022FC672001F01FFC002001F06A
:104380001CFC872001F019FC002001F016FC99208C
:1043900001F013FC002001F010FCBB2001F00DFC2B
:1043A000002001F00AFC992001F007FC002001F038
:1043B00004FC772001F001FC002001F0FEFB44200A
:1043C00001F0FBFB002001F0F8FB562001F0F5FBAB
:1043D000002001F0F2FB232001F0EFFB002001F0B0
:1043E000ECFB332001F0E9FB002001F0E6FB452067
:1043F00001F0E3FB002001F0E0FBE82001F0E9FB25
:10440000002001F0DAFB002001F0D7FB992001F039
:10441000D4FB002001F0D1FB872001F0CEFB00206F
:1044200001F0CBFB882001F0C8FB002001F0C5FBA8
:10443000772001F0C2FB002001F0BFFB662001F0F5
:10444000BCFB002001F0B9FB882001F0B6FB002086
:1044500001F0B3FBAA2001F0B0FB002001F0ADFB9E
:10446000BB2001F0AAFB002001F0A7FB992001F07E
:10447000A4FB002001F0A1FB662001F09EFB0020C0
:1044800001F09BFB552001F098FB002001F095FB0B
:10449000552001F092FB002001F08FFB442001F039
:1044A0008CFB002001F089FB442001F086FB0020FA
:1044B00001F083FB552001F080FB002001F07DFB23
:1044C000E92001F086FBAA2001F077FB002001F033
:1044D00074FB002001F071FB002001F06EFB002056
:1044E00001F077FBAA2001F068FBCF2001F071FBFF
:1044F000002001F062FB002001F05FFB002001F0D2
:104500005CFB002001F059FB002001F056FB00206D
:1045100001F053FB002001F050FB002001F04DFBA7
:10452000002001F04AFB002001F047FB002001F0D1
:1045300044FB002001F041FB002001F03EFB002085
:1045400001F03BFB002001F038FB002001F035FBBF
:10455000002001F032FBF02001F03BFB002001F0D5
:104560002CFB502001F029FB002001F026FB00204D
:1045700001F023FB002001F020FBF32001F029FBD8
:10458000002001F01AFBF92001F023FB062001F0C6
:1045900014FB102001F011FB292001F00EFB00207C
:1045A00001F00BFB3A2001F014FB552001F005FB54
:1045B000112001F00EFB642003F034FC292001F0EF
:1045C00008FB352001F005FB002001F0F6FA512030
:1045D00001F0FFFAFF2001F0F0FA532001F0F9FAA0
:1045E0002C2001F0EAFA552001F0F3FA822001F0C4
:1045F000E4FA2C20FDE3A0427ED14FF47043552114
:10460000184601F0FDFAAA214FF2010001F0F8FA74
:1046100052214FF2020001F0F3FA08214FF2030099
:1046200001F0EEFA01214FF2040001F0E9FA0D2148
:104630004FF4304001F0E4FA0D214BF2010001F09B
:10464000DFFA0D214BF2020001F0DAFA34214FF4C7
:10465000364001F0D5FA34214BF2016001F0D0FA76
:1046600034214BF2026001F0CBFA0D214FF43140BE
:1046700001F0C6FA0D214BF2011001F0C1FA0D2133
:104680004BF2021001F0BCFA34214FF4374001F034
:10469000B7FA34214BF2017001F0B2FA34214BF237
:1046A000027001F0ADFA00214FF4324001F0A8FA97
:1046B00000214BF2012001F0A3FA00214BF202206D
:1046C00001F09EFA24214FF4384001F099FA242198
:1046D0004BF6010001F094FA24214BF6020001F0A0
:1046E0008FFA01214FF43F4001F08AFA0F214FF475
:1046F000334001F085FA00E0FEE30F214BF2013078
:1047000001F07EFA0F214BF2023001F079FA3421E8
:104710004FF4394001F074FA34214BF6011001F0E6
:104720006FFA34214BF6021001F06AFA08214FF4B7
:10473000354001F065FA08214BF2015001F060FAB2
:1047400008214BF2025001F05BFA03214FF4424082
:1047500001F056FA24214FF43A4001F051FA242195
:104760004BF6012001F04CFA24214BF6022001F017
:1047700047FA00214FF43C4001F042FA78214BF611
:10478000014001F03DFA00214BF6024001F038FAF9
:1047900000214FF43D4001F033FA78214BF60150EF
:1047A00001F02EFA00214BF6025001F029FA002107
:1047B0004FF43E4001F024FA64214BF6016001F011
:1047C0001FFA00214FF4514001F01AFA33214DF243
:1047D000011001F015FA00214DF2021001F010FA5B
:1047E00034214DF2031001F00BFA00214DF20410B8
:1047F00001F006FA3A214DF2051001F001FA00210C
:104800004DF2061001F0FCF94A214DF2071001F0BB
:10481000F7F900214DF2081001F0F2F95C214DF298
:10482000091001F0EDF900214DF20A1001F0E8F94C
:1048300081214DF20B1001F0E3F900214DF20C1033
:1048400001F0DEF9A6214DF20D1001F0D9F9002199
:104850004DF20E1001F0D4F9E5214DF20F1001F0E8
:10486000CFF901214DF2101001F0CAF913214DF2D8
:10487000111001F0C5F901214DF2121001F0C0F93B
:1048800054214DF2131001F0BBF901214DF2141027
:1048900001F0B6F982214DF2151001F0B1F90121B4
:1048A0004DF2161001F0ACF9CA214DF2171001F0CB
:1048B000A7F902214DF2181001F0A2F900214DF2E2
:1048C000191001F09DF902214DF21A1001F098F92A
:1048D00001214DF21B1001F093F902214DF21C1041
:1048E00001F08EF934214DF21D1001F089F90221F9
:1048F0004DF21E1001F084F967214DF21F1001F0F6
:104900007FF902214DF2201001F07AF984214DF255
:10491000211001F075F902214DF2221001F070F919
:10492000A4214DF2231001F06BF902214DF2241065
:1049300001F066F9B7214DF2251001F061F902216D
:104940004DF2261001F05CF9CF214DF2271001F055
:1049500057F902214DF2281001F052F9DE214DF2F3
:10496000291001F04DF902214DF22A1001F048F909
:10497000F2214DF22B1001F043F902214DF22C10DF
:1049800001F03EF9FE214DF22D1001F039F903211D
:104990004DF22E1001F034F910214DF22F1001F0DC
:1049A0002FF903214DF2301001F02AF933214DF295
:1049B000311001F025F903214DF2321001F020F9F8
:1049C0006D214DF2331001F01BF900214FF45240DC
:1049D00001F016F933214DF2012001F011F9002107
:1049E0004DF2022001F00CF934214DF2032001F0C8
:1049F00007F900214DF2042001F002F93A214DF2AD
:104A0000052001F0FDF800214DF2062001F0F8F834
:104A10004A214DF2072001F0F3F800214DF2082061
:104A200001F0EEF85C214DF2092001F0E9F80021D7
:104A30004DF20A2001F0E4F881214DF20B2001F043
:104A4000DFF800214DF20C2001F0DAF8A6214DF23A
:104A50000D2001F0D5F800214DF20E2001F0D0F824
:104A6000E5214DF20F2001F0CBF801214DF210208D
:104A700001F0C6F813214DF2112001F0C1F8012117
:104A80004DF2122001F0BCF854214DF2132001F038
:104A9000B7F801214DF2142001F0B2F882214DF255
:104AA000152001F0ADF801214DF2162001F0A8F813
:104AB000CA214DF2172001F0A3F802214DF218206F
:104AC00001F09EF800214DF2192001F099F8022121
:104AD0004DF21A2001F094F801214DF21B2001F053
:104AE0008FF802214DF21C2001F08AF834214DF29A
:104AF0001D2001F085F802214DF21E2001F080F802
:104B000067214DF21F2001F07BF802214DF2202099
:104B100001F076F884214DF2212001F071F8022194
:104B20004DF2222001F06CF8A4214DF2232001F077
:104B300067F802214DF2242001F062F8B7214DF20E
:104B4000252001F05DF802214DF2262001F058F8F1
:104B5000CF214DF2272001F053F802214DF22820F9
:104B600001F04EF8DE214DF2292001F049F8022132
:104B70004DF22A2001F044F8F2214DF22B2001F0F1
:104B80003FF802214DF22C2001F03AF8FE214DF2BF
:104B90002D2001F035F803214DF22E2001F030F8E0
:104BA00010214DF22F2001F02BF803214DF230207F
:104BB00001F026F833214DF2312001F021F80321D4
:104BC0004DF2322001F01CF86D214DF2332001F03E
:104BD00017F800214FF4534001F012F833214DF241
:104BE000013001F00DF800214DF2023001F008F81B
:104BF00034214DF2033001F003F800214DF204306E
:104C000000F0FEFF3A214DF2053000F0F9FF0021DF
:104C10004DF2063000F0F4FF4A214DF2073000F06B
:104C2000EFFF00214DF2083000F0EAFF5C214DF269
:104C3000093000F0E5FF00214DF20A3000F0E0FFFE
:104C400081214DF20B3000F0DBFF00214DF20C30E2
:104C500000F0D6FFA6214DF20D3000F0D1FF00216B
:104C60004DF20E3000F0CCFFE5214DF20F3000F098
:104C7000C7FF01214DF2103000F0C2FF13214DF2A9
:104C8000113000F0BDFF01214DF2123000F0B8FFED
:104C900054214DF2133000F0B3FF01214DF21430D6
:104CA00000F0AEFF82214DF2153000F0A9FF012186
:104CB0004DF2163000F0A4FFCA214DF2173000F07B
:104CC0009FFF02214DF2183000F09AFF00214DF2B3
:104CD000193000F095FF02214DF21A3000F090FFDC
:104CE00001214DF21B3000F08BFF02214DF21C30F0
:104CF00000F086FF34214DF21D3000F081FF0221CB
:104D00004DF21E3000F07CFF67214DF21F3000F0A5
:104D100077FF02214DF2203000F072FF84214DF226
:104D2000213000F06DFF02214DF2223000F068FFCB
:104D3000A4214DF2233000F063FF02214DF2243014
:104D400000F05EFFB7214DF2253000F059FF02213F
:104D50004DF2263000F054FFCF214DF2273000F005
:104D60004FFF02214DF2283000F04AFFDE214DF2C4
:104D7000293000F045FF02214DF22A3000F040FFBB
:104D8000F2214DF22B3000F03BFF02214DF22C308E
:104D900000F036FFFE214DF22D3000F031FF0321EF
:104DA0004DF22E3000F02CFF10214DF22F3000F08C
:104DB00027FF03214DF2303000F022FF33214DF266
:104DC000313000F01DFF03214DF2323000F018FFAA
:104DD0006D214DF2333000F013FF00214FF45440A9
:104DE00000F00EFF33214DF2014000F009FF0021D9
:104DF00000E082E34DF2024000F002FF34214DF268
:104E0000034000F0FDFE00214DF2044000F0F8FEEA
:104E10003A214DF2054000F0F3FE00214DF206402C
:104E200000F0EEFE4A214DF2074000F0E9FE0021BD
:104E30004DF2084000F0E4FE5C214DF2094000F024
:104E4000DFFE00214DF20A4000F0DAFE81214DF232
:104E50000B4000F0D5FE00214DF20C4000F0D0FEDA
:104E6000A6214DF20D4000F0CBFE00214DF20E4088
:104E700000F0C6FEE5214DF20F4000F0C1FE012119
:104E80004DF2104000F0BCFE13214DF2114000F035
:104E9000B7FE01214DF2124000F0B2FE54214DF256
:104EA000134000F0ADFE01214DF2144000F0A8FEC9
:104EB00082214DF2154000F0A3FE01214DF2164073
:104EC00000F09EFECA214DF2174000F099FE02212B
:104ED0004DF2184000F094FE00214DF2194000F010
:104EE0008FFE02214DF21A4000F08AFE01214DF2A0
:104EF0001B4000F085FE00E002E302214DF21C4061
:104F000000F07EFE34214DF21D4000F079FE0221BA
:104F10004DF21E4000F074FE67214DF21F4000F07C
:104F20006FFE02214DF2204000F06AFE84214DF216
:104F3000214000F065FE02214DF2224000F060FEAB
:104F4000A4214DF2234000F05BFE02214DF22440EB
:104F500000F056FEB7214DF2254000F051FE02212F
:104F60004DF2264000F04CFECF214DF2274000F0DC
:104F700047FE02214DF2284000F042FEDE214DF2B4
:104F8000294000F03DFE02214DF22A4000F038FE9B
:104F9000F2214DF22B4000F033FE02214DF22C4065
:104FA00000F02EFEFE214DF22D4000F029FE0321DF
:104FB0004DF22E4000F024FE10214DF22F4000F063
:104FC0001FFE03214DF2304000F01AFE33214DF256
:104FD000314000F015FE03214DF2324000F010FE8A
:104FE0006D214DF2334000F00BFE00214FF455408F
:104FF00000F006FE33214DF2015000F001FE0021C9
:105000004DF2025000F0FCFD34214DF2035000F04F
:10501000F7FD00214DF2045000F0F2FD3A214DF26F
:10502000055000F0EDFD00214DF2065000F0E8FDC6
:105030004A214DF2075000F0E3FD00214DF20850E7
:1050400000F0DEFD5C214DF2095000F0D9FD002199
:105050004DF20A5000F0D4FD81214DF20B5000F0CA
:10506000CFFD00214DF20C5000F0CAFDA6214DF2FB
:105070000D5000F0C5FD00214DF20E5000F0C0FDB6
:10508000E5214DF20F5000F0BBFD01214DF2105013
:1050900000F0B6FD13214DF2115000F0B1FD0121D9
:1050A0004DF2125000F0ACFD54214DF2135000F0BF
:1050B000A7FD01214DF2145000F0A2FD82214DF216
:1050C000155000F09DFD01214DF2165000F098FDA5
:1050D000CA214DF2175000F093FD02214DF21850F5
:1050E00000F08EFD00214DF2195000F089FD0221E3
:1050F0004DF21A5000F084FD01214DF21B5000F0DA
:105100007FFD02214DF21C5000F07AFD34214DF25A
:105110001D5000F075FD02214DF21E5000F070FD93
:1051200067214DF21F5000F06BFD02214DF220501F
:1051300000F066FD84214DF2215000F061FD022156
:105140004DF2225000F05CFDA4214DF2235000F0FE
:1051500057FD02214DF2245000F052FDB7214DF2CF
:10516000255000F04DFD02214DF2265000F048FD83
:10517000CF214DF2275000F043FD02214DF228507F
:1051800000F03EFDDE214DF2295000F039FD0221F4
:105190004DF22A5000F034FDF2214DF22B5000F078
:1051A0002FFD02214DF22C5000F02AFDFE214DF280
:1051B0002D5000F025FD03214DF22E5000F020FD72
:1051C00010214DF22F5000F01BFD03214DF2305005
:1051D00000F016FD33214DF2315000F011FD032196
:1051E0004DF2325000F00CFD6D214DF2335000F0C5
:1051F00007FD00214FF4564000F002FD33214DF22F
:10520000016000F0FDFC00214DF2026000F0F8FCAE
:1052100034214DF2036000F0F3FC00214DF20460F4
:1052200000F0EEFC3A214DF2056000F0E9FC0021AF
:105230004DF2066000F0E4FC4A214DF2076000F0F8
:10524000DFFC00214DF2086000F0DAFC5C214DF239
:10525000096000F0D5FC00214DF20A6000F0D0FC9E
:1052600081214DF20B6000F0CBFC00214DF20C606F
:1052700000F0C6FCA6214DF20D6000F0C1FC00213B
:105280004DF20E6000F0BCFCE5214DF20F6000F025
:10529000B7FC01214DF2106000F0B2FC13214DF279
:1052A000116000F0ADFC01214DF2126000F0A8FC8D
:1052B00054214DF2136000F0A3FC01214DF2146063
:1052C00000F09EFC82214DF2156000F099FC012156
:1052D0004DF2166000F094FCCA214DF2176000F008
:1052E0008FFC02214DF2186000F08AFC00214DF283
:1052F000196000F085FC02214DF21A6000F080FC7C
:1053000001214DF21B6000F07BFC02214DF21C607C
:1053100000F076FC34214DF21D6000F071FC02219A
:105320004DF21E6000F06CFC67214DF21F6000F032
:1053300067FC02214DF2206000F062FC84214DF2F6
:10534000216000F05DFC02214DF2226000F058FC6B
:10535000A4214DF2236000F053FC02214DF22460A1
:1053600000F04EFCB7214DF2256000F049FC02210F
:105370004DF2266000F044FCCF214DF2276000F092
:105380003FFC02214DF2286000F03AFCDE214DF294
:10539000296000F035FC02214DF22A6000F030FC5B
:1053A000F2214DF22B6000F02BFC02214DF22C601B
:1053B00000F026FCFE214DF22D6000F021FC0321BF
:1053C0004DF22E6000F01CFC10214DF22F6000F019
:1053D00017FC03214DF2306000F012FC33214DF236
:1053E000316000F00DFC03214DF2326000F008FC4A
:1053F0006D214DF2336000F003FC5521184600F09A
:10540000FFFBAA214FF2010000F0FAFB52214FF2FC
:10541000020000F0F5FB08214FF2030000F0F0FB62
:1054200000214FF2040000F0EBFBCC214FF431409F
:1054300000F0E6FB00214BF2011000F0E1FB05213A
:105440004FF4364000F0DCFB70214FF4374000F0A1
:10545000D7FB70214BF2017000F0D2FB01214FF419
:10546000384000F0CDFB03214BF6010000F0C8FBF3
:1054700003214BF6020000F0C3FB03214BF60300AF
:1054800000F0BEFB02214FF43C4000F0B9FB0021CC
:105490004BF6014000F0B4FB00214BF6024000F057
:1054A000AFFBD0214FF4494000F0AAFB02214CF69B
:1054B000011000F0A5FB50214CF6021000F0A0FBFB
:1054C00050214CF6031000F09BFB50214CF60410C9
:1054D00000F096FB00214FF4545000F091FB552151
:1054E0004FF4685000F08CFB4FF4885000F071FBD3
:1054F000782002F0A5FC4FF4245000F06AFBB9E0DC
:10550000B842FCD1E22000F064FB1D2000F055FB06
:10551000022000F052FB042000F04FFB642002F058
:105520008FFCE02000F055FB012000F046FB0A2034
:1055300002F078FCE02000F04CFB032000F03DFB83
:105540000C2002F06FFC012000F043FB0A2002F067
:1055500069FCE62000F03DFB2F2000F02EFBFF2031
:1055600000F02BFBFF2000F028FBB02000F031FB07
:10557000202000F022FB002000F01FFB032000F0A1
:105580001CFB40F21F3000F018FB012000F015FB5F
:1055900040F2DF1000F011FB002000F00EFBB42001
:1055A00000F017FB042000F008FB40F21F4000F061
:1055B00004FB002000F001FB2E2000F0FEFA00208A
:1055C00000F0FBFA002000F0F8FA002000F0F5FAF5
:1055D000002000F0F2FAB62000F0FBFA022000F002
:1055E000ECFA4FF4037000F0E8FA002000F0E5FA5E
:1055F000172000F0E2FA152000F0DFFA002000F09A
:10560000DCFA002000F0D9FAF02000F0E2FA0320E2
:1056100000F0D3FA292000F0DCFAD02000F0D9FA0B
:10562000002000F0CAFABE2000F0D3FA052000F0F6
:10563000C4FAFE2000F0C1FA012000F0BEFA0020FA
:1056400000F0BBFA002000F0B8FA002000F0B5FA34
:10565000B82000F0BEFA032000F0AFFA012000F0FD
:10566000ACFABA2000F0B5FA012000F0A6FA6420E6
:1056700000F042F8BAF80400404505D0B04203D02B
:10568000A04201D0B84217D1D5F81C0120F00F007C
:10569000C5F81C01D5F81C0120F47060C5F81C0188
:1056A000D5F81C0140F00300C5F81C01D5F81C0119
:1056B00040F40070C5F81C010020FDF75BFD0449B3
:1056C000C1F8BC925846FDF73BFD15B0BDE8F08F20
:1056D000008040420346012000E05843491EC9B201
:1056E000FBD2704708B54FF0D840B0F88000ADF855
:1056F0000000BDF8000008BD10B50246BE2000F055
:1057000068FA052000F059FA104604F048F89FEDB9
:105710000C1B53EC112B04F055F804F013F880B275
:1057200000F04BFA012000F048FAFF2000F045FAA3
:10573000002000F042FABDE81040002000F03DBA21
:105740006666666666660440F0B56C4D00232946C1
:10575000AA79898841F66314012A01D01AB11BE0A5
:10576000A14202D118E0A14216D1082814D2DFE8E4
:1057700000F00406080A0C0E101206200CE00720A8
:105780000AE0042008E0052006E0012004E00020F3
:1057900002E0032000E00220A1F5134745F2103299
:1057A00045F21056413F05D0914203D0B14201D09D
:1057B000A14277D1082812D2DFE800F011040608D0
:1057C0000A0C0E1080230AE0402308E0C02306E004
:1057D000202304E0602302E0A02300E0E023B142A4
:1057E00002D14FF4585000E03620914205D0B1422A
:1057F00003D0A14201D043F00803194600F000FA9B
:10580000AA88A2420AD098062888698802D58842C8
:1058100002D303E0884201D9298068806889B242B6
:1058200041D100F0D6F9002000F0C7F96889401C8A
:1058300080B200F0CEF9002000F0BFF96889801C2A
:1058400080B200F0C6F92888401EC0F30F2000F097
:10585000B4F96889C01C80B200F0BBF92878401EFA
:10586000C0B200F0AAF9A88900F0B3F9002000F056
:10587000A4F9A889401C80B200F0ABF9002000F028
:105880009CF9A889801C80B200F0A3F96888401EAA
:10589000C0F30F2000F091F9A889C01C80B200F07D
:1058A00098F922E028E000F094F9002000F085F952
:1058B000002000F082F92888401EC0F30F2000F07D
:1058C0007CF92878401EC0B200F077F9A88900F072
:1058D00080F9002000F071F9002000F06EF968886E
:1058E000401EC0F30F2000F068F9A878BDE8F04032
:1058F000401EC0B200F061B9F0BD0000E00A002017
:10590000F0B53F4D0C460246060AA9882846270AEC
:105910004089A1F51343413B28D0A1F5A643103B94
:1059200024D0A1F5C853633B2FD0A1F5AA43103B67
:1059300064D100F04EF9304600F03FF96889401C10
:1059400080B200F046F9D0B200F037F9A88900F033
:1059500040F9384600F031F9A889401C80B200F0C7
:1059600038F9E0B2BDE8F04000F027B900F031F9B5
:10597000304600F022F9D0B200F01FF9A88900F0FB
:1059800028F9384600F019F9EBE7A97929B300F0B6
:1059900020F9304600F011F9D0B200F00EF9288855
:1059A000401EC0F30F2000F008F92878401EC0B256
:1059B00000F003F9A88900F00CF9384600F0FDF872
:1059C000E0B200F0FAF86888401EC0F30F2000F043
:1059D000F4F8A878401EC0B2C4E72988891A491E85
:1059E0008AB200F0F6F8002000F0E7F8002000F09E
:1059F000E4F8100A00F0E1F8D0B2D9E7F0BD0000F9
:105A0000E00A00202DE9F84F82461F460E468B46DD
:105A1000580700D0012000EBD700790810FB01F0F7
:105A2000203AC0B202F0FF090025009047E00C2F99
:105A300010D0102F12D0182F14D0202F42D122496D
:105A400001EBC9104FF00008445D200610D51F4837
:105A5000026811E009EB49001D4906E01D4901EB10
:105A60000910EFE71C4909EBC90001EB8000E9E7E9
:105A70000A9828B91548426831465046FDF7E6FBBA
:105A80006006040E1548761CB6B24088B04219D99B
:105A9000A6EB0B00B84209D10AF101001FFA80FA07
:105AA0000E485E46018851450CD906E008F1010018
:105AB00000F0FF08B8F1080FC7D36D1CEDB20098D5
:105AC0008542B4D3BDE8F88FAAB100081C000020BD
:105AD000EA9900085E9E00084EA40008E00A002033
