:020000040800F2
:10000000C0CB0120990200080B540008C725000846
:1000100009540008810800087B83000800000000E4
:10002000000000000000000000000000116900084E
:10003000550E00080000000019540008A9690008C6
:10004000B3020008B3020008B3020008B3020008BC
:10005000B3020008B3020008B3020008B3020008AC
:10006000B3020008B3020008B3020008B30200089C
:10007000B3020008B3020008B3020008B30200088C
:10008000B3020008B3020008B3020008B30200087C
:10009000B3020008B3020008B3020008B30200086C
:1000A000B3020008B3020008B3020008B30200085C
:1000B000B3020008B3020008016A0008B302000896
:1000C000B3020008B3020008B3020008B30200083C
:1000D000B3020008256F0008B3020008B30200084D
:1000E000B3020008B3020008B3020008B30200081C
:1000F000B3020008B3020008B3020008B30200080C
:10010000B3020008B3020008B3020008B3020008FB
:10011000B3020008B3020008B3020008B3020008EB
:10012000B3020008B3020008B3020008B3020008DB
:10013000B3020008B3020008B3020008B3020008CB
:10014000B3020008B3020008B30200080D5400080F
:10015000B3020008B3020008B3020008B3020008AB
:10016000B3020008B3020008B3020008B30200089B
:10017000B3020008B3020008B30200080000000048
:10018000B3020008B302000800F002F800F06DF8B6
:100190000AA090E8000C82448344AAF10107DA45E2
:1001A00001D100F062F8AFF2090EBAE80F0013F0C7
:1001B000010F18BFFB1A43F00103184760E9000064
:1001C00080E900000A444FF0000C10F8013B13F0E6
:1001D000070408BF10F8014B1D1108BF10F8015BA0
:1001E000641E05D010F8016B641E01F8016BF9D193
:1001F00013F0080F1EBF10F8014BAD1C0C1B09D1EA
:100200006D1E58BF01F801CBFAD505E014F8016B5B
:1002100001F8016B6D1EF9D59142D6D370470000ED
:100220000023002400250026103A28BF78C1FBD8FF
:10023000520728BF30C148BF0B607047642900F0E7
:100240001F81752900F01C81782900F055816329F0
:1002500000F0A982732900F0AE82002070471FB51C
:100260000AF002F81FBD10B510BD00F0D7FA114614
:10027000FFF7F5FF08F0EEFA00F0F5FA03B4FFF728
:10028000F2FF03BC08F041FA30BF72B6704762B6A5
:10029000704780F30888704709488047094800473D
:1002A000FEE7FEE7FEE7FEE7FEE7FEE7FEE7FEE726
:1002B000FEE7FEE704480549054A064B7047000083
:1002C000AD69000889010008C0C50120C0CB01202C
:1002D000C0C70120C0C70120704753EA020C00F0DC
:1002E00069802DE9F04B4FF00006002B1FBFB3FAD9
:1002F00083F503FA05F424FA05F65E4012BF1643AF
:10030000B2FA82F502FA05F4C5F120051EBF22FA01
:1003100005FC44EA0C04203556EA044C4FEA144428
:1003200018BF641C4FF000084FF00009904271EBB9
:10033000030C39D3002919BFB1FA81F701FA07F686
:10034000B0FA80F700FA07F6C7F120071EBF20FABF
:1003500007FC46EA0C062037B6FBF4FCA7EB0507C2
:10036000103F07F01F0BCBF120060CFA0BFB2CFA09
:1003700006F644BFB3460026202FA4BF5E464FF0CA
:10038000000B5BEA060C08BF4FF0010B19EB0B09E1
:10039000ABFB027C48EB0608C01B06FB02CC0BFB48
:1003A00003CC71EB0C01C1E70B46024641464846BF
:1003B000BDE8F08B13B54FF000004FF00001AFF334
:1003C0000080BDE81C4070470FB4044910B503AA73
:1003D000029800F0F5F910BC5DF814FB180000203D
:1003E00070B5044685690068C10601D5302600E075
:1003F0002026C00707D070BDD4E9012130469047C0
:10040000206A401C20626D1EF6D570BD70B5044692
:1004100085690078C00707D170BDD4E9012120208B
:100420009047206A401C20626D1EF6D570BD70B5E5
:100430000C460546012A05D02878800600D5EA69D1
:10044000002302E0012305E05B1C934202D2E05C42
:100450000028F9D1A869E618C01AA861286A1844CA
:1004600028622846FFF7BCFF04E0D5E9012114F813
:10047000010B9047B442F8D32846FFF7C7FF70BD81
:100480002DE9F0410646002410687529314616A56D
:1004900010D0AFF30080002802DA404213A507E035
:1004A00031688A0701D512A502E0490704D511A5D4
:1004B000012401E0AFF3008000210A2206F12407A5
:1004C00009E0B0FBF2FCB0FBF2F302FB1C003030A1
:1004D00078541846491C0028F3D123462A46304652
:1004E000BDE8F04100F0FCB8000000002D00000065
:1004F0002B0000002000000070B504460D46214688
:100500001068AFF300802188090502D50F4A7A44AC
:1005100002E00E4A7A440E32002104F1240305E081
:1005200000F00F060009965D5E54491C0028F7D1C3
:1005300020780023000704D5702D02D009B10223D2
:1005400011322046BDE8704000F0CAB83DE5000019
:100550002DE9F05F894604464FF0000ADFF874B1D8
:10056000FB44C0F820A02046E1688847002874D0EA
:10057000252806D0D4E901219047206A401C20623A
:10058000F1E700265F462046E168884720280546B7
:1005900007DB312D05D2781910F8200C08B106437D
:1005A000F1E7B00701D526F00406C4F81CA0002727
:1005B000C4F818A02A2D09D0284608F09FF838B3AF
:1005C00004EB8708303DC8F8185019E059F8041BAF
:1005D000204604EB87029161E1688847012F0546B8
:1005E00018D1E069002820DA26F020061DE0D8F8AE
:1005F000180000EB800005EB40003038C8F8180008
:100600002046E1688847054608F078F80028EED1D2
:10061000012F0AD02E2D08D12046E16888477F1C83
:100620000546022F46F02006C4DBA069002803DA45
:10063000404246F00106A061F00701D026F0100606
:100640006C2D0BD0682D09D04C2D39D06A2D35D0AA
:10065000742D35D07A2D33D016E038E0E1682F467E
:1006600020468847B842054609D16C2F26D04FF462
:100670008060E168064320468847054604E06C2F09
:100680001AD04FF4807006430DB3A5F1410019282C
:1006900002D8203546F400664A46294620462660A0
:1006A0004E46FFF7CBFD80B101280BD0F61D26F09A
:1006B000070000F1080956E74020E4E78020D8E76A
:1006C0000020D6E706F104094DE7284652E7206AE4
:1006D000BDE8F09F13E50000704770477047704712
:1006E0002DE9F0470D4699469246044600F124084C
:1006F0000168880604D5E06921F01001216000E05E
:100700000120A84201DD471B00E00027A1697A19FA
:1007100002EB0900081AA0612078C00602D4204626
:10072000FFF75EFE002608E0D4E901211AF8060072
:100730009047206A401C761C20624E45F4DB2078EE
:10074000C0060AD52046FFF74BFE06E0D4E901219A
:1007500030209047206A401C2062381EA7F1010714
:10076000F4DC07E0D4E9012118F805009047206A7D
:10077000401C2062281EA5F10105F3DC2046FFF78E
:1007800045FE2078000602D50220BDE8F087012052
:10079000FBE710B5436913B1AFF3008001E0FFF749
:1007A00046FE012010BD127800F124010A700022DB
:1007B0004A700122EDE711684FF0FF32E9E70000CF
:1007C000074B70B50D467B4400F011F804462846EF
:1007D00000F020F810B14FF0FF3070BD204670BD22
:1007E0007780000001694A1C02610878704700B5F3
:1007F0008FB0CDE901310021059105497944CDE95A
:10080000031011466846FFF7A3FE0FB000BD0000BD
:10081000E5FFFFFF007B00F080007047754600F0A9
:100820002BF8AE4605006946534620F00700854682
:1008300018B020B5FFF73EFDBDE820404FF00006A0
:100840004FF000074FF000084FF0000B21F00701B8
:10085000AC46ACE8C009ACE8C009ACE8C009ACE8FB
:10086000C0098D46704710B50446AFF3008020469E
:10087000BDE81040FFF702BD004870475CC501208D
:10088000FEE710B50B460C0601F07F0202EB820179
:1008900000EBC10102D501F58E7101E001F55D713A
:1008A0000A70DA094A7007F05DFB002010BD0A46A5
:1008B00010B5090602F07F0306D503EB830100EBB8
:1008C000C10101F58E7105E002EB820100EBC1016F
:1008D00001F55D7100248C700B70D2094A7007F02D
:1008E00028FB002010BD10B50A0604D501F07F01D9
:1008F00007F04EFC01E007F02DFC002010BD70B5A4
:100900000D460E0601F07F0404EB840100EBC101EB
:1009100002D501F58E7101E001F55D71ED090C70F4
:100920004D708A60CB7000D0CC80022B01D10022A8
:100930000A7107F0D5FA002070BD10B501F07F04F0
:1009400004EB840100EBC101C1F88833C1F88023B6
:100950000023C1F88C3381F8753381F87443C37870
:1009600001F55D71012B00D10A6114F0FF0F03D076
:1009700007F02AFB002010BD07F047FAFAE70069EC
:10098000002261F30A1201681143016070470A46B0
:1009900010B5090602F07F0306D503EB830100EBD7
:1009A000C10101F58E7105E002EB820100EBC1018E
:1009B00001F55D7101248C700B70D2094A7007F04B
:1009C000EBFA002010BD70B511F07F0404EB840138
:1009D00000EBC1014FF0010581F81D5181F81C4168
:1009E000C1F82821C1F82C2101F58E714FF00002C9
:1009F000C1E9053203D007F0E7FA002070BD07F027
:100A000004FAFAE770B5044607F0E4F9E068C16853
:100A100021F47055C560204607F0DCFB014600203C
:100A200003290FD00320A0704020A08025F470502F
:100A300000F5A050E168C860E1684FF400504861DB
:100A4000012070BDA0704FF40070A08025F470509C
:100A500000F51050EEE700002DE9F04106460024B5
:100A600007F0DBFB074650E0F8074CD03069E1B2F5
:100A70000369426BCA4006EB810102F001028969F9
:100A800043EAC2128D681540E9071AD00125426B6E
:100A900005FA04F18A43426306EB840080698560AD
:100AA0001C48E1B20068426830469047F07801285F
:100AB00007D134B996F81101042802D1304607F065
:100AC000FDF9280704D506EB8400082580698560B8
:100AD000E80604D506EB8400102580698560680669
:100AE00004D506EB8400402580698560A80704D5FD
:100AF00006EB8400022580698560280603D521461F
:100B0000304600F060F97F08641C002FACD1012052
:100B1000BDE8F081A80100202DE9F0410546002440
:100B200007F081FB0746DFF8988043E0F8073FD0E5
:100B3000E1B2284607F07DFB0646C00725D005EB4D
:100B400084000126416D8E60E97801290CD1406D49
:100B5000016904EB840005EBC000C1F31201D0F879
:100B60007C23511AC0F88C13D8F80000E1B2026857
:100B700028469047E878012807D134B995F8110143
:100B8000052802D1284607F099F9B00704D505EBEE
:100B900084000226406D8660300709D5D8F8000031
:100BA00081682846884705EB84010820496D8860E4
:100BB0007F08641C002FB9D10120BDE8F08100003E
:100BC000A801002070B50546C068816921F01001B8
:100BD0008161E868066A06F00F0000EB800005EB13
:100BE000C004C6F3434004F55D74072821D2DFE852
:100BF00000F0202004202020150047F6F070064267
:100C000017D0C6F30A1632462846E16807F019FBEA
:100C1000E0683044E060A069304409E0082205F251
:100C2000CC51284607F00DFBA069C6F30A11084411
:100C3000A061E868816941F010018161012070BD07
:100C400038B5044600208DF8000094F812018DF8A4
:100C5000000015480068416920468847206980687F
:100C6000E2684FF400615161A17AD1B1C00718D098
:100C700094F81501012814D19DF80000032810D123
:100C8000D4F80C01016841F001010160D4F80C01B5
:100C9000016841F0030101600448016841F0060168
:100CA0000160012038BD0000A801002010ED00E027
:100CB00070B50446006900250126416821F0010154
:100CC00041602946204607F063FA0020FF2206E033
:100CD00004EB80018B699A60496D8A60401C6178E1
:100CE0008142F5D821694FF0FF308861284621699B
:100CF00066F30F0066F31F40C861216945F00B00E1
:100D00004861216945F00B0008612069016821F400
:100D1000FE610160204607F0D1F8E1684FF4805091
:100D2000486103480068016920468847012070BD7A
:100D3000A801002070B5044607F094FA01200023B2
:100D400084F8120184F814311A46402510E002EBB1
:100D5000820104EBC10181F81D0181F81C21A1F879
:100D6000222181F81F31C1E94953521CC1F83031A9
:100D700061789142EBD8002010E000EB800104EB99
:100D8000C10181F8753381F87403A1F87A0381F801
:100D90007733C1E9DF53401CC1F888336178814261
:100DA000EBD8204607F00EF8204606F008FF002199
:100DB000204607F0B9FA204606F041FF2046BDE87C
:100DC000704007F0BFB92DE9F0470E4601EB8601F0
:100DD00000EBC1048046D4E94C01401AD4F8241138
:100DE00004F58E74814200D20846C01C08EB8609C7
:100DF0008708D9F81800816920E0451AA068A84240
:100E000000D20546E81C8708ABB2F2B24046E16862
:100E100007F09FFAE0682844E060A0692844A061D8
:100E2000D9F8181089696269824207D120780122B5
:100E30008240D8F81000436B9343436388B2B842B2
:100E400005D9D4E90501814201D20028D5D101207C
:100E5000BDE8F0877047000070B5B3F5804F05D04E
:100E60006FF0704140F82210002070BD50F8223021
:100E7000084C2340D1E9004544EA05148D688E8969
:100E80002D0245EA064589692C430C431C4340F872
:100E90002240E9E70000F0CFF0B50C6850F824508C
:100EA000114A1540D1E90123D1E903671A433E43B2
:100EB00032434E6932438E693243CE6932430E6A01
:100EC00032434E6A32438E6A3243CE6A3243CE6B2D
:100ED000096B32430A432A43082B01D142F04002F6
:100EE00040F824200020F0BD8000F0FF30B500EB7A
:100EF00082004268D1E9003443EA04138C688D898A
:100F0000240244EA054423430C8A084D02F040427F
:100F100005EB045423430C7D6D0105EB04648969E2
:100F200023430B4313434360002030BD0000F0FF18
:100F300090F83510022903D08021416501207047C7
:100F4000052180F835100068016821F00101016079
:100F50000020704770B5044600F0FAF80546601CA2
:100F600002D004480078044400F0F2F8401BA0428C
:100F7000FAD370BD040000202DE9F84FDFF88C9102
:100F8000002209F1040A0AF1040B4FF00F080BF1DB
:100F9000040E01260B6896403340B34271D14C6871
:100FA000022C01D0122C11D1D40800EB84073D6A29
:100FB0005407E40E08FA04FC25EA0C05D1F810C029
:100FC0000CFA04FC4CEA050CC7F820C00768540072
:100FD000032591F804C0A5400CF0030CAF430CFAB4
:100FE00004FC4CEA070CC0F800C04F68012F05D084
:100FF000022F03D0112F01D0122F11D18768D1F801
:101000000CC0AF430CFA04FC4CEA070CC0F808C053
:101010004768B7430E79C6F3001696403E434660D4
:10102000C668AE438D68A5403543C5604C68E40092
:1010300065D5374C256845F480452560246822F045
:10104000030504F480440094324C2E19D6F8087835
:101050009407250F08FA05F4A7432F4CA04201D1AD
:10106000002424E02D4CA04201D101241FE02C4C8F
:10107000A04201D102241AE02A4CA04202D103244A
:1010800015E03CE0284CA04201D104240FE0274C9D
:10109000A04201D105240AE0254CA04201D106243A
:1010A00005E0244CA04201D1072400E00824AC4014
:1010B0003C43C6F80848D9F800404D464E689C436A
:1010C000F60300D51C432C60DAF8004055464E6804
:1010D0009C43B60300D51C432C60DBF800405D4602
:1010E0004E689C43F60200D51C432C60DEF800409D
:1010F00075464E689C43B60200D51C432C60521CBA
:10110000102AFFF446AFBDE8F88F0000003C014014
:101110004438024000300140000002400004024018
:1011200000080240000C024000100240001402407F
:1011300000180240001C02400AB181617047090496
:10114000FBE7000001480068000C7047002004E045
:101150000148806870470000040000200248816850
:10116000027811448160704704000020094810B5DE
:10117000016841F400710160016841F4806101601F
:10118000052000F057F80F2000F006F800F024F8D2
:10119000002010BD003C024070B50D4D04464FF4D8
:1011A0007A712878B1FBF0F00A490968B1FBF0F0D8
:1011B00001F072F848B9102C07D200222146501EC7
:1011C00000F018F800206C6070BD012070BD0000B8
:1011D00004000020000000207047002809DB00F018
:1011E0001F02012191404009800000F1E020C0F879
:1011F00000117047F0B40E4B1B68C3F30223C3F118
:101200000704042C00D904241D1D072D01D200233E
:1012100000E0DB1E012606FA04F56D1E0D409D4020
:101220009E40761E164045EA0601F0BC07F056BA0D
:101230000CED00E0064A00F0070110684FF6FF03CE
:10124000184040EA0120034908431060704700003D
:101250000CED00E00000FA052DE9F0470D46040012
:1012600065D0DFF81491D9F80000EFB200F00F005C
:10127000A84207D289F80070D9F8000000F00F00EA
:10128000A84254D120683D4E810712D5400703D5AE
:10129000306840F4E05030602078000703D53068B3
:1012A00040F4604030603068A16820F0F0000843EE
:1012B00030602078C0072DD0304960680839012897
:1012C00012D0022813D0032811D0096889070029F9
:1012D0002DDA316821F0030101433160FFF738FF57
:1012E000804641F2883A0EE009688903EFE7096811
:1012F0008901ECE7FFF72CFFA0EB0801514502D96B
:101300000320BDE8F0873068616800F00C00B0EBA6
:10131000810FEFD1D9F80010484601F00F01A94222
:1013200007D90770006800F00F00A84201D0012023
:10133000E7E72078400705D53068E16820F4E05001
:10134000084330602078000706D53068216920F412
:10135000604040EAC100306000F036F83168084A69
:10136000C1F30311515CC840064908600F20FFF724
:1013700013FF0020C5E70000003C0240083802408F
:1013800072A20008000000200448054900680968AE
:10139000044AC1F38221515CC8407047000000201C
:1013A0000838024082A2000804480549006809681C
:1013B000044AC1F34231515CC8407047000000202C
:1013C0000838024082A20008154810B5006810F0E5
:1013D0000C01144813D0431004290FD008290ED152
:1013E0000F4C241F216801F03F022168490207D5F4
:1013F0002068C0F38810A0FB030106E0184610BD6A
:101400002168C1F38811A1FB00010023FEF765FFED
:101410002168C1F30141491C4900B0FBF1F010BD46
:10142000083802400024F4002DE9F84F040073D07E
:101430002078BD4DC00748D0BB4808300168C1F3D3
:101440008101012908D00068C0F3810002280AD177
:10145000281D0068400206D52868800335D56068DD
:101460000028E4D031E06068B0F5803F10D0B0F5DE
:10147000A02F286810D020F480302860286820F43D
:10148000802028606068A0B1FFF762FE06460CE08D
:10149000286840F48030F4E740F480202860F7E7C3
:1014A000FFF756FE801B642872D828688003F7D5A2
:1014B0000BE0FFF74DFE064604E0FFF749FE801BF8
:1014C0006428F1D828688003F7D42078DFF85C928C
:1014D00080074FF0000A3ED593480830016811F0AC
:1014E0000C0F09D00068C0F3810002280BD18E4890
:1014F000001D0068400206D42868800715D5E06802
:10150000012809D111E0E068B8B10120C9F8000054
:10151000FFF71EFE064605E003E1FFF719FE801BFC
:101520000228C1D828688007F7D52868216920F0EB
:10153000F80040EAC10028600DE0C9F800A0FFF7FC
:1015400007FE064604E0FFF703FE801B02281FD8B3
:1015500028688007F7D42078000722D5724F744995
:101560006069743770B101200860FFF7F1FD06462D
:1015700004E0FFF7EDFD801B022809D838688007DA
:10158000F7D50EE0C1F800A0FFF7E2FD064605E042
:1015900081E0FFF7DDFD801B02287CD838688007DA
:1015A000F7D42078400769D5DFF87CB14FF0000808
:1015B0000BF1400BDBF80000C0000CD4DBF800108E
:1015C00041F08051CBF80010DBF800004FF001082B
:1015D00000F080500090574F3868C0050FD438682D
:1015E00040F480703860FFF7B3FD064604E0FFF773
:1015F000AFFD801B02284ED83868C005F7D54A4F8A
:10160000A068703701280FD00528386810D020F066
:1016100001003860386820F004003860A068B0B17C
:10162000FFF796FD06460EE0386840F00100F4E74B
:1016300040F004003860F7E7FFF78AFD811B41F2B4
:101640008830814265D838688007F5D50DE0FFF70E
:101650007FFD064606E0FFF77BFD811B41F28830E7
:10166000814256D838688007F5D4B8F1000F05D00C
:10167000DBF8001021F08051CBF80010A069C8B34E
:10168000294908310968C1F38101022949D002289A
:10169000504607D000E03CE0C9F86000FFF758FD75
:1016A000044639E04F46C9F86000FFF751FD064691
:1016B00004E0FFF74DFD801B02282AD8286880012E
:1016C000F7D4D4E907010843A16A1B4A490802EB91
:1016D0000141626A41EA8211084394F82C1040EA01
:1016E00001611148001D016001203866FFF730FDDF
:1016F000044605E013E0FFF72BFD001B022808D885
:1017000028688001F7D50AE0FFF722FD001B0228B8
:1017100002D90320BDE8F88F28688001F4D40020A6
:10172000F8E70120F6E700000038024000004742D9
:10173000800E4742007000400000FFFFFEB50446E7
:1017400003200D4684F83400606C032820D0B5F5E2
:10175000805F1DD0B5F5006F05D045B1A06B40F09E
:101760000060A06309E0204604F03FFE02E020464E
:1017700004F014FEA16B0143A163A06B012658B1D4
:10178000216840F2FF50886384F834600120FEBD78
:10179000A06B40F08050E4E7211DD4E905070EC995
:1017A000CDE900500297206804F070F984F83460A5
:1017B0000020FEBDF0B5426E120E93090B70C2F30D
:1017C00083034B7002F003028A70426E120CCA70DF
:1017D000B0F86420120A0A7190F864204A71826E8F
:1017E0004FF6FF73120E03EA0212CA80826ECB8894
:1017F000C2F3074243EA1213CB8002F00F020A72CF
:10180000B0F86820C2F30722D3094B72C2F38013E9
:101810008B72C2F34013CB72C2F300130B7300241C
:101820004C73456C4FF4007601236DB1012D43D00C
:10183000026840F2FF519163816B41F080518163F6
:1018400080F834300120F0BD9207120D0A6190F843
:1018500068200D6945EA82020A61C26E0D69120EA6
:1018600045EA92150D61C2F3C2050D7502F007023B
:101870004A75C26EC2F3074255098D75C2F38205DF
:10188000CD759207520F0A76B0F86C200D7EC2F328
:10189000072245EAD2150D760D696D1C45650F7E50
:1018A000BF1CBD4045650F7A03FA07F787657F0ABD
:1018B0007D43C0E917561CE090F868209206920A12
:1018C0000A61C26E0D69120E45EA02220A61C26EF9
:1018D0000D69C2F3074215430D61B0F86C200D6924
:1018E000C2F307226D1C4FEA85254565C0E91665E0
:1018F0000666C2F3801501F8195F4FEA82624FEA6B
:1019000052624A7010F86C2F4D7845EAD2154D702E
:1019100002F07F028A7042684FEA12624FEAD215E3
:10192000CD70C2F341150D71C2F382054D714FEABE
:1019300082724FEA12728A7142688D79C2F307424D
:1019400045EA92158D71C2F34015CD710C7202F00B
:1019500001024A728288C2F307224FEAD2148C72C3
:10196000C2F38014CC72C2F340140C73C2F300149F
:101970004C73C2F381048C7302F00302CA730079C2
:101980004FEA500008744B744FF00000F0BD426CF9
:101990000A60826C4A60C26C8A60026DCA60426DE5
:1019A0000A61826D4A61C26D8A61006EC861002061
:1019B000704738B5002504460095B0F85000010482
:1019C000206804F0DBF928B90021206804F058F8F9
:1019D0000090284610B1A16B0143A1630098C0F3A9
:1019E000432038BD70B5040004D094F834000025BD
:1019F00010B105E0012070BD2577204600F038F8D1
:101A0000032084F83400204600F008F8A56325631D
:101A1000012084F83400002070BD0000FEB50025D0
:101A2000044676200095CDE901502B462A462946EA
:101A3000206804F02BF80D4E46F8A05F206804F0F3
:101A400037F8012535600220FFF784FA204604F0BC
:101A500034FC20B9204604F0BDFB002805D084F8F2
:101A60003450A16B0143A1630120FEBD00802542DB
:101A70001D4800B5016887B041F40061016000684D
:101A800000F40060059018481438016841F48001A2
:101A90000160016801F480010591016841F00401D1
:101AA0000160016801F004010591016841F008013D
:101AB00001600068694600F0080005904FF4F85096
:101AC00000900220019001200290032003900C203E
:101AD00004900648FFF750FA042000906946044835
:101AE000FFF74AFA07B000BD443802400008024040
:101AF000000C02402DE9F04F87B09B4616460D467C
:101B00000446109FFFF724FB81463DB194F8340052
:101B1000012807D0A06B40F000500DE0A06B40F012
:101B2000006009E00020A063E26D06EB0B0191422A
:101B300004D9A06B40F00070A06384E0032184F816
:101B4000341021688046C862606C012800D076029B
:101B50004FF40071206803F0F9FF40F2FF5A0121B1
:101B600040B12368C3F838A0A26B0243A26384F893
:101B7000341068E04FF0FF3000904FEA4B200190A6
:101B8000902002900220CDE903080591884669461D
:101B9000206803F05FFFBBF1010F06D9022020632C
:101BA0003146206804F05EF805E0C4F83080314624
:101BB000206804F06FF838B32268C2F838A0A16B2F
:101BC0000143A1633DE0406B000409D50026206875
:101BD00003F072FF45F82600761C082EF7D3203557
:101BE0002FB1FFF7B5FAA0EB0900B8420CD321687A
:101BF000C1F838A0A06B40F00040A06384F83480A6
:101C0000032007B0BDE8F08F2068416B40F22A3214
:101C10001142D8D0416BC90509D5BBF1010F06D9D6
:101C2000616C032903D004F0D9F80028C4D12068DE
:101C3000416B090709D5C0F838A0A06B40F0080037
:101C400025E084F834800120DBE7416B890705D566
:101C5000C0F838A0A06B40F0020018E0416B890684
:101C600017D5C0F838A0A06B40F020000FE003F0BB
:101C700023FF01C52FB1FFF76BFAA0EB0900B842B3
:101C800007D32168C1F838A0A06B40F00040A063E2
:101C9000D7E72068416B8902E9D42168C1F838A0F0
:101CA00084F834800020ACE72DE9F04F87B09A46E5
:101CB00015460E460446DDF840B0FFF749FA069097
:101CC0003EB194F83400012807D0A06B40F00050DA
:101CD0000DE0A06B40F0006009E00020A063E26D21
:101CE00005EB0A01914204D9A06B40F00070A0639B
:101CF0002EE0032184F8341021680020C862606C53
:101D0000012800D06D024FF40071206803F01EFF1F
:101D100040F2FF584FF00109002860D1BAF1010FDD
:101D200006D9202020632946206804F071F805E0D8
:101D3000102020632946206804F082F807000BD0A9
:101D40002168C1F83880A06B38436AE084F8349089
:101D5000012007B0BDE8F08F4FF0FF3000904FEA50
:101D60004A200190902002900020CDE904090390C0
:101D70006946206803F06EFE1FE0406B400409D501
:101D8000002506EB8501206803F0A9FE6D1C082DD7
:101D9000F7D32036BBF1000F05D0FFF7D9F906992C
:101DA000411A594509D32168C1F83880A06B3843DE
:101DB000A06384F834900320CBE72068416B40F2A5
:101DC0001A321142D9D0416BC9050FD5BAF1010FB2
:101DD0000CD9616C032909D004F000F830B12268F5
:101DE000C2F83880A16B0143A163AFE72068416B63
:101DF000090705D5C0F83880A06B40F0080010E056
:101E0000416B890705D5C0F83880A06B40F002000F
:101E100007E0416BC0F83880C90604D5A06B40F0DC
:101E20001000A06392E784F83490002091E770B529
:101E3000040004D094F85100002510B106E0012000
:101E400070BD84F85050204600F038F8022084F825
:101E500051002068016821F040010160D4E90101CE
:101E60000843D4E903121143084361690843218BF5
:101E700001F400710843E1690843216A0843A16A3B
:101E8000084321680860A069042101EA1040616AE2
:101E9000084321684860A06AB0F5005F02D121685C
:101EA000E06A08612068C16921F40061C16165656B
:101EB000012084F85100002070BD0000114800B5D9
:101EC000016887B041F002010160006800F0020083
:101ED00005900C481430016841F48051016000689D
:101EE000012100F480500590382000900220CDE9B7
:101EF000010103900520049069460348FFF73CF870
:101F000007B000BD30380240000402402DE9F84F10
:101F1000044690F85000012500270A9E98469246F4
:101F20008B4601280FD0012084F85000FFF710F9EC
:101F300094F8511081466268404601290CD0B2F5F0
:101F4000827F07D102E00220BDE8F88FA2680AB9BB
:101F5000042901D0022703E1BBF1000F3CD0BAF104
:101F6000000F39D0B8F1000F36D094F85110042981
:101F700002D0052184F8511000216165C4F838A011
:101F8000A4F83E80A4F83C80C4F830B0A4F83680B1
:101F9000A4F8348021646164A16A4FF4005841457B
:101FA00009D121680A6822F400520A6021680A688F
:101FB00042F400520A6021680A68520603D40A6893
:101FC00042F040020A60E168B1F5006F616805D037
:101FD000F1B301284DD08DE00127C1E009B10128FE
:101FE00040D1206B21680088C860206B801C206372
:101FF000E08E401EE08635E020688168890717D5AD
:10200000E18EA9B1012D13D1216B0988C160206B2C
:10201000801C2063E08E401EE086E08E002538B9EB
:10202000A06A404504D12068016841F480510160F4
:1020300020688168C9070DD0E18F59B1C068A16BD4
:102040000880A06B801CA063E08F401EE08700E04A
:102050000FE00125FFF77CF8A0EB0900B04201D3A7
:10206000701C5DD1E08E0028C6D1E08F0028C3D15E
:1020700046E0206B216800780873206B401C2063C9
:10208000E08E401EE08635E020688168890717D51C
:10209000E18EA9B1012D13D1216B09780173206B59
:1020A000401C2063E08E401EE086E08E002538B99B
:1020B000A06A404504D12068016841F48051016064
:1020C00020688168C9070BD0E18F49B1C068A16B56
:1020D0000870A06B401CA063E08F401EE0870125C4
:1020E000FFF736F8A0EB0900B04202D3701C01D014
:1020F00016E0AEB1E08E0028C6D1E08F0028C3D133
:10210000A06A404510D10122334611462046CDF841
:10211000009004F02FFA28B1606D40F00200606575
:1021200003271DE02068C06820688168C90607D5BC
:10213000616D41F0020161654FF6EF718160012729
:102140004A463146204604F0E9F918B1012720201B
:10215000606505E0A06818B92068C16880680090D3
:10216000012084F85100002084F850003846EBE646
:1021700070B515460E46040003D094F8490010B11E
:1021800007E0012070BD002084F84800204600F0E0
:102190001BF804F108012068FEF77EFE3146A268B4
:1021A0002068FEF7A3FED4E901022946236BFEF75F
:1021B00053FEA168206850F8212042F0010240F847
:1021C0002120002070BD0000284810B5016886B0AD
:1021D00041F001010160006800F001000590234812
:1021E0000838016841F008010160016801F0080148
:1021F0000591016841F010010160016801F01001D2
:102200000591016841F020010160016801F02001A1
:102210000591016841F0400101600068694600F0E5
:10222000400005904CF23370009002200190012094
:102230000290032003900C2004900D48FEF79CFEB2
:102240004FF68070009069460A48FEF795FE4FF4FD
:102250008054694608480094FEF78EFE6946074898
:102260000094FEF789FE06B010BD00003838024029
:10227000000C02400010024000140240001802400E
:102280004FF0E0210428086903D020F00400086121
:10229000704740F00400FAE710B5401EB0F1807FAF
:1022A00001D3012010BD4FF0E02460610F216017C1
:1022B00006F014FA0020A06107202061002010BD64
:1022C00010B5040003D094F83D0010B107E00120E0
:1022D00010BD002084F83C00204600F00CF80220DD
:1022E00084F83D00211D206804F0A4FB012084F83F
:1022F0003D00002010BD70470168CA6842F001022D
:10230000CA600068816801F00701062903D00168EE
:1023100041F00101016000207047704710F8391F3B
:10232000407808437047000070B5026804461068A2
:10233000D168536910F00F0F50D003F0010501F47C
:10234000907635435DD0C20705D0CA0503D5E26B50
:1023500042F00102E263420705D5DA0703D0E26BDF
:1023600042F00202E263820705D5DA0703D0E26B8E
:1023700042F00402E263020705D5DA0703D0E26BFC
:1023800042F00802E263E26B002A33D0800604D5F3
:10239000880602D5204604F0F1FB20684069E16B15
:1023A000C0F38010090700D428B3204604F0D8FBFE
:1023B0002068416949061AD5416921F0400141610F
:1023C000606BA0B11B490165606BFEF7B1FD002891
:1023D00010D0606B016DBDE870400847830610D5D2
:1023E0008B060ED52046BDE8704004F0C7BB2046E2
:1023F000FFF793FF70BD2046FFF78FFF0020E063DB
:1024000070BD030606D50B0604D52046BDE8704016
:1024100004F056BD4006F3D54806F1D5D1682046F4
:1024200021F04001D160202184F8391000F0CAF871
:1024300070BD0000516B000870B5040004D094F822
:102440003900002510B106E0012070BD84F8385035
:10245000204600F023F8242084F839002068C16861
:1024600021F40051C160204604F0D4FB20680169CA
:1024700021F4904101612068416921F02A01416104
:102480002068C16841F40051C160E563202084F8F0
:10249000390084F83A00002070BD000010B50068D3
:1024A0001A4986B088422FD11948016841F00101CC
:1024B0000160006800F001000590154814300168C3
:1024C00041F0100101600068012100F0100005904A
:1024D0004FF4007000900220CDE901010390072025
:1024E0000C4C049069462046FEF746FD21150091EC
:1024F00069462046FEF740FD2520FEF76EFE0322CA
:1025000011462520FEF776FE06B010BD00100140F2
:10251000303802400000024090F83A30202B22D19F
:10252000F9B1F2B190F83830012B1CD0816282856C
:10253000C2850021C163222280F83A2080F8381039
:102540000168CA6842F48072CA6001684A6942F050
:1025500001024A610068C16841F02001C1600020A9
:1025600070470120704702207047000030B50068B6
:10257000114988420CD1114A5088010408D41146EF
:10258000440409784FF0000306D50A2901D053808E
:1025900030BD40F400400DE00D2909D0C0F30D041A
:1025A000074D401C80B229555080C728EFD830BD58
:1025B00040F48040508030BD0010014014000020E5
:1025C000CC0800207047FEE7F0B500230A24302530
:1025D00037261F4610E0B4EB107F02D905EB107CC4
:1025E00001E006EB107C01F813C001EB430C000185
:1025F0005B1C8CF80170DBB29342ECD3F0BD0000A1
:1026000070B5144886B00025016841F001010160F1
:10261000016801F001010591016841F010010160BC
:102620000068032400F01000059002200126CDE987
:102630000204CDE9006569460748FEF79DFC1C20B1
:1026400003948DE8610069460448FEF795FC06B0E6
:1026500070BD00003038024000000240001002400F
:1026600070B506460A4800240188458820464D4337
:10267000214602F0F9FB02F065FDB1B24FF0D840FF
:1026800002E0A0F88010641CAC42FAD370BD0000D8
:10269000240A00202DE9F04F334B2C241946987161
:1026A0002A2589882B2645F2105B4FF4305E4FF4C3
:1026B00048774FF0F00949F2413A4FF4A07845F2DB
:1026C000103C4FF4F07258B1A3F80080A3F80290C8
:1026D000514501D0614529D11C815D819E8139E040
:1026E000A3F80090A3F80280514501D0614508D1BC
:1026F0001C815D819E81614531D1A3F800805A80A3
:102700002DE0594508D1A3F808E04FF4285058812E
:102710004FF42C50988106E0A1F5C85063381ED1C3
:102720001C815E819D811A805F8018E0594508D127
:10273000A3F808E04FF4285058814FF42C509881AA
:1027400006E0A1F5C850633804D11C815D819E81EB
:102750001F805A80614502D11A80A3F80280BDE82B
:10276000F04F002002F0A4BA240A00202DE9F04125
:10277000374D90460C4602460F0AA8882946160A8D
:102780004989A0F51343413B0CD0A0F5A643103B6B
:1027900008D0A0F5AA43103B11D0A0F5C853633B65
:1027A00027D04BE0084602F0C0FC304602F0B1FCF6
:1027B000D0B202F0AEFCA88902F0B7FC38E00846BF
:1027C00002F0B3FC304602F0A4FC6889401C80B2E1
:1027D00002F0ABFCD0B202F09CFCA88902F0A5FC90
:1027E000384602F096FCA889401C80B202F09DFC9D
:1027F00021E0A87918B92888801A401E82B20846BC
:1028000002F093FC160A304602F083FCD0B202F0CC
:1028100080FC304602F07DFCD0B202F07AFCA88940
:1028200002F083FC384602F074FCE0B202F071FC66
:10283000384602F06EFCE0B202F06BFC4FF0D8407C
:10284000298920F87E1FA0F80280BDE8F0810000F1
:10285000240A00202DE9F0431F468146A2EB09001F
:10286000079B401C0C4686B29DB24FF0D84810E042
:102870002146484602F0F8FA02F064FC0020414686
:1028800003E0A1F88050401C80B2B042F9D3641C30
:10289000A4B2BC42ECD9BDE8F08300002DE9F04FB2
:1028A000FF4895B00024016841F002010160006812
:1028B0004FF0010900F00200139003204FF4004A8A
:1028C000CDE91090CDE90EA90EA9F648FEF754FB0C
:1028D000F548F6494FF02045C0E900510621C0E90E
:1028E00002141021C0E9044184610902C461C0E9F5
:1028F00009418900C0E90B4189014463C0E90E41E7
:102900000F20CDE907043C2009900920CDE90004FF
:1029100008200D94029003946A4607A90694E248A1
:10292000FFF726FC322005F063FFD32002F0FDFB09
:1029300002F08CF9DC4A5032908002F087F99080E6
:1029400002F084F94FF6FF7B0BEA0020908002F042
:102950007DF9918845F210360843A0F51341908027
:1029600045F2105441F66317413949D0D42002F0A2
:10297000DCFB02F06BF9908002F068F9908002F0C5
:1029800065F90BEA0020D846908002F05FF9918843
:1029900008439080B04233D04FF45A4002F0C5FB58
:1029A00002F054F990804FF45B4002F0BEFB02F05D
:1029B0004DF908EA002090804FF45C4002F0B5FB2E
:1029C00002F044F9918808439080504501D19480E9
:1029D00016E0A04214D0A12002F0A7FB02F036F9C5
:1029E000908002F033F908EA0020908002F02EF97E
:1029F00091880843A0F5AE419080613900D197805D
:102A000092469188AAA0FDF7DFFCBAF8040049F2CB
:102A1000413840457ED1CF2002F087FB002002F0F4
:102A200078FBC12002F075FB302002F072FBED2034
:102A300002F07BFB642002F06CFB032002F069FBD8
:102A4000122002F066FB812002F063FBE82002F016
:102A50006CFB852002F05DFB102002F05AFB7A200F
:102A600002F057FBCB2002F060FB392002F051FB53
:102A70002C2002F04EFB002002F04BFB342002F031
:102A800048FB022002F045FBF72002F04EFB20201D
:102A900002F03FFBEA2002F048FB002002F039FB85
:102AA000002002F036FBC02002F03FFB1B2002F0AA
:102AB00030FBC12002F039FB012002F02AFBC520C7
:102AC00002F033FB302002F024FB302002F021FB27
:102AD000C72002F02AFBB72002F01BFB362002F0D1
:102AE00024FB482002F015FB3A2002F01EFB552083
:102AF00002F00FFBB12002F018FB002002F009FBEE
:102B00001A2002F006FBB62002F00FFB0A2002F0AA
:102B100000FB00E095E0A22002F0FBFAF22002F0B8
:102B200004FB002002F0F5FA262002F0FEFA012054
:102B300002F0EFFAE02002F0F8FA0F2002F0E9FAD2
:102B40002A2002F0E6FA282002F0E3FA082002F038
:102B5000E0FA0E2002F0DDFA082002F0DAFA542042
:102B600002F0D7FAA92002F0D4FA432002F0D1FAF9
:102B70000A2002F0CEFA0F2002F0CBFA002002F079
:102B8000C8FA002002F0C5FA002002F0C2FA0020C4
:102B900002F0BFFAE12002F0C8FA002002F0B9FA10
:102BA000152002F0B6FA172002F0B3FA072002F05F
:102BB000B0FA112002F0ADFA062002F0AAFA2B209A
:102BC00002F0A7FA562002F0A4FA3C2002F0A1FA83
:102BD000052002F09EFA102002F09BFA0F2002F06E
:102BE00098FA3F2002F095FA3F2002F092FA0F2067
:102BF00002F08FFA2B2002F098FA002002F089FAF6
:102C0000002002F086FA012002F083FA3F2002F051
:102C100080FA2A2002F089FA002002F07AFA0020D5
:102C200002F077FA002002F074FAEF2002F071FA55
:102C3000112002F07AFA782005F0DAFD292001F05F
:102C400010BFB0427ED1ED2002F06FFA012002F0F9
:102C500060FAFE2002F05DFAEE2002F066FADE2055
:102C600002F057FA212002F054FAF12002F05DFA46
:102C7000012002F04EFADF2002F057FA102002F095
:102C800048FAC42002F051FA8F2002F042FAC6201E
:102C900002F04BFA002002F03CFAE22010E00000C3
:102CA0003038024000040240D4090020040100A092
:102CB000204C43442049443A25780D0A0000000086
:102CC00002F027FAE22002F024FAE22002F021FAD0
:102CD000BF2002F02AFAAA2002F01BFAB02002F06C
:102CE00024FA0D2002F015FA002002F012FA0D204D
:102CF00002F00FFA002002F00CFA112002F009FA9B
:102D0000002002F006FA192002F003FA002002F077
:102D100000FA212002F0FDF9002002F0FAF92D203E
:102D200002F0F7F9002002F0F4F93D2002F0F1F989
:102D3000002002F0EEF95D2002F0EBF9002002F035
:102D4000E8F900E0FDE35D2002F0E3F9002002F085
:102D5000E0F9B12002F0E9F9802002F0DAF9002070
:102D600002F0D7F98B2002F0D4F9002002F0D1F95B
:102D7000962002F0CEF9002002F0CBF9B22002F04A
:102D8000D4F9002002F0C5F9002002F0C2F90220B7
:102D900002F0BFF9002002F0BCF9032002F0B9F9FB
:102DA000002002F0B6F9B32002F0BFF9002002F0D3
:102DB000B0F9002002F0ADF9002002F0AAF90020DD
:102DC00002F0A7F9002002F0A4F9002002F0A1F916
:102DD000002002F09EF9002002F09BF9002002F092
:102DE00098F9002002F095F9002002F092F90020F5
:102DF00002F08FF9002002F08CF9002002F089F92E
:102E0000002002F086F9002002F083F9002002F091
:102E100080F9002002F07DF9002002F07AF900200C
:102E200002F077F9002002F074F9002002F071F945
:102E3000002002F06EF9002002F06BF9B42002F0DD
:102E400074F98B2002F065F9002002F062F99620F7
:102E500002F05FF9002002F05CF9A12002F059F9BC
:102E6000002002F056F9B52002F05FF9022002F0CE
:102E700050F9002002F04DF9032002F04AF9002039
:102E800002F047F9042002F044F9002002F041F971
:102E9000B62002F04AF9002002F03BF9002002F0CF
:102EA00038F9B72002F041F9002002F032F9002091
:102EB00002F02FF93F2002F02CF9002002F029F94E
:102EC0005E2002F026F9002002F023F9642002F0CF
:102ED00020F9002002F01DF98C2002F01AF90020E0
:102EE00002F017F9AC2002F014F9002002F011F9F9
:102EF000DC2002F00EF9002002F00BF9702002F045
:102F000008F9002002F005F9902002F002F90020F3
:102F100002F0FFF8EB2002F0FCF8002002F0F9F8D4
:102F2000DC2002F0F6F8002002F0F3F8B82002F0FE
:102F3000FCF8002002F0EDF8002002F0EAF8002092
:102F400002F0E7F8002002F0E4F8002002F0E1F8D7
:102F5000002002F0DEF8002002F0DBF8002002F092
:102F6000D8F8BA2002F0E1F8242002F0D2F80020CC
:102F700002F0CFF8002002F0CCF8002002F0C9F8EF
:102F8000C12002F0D2F8202002F0C3F8002002F0A5
:102F9000C0F8542002F0BDF8002002F0BAF8FF207B
:102FA00002F0B7F8002002F0B4F8C22002F0BDF839
:102FB0000A2002F0AEF8002002F0ABF8042002F084
:102FC000A8F8002002F0A5F8C32002F0AEF83C20DB
:102FD00002F09FF8002002F09CF83A2002F099F8E5
:102FE000002002F096F8392002F093F8002002F059
:102FF00090F8372002F08DF8002002F08AF83C208B
:1030000002F087F8002002F084F8362002F081F800
:10301000002002F07EF8322002F07BF8002002F05F
:1030200078F82F2002F075F8002002F072F82C20BA
:1030300002F06FF8002002F06CF8292002F069F825
:10304000002002F066F8262002F063F8002002F06B
:1030500060F8242002F05DF8002002F05AF82420E5
:1030600002F057F8002002F054F8232002F051F843
:10307000002002F04EF83C2002F04BF8002002F055
:1030800048F8362002F045F8002002F042F83220DD
:1030900002F03FF8002002F03CF82F2002F039F84F
:1030A000002002F036F82C2002F033F8002002F065
:1030B00030F8292002F02DF8002002F02AF826200E
:1030C00002F027F8002002F024F8242002F021F872
:1030D000002002F01EF8242002F01BF8002002F06D
:1030E00018F8232002F015F8002002F012F8C4208E
:1030F00002F01BF8622002F00CF8002002F009F840
:10310000052002F006F8002002F003F8842002F007
:1031100000F8002001F0FDFFF02001F0FAFF002090
:1031200001F0F7FF182001F0F4FF002001F0F1FF9B
:10313000A42001F0EEFF002001F0EBFF182001F0C9
:10314000E8FF002001F0E5FF502001F0E2FF002041
:1031500001F0DFFF0C2001F0DCFF002001F0D9FFBF
:10316000172001F0D6FF002001F0D3FF952001F0D9
:10317000D0FF002001F0CDFFF32001F0CAFF0020B6
:1031800001F0C7FFE62001F0C4FF002001F0C1FFFD
:10319000C52001F0CAFF322001F0BBFF002001F082
:1031A000B8FF442001F0B5FF002001F0B2FF652018
:1031B00001F0AFFF002001F0ACFF762001F0A9FF85
:1031C000002001F0A6FF882001F0A3FF002001F0FD
:1031D000A0FFC62001F0A9FF202001F09AFF0020E7
:1031E00001F097FF172001F094FF002001F091FFFC
:1031F000012001F08EFF002001F08BFFC72001F0BD
:1032000094FF002001F085FF002001F082FF0020E4
:1032100001F07FFF002001F07CFFC82001F085FF56
:10322000002001F076FF002001F073FF002001F084
:1032300070FF002001F06DFFC92001F076FF002033
:1032400001F067FF002001F064FF002001F061FF42
:10325000002001F05EFF002001F05BFF002001F084
:1032600058FF002001F055FF002001F052FF002020
:1032700001F04FFF002001F04CFF002001F049FF5A
:10328000002001F046FF002001F043FF002001F084
:1032900040FF002001F03DFF002001F03AFFE02058
:1032A00001F043FF162001F034FF002001F031FF50
:1032B0001C2001F02EFF002001F02BFF212001F047
:1032C00028FF002001F025FF362001F022FF00201A
:1032D00001F01FFF462001F01CFF002001F019FF44
:1032E000522001F016FF002001F013FF642001F0CE
:1032F00010FF002001F00DFF7A2001F00AFF0020EE
:1033000001F007FF8B2001F004FF002001F001FF16
:10331000992001F0FEFE002001F0FBFEA82001F044
:10332000F8FE002001F0F5FEB92001F0F2FE0020C9
:1033300001F0EFFEC42001F0ECFE002001F0E9FEF8
:10334000CA2001F0E6FE002001F0E3FED22001F0E9
:10335000E0FE002001F0DDFED92001F0DAFE0020C1
:1033600001F0D7FEE02001F0D4FE002001F0D1FEF4
:10337000F32001F0CEFE002001F0CBFEE12001F0B1
:10338000D4FE162001F0C5FE002001F0C2FE1C2074
:1033900001F0BFFE002001F0BCFE222001F0B9FECA
:1033A000002001F0B6FE362001F0B3FE002001F04F
:1033B000B0FE452001F0ADFE002001F0AAFE522033
:1033C00001F0A7FE002001F0A4FE642001F0A1FEA0
:1033D000002001F09EFE7A2001F09BFE002001F00B
:1033E00098FE8B2001F095FE002001F092FE9920BE
:1033F00001F08FFE002001F08CFEA82001F089FE74
:10340000002001F086FEB92001F083FE002001F0CB
:1034100080FEC42001F07DFE002001F07AFECA206B
:1034200001F077FE002001F074FED22001F071FE61
:10343000002001F06EFED82001F06BFE002001F0AC
:1034400068FEE02001F065FE002001F062FEF3203E
:1034500001F05FFE002001F05CFEE22001F065FE5D
:10346000052001F056FE002001F053FE0B2001F074
:1034700050FE002001F04DFE1B2001F04AFE00200E
:1034800001F047FE342001F044FE002001F041FE2F
:10349000442001F03EFE002001F03BFE4F2001F0F1
:1034A00038FE002001F035FE612001F032FE0020E0
:1034B00001F02FFE792001F02CFE002001F029FE02
:1034C000882001F026FE002001F023FE972001F065
:1034D00020FE002001F01DFEA62001F01AFE0020B3
:1034E00001F017FEB72001F014FE002001F011FEDC
:1034F000C22001F00EFE002001F00BFEC72001F0FB
:1035000008FE002001F005FED12001F002FE00209F
:1035100001F0FFFDD62001F0FCFD002001F0F9FDD7
:10352000DD2001F0F6FD002001F0F3FDF32001F0B5
:10353000F0FD002001F0EDFDE32001F0F6FD052097
:1035400000E00CE301F0E5FD002001F0E2FD0A20BF
:1035500001F0DFFD002001F0DCFD1C2001F0D9FDB1
:10356000002001F0D6FD332001F0D3FD002001F052
:10357000D0FD442001F0CDFD002001F0CAFD502017
:1035800001F0C7FD002001F0C4FD622001F0C1FD83
:10359000002001F0BEFD782001F0BBFD002001F00D
:1035A000B8FD882001F0B5FD002001F0B2FD9720A4
:1035B00001F0AFFD002001F0ACFDA62001F0A9FD57
:1035C000002001F0A6FDB72001F0A3FD002001F0CE
:1035D000A0FDC22001F09DFD002001F09AFDC72052
:1035E00001F097FD002001F094FDD12001F091FD44
:1035F000002001F08EFDD52001F08BFD002001F0B0
:1036000088FDDD2001F085FD002001F082FDF32022
:1036100001F07FFD002001F07CFDE42001F085FD3C
:10362000012001F076FD002001F073FD012001F082
:1036300070FD002001F06DFD022001F06AFD002008
:1036400001F067FD2A2001F064FD002001F061FD1A
:103650003C2001F05EFD002001F05BFD4B2001F0FD
:1036600058FD002001F055FD5D2001F052FD0020C5
:1036700001F04FFD742001F04CFD002001F049FDE8
:10368000842001F046FD002001F043FD932001F06D
:1036900040FD002001F03DFDA22001F03AFD002098
:1036A00001F037FDB32001F034FD002001F031FDC1
:1036B000BE2001F02EFD002001F02BFDC42001F002
:1036C00028FD002001F025FDCD2001F022FD002085
:1036D00001F01FFDD32001F01CFD002001F019FDB9
:1036E000DD2001F016FD002001F013FDF32001F0B4
:1036F00010FD002001F00DFDE52001F016FD002079
:1037000001F007FD002001F004FD002001F001FDA3
:10371000002001F0FEFC022001F0FBFC002001F083
:10372000F8FC292001F0F5FC002001F0F2FC3C201F
:1037300001F0EFFC002001F0ECFC4B2001F0E9FC73
:10374000002001F0E6FC5D2001F0E3FC002001F028
:10375000E0FC742001F0DDFC002001F0DAFC8420A4
:1037600001F0D7FC002001F0D4FC932001F0D1FC43
:10377000002001F0CEFCA22001F0CBFC002001F0E3
:10378000C8FCB32001F0C5FC002001F0C2FCBE2043
:1037900001F0BFFC002001F0BCFCC42001F0B9FC2A
:1037A000002001F0B6FCCD2001F0B3FC002001F0B8
:1037B000B0FCD32001F0ADFC002001F0AAFCDC201D
:1037C00001F0A7FC002001F0A4FCF32001F0A1FC13
:1037D000002001F09EFCE62001F0A7FC112001F082
:1037E00098FC002001F095FC342001F092FC0020B0
:1037F00001F08FFC562001F08CFC002001F089FCC8
:10380000762001F086FC002001F083FC772001F097
:1038100080FC002001F07DFC662001F07AFC002095
:1038200001F077FC882001F074FC002001F071FCAD
:10383000992001F06EFC002001F06BFCBB2001F030
:1038400068FC002001F065FC992001F062FC00207A
:1038500001F05FFC662001F05CFC002001F059FCE7
:10386000552001F056FC002001F053FC552001F0DA
:1038700050FC002001F04DFC452001F04AFC0020E6
:1038800001F047FC432001F044FC002001F041FC22
:10389000442001F03EFC002001F03BFCE72001F059
:1038A00044FC322001F035FC002001F032FC5520B0
:1038B00001F02FFC002001F02CFC762001F029FC07
:1038C000002001F026FC662001F023FC002001F01E
:1038D00020FC672001F01DFC002001F01AFC67208D
:1038E00001F017FC002001F014FC872001F011FC0E
:1038F000002001F00EFC992001F00BFC002001F0EB
:1039000008FCBB2001F005FC002001F002FC99201E
:1039100001F0FFFB002001F0FCFB772001F0F9FB38
:10392000002001F0F6FB442001F0F3FB002001F041
:10393000F0FB562001F0EDFB002001F0EAFB232014
:1039400001F0E7FB002001F0E4FB332001F0E1FB94
:10395000002001F0DEFB452001F0DBFB002001F040
:10396000D8FBE82001F0E1FB002001F0D2FB0020B1
:1039700001F0CFFB992001F0CCFB002001F0C9FB46
:10398000872001F0C6FB002001F0C3FB882001F076
:10399000C0FB002001F0BDFB772001F0BAFB002046
:1039A00001F0B7FB662001F0B4FB002001F0B1FB91
:1039B000882001F0AEFB002001F0ABFBAA2001F053
:1039C000A8FB002001F0A5FBBB2001F0A2FB00201A
:1039D00001F09FFB992001F09CFB002001F099FB76
:1039E000662001F096FB002001F093FB552001F0CA
:1039F00090FB002001F08DFB552001F08AFB002098
:103A000001F087FB442001F084FB002001F081FBE2
:103A1000442001F07EFB002001F07BFB552001F0EB
:103A200078FB002001F075FBE92001F07EFBAA2065
:103A300001F06FFB002001F06CFB002001F069FB3E
:103A4000002001F066FB002001F06FFBAA2001F0CE
:103A500060FBCF2001F069FB002001F05AFB002041
:103A600001F057FB002001F054FB002001F051FB56
:103A7000002001F04EFB002001F04BFB002001F084
:103A800048FB002001F045FB002001F042FB002034
:103A900001F03FFB002001F03CFB002001F039FB6E
:103AA000002001F036FB002001F033FB002001F084
:103AB00030FB002001F02DFB002001F02AFBF0205C
:103AC00001F033FB002001F024FB502001F021FB2A
:103AD000002001F01EFB002001F01BFB002001F084
:103AE00018FBF32001F021FB002001F012FBF9206C
:103AF00001F01BFB062001F00CFB102001F009FB7C
:103B0000292001F006FB002001F003FB3A2001F020
:103B10000CFB552001F0FDFA112001F006FB64209A
:103B200004F066FE292001F000FB352001F0FDFACB
:103B3000002001F0EEFA512001F0F7FAFF2001F029
:103B4000E8FA532001F0F1FA2C2001F0E2FA5520B6
:103B500001F0EBFA822001F0DCFA2C20FDE3A04218
:103B60007ED14FF470435521184601F0F5FAAA2191
:103B70004FF2010001F0F0FA52214FF2020001F081
:103B8000EBFA08214FF2030001F0E6FA01214FF2AF
:103B9000040001F0E1FA0D214FF4304001F0DCFAAD
:103BA0000D214BF2010001F0D7FA0D214BF202007A
:103BB00001F0D2FA34214FF4364001F0CDFA34212D
:103BC0004BF2016001F0C8FA34214BF2026001F0BF
:103BD000C3FA0D214FF4314001F0BEFA0D214BF232
:103BE000011001F0B9FA0D214BF2021001F0B4FA04
:103BF00034214FF4374001F0AFFA34214BF2017019
:103C000001F0AAFA34214BF2027001F0A5FA00216A
:103C10004FF4324001F0A0FA00214BF2012001F0F4
:103C20009BFA00214BF2022001F096FA24214FF476
:103C3000384001F091FA24214BF6010001F08CFA92
:103C400024214BF6020001F087FA01214FF43F4096
:103C500001F082FA0F214FF4334001F07DFA00E0C9
:103C6000FEE30F214BF2013001F076FA0F214BF207
:103C7000023001F071FA34214FF4394001F06CFA4E
:103C800034214BF6011001F067FA34214BF6021093
:103C900001F062FA08214FF4354001F05DFA082185
:103CA0004BF2015001F058FA08214BF2025001F09A
:103CB00053FA03214FF4424001F04EFA24214FF40D
:103CC0003A4001F049FA24214BF6012001F044FA70
:103CD00024214BF6022001F03FFA00214FF43C4032
:103CE00001F03AFA78214BF6014001F035FA002153
:103CF0004BF6024001F030FA00214FF43D4001F054
:103D00002BFA78214BF6015001F026FA00214BF6F0
:103D1000025001F021FA00214FF43E4001F01CFA5C
:103D200064214BF6016001F017FA00214FF4514075
:103D300001F012FA33214DF2011001F00DFA0021C9
:103D40004DF2021001F008FA34214DF2031001F097
:103D500003FA00214DF2041001F0FEF93A214DF270
:103D6000051001F0F9F900214DF2061001F0F4F907
:103D70004A214DF2071001F0EFF900214DF2081031
:103D800001F0EAF95C214DF2091001F0E5F900219A
:103D90004DF20A1001F0E0F981214DF20B1001F013
:103DA000DBF900214DF20C1001F0D6F9A6214DF2FD
:103DB0000D1001F0D1F900214DF20E1001F0CCF9F7
:103DC000E5214DF20F1001F0C7F901214DF210105D
:103DD00001F0C2F913214DF2111001F0BDF90121DA
:103DE0004DF2121001F0B8F954214DF2131001F008
:103DF000B3F901214DF2141001F0AEF982214DF218
:103E0000151001F0A9F901214DF2161001F0A4F9E5
:103E1000CA214DF2171001F09FF902214DF218103E
:103E200001F09AF900214DF2191001F095F90221E3
:103E30004DF21A1001F090F901214DF21B1001F022
:103E40008BF902214DF21C1001F086F934214DF25C
:103E50001D1001F081F902214DF21E1001F07CF9D4
:103E600067214DF21F1001F077F902214DF2201069
:103E700001F072F984214DF2211001F06DF9022157
:103E80004DF2221001F068F9A4214DF2231001F047
:103E900063F902214DF2241001F05EF9B7214DF2D1
:103EA000251001F059F902214DF2261001F054F9C4
:103EB000CF214DF2271001F04FF902214DF22810C9
:103EC00001F04AF9DE214DF2291001F045F90221F5
:103ED0004DF22A1001F040F9F2214DF22B1001F0C1
:103EE0003BF902214DF22C1001F036F9FE214DF282
:103EF0002D1001F031F903214DF22E1001F02CF9B3
:103F000010214DF22F1001F027F903214DF230104E
:103F100001F022F933214DF2311001F01DF9032196
:103F20004DF2321001F018F96D214DF2331001F00D
:103F300013F900214FF4524001F00EF933214DF2F4
:103F4000012001F009F900214DF2022001F004F9ED
:103F500034214DF2032001F0FFF800214DF204203E
:103F600001F0FAF83A214DF2052001F0F5F80021B0
:103F70004DF2062001F0F0F84A214DF2072001F041
:103F8000EBF800214DF2082001F0E6F85C214DF23B
:103F9000092001F0E1F800214DF20A2001F0DCF8DF
:103FA00081214DF20B2001F0D7F800214DF20C20B9
:103FB00001F0D2F8A6214DF20D2001F0CDF800213C
:103FC0004DF20E2001F0C8F8E5214DF20F2001F06E
:103FD000C3F801214DF2102001F0BEF813214DF27B
:103FE000112001F0B9F801214DF2122001F0B4F8CE
:103FF00054214DF2132001F0AFF801214DF21420AD
:1040000001F0AAF882214DF2152001F0A5F8012156
:104010004DF2162001F0A0F8CA214DF2172001F050
:104020009BF802214DF2182001F096F800214DF284
:10403000192001F091F802214DF21A2001F08CF8BC
:1040400001214DF21B2001F087F802214DF21C20C6
:1040500001F082F834214DF21D2001F07DF802219B
:104060004DF21E2001F078F867214DF21F2001F07B
:1040700073F802214DF2202001F06EF884214DF2F8
:10408000212001F069F802214DF2222001F064F8AC
:10409000A4214DF2232001F05FF802214DF22420EB
:1040A00001F05AF8B7214DF2252001F055F8022110
:1040B0004DF2262001F050F8CF214DF2272001F0DB
:1040C0004BF802214DF2282001F046F8DE214DF296
:1040D000292001F041F802214DF22A2001F03CF89C
:1040E000F2214DF22B2001F037F802214DF22C2065
:1040F00001F032F8FE214DF22D2001F02DF80321C0
:104100004DF22E2001F028F810214DF22F2001F061
:1041100023F803214DF2302001F01EF833214DF237
:10412000312001F019F803214DF2322001F014F88A
:104130006D214DF2332001F00FF800214FF4534070
:1041400001F00AF833214DF2013001F005F80021A9
:104150004DF2023001F000F834214DF2033000F04E
:10416000FBFF00214DF2043000F0F6FF3A214DF242
:10417000053000F0F1FF00214DF2063000F0ECFFB9
:104180004A214DF2073000F0E7FF00214DF20830E0
:1041900000F0E2FF5C214DF2093000F0DDFF00216C
:1041A0004DF20A3000F0D8FF81214DF20B3000F0C3
:1041B000D3FF00214DF20C3000F0CEFFA6214DF2CE
:1041C0000D3000F0C9FF00214DF20E3000F0C4FFA9
:1041D000E5214DF20F3000F0BFFF01214DF210300C
:1041E00000F0BAFF13214DF2113000F0B5FF0121AC
:1041F0004DF2123000F0B0FF54214DF2133000F0B8
:10420000ABFF01214DF2143000F0A6FF82214DF2E8
:10421000153000F0A1FF01214DF2163000F09CFF97
:10422000CA214DF2173000F097FF02214DF21830ED
:1042300000F092FF00214DF2193000F08DFF0221B5
:104240004DF21A3000F088FF01214DF21B3000F0D2
:1042500083FF02214DF21C3000F07EFF34214DF22D
:104260001D3000F079FF02214DF21E3000F074FF86
:1042700067214DF21F3000F06FFF02214DF2203018
:1042800000F06AFF84214DF2213000F065FF022129
:104290004DF2223000F060FFA4214DF2233000F0F7
:1042A0005BFF02214DF2243000F056FFB7214DF2A2
:1042B000253000F051FF02214DF2263000F04CFF76
:1042C000CF214DF2273000F047FF02214DF2283078
:1042D00000F042FFDE214DF2293000F03DFF0221C7
:1042E0004DF22A3000F038FFF2214DF22B3000F071
:1042F00033FF02214DF22C3000F02EFFFE214DF253
:104300002D3000F029FF03214DF22E3000F024FF64
:1043100010214DF22F3000F01FFF03214DF23030FD
:1043200000F01AFF33214DF2313000F015FF032168
:104330004DF2323000F010FF6D214DF2333000F0BD
:104340000BFF00214FF4544000F006FF33214DF2E3
:10435000014000F001FF002100E082E34DF2024045
:1043600000F0FAFE34214DF2034000F0F5FE00218A
:104370004DF2044000F0F0FE3A214DF2054000F00D
:10438000EBFE00214DF2064000F0E6FE4A214DF220
:10439000074000F0E1FE00214DF2084000F0DCFE95
:1043A0005C214DF2094000F0D7FE00214DF20A4099
:1043B00000F0D2FE81214DF20B4000F0CDFE002135
:1043C0004DF20C4000F0C8FEA6214DF20D4000F069
:1043D000C3FE00214DF20E4000F0BEFEE5214DF27D
:1043E0000F4000F0B9FE01214DF2104000F0B4FE84
:1043F00013214DF2114000F0AFFE01214DF21240A9
:1044000000F0AAFE54214DF2134000F0A5FE012158
:104410004DF2144000F0A0FE82214DF2154000F054
:104420009BFE01214DF2164000F096FECA214DF28E
:10443000174000F091FE02214DF2184000F08CFE72
:1044400000214DF2194000F087FE02214DF21A4082
:1044500000F082FE01214DF21B4000F07DFE00E0E5
:1044600002E302214DF21C4000F076FE34214DF2B1
:104470001D4000F071FE02214DF21E4000F06CFE66
:1044800067214DF21F4000F067FE02214DF22040EF
:1044900000F062FE84214DF2214000F05DFE022119
:1044A0004DF2224000F058FEA4214DF2234000F0CE
:1044B00053FE02214DF2244000F04EFEB7214DF292
:1044C000254000F049FE02214DF2264000F044FE56
:1044D000CF214DF2274000F03FFE02214DF228404F
:1044E00000F03AFEDE214DF2294000F035FE0221B7
:1044F0004DF22A4000F030FEF2214DF22B4000F048
:104500002BFE02214DF22C4000F026FEFE214DF242
:104510002D4000F021FE03214DF22E4000F01CFE44
:1045200010214DF22F4000F017FE03214DF23040D4
:1045300000F012FE33214DF2314000F00DFE032158
:104540004DF2324000F008FE6D214DF2334000F094
:1045500003FE00214FF4554000F0FEFD33214DF2E3
:10456000015000F0F9FD00214DF2025000F0F4FD81
:1045700034214DF2035000F0EFFD00214DF20450C4
:1045800000F0EAFD3A214DF2055000F0E5FD002172
:104590004DF2065000F0E0FD4A214DF2075000F0C8
:1045A000DBFD00214DF2085000F0D6FD5C214DF2FC
:1045B000095000F0D1FD00214DF20A5000F0CCFD71
:1045C00081214DF20B5000F0C7FD00214DF20C503F
:1045D00000F0C2FDA6214DF20D5000F0BDFD0021FE
:1045E0004DF20E5000F0B8FDE5214DF20F5000F0F5
:1045F000B3FD01214DF2105000F0AEFD13214DF23C
:10460000115000F0A9FD01214DF2125000F0A4FD5F
:1046100054214DF2135000F09FFD01214DF2145032
:1046200000F09AFD82214DF2155000F095FD012118
:104630004DF2165000F090FDCA214DF2175000F0D7
:104640008BFD02214DF2185000F086FD00214DF245
:10465000195000F081FD02214DF21A5000F07CFD4E
:1046600001214DF21B5000F077FD02214DF21C504C
:1046700000F072FD34214DF21D5000F06DFD02215D
:104680004DF21E5000F068FD67214DF21F5000F002
:1046900063FD02214DF2205000F05EFD84214DF2B9
:1046A000215000F059FD02214DF2225000F054FD3E
:1046B000A4214DF2235000F04FFD02214DF2245071
:1046C00000F04AFDB7214DF2255000F045FD0221D2
:1046D0004DF2265000F040FDCF214DF2275000F062
:1046E0003BFD02214DF2285000F036FDDE214DF257
:1046F000295000F031FD02214DF22A5000F02CFD2E
:10470000F2214DF22B5000F027FD02214DF22C50EA
:1047100000F022FDFE214DF22D5000F01DFD032181
:104720004DF22E5000F018FD10214DF22F5000F0E8
:1047300013FD03214DF2305000F00EFD33214DF2F8
:10474000315000F009FD03214DF2325000F004FD1C
:104750006D214DF2335000F0FFFC00214FF4564024
:1047600000F0FAFC33214DF2016000F0F5FC00216D
:104770004DF2026000F0F0FC34214DF2036000F0D5
:10478000EBFC00214DF2046000F0E6FC3A214DF212
:10479000056000F0E1FC00214DF2066000F0DCFC59
:1047A0004A214DF2076000F0D7FC00214DF208606D
:1047B00000F0D2FC5C214DF2096000F0CDFC00213C
:1047C0004DF20A6000F0C8FC81214DF20B6000F050
:1047D000C3FC00214DF20C6000F0BEFCA6214DF29E
:1047E0000D6000F0B9FC00214DF20E6000F0B4FC49
:1047F000E5214DF20F6000F0AFFC01214DF2106099
:1048000000F0AAFC13214DF2116000F0A5FC01217B
:104810004DF2126000F0A0FC54214DF2136000F044
:104820009BFC01214DF2146000F096FC82214DF2B8
:10483000156000F091FC01214DF2166000F08CFC37
:10484000CA214DF2176000F087FC02214DF218607A
:1048500000F082FC00214DF2196000F07DFC022185
:104860004DF21A6000F078FC01214DF21B6000F05F
:1048700073FC02214DF21C6000F06EFC34214DF2FD
:104880001D6000F069FC02214DF21E6000F064FC26
:1048900067214DF21F6000F05FFC02214DF22060A5
:1048A00000F05AFC84214DF2216000F055FC0221F9
:1048B0004DF2226000F050FCA4214DF2236000F084
:1048C0004BFC02214DF2246000F046FCB7214DF272
:1048D000256000F041FC02214DF2266000F03CFC16
:1048E000CF214DF2276000F037FC02214DF2286005
:1048F00000F032FCDE214DF2296000F02DFC022197
:104900004DF22A6000F028FCF2214DF22B6000F0FD
:1049100023FC02214DF22C6000F01EFCFE214DF222
:104920002D6000F019FC03214DF22E6000F014FC04
:1049300010214DF22F6000F00FFC03214DF230608A
:1049400000F00AFC33214DF2316000F005FC032138
:104950004DF2326000F000FC6D214DF2336000F04A
:10496000FBFB5521184600F0F7FBAA214FF201008E
:1049700000F0F2FB52214FF2020000F0EDFB0821A3
:104980004FF2030000F0E8FB00214FF2040000F0BA
:10499000E3FBCC214FF4314000F0DEFB00214BF271
:1049A000011000F0D9FB05214FF4364000F0D4FB94
:1049B00070214FF4374000F0CFFB70214BF20170B3
:1049C00000F0CAFB01214FF4384000F0C5FB032181
:1049D0004BF6010000F0C0FB03214BF6020000F093
:1049E000BBFB03214BF6030000F0B6FB02214FF4A2
:1049F0003C4000F0B1FB00214BF6014000F0ACFB65
:104A000000214BF6024000F0A7FBD0214FF44940B3
:104A100000F0A2FB02214CF6011000F09DFB50219A
:104A20004CF6021000F098FB50214CF6031000F0F9
:104A300093FB50214CF6041000F08EFB00214FF444
:104A4000545000F089FB55214FF4685000F084FB6E
:104A50004FF4885000F069FB782003F0D7FE4FF444
:104A6000245000F062FBB9E0B842FCD1E22000F033
:104A70005CFB1D2000F04DFB022000F04AFB0420EF
:104A800000F047FB642003F0C1FEE02000F04DFB86
:104A9000012000F03EFB0A2003F0AAFEE02000F017
:104AA00044FB032000F035FB0C2003F0A1FE0120A5
:104AB00000F03BFB0A2003F09BFEE62000F035FBF4
:104AC0002F2000F026FBFF2000F023FBFF2000F04A
:104AD00020FBB02000F029FB202000F01AFB002072
:104AE00000F017FB032000F014FB40F21F3000F031
:104AF00010FB012000F00DFB40F2DF1000F009FB7D
:104B0000002000F006FBB42000F00FFB042000F0B2
:104B100000FB40F21F4000F0FCFA002000F0F9FA20
:104B20002E2000F0F6FA002000F0F3FA002000F04A
:104B3000F0FA002000F0EDFA002000F0EAFAB620CA
:104B400000F0F3FA022000F0E4FA4FF4037000F0F2
:104B5000E0FA002000F0DDFA172000F0DAFA152064
:104B600000F0D7FA002000F0D4FA002000F0D1FACB
:104B7000F02000F0DAFA032000F0CBFA292000F050
:104B8000D4FAD02000F0D1FA002000F0C2FABE2002
:104B900000F0CBFA052000F0BCFAFE2000F0B9FAD4
:104BA000012000F0B6FA002000F0B3FA002000F077
:104BB000B0FA002000F0ADFAB82000F0B6FA0320F9
:104BC00000F0A7FA012000F0A4FABA2000F0ADFA34
:104BD000012000F09EFA642000F042F8BAF80400C8
:104BE000404505D0B04203D0A04201D0B84217D111
:104BF000D5F81C0120F00F00C5F81C01D5F81C01E8
:104C000020F47060C5F81C01D5F81C0140F00300C9
:104C1000C5F81C01D5F81C0140F40070C5F81C0152
:104C20000020FDF737FD0449C1F8BC925846FDF756
:104C300017FD15B0BDE8F08F00804042034601200B
:104C400000E05843491EC9B2FBD2704708B54FF087
:104C5000D840B0F88000ADF80000BDF8000008BDF5
:104C600010B50246BE2000F060FA052000F051FAAF
:104C7000104605F0E8F99FED0C1B53EC112B05F0E5
:104C8000F5F905F0B3F980B200F043FA012000F025
:104C900040FAFF2000F03DFA002000F03AFABDE8AB
:104CA0001040002000F035BA66666666666604400D
:104CB000F0B56C4D00232946AA79898841F6631422
:104CC000012A01D01AB11BE0A14202D118E0A14291
:104CD00016D1082814D2DFE800F00406080A0C0EEA
:104CE000101206200CE007200AE0042008E005204E
:104CF00006E0012004E0002002E0032000E00220A2
:104D0000A1F5134745F2103245F21056413F05D048
:104D1000914203D0B14201D0A14277D1082812D2EA
:104D2000DFE800F0110406080A0C0E1080230AE0E8
:104D3000402308E0C02306E0202304E0602302E0D3
:104D4000A02300E0E023B14202D14FF4585000E02C
:104D50003620914205D0B14203D0A14201D043F0A8
:104D60000803194600F0F8F9AA88A2420AD098066A
:104D70002888698802D5884202D303E0884201D995
:104D8000298068806889B24241D100F0CEF90020C4
:104D900000F0BFF96889401C80B200F0C6F900201D
:104DA00000F0B7F96889801C80B200F0BEF928884D
:104DB000401EC0F30F2000F0ACF96889C01C80B21F
:104DC00000F0B3F92878401EC0B200F0A2F9A8891B
:104DD00000F0ABF9002000F09CF9A889401C80B2DB
:104DE00000F0A3F9002000F094F9A889801C80B29B
:104DF00000F09BF96888401EC0F30F2000F089F98D
:104E0000A889C01C80B200F090F922E028E000F0F0
:104E10008CF9002000F07DF9002000F07AF9288854
:104E2000401EC0F30F2000F074F92878401EC0B275
:104E300000F06FF9A88900F078F9002000F069F916
:104E4000002000F066F96888401EC0F30F2000F0D3
:104E500060F9A878BDE8F040401EC0B200F059B932
:104E6000F0BD0000240A0020F0B53F4D0C4602467C
:104E7000060AA9882846270A4089A1F51343413B21
:104E800028D0A1F5A643103B24D0A1F5C853633B1D
:104E90002FD0A1F5AA43103B64D100F046F930466B
:104EA00000F037F96889401C80B200F03EF9D0B2BA
:104EB00000F02FF9A88900F038F9384600F029F9F8
:104EC000A889401C80B200F030F9E0B2BDE8F040A3
:104ED00000F01FB900F029F9304600F01AF9D0B2FD
:104EE00000F017F9A88900F020F9384600F011F910
:104EF000EBE7A97929B300F018F9304600F009F979
:104F0000D0B200F006F92888401EC0F30F2000F050
:104F100000F92878401EC0B200F0FBF8A88900F024
:104F200004F9384600F0F5F8E0B200F0F2F86888CD
:104F3000401EC0F30F2000F0ECF8A878401EC0B26D
:104F4000C4E72988891A491E8AB200F0EEF80020C9
:104F500000F0DFF8002000F0DCF8100A00F0D9F8CB
:104F6000D0B2D9E7F0BD0000240A00202DE9F84FA7
:104F700082461F460E468B46580700D0012000EBA4
:104F8000D700790810FB01F0203AC0B202F0FF0907
:104F90000025009047E00C2F10D0102F12D0182FB2
:104FA00014D0202F42D1224901EBC9104FF0000844
:104FB000445D200610D51F48026811E009EB490046
:104FC0001D4906E01D4901EB0910EFE71C4909EBFB
:104FD000C90001EB8000E9E70A9828B91548426842
:104FE00031465046FDF7C2FB6006040E1548761C9C
:104FF000B6B24088B04219D9A6EB0B00B84209D12D
:105000000AF101001FFA80FA0E485E4601885145F8
:105010000CD906E008F1010000F0FF08B8F1080F14
:10502000C7D36D1CEDB200988542B4D3BDE8F88FAC
:105030004ABA00081C0000208AA20008FEA6000848
:10504000EEAC0008240A00202DE9FF4F81B00027B4
:10505000DDF838B01D46924680463C46B9464FEAD8
:105060005B0627E0281B401EC1B20A20FFF7E6FDC1
:10507000BAFBF0F00A21B0FBF1F201FB120027B9F4
:10508000691E8C4201DA48B101273030C2B206FBFA
:10509000048080B25B46CDF8009006E006FB0480F9
:1050A00080B25B462022CDF800900299FFF75EFFA8
:1050B000641CE4B2AC42D5D305B0BDE8F08F2DE955
:1050C000F84F044600F0FF0810190D46DDE90A7696
:1050D0001FFA80FA58191FFA80F94FF0000B11E0FF
:1050E000544502D3E819444685B24D450FD23B469C
:1050F00029462046CDF800B0FFF738FF04EB5700F3
:1051000084B2761C3278A2F120005E28E8D9BDE88E
:10511000F88F01B5BDF80000ADF80000BDF8000043
:105120004FF0D841A1F8800008BD01B5BDF80000DE
:10513000ADF80000BDF800004FF0D841A1F87E00A6
:1051400008BD000003484FF0D8410089A1F87E0057
:1051500070470000240A00204FF0D84222F87E0F4A
:1051600051807047114810B5016886B041F02001A8
:10517000016000680E4C00F0200005904FF4C06004
:105180000090012001900290032003906946204680
:10519000FBF7F2FE012251022046FBF7CDFF012270
:1051A00091022046FBF7C8FF06B010BD3038024020
:1051B0000014024070B50E4905460E4C087B38B904
:1051C000886828B1607818B901212846FBF7DFFB11
:1051D00081212846FBF7DBFB6078022807D12846AF
:1051E000BDE870401F23024A0121FBF7A6BB70BD3A
:1051F000C0C40120C00100202DE9F041294E07461E
:1052000006F1200570686860B068A8600121384622
:1052100001F0ECFF244C1F280CD12449306888424F
:1052200008D12348717B0078814203D8B07B08B154
:10523000102807D9707B2022052100F05DFB022099
:10524000607006E0174A38460F3200F0F9F800287F
:1052500004DA3846BDE8F041FFF7ACBF20780228F9
:105260001ED001281CD003281AD0618891B1B368E0
:10527000626838468B4200D219468BB2A968C91AB7
:10528000A9600021297304212170BDE8F04181212A
:10529000FBF799BB3846BDE8F041002100F096B815
:1052A000BDE8F081C0C40120C00100205553424335
:1052B000F401002010B5094C6278022A08D00906D2
:1052C0000BD5012A09D0BDE81040012100F07EB8BD
:1052D0008121FBF75CFB0020607010BDC001002045
:1052E00010B504460C480178022905D0032901D0E5
:1052F000042910D1002109E0084800F10F02417B88
:10530000204600F09DF8002805DA01212046BDE87E
:10531000104000F05BB810BDC0010020C0C40120E7
:1053200010B504460C48017881B1012913D10B480E
:1053300000F10F02417B204600F082F800280ADAD3
:105340002046BDE81040012100F040B82046BDE8ED
:105350001040FFF751BF10BDC0010020C0C40120A4
:105360000149002008707047C001002010B50446B4
:105370000C480021017041700B4800680168002052
:10538000884701212046FBF7AEFA81212046FBF732
:10539000AAFA20461F23BDE81040044A0121FBF76A
:1053A000CCBA0000C0010020A8020020C0C4012027
:1053B000044900221F230A7001224A70024A012177
:1053C000FBF7BBBAC0010020C0C4012010B50C4AD5
:1053D00004460A48106011730A4900200D23087022
:1053E00081212046FBF7EFFA054A20461F23203A89
:1053F000BDE810400121FBF7A0BA0000555342530D
:10540000E0C40120C0010020FEE77047014801F020
:10541000D3BF0000D8020020704700001144074AA3
:1054200000B552F82020914206D92122052100F032
:1054300063FA4FF0FF3000BD002000BD10C5012011
:105440002DE9F0410B464E490024661EC8604E49C6
:1054500010784C4D0968232873D010DC1A285AD0D4
:1054600008DC4A4FD7F800C0C8B103282FD0122853
:1054700011D132E01B284BD01E280CD148E02A283D
:1054800071D004DC252862D0282804D165E02F28BB
:105490006FD05A2849D02022052118460FE03C48F9
:1054A0001F46816819B12022407B052107E0DCF806
:1054B00008101846884738B13A220221384600F0D1
:1054C0001BFA3046BDE8F0812C800020FAE7BDE8E9
:1054D000F0411146184600F0DBB95078C00702D001
:1054E0002C4B07200BE0DCF81C0003EBC30300EBA4
:1054F000830312791879401D824200D81046288013
:1055000003E0401E80B21A5C0A540028F9D115E06D
:1055100020462C80D6E708201F4A2880401E000421
:10552000000C135C0B54F9D108E008201B4A2880BA
:10553000401E0004000C135C0B54F9D12046C1E757
:10554000FFE7BDE8F0411146184600F067B9BDE835
:10555000F0411146184600F01FB9BDE8F041114670
:10556000184600F0BBB8BDE8F0411146184600F0FF
:1055700005BABDE8F0411146184600F0D3B9000065
:1055800020020020C2010020C4010020A802002047
:10559000C0C40120F0E90008F7E90008FFE90008AD
:1055A0002DE9F0411F4E80464FF40040B46884421C
:1055B00000D3044672680027B4FBF2F085B2D6E946
:1055C00004013B46FAF789FE024617482B46174D61
:1055D00000682968D0F810C04046E047002807DA84
:1055E00011220421404600F087F9781EBDE8F081C1
:1055F000234681212A68F068FBF7E5F9D6E9041013
:1056000009197841C6E90410B0680949001BB06067
:105610008A68A2EB04028A6002D10649032008705E
:105620000020E3E720020020A8020020C40100209F
:10563000E0C40120C00100202DE9F047234F4FF4C2
:1056400000458146BC68AC4200D32C467A684FF0D6
:105650000008B4FBF2F086B2D7E904014346FAF73A
:105660003CFE02461A4833461A4E00683168D0F8AC
:1056700014C04846E047002808DA032204214846BF
:1056800000F03AF94FF0FF30BDE8F087D7E9042089
:10569000121940EB0800C7E90420B8680E49001B46
:1056A000B8608A68A2EB04028A600AD0A84200D3DC
:1056B000284683B201213268F868FBF73EF90020E2
:1056C000E2E70021F868FFF781FEF8E720020020FA
:1056D000A8020020C4010020E0C401202DE9F04709
:1056E000284F81460C463878F0BB274D4FF0FF38E5
:1056F000287B000636D525480068816848468847DB
:1057000028B13A220221484600F0F6F813E0D4F816
:1057100002001F4E00BA20F0FF0160790143C81754
:10572000C6E90410B4F8070042BA4846B260FFF771
:1057300075FE002802DA4046BDE8F0870220387086
:10574000D6E9041370680022A1FB004703FB007335
:1057500001FB0231C6E90441B1684143B160A86868
:10576000884205D0687B00E002E020220521CBE7DB
:1057700008494FF4004008804846BDE8F047FFF76D
:105780000FBF0000C0010020C0C40120A8020020FB
:1057900020020020C201002070B504461B481A4DAB
:1057A0001B4A006805EB840143682046984738B1DE
:1057B0003A220221204600F09FF84FF0FF3070BDE2
:1057C00055F82400401E020E124801680A7055F870
:1057D0002400401E000C487035F82400401E000ACA
:1057E000887015F82400401EC8700948001F4068E2
:1057F000020E0A71020C4A71020A8A71C8710649C6
:1058000008200880002070BD10C50120A8020020DB
:1058100024020020C4010020C20100207CB5194CE4
:1058200005460021226808465054491C89B20C29BB
:10583000FAD315486A4601A9006843682846984784
:1058400038B13A220221284600F056F84FF0FF30D6
:105850007CBD20680821C1700199491E0A0E0271A1
:105860000A0C42710A0A8271C17102210172009907
:105870000A0C42720A0A8272C17204490C20088022
:1058800000207CBDC4010020A8020020C20100202D
:1058900070B5154A0020034612681354401CC0B26C
:1058A0001228FAD370201070104D0C20D071287877
:1058B0006C78A0420FD00E4C14F8306004EBC0049A
:1058C000967066791673401C2479C0B254732870A0
:1058D000042800D12B70074A122010800879122862
:1058E00000D81080002070BDC401002020020020DC
:1058F000F0C40120C201002010B5094C074B6078AC
:1059000003F83010110203EBC002401CC0B251601A
:105910006070042801D10020607010BDF0C4012027
:105920002002002070B5054648784FF0FF3480070C
:1059300005D5242205212846FFF7DEFF14E0D1F823
:10594000020000BA20F0FF03487903430948DA1740
:10595000C0E90432B1F807104ABA826019462846F5
:10596000FFF75CFD002801DA204670BD02490020E7
:10597000088070BD20020020C20100202DE9F04700
:105980002F4F81460C46387820B14846BDE8F04795
:10599000FFF752BE2B4D4FF0FF38287B00063CD45A
:1059A000294E306881684846884720B13A2208E08D
:1059B000FFF7A2FF1CE03068C1684846884718B16D
:1059C000272202214846F3E7D4F802001F4E00BA0E
:1059D00020F0FF0160790143C817C6E90410B4F84C
:1059E000070042BA4846B260FFF718FD002802DA05
:1059F0004046BDE8F087D6E9041270680023A1FB99
:105A0000004C02FB00C201FB0321C6E90441B1685E
:105A10004143B160A868884203D02022687B0521F9
:105A2000C6E701203870C003814200D30146084810
:105A30008BB201210268F068FAF77FFF0020D8E7F7
:105A4000C0010020C0C40120A802002020020020C4
:105A5000C40100200A6842624A688262D1E90223D6
:105A60001A43D1E904310B43C16A1A4321F0F7010B
:105A70001143C16200207047006800F003007047C6
:105A800008B5084414300090006808BD70B50DF1E9
:105A9000100C11439CE870002343194329434268CA
:105AA000314347F6FF639A430A434260002070BDCA
:105AB0000321016000207047D0F8800070470A6819
:105AC0008260D1E901231A43D1E903310B43C16854
:105AD0001A436FF30B011143C1600020704709683E
