:020000040800F2
:10000000A8C10120890200080360000853310008DC
:10001000016000083D0F0008356B0008000000007B
:10002000000000000000000000000000596400080B
:100030003F0F00080000000005600008F1640008A0
:10004000A3020008A3020008A302000891610008AF
:10005000A3020008A3020008A3020008A3020008EC
:10006000A3020008A3020008A3020008A3020008DC
:10007000A3020008A3020008A3020008A3020008CC
:10008000A3020008A3020008A3020008A3020008BC
:10009000A3020008A3020008A3020008A3020008AC
:1000A000A3020008A3020008A3020008A30200089C
:1000B000A30200084965000881650008A302000842
:1000C000A3020008A3020008A3020008A30200087C
:1000D000A3020008096B0008A3020008A30200089D
:1000E000A302000871600008A3020008A302000830
:1000F000A3020008A3020008A3020008A30200084C
:10010000A3020008A3020008A3020008A30200083B
:10011000A3020008A3020008A3020008A30200082B
:10012000A3020008A3020008A3020008A30200081B
:10013000A3020008AD0F0008A3020008A3020008F4
:10014000A3020008A3020008A3020008A3020008FB
:10015000A3020008A3020008A3020008A3020008EB
:10016000A3020008A3020008A3020008A3020008DB
:10017000A3020008A3020008A30200080000000078
:10018000A3020008A302000800F002F800F06DF8D6
:100190000AA090E8000C82448344AAF10107DA45E2
:1001A00001D100F062F8AFF2090EBAE80F0013F0C7
:1001B000010F18BFFB1A43F00103184790240300F6
:1001C000B02403000A444FF0000C10F8013B13F078
:1001D000070408BF10F8014B1D1108BF10F8015BA0
:1001E000641E05D010F8016B641E01F8016BF9D193
:1001F00013F0080F1EBF10F8014BAD1C0C1B09D1EA
:100200006D1E58BF01F801CBFAD505E014F8016B5B
:1002100001F8016B6D1EF9D59142D6D370470000ED
:100220000023002400250026103A28BF78C1FBD8FF
:10023000520728BF30C148BF0B607047642900F0E7
:100240002B81752900F02881782900F061816329CC
:1002500000F08584732900F08A84002070471FB560
:1002600014F099FA1FBD10B510BD00F09BFC1146AB
:10027000FFF7F5FF0BF0E8FD00F0B9FC03B4FFF762
:10028000F2FF03BC06F086FC094880470948004796
:10029000FEE7FEE7FEE7FEE7FEE7FEE7FEE7FEE736
:1002A000FEE7FEE704480549054A064B7047000093
:1002B000F564000889010008A8B70120A8C1012041
:1002C000A8B90120A8B90120704753EA020C00F038
:1002D00069802DE9F04B4FF00006002B1FBFB3FAE9
:1002E00083F503FA05F424FA05F65E4012BF1643BF
:1002F000B2FA82F502FA05F4C5F120051EBF22FA12
:1003000005FC44EA0C04203556EA044C4FEA144438
:1003100018BF641C4FF000084FF00009904271EBC9
:10032000030C39D3002919BFB1FA81F701FA07F696
:10033000B0FA80F700FA07F6C7F120071EBF20FACF
:1003400007FC46EA0C062037B6FBF4FCA7EB0507D2
:10035000103F07F01F0BCBF120060CFA0BFB2CFA19
:1003600006F644BFB3460026202FA4BF5E464FF0DA
:10037000000B5BEA060C08BF4FF0010B19EB0B09F1
:10038000ABFB027C48EB0608C01B06FB02CC0BFB58
:1003900003CC71EB0C01C1E70B46024641464846CF
:1003A000BDE8F08B13B54FF000004FF00001AFF344
:1003B0000080BDE81C4070470FB4044910B503AA83
:1003C000029800F0D9FB10BC5DF814FB1800002067
:1003D0000FB41CB5074B06AA7B44694600900598EC
:1003E00000F09BFB0020694600F0AAFB1CBC5DF8F6
:1003F00014FB00006507000070B5044685690068BD
:10040000C10601D5302600E02026C00707D070BD08
:10041000D4E9012130469047206A401C20626D1EBD
:10042000F6D570BD70B5044685690078C00707D160
:1004300070BDD4E9012120209047206A401C206231
:100440006D1EF6D570BD70B50C460546012A05D067
:100450002878800600D5EA69002302E0012305E040
:100460005B1C934202D2E05C0028F9D1A869E6182F
:10047000C01AA861286A184428622846FFF7BCFF02
:1004800004E0D5E9012114F8010B9047B442F8D3F8
:100490002846FFF7C7FF70BD2DE9F041064600244E
:1004A00010687529314616A510D0AFF300800028DA
:1004B00002DA404213A507E031688A0701D512A588
:1004C00002E0490704D511A5012401E0AFF3008043
:1004D00000210A2206F1240709E0B0FBF2FCB0FB80
:1004E000F2F302FB1C00303078541846491C0028F7
:1004F000F3D123462A463046BDE8F04100F0AEBABB
:10050000000000002D0000002B0000002000000073
:1005100070B504460D4621461068AFF3008021886F
:10052000090502D50F4A7A4402E00E4A7A440E3297
:10053000002104F1240305E000F00F060009965D98
:100540005E54491C0028F7D120780023000704D509
:10055000702D02D009B1022311322046BDE870404F
:1005600000F07CBAA21D03002DE9F05F8946044625
:100570004FF0000ADFF874B1FB44C0F820A0204619
:10058000E1688847002874D0252806D0D4E90121E5
:100590009047206A401C2062F1E700265F46204613
:1005A000E16888472028054607DB312D05D27819F8
:1005B00010F8200C08B10643F1E7B00701D526F08A
:1005C0000406C4F81CA00027C4F818A02A2D09D0DE
:1005D000284606F0D8FA38B304EB8708303DC8F84F
:1005E000185019E059F8041B204604EB870291616A
:1005F000E1688847012F054618D1E069002820DA14
:1006000026F020061DE0D8F8180000EB800005EB6E
:1006100040003038C8F818002046E1688847054691
:1006200006F0B1FA0028EED1012F0AD02E2D08D104
:100630002046E16888477F1C0546022F46F02006C9
:10064000C4DBA069002803DA404246F00106A0613D
:10065000F00701D026F010066C2D0BD0682D09D0C4
:100660004C2D39D06A2D35D0742D35D07A2D33D01C
:1006700016E038E0E1682F4620468847B842054634
:1006800009D16C2F26D04FF48060E16806432046E4
:100690008847054604E06C2F1AD04FF4807006435B
:1006A0000DB3A5F14100192802D8203546F40066A3
:1006B0004A462946204626604E46FFF7BFFD80B1D8
:1006C00001280BD0F61D26F0070000F1080956E7B7
:1006D0004020E4E78020D8E70020D6E706F10409AF
:1006E0004DE7284652E7206ABDE8F09F781D0300D9
:1006F000401ECAB210F8011F8A4202D00029F9D167
:100700000020704730B505460B462A4613F8014BCA
:1007100012F8010B08B1A042F8D01CB1002802D099
:100720006D1CF1E7284630BD40EA010310B59B0778
:100730000FD1042A0DD310C808C9121F9C42F8D04B
:1007400020BA19BA884201D9012010BD4FF0FF30FC
:1007500010BD1AB1D30703D0521C07E0002010BD12
:1007600010F8013B11F8014B1B1B07D110F8013B9E
:1007700011F8014B1B1B01D1921EF1D1184610BD7F
:1007800010B5431C02E010F8011B71B18107FAD1CA
:100790004FF0013202C88C1A8C4314EAC211F9D00E
:1007A000C01A0A0603D0C01E10BDC01A10BD0A042C
:1007B00001D0801E10BD0902FCD0401E10BD40EAD1
:1007C000010370B59B072ED14FF00136042A2AD3BE
:1007D00008C810C99D1B9D43121F15EAC61517D0E6
:1007E000D8B2E1B2401A50EA056110D198B2A1B274
:1007F000401A50EA05410AD123F07F4024F07F419E
:10080000401A50EA052102D1180EA0EB146070BD09
:10081000A342DBD018BA21BA884201D9012070BDA9
:100820004FF0FF3070BD0AB9002070BD10F8013BD9
:1008300011F8014B63B1A3420AD1521E08D010F83F
:10084000013B11F8014B1BB1A34201D1521EEDD166
:10085000181B70BD032A40F2308010F0030C00F02A
:10086000158011F8013BBCF1020F624498BF11F8EA
:1008700001CB00F8013B38BF11F8013BA2F10402A3
:1008800098BF00F801CB38BF00F8013B11F003031B
:1008900000F02580083AC0F0088051F8043B083A7F
:1008A00051F804CBA0E80810F5E7121D5CBF51F821
:1008B000043B40F8043BAFF30080D20724BF11F89B
:1008C000013B11F801CB48BF11F8012B24BF00F800
:1008D000013B00F801CB48BF00F8012B704710B571
:1008E000203AC0F00B80B1E81850203AA0E8185028
:1008F000B1E81850A0E81850BFF4F5AF5FEA027CE9
:1009000024BFB1E81850A0E8185044BF18C918C057
:10091000BDE810405FEA827C24BF51F8043B40F8F8
:10092000043B08BF7047D20728BF31F8023B48BFDD
:1009300011F8012B28BF20F8023B48BF00F8012B1B
:1009400070474FF000020429C0F0128010F0030C31
:1009500000F01B80CCF1040CBCF1020F18BF00F8B2
:10096000012BA8BF20F8022BA1EB0C0100F00DB861
:100970005FEAC17C24BF00F8012B00F8012B48BFBF
:1009800000F8012B70474FF0000200B51346944663
:100990009646203922BFA0E80C50A0E80C50B1F1D7
:1009A0002001BFF4F7AF090728BFA0E80C5048BFEB
:1009B0000CC05DF804EB890028BF40F8042B08BF89
:1009C000704748BF20F8022B11F0804F18BF00F885
:1009D000012B70474FF0013C50F8042B51F8043BB9
:1009E0009A4221D1A2EB0C03934313EACC1317D103
:1009F00050F8042B51F8043B9A4215D1A2EB0C039A
:100A0000934313EACC130BD150F8042B51F8043B59
:100A10009A4209D1A2EB0C03934313EACC13DBD027
:100A20004FF00000704700BFD01A01BAB1FA81F14F
:100A300001F0180122FA01F0CB40C1F12001DBB234
:100A4000C0B2C01A2CFA01F3D11A914311EAC311B2
:100A5000E6D1704770477047704770472DE9F047FF
:100A60000D4699469246044600F12408016888061E
:100A700004D5E06921F01001216000E00120A842C6
:100A800001DD471B00E00027A1697A1902EB09008C
:100A9000081AA0612078C00602D42046FFF7ACFCFB
:100AA000002608E0D4E901211AF806009047206AE0
:100AB000401C761C20624E45F4DB2078C0060AD527
:100AC0002046FFF799FC06E0D4E901213020904749
:100AD000206A401C2062381EA7F10107F4DC07E001
:100AE000D4E9012118F805009047206A401C2062D3
:100AF000281EA5F10105F3DC2046FFF793FC2078C2
:100B0000000602D50220BDE8F0870120FBE70000C7
:100B100001694A1C02610878704700B58FB0CDE9C1
:100B200001310021059105497944CDE903101146B1
:100B30006846FFF719FD0FB000BD0000E5FFFFFF9D
:100B40000A6802F8010B0A60704710B5436913B1D7
:100B5000AFF3008001E0FFF776FC012010BD1278B2
:100B600000F124010A7000224A700122EDE71168A9
:100B70004FF0FF32E9E70000074B70B50D467B44AC
:100B8000FFF7CBFF0446284600F008F810B14FF0FD
:100B9000FF3070BD204670BDBB860000007B00F0BA
:100BA00080007047754600F02BF8AE460500694698
:100BB000534620F00700854618B020B5FFF772FBBA
:100BC000BDE820404FF000064FF000074FF000084E
:100BD0004FF0000B21F00701AC46ACE8C009ACE8CF
:100BE000C009ACE8C009ACE8C0098D46704710B533
:100BF0000446AFF300802046BDE81040FFF73EBB3F
:100C00000048704748B7012070B504460A21052006
:100C100000F030FB13F053FB9FED191B53EC112B2D
:100C200013F060FB13F01EFB4FF47A71B0FBF1F18F
:100C3000C9B26FF07C0211FB02F200EBC202642326
:100C4000B2FBF3F2D2B24FF47A7311FB03F302EB6F
:100C5000C20505EB021503EB8505431B0A26B3FB12
:100C6000F6F303EB83063031303205EB4605217095
:100C70003033401B6270A3703030E07070BD0000F4
:100C80009A9999999999E93F464910B54A6822F489
:100C900040324A604A6843681A434A6001684A68B9
:100CA00022F480724A6001684A68036942EA0322BA
:100CB0004A6001684A6822F040724A6001684A68E6
:100CC00083681A434A6001688A6822F400628A6075
:100CD00001688A68C3681A438A60816A6FF070622B
:100CE000D14201688A6822F070628A6001688A686D
:100CF0000CD0836A1A438A6001688A6822F04052E5
:100D00008A6001688A68C36A1A4301E022F040528F
:100D10008A6001688A6822F002028A6001688A6833
:100D2000037E42EA43028A6090F82010002901689D
:100D30004A680FD042F400624A6001684A6822F4AF
:100D400060424A6001684A68174C436A04EB4333C7
:100D50001A4301E022F400624A600168CA6A22F480
:100D60007002CA620168CA6A838B104C04EB035399
:100D70001A43CA6201688A6822F400728A600168B4
:100D80008A6890F8303042EA43228A6001688A68B3
:100D900022F480628A6001688A68406942EA8020A1
:100DA000886010BD0023014000E0FFFF0000F0FF5D
:100DB0002DE9F047174688460A461D460024394665
:100DC00024A000F025FA254E401C22D00020C6F8B1
:100DD000A0024FF0010A814619E057F824001DA136
:100DE000FFF7F8FD88B955F824001DA1FFF7F2FDC3
:100DF00030B155F824001CA1FFF7ECFD10B104E060
:100E0000504600E04846C6F8A002641CE4B24445DF
:100E1000E3DBD6F8A80210B9D6F8A00218B1D6F8CC
:100E2000A80218B106E012A0BDE8F087D6F8A0022B
:100E3000012804D0D6F8A802012802D005E014A0A9
:100E4000F2E7D6F8A002012801D019A0ECE721A012
:100E5000EAE70000424545500000000000804242A1
:100E6000424545504F4E0000424545504F464600D2
:100E70002F53544D3332463430374C45445F4F4E38
:100E80005F424545505F4F46462E7368746D6C0057
:100E90002F53544D3332463430374C45445F4F4E18
:100EA0005F424545505F4F4E2E7368746D6C000075
:100EB0002F53544D3332463430374C45445F4F4600
:100EC000465F424545505F4F46462E7368746D6CD1
:100ED000000000002F53544D3332463430374C4518
:100EE000445F4F46465F424545505F4F4E2E736804
:100EF000746D6C0030B50F4887B0016841F0200177
:100F0000016000684FF4807400F02000059001201B
:100F1000CDE9004002900320074D03906946284622
:100F200000F04EFF00222146284601F02EF807B0BF
:100F300030BD00003038024000140240FEE7704728
:100F4000064908B509684FF4FA52B1FBF2F1414382
:100F5000009100BF491E0091FBD208BD0000002097
:100F600038B50446006800F58050816941F480116D
:100F70008161206800F58050806900900120FFF7B2
:100F8000DFFF2068009900F58050816138BD02685C
:100F90000021002A08DB0268120405D40268D20589
:100FA00002D50068C0F30D410846704710B5094CE2
:100FB00001E00AF00BFEA06AFFF7E9FF0028F8D174
:100FC00020684FF4803100F580504161402141613B
:100FD00010BD00008C0400202DE9F041044621B131
:100FE0004FF40060E060C000A060E06900260028C7
:100FF00061D035462068402702683A490A40D4E962
:1010000002131943294341F4007111430160206820
:101010000568012000F05EFB2068056020684760DD
:1010200020684568012000F055FB20684560206875
:1010300086602068C660206881694FF64172114061
:1010400041F08001816120688569012000F042FB48
:10105000206885612068C6612068C569012000F0AC
:1010600039FB2068C561206800F5805081691E4AFF
:1010700011401E4A0A438261206800F5805085694C
:10108000012000F027FB206800F580508561206872
:10109000174900F580500160206800F58050056810
:1010A000012000F017FB206800F580500560A06962
:1010B000012803D009E04FF480659BE7206800F524
:1010C0008050C1690B4A1143C16160690A4A818835
:1010D00011640178D0F8010041EA00205064BDE8B5
:1010E000F08100000F8120FF233FDEF80400200282
:1010F0008020C102400001000080024010B54FF482
:10110000A07100200BF0AAFB0A4CA0212060002057
:101110000BF0A4FB606043F6883100200BF09EFBCF
:10112000A06041F6C45100200BF098FBE060002065
:1011300010BD00002800002070B5B3F5804F05D029
:101140006FF0704140F82210002070BD50F822303E
:10115000084C2340D1E9004544EA05148D688E8986
:101160002D0245EA064589692C430C431C4340F88F
:101170002240E9E70000F0CFF0B50C6850F82450A9
:10118000114A1540D1E90123D1E903671A433E43CF
:1011900032434E6932438E693243CE6932430E6A1E
:1011A00032434E6A32438E6A3243CE6A3243CE6B4A
:1011B000096B32430A432A43082B01D142F0400213
:1011C00040F824200020F0BD8000F0FF30B500EB97
:1011D00082004268D1E9003443EA04138C688D89A7
:1011E000240244EA054423430C8A084D02F040429D
:1011F00005EB045423430C7D6D0105EB0464896900
:1012000023430B4313434360002030BD0000F0FF35
:101210002DE9F04115460E460746002406E056F833
:1012200024103846FFF7D6FB30B1641CAC42F6DB25
:101230004FF0FF30BDE8F0812046FBE71FB569465F
:1012400000900120019007200290002003900848A0
:1012500000F06CF8064800F0B5F90A21044800F0E7
:101260005FF9034800F008F904B080B210BD000037
:10127000440400202DE9F04100250E4607462C4687
:1012800008E03846FFF7DAFF0544052005F004FDC5
:10129000641CE4B2B442F4D3B5FBF6F080B2BDE80E
:1012A000F081000010B50A211020FFF7E3FF00EEE7
:1012B000100AB8EE400A10EE100A13F0FBF99FED89
:1012C000111B53EC112B13F00DF89FED101B53EC79
:1012D000112B13F005F99FED0F1B53EC112B12F09E
:1012E00039FE9FED0E1B53EC112B12F08BFD9FED81
:1012F0000D1B53EC112B12F0F5FF12F083FF00B21F
:1013000010BD00006666666666664A3F52B81E8576
:10131000EB51E83F7B14AE47E17A643F00000000E8
:1013200000003940000000000000594078B500245A
:10133000009490F83C20012A19D0012280F83C202A
:101340000A6807250368092A13D9DE680A3A02EBFE
:1013500042029540AE43DE600A788B680A3A02EB9F
:10136000420293400268D5682B43D36010E002200C
:1013700078BD1E6902EB42029540AE431E610A78B9
:101380008B6802EB42029340026815692B4313619C
:101390004A681F25072A13D203685E6B521E02EBB0
:1013A00082029540AE435E630A8893B20A79521E68
:1013B00002EB820293400268556B2B43536327E094
:1013C00003680D2A12D21E6BD21F02EB82029540D7
:1013D000AE431E630A8893B20A79D21F02EB8202DF
:1013E00093400268156B2B43136311E0DE6A0D3ADC
:1013F00002EB82029540AE43DE620A8893B20A791C
:101400000D3A02EB820293400268D56A2B43D36205
:10141000164B0568144A9D4206D10D68122D03D162
:10142000556845F48005556005689D4218D10B68E4
:10143000102B01D0112B13D1536843F400035360D8
:10144000096810290CD10A490A4A0968B1FBF2F16E
:1014500001EB8101490000E0491E00910029FBD108
:1014600080F83C40002078BD00230140002001406E
:101470000000002040420F000068C06C704770B54B
:1014800004004FF0000603D0206C002510B107E0E7
:10149000012070BD204600F01DF8656484F83C50C2
:1014A000206CC00610D4206C20F4885040F002005C
:1014B00020642046FFF7E8FB6564206C20F0020002
:1014C00040F00100206400E0012684F83C503046E2
:1014D00070BD0000104800B5026887B0002142F4DA
:1014E00080720260006800F4807005900A48143829
:1014F000026842F001020260006800F001000590FD
:10150000202000900320CDE901016946034800F046
:1015100057FC07B000BD0000443802400000024004
:101520002DE9F041044600680D4681684FF0000740
:1015300049050BD58068C00508D5206C40F0200017
:10154000206484F83C700120BDE8F08100F028FDA3
:1015500006460FE0681C0DD025B100F021FD801B70
:10156000A84207D9206C40F00400206484F83C7045
:101570000320E9E7206800688007EBD521686FF059
:1015800012000860206C40F40070206420688168BC
:1015900011F0405F13D1217E89B9C16A11F4700F37
:1015A00002D0806840050AD4206C20F4807020644A
:1015B000206CC00403D4206C40F0010020640020A3
:1015C000C2E7000018B50022009290F83C100129F3
:1015D00007D0012180F83C1001688B68DB0702D03E
:1015E00011E0022018BD8B6843F001038B602A498B
:1015F0002A4B0968B1FBF3F101EB410100E0491E00
:1016000000910029FBD101688B68DB0741D0036C96
:1016100040F20164A34343F4807303644B685B05A9
:1016200005D5036C23F4005343F480530364036C27
:10163000DB0404D5436C23F00603436400E04264FA
:1016400080F83C20164A6FF022030B605168006856
:10165000CA06144906D088421BD1816811F0405F48
:1016600013D016E08842F8D00F4A904203D1D1F847
:101670000423D206F1D00D4A90420AD1D1F80413C6
:1016800001F01F011029E8D303E0816841F0804197
:101690008160002018BD00000000002040420F00C3
:1016A00000230140002001400021014000220140B0
:1016B00090F83510022903D0802141650120704740
:1016C000052180F835100068016821F001010160F2
:1016D0000020704770B5044600F062FC0546601CAF
:1016E00002D004480078044400F05AFC401BA04299
:1016F000FAD370BD040000202DE9F04390F8455066
:101700000024012D0DD04FF0010980F845900225ED
:1017100080F8445044F2F45C4FF000485F1E816250
:1017200016E00220BDE8F08301EB4415C5F8008007
:10173000C4EBC41606EB460602EB8606C5E901C6F5
:10174000BC4203D205F12006EE6000E0E960641CB3
:101750009C42E9D3026802F58052D16080F844903F
:10176000002180F845100846DCE72DE9F04390F8A9
:1017700045400025012C0BD04FF0010C80F845C0EE
:10178000022480F844404FF480195F1EC1621BE0C0
:101790000220BDE8F08301EB4514C4F80090C5EBCE
:1017A000C51606EB460602EB8606A660C6691EB99C
:1017B000266846F440062660BD4203D204F12006A6
:1017C000E66000E0E1606D1C9D42E4D3026802F532
:1017D0008052116180F844C0002180F8451008460D
:1017E000D7E710B590F84510012913D0012380F8F0
:1017F0004530022180F84410816A0A680024002ADA
:1018000027DB0A68D20518D5826B521C8263012A35
:1018100002D002E0022010BD016341630A68C2F3F6
:101820000D42121FC263026B92680264C96840F8DD
:10183000281F03774477002010BD0A68920503D55E
:101840008363C0E90C1402E0826B521C8263C96896
:10185000816200F8443F4470012010BD2DE9FC472F
:101860004FF000060400B146009603D094F84400FF
:1018700018B107E00120BDE8FC8784F845602046E8
:1018800000F0E0F86548016841F4804101600068BB
:1018900000F4804001906248016821F40001016079
:1018A0000168226A11430160206800F580500168D8
:1018B00041F00101016000F073FB05464FF4FA7737
:1018C00008E000F06DFB401BB84203D9032004F888
:1018D000440F67E0206800F580500068C007F0D131
:1018E0002068006920F01C0500F01AFD4D494E4AA1
:1018F0000144914202D245F0080516E04B494C4A9A
:101900000144914202D245F00C050EE049494A4A91
:101910000144914209D3494908444949884202D2C5
:1019200045F0040501E045F01005206805614FF41D
:1019300000420021204600F008FA0125A8BBFF2044
:10194000FFF7C8FE606888B300F02AFB804641F2CA
:1019500088376A460121204600F0F0F800F020FBAD
:10196000A0EB0800B84217D800984007F1D54FF413
:1019700080520021204600F0E8F9B0B900F010FBD9
:1019800080466A460121204600F0D8F800F008FBA6
:10199000A0EB0800B8420AD901212046FFF71CFB42
:1019A00004F8445F0320667065E724E018E00098BF
:1019B0008006E6D56A461F21204600F0BFF8D0B960
:1019C0000098C10603D54FF40061E16000E0E660D5
:1019D000400701D5A66019E04FF48040A06015E0F3
:1019E000E068A168C00840EA510082B200212046A8
:1019F00000F0ABF930B101212046FFF7EDFA84F891
:101A0000445037E740F6FF70FFF764FE4946204632
:101A1000FFF7E2FA84F8445000202CE744380240F3
:101A20000438014000D3CEFEC0E1E40040F1E9FDFE
:101A300040787D0100796CFC005A6202001F0AFAAE
:101A400080F0FA0230B5384887B00025016841F0CF
:101A500000710160016801F000710591016841F0B9
:101A600080610160016801F080610591016841F0C9
:101A700000610160016801F000610591016841F0B9
:101A800001010160016801F001010591016841F067
:101A900002010160016801F002010591016841F055
:101AA00004010160016801F004010591016841F041
:101AB00008010160016801F008010591016841F029
:101AC000400101600068032400F04000059086207A
:101AD00000900220CDE901050B20CDE903406946C5
:101AE000124800F06DF9322000906946104800F06D
:101AF00067F94FF4D040009069460E4800F060F955
:101B00000820009001200394CDE9010569460A48A8
:101B100000F056F9002201213D2000F093FA3D200B
:101B200000F083FA07B030BD3038024000000240B8
:101B30000008024000180240000C02402DE9F04766
:101B4000044690F84400914682281DD0822084F8F3
:101B50004400206802694FF6FF7502F01C03228AD8
:101B600005EAC2221A434FF4F86303EA81111143D4
:101B700021F0020141F00105056100F011FA06466D
:101B800001274FF480380FE00220BDE8F08700F015
:101B900007FA801B404505D304F8447F002060709D
:101BA0000320F2E720680569E807F0D12068406962
:101BB00081B2C9F8001084F844700020E5E7F8B558
:101BC000044690F84500012839D0012584F8455095
:101BD000022084F8440020680026016841F00801D2
:101BE00001602068006800902846FFF7A9F9216885
:101BF000009808602068016841F0040101602068D5
:101C0000006800900120FFF79BF9216800980860A8
:101C10002046FFF7A5F9206800F58050816941F45E
:101C200000518161206800F58050816941F0020116
:101C3000816184F8445084F845600020F8BD02209A
:101C4000F8BDF0B590F845300022012B11D00127E6
:101C500080F84570022380F84430002559B1C46AE9
:101C60002368002B0ADA122100F8441F4570012076
:101C7000F0BD0220F0BD00F8447FF7E740F2F456D3
:101C8000B1420BD9B1FBF6FCB1FBF6F306FB1C1C11
:101C9000BCF1000F00D05B1C012B43D1226842F045
:101CA00040522260C26AC1F30C015160C16A0A68E5
:101CB00042F000420A60C16AC968C16234E0D4F8E7
:101CC00000C02CF0405CC4F800C032B9C46AD4F83B
:101CD00000C04CF0805CC4F800C0C46A66605C1E42
:101CE000A24214D1C46AD4F800C04CF0005CC4F81D
:101CF00000C0C3F10104C4EBC41404EB4404D0F8E5
:101D00002CC001EB8404C4F30C04CCF80440C46A76
:101D1000D4F800C04CF0004CC4F800C0C46A521C97
:101D2000E468C4629A42CAD3016801F580514A69E5
:101D3000520705D504224A61016801F580514D60C2
:101D400000F8447F45700020F0BD2DE9F0410446C5
:101D500090F8440042281ED0422084F844002068B5
:101D600003694FF6FF7603F01C05238A06EAC323B6
:101D70002B434FF4F86505EA8111194341F003053F
:101D800091B241612068056100F00AF90646012719
:101D90004FF480380FE00220BDE8F08100F000F938
:101DA000801B404505D304F8447F00206070032069
:101DB000F2E720680569E807F0D184F84470EBE7A2
:101DC0002DE9F84FDFF88C91002209F1040A0AF19D
:101DD000040B4FF00F080BF1040E01260B68964020
:101DE0003340B34271D14C68022C01D0122C11D176
:101DF000D40800EB84073D6A5407E40E08FA04FC9B
:101E000025EA0C05D1F810C00CFA04FC4CEA050CCC
:101E1000C7F820C007685400032591F804C0A54006
:101E20000CF0030CAF430CFA04FC4CEA070CC0F8AE
:101E300000C04F68012F05D0022F03D0112F01D011
:101E4000122F11D18768D1F80CC0AF430CFA04FCF3
:101E50004CEA070CC0F808C04768B7430E79C6F3D0
:101E6000001696403E434660C668AE438D68A54066
:101E70003543C5604C68E40065D5374C256845F4AA
:101E800080452560246822F0030504F48044009412
:101E9000324C2E19D6F808789407250F08FA05F465
:101EA000A7432F4CA04201D1002424E02D4CA04296
:101EB00001D101241FE02C4CA04201D102241AE0E0
:101EC0002A4CA04202D1032415E03CE0284CA04259
:101ED00001D104240FE0274CA04201D105240AE0DF
:101EE000254CA04201D1062405E0244CA04201D19A
:101EF000072400E00824AC403C43C6F80848D9F861
:101F000000404D464E689C43F60300D51C432C60B0
:101F1000DAF8004055464E689C43B60300D51C4392
:101F20002C60DBF800405D464E689C43F60200D50D
:101F30001C432C60DEF8004075464E689C43B60298
:101F400000D51C432C60521C102AFFF446AFBDE89C
:101F5000F88F0000003C014044380240003001404E
:101F6000000002400004024000080240000C024051
:101F7000001002400014024000180240001C024001
:101F80000069084000D0012070470AB181617047A4
:101F90000904FBE701480068000C7047002004E0DA
:101FA00001488068704700000400002002488168F2
:101FB000027811448160704704000020094810B580
:101FC000016841F400710160016841F480610160C1
:101FD000052000F057F80F2000F006F800F024F874
:101FE000002010BD003C024070B50D4D04464FF47A
:101FF0007A712878B1FBF0F00A490968B1FBF0F07A
:1020000000F02CFE48B9102C07D200222146501EA9
:1020100000F018F800206C6070BD012070BD000059
:1020200004000020000000207047002809DB00F0B9
:102030001F02012191404009800000F1E020C0F81A
:1020400000117047F0B40E4B1B68C3F30223C3F1B9
:102050000704042C00D904241D1D072D01D20023E0
:1020600000E0DB1E012606FA04F56D1E0D409D40C2
:102070009E40761E164045EA0601F0BC04F073BD92
:102080000CED00E0064A00F0070110684FF6FF0370
:10209000184040EA012003490843106070470000DF
:1020A0000CED00E00000FA050149012008627047CC
:1020B00000000E422DE9F843044600684FF0010984
:1020C000C1074FF0000501D1400726D5DFF80C818C
:1020D000C8F86850FFF764FF0646414F04E0FFF779
:1020E0005FFF801B022857D838680001F7D460686A
:1020F000217A800140EA0170394984310860C8F8CA
:102100006890FFF74DFF064604E0FFF749FF801B8C
:10211000022841D838680001F7D52078800752D5C9
:102120002F484030016841F08051016000682D4F18
:1021300000F080500090386840F480703860FFF7FD
:102140002FFF064604E0FFF72BFF801B022823D851
:102150003868C005F7D5224E7036306810F44070EC
:1021600020D0A18901F4407181421BD030681E4902
:1021700020F44070C1F800900D6030603068C007F6
:1021800010D0FFF70DFF054641F2883707E0FFF753
:1021900007FF401BB84202D90320BDE8F88330682E
:1021A0008007F4D5E0680E49C0F301220831032A04
:1021B0000BD0086820F4F81008603068A189C1F3DA
:1021C0000B01084330600020E7E70A68074B22F460
:1021D000F812184002430A60EFE70000000047428F
:1021E0000038024000700040400E4742FFFCFF0FE5
:1021F0002DE9F0470D46040065D0DFF81491D9F8B9
:102200000000EFB200F00F00A84207D289F800707A
:10221000D9F8000000F00F00A84254D120683D4ECC
:10222000810712D5400703D5306840F4E050306094
:102230002078000703D5306840F460403060306893
:10224000A16820F0F000084330602078C0072DD04E
:10225000304960680839012812D0022813D00328B9
:1022600011D00968890700292DDA316821F00301AE
:1022700001433160FFF794FE804641F2883A0EE058
:1022800009688903EFE709688901ECE7FFF788FE31
:10229000A0EB0801514502D90320BDE8F087306862
:1022A000616800F00C00B0EB810FEFD1D9F800109D
:1022B000484601F00F01A94207D90770006800F0F5
:1022C0000F00A84201D00120E7E72078400705D59C
:1022D0003068E16820F4E05008433060207800075F
:1022E00006D53068216920F4604040EAC1003060C2
:1022F00000F03CF83168084AC1F30311515CC84052
:10230000064908600F20FFF76FFE0020C5E70000B8
:10231000003C024008380240A047010800000020AD
:10232000014800687047000000000020044805498B
:1023300000680968044AC1F38221515CC8407047B3
:102340000000002008380240B04701080448054951
:1023500000680968044AC1F34231515CC8407047C3
:102360000000002008380240B0470108154810B5A9
:10237000006810F00C01144813D0431004290FD04A
:1023800008290ED10F4C241F216801F03F0221685B
:10239000490207D52068C0F38810A0FB030106E0BE
:1023A000184610BD2168C1F38811A1FB000100236C
:1023B000FDF78BFF2168C1F30141491C4900B0FBC7
:1023C000F1F010BD083802400024F4002DE9F84F68
:1023D000040073D02078BD4DC00748D0BB480830FA
:1023E0000168C1F38101012908D00068C0F38100B0
:1023F00002280AD1281D0068400206D528688003FB
:1024000035D560680028E4D031E06068B0F5803FE1
:1024100010D0B0F5A02F286810D020F480302860AC
:10242000286820F4802028606068A0B1FFF7B8FD1C
:1024300006460CE0286840F48030F4E740F4802041
:102440002860F7E7FFF7ACFD801B642872D8286886
:102450008003F7D50BE0FFF7A3FD064604E0FFF786
:102460009FFD801B6428F1D828688003F7D420786A
:10247000DFF85C9280074FF0000A3ED593480830A1
:10248000016811F00C0F09D00068C0F38100022828
:102490000BD18E48001D0068400206D428688007D2
:1024A00015D5E068012809D111E0E068B8B1012034
:1024B000C9F80000FFF774FD064605E003E1FFF7E9
:1024C0006FFD801B0228C1D828688007F7D52868CF
:1024D000216920F0F80040EAC10028600DE0C9F849
:1024E00000A0FFF75DFD064604E0FFF759FD801BE5
:1024F00002281FD828688007F7D42078000722D543
:10250000724F74496069743770B101200860FFF739
:1025100047FD064604E0FFF743FD801B022809D86B
:1025200038688007F7D50EE0C1F800A0FFF738FD46
:10253000064605E081E0FFF733FD801B02287CD8CA
:1025400038688007F7D42078400769D5DFF87CB178
:102550004FF000080BF1400BDBF80000C0000CD47A
:10256000DBF8001041F08051CBF80010DBF80000E0
:102570004FF0010800F080500090574F3868C005B8
:102580000FD4386840F480703860FFF709FD0646C4
:1025900004E0FFF705FD801B02284ED83868C0050F
:1025A000F7D54A4FA068703701280FD00528386842
:1025B00010D020F001003860386820F00400386046
:1025C000A068B0B1FFF7ECFC06460EE0386840F0BA
:1025D0000100F4E740F004003860F7E7FFF7E0FCA3
:1025E000811B41F28830814265D838688007F5D573
:1025F0000DE0FFF7D5FC064606E0FFF7D1FC811B96
:1026000041F28830814256D838688007F5D4B8F155
:10261000000F05D0DBF8001021F08051CBF800103E
:10262000A069C8B3294908310968C1F381010229A9
:1026300049D00228504607D000E03CE0C9F86000CD
:10264000FFF7AEFC044639E04F46C9F86000FFF7DB
:10265000A7FC064604E0FFF7A3FC801B02282AD84B
:1026600028688001F7D4D4E907010843A16A1B4A0E
:10267000490802EB0141626A41EA8211084394F879
:102680002C1040EA01611148001D016001203866EC
:10269000FFF786FC044605E013E0FFF781FC001B12
:1026A000022808D828688001F7D50AE0FFF778FCEF
:1026B000001B022802D90320BDE8F88F286880019A
:1026C000F4D40020F8E70120F6E7000000380240CB
:1026D00000004742800E4742007000400000FFFFAC
:1026E00070470068503050F8210070470068503043
:1026F00040F82120704700000449D1F8A80218B121
:102700000020C1F8A80270470120FAE70080424289
:1027100010B504460068C16849050CD580684004BE
:1027200009D52046FFF7E8FF2068C16801F0800165
:1027300061F49061C16003494FF48000086001209A
:10274000607710BD143C014001A0FDF735BE0000CC
:10275000414C41524D2041210D0A000010B5044664
:102760000068C168C9050CD58068C00409D5204639
:10277000FFF7EAFF2068C16801F0800161F4C071D1
:10278000C1602068C16889050CD58068800409D5BE
:102790002046FFF7A5FF2068C16801F0800161F4C1
:1027A0002071C16003494FF4003008600120607758
:1027B00010BD0000143C014010B500680B46416894
:1027C0000D480140080CD870C1F304245C7001F07E
:1027D0003F049C70C1F34231197052B903F04EFCB2
:1027E000D870587803F04AFC5870987803F046FC8B
:1027F0009870002010BD00003FFFFF0010B50B4691
:102800000168896A596001680969C1F30E0199601C
:10281000006801680E480140C1F305401870C1F31B
:1028200006245C7001F07F049C70402404EA11418E
:10283000D97052B903F022FC1870587803F01EFCCE
:102840005870987803F01AFC9870002010BD0000B2
:102850007F7F7F0070B5040002D0607F10B106E07A
:10286000012070BD00202077204600F049F80220AA
:1028700060772168CA204862216853204862204658
:1028800003F010FCFF25042618BB206881681B4A52
:10289000114081602068816862681143D4E9042393
:1028A0001A43114381602168E0680861206801696A
:1028B000228941EA024101612068C16821F080015A
:1028C000C16020688068800607D4204600F018F9AF
:1028D00018B1206845626677C2E72068016C21F470
:1028E000802101642068016CA269114301642068A1
:1028F000456201206077002070BD0000BFFF8FFFA0
:1029000010B5104892B00024016841F08051016078
:10291000006800F080501090FFF7C6FB042006947A
:102920000090012468460294FFF750FD02200C90AD
:10293000C0010F900CA8FFF7BDFB0348046012B064
:1029400010BD0000403802403C0E47422DE9F047E0
:102950000446007F0B4601281FD04FF0010984F880
:102960001C9002206077DAB19878D97840EA014566
:1029700058781978000240EA413005432168CA209E
:102980004862216853204862204603F08BFB0026F2
:10299000FF274FF0040860BB1AE00220BDE8F08773
:1029A0005878C10603D500F0EF000A305870D87887
:1029B00003F06DFB0204587803F069FB42EA002241
:1029C000987803F064FB0243187842EA4035D5E773
:1029D0000F480540206845602068C16821F08001EB
:1029E000C1602068806880060AD4204600F088F81C
:1029F00030B12068476284F81D8026770120CDE73A
:102A00002068476284F81D9026770020C6E7000002
:102A10003FFFFF002DE9F0470446007F0D460128E7
:102A200027D04FF0010A84F81CA0022060772068AC
:102A3000002680684FEA4060F2B1002800DBEE70AB
:102A4000A878297840EA01476878E978000240EAE6
:102A5000014007432168CA20486221685320486228
:102A6000204603F01FFB4FF0FF084FF00409A0BB06
:102A700016E00220BDE8F087002800DBEE70287821
:102A800003F005FB0204687803F001FB42EA002230
:102A9000A87803F0FCFA0243E87842EA0047D9E755
:102AA00016480740206807602068816821F480216B
:102AB0008160D5E903100143206882681143816079
:102AC0002068C16821F08001C160206880688006AC
:102AD0000BD4204600F014F838B12168C1F82480E6
:102AE00084F81D9026770120C4E72168C1F824806E
:102AF00084F81DA026770020BCE700007F7F7F00C0
:102B000070B505460068C16821F0A001C160FFF7FB
:102B100047FA04464FF47A7606E0FFF741FA001BC5
:102B2000B04201D9032070BD2868C0688006F4D582
:102B3000002070BD70B515460E46040003D094F811
:102B4000490010B107E0012070BD002084F8480062
:102B5000204600F01BF804F108012068FEF70CFB8A
:102B60003146A2682068FEF731FBD4E9010229460C
:102B7000236BFEF7E1FAA168206850F8212042F0AB
:102B8000010240F82120002070BD0000284810B547
:102B9000016886B041F001010160006800F00100A9
:102BA000059023480838016841F008010160016878
:102BB00001F008010591016841F010010160016810
:102BC00001F010010591016841F0200101600168E8
:102BD00001F020010591016841F0400101600068A9
:102BE000694600F0400005904CF2337000900220DE
:102BF000019001200290032003900C2004900D48C6
:102C0000FFF7DEF84FF68070009069460A48FFF73C
:102C1000D7F84FF48054694608480094FFF7D0F87D
:102C2000694607480094FFF7CBF806B010BD0000D6
:102C300038380240000C02400010024000140240EC
:102C4000001802404FF0E0210428086903D020F06A
:102C500004000861704740F00400FAE710B5401E18
:102C6000B0F1807F01D3012010BD4FF0E0246061FE
:102C70000F21601703F077FF0020A061072020617B
:102C8000002010BD7047704710B5040003D094F8C1
:102C90003D0010B107E0012010BD002084F83C0089
:102CA000204600F00DF8022084F83D00211D206828
:102CB00003F080FC012084F83D00002010BD0000DE
:102CC00008B500680B49884212D10B48016841F0F1
:102CD000020101600068032200F00200009001215F
:102CE0001D20FFF7AFF9BDE808401D20FFF79DB993
:102CF00008BD000000040040403802400168CA6876
:102D000042F00102CA600068816801F007010629EB
:102D100003D0016841F00101016000207047704755
:102D200070B50446006801694FF00005C943890782
:102D300015D4C168C943890711D4E91E0161012076
:102D40002077206880698007204602D0FFF7E7FFE0
:102D500004E000F098F8204600F096F82577206807
:102D60000169C943490717D4C168C943490713D446
:102D70006FF004010161022020772068806910F45F
:102D8000407F204602D0FFF7CAFF04E000F07BF846
:102D9000204600F079F8257720680169C9430907C2
:102DA00016D4C168C943090712D46FF00801016144
:102DB000042020772068C0698007204602D0FFF7F2
:102DC000AEFF04E000F05FF8204600F05DF82577E4
:102DD00020680169C943C90617D4C168C943C90637
:102DE00013D46FF010010161082020772068C069BA
:102DF00010F4407F204602D0FFF791FF04E000F07E
:102E000042F8204600F040F8257720680169C94360
:102E1000C90708D1C168C943C90704D1891E016126
:102E2000204600F033F820680169C943090609D437
:102E3000C168C943090605D46FF0800101612046CD
:102E4000FFF720FF20680169C943490609D4C1681A
:102E5000C943490605D46FF040010161204600F0E6
:102E600021F820680169C94389060BD4C168C943A8
:102E7000890607D46FF0200101612046BDE870404B
:102E8000FFF701BF70BD70477047000003498842DB
:102E900003D1034801680A3101607047F40400203F
:102EA000940100207047704710F8391F407808439C
:102EB0007047000070B5026804461068D168536915
:102EC00010F00F0F50D003F0010501F49076354358
:102ED0005DD0C20705D0CA0503D5E26B42F00102FE
:102EE000E263420705D5DA0703D0E26B42F0020243
:102EF000E263820705D5DA0703D0E26B42F00402F1
:102F0000E263020705D5DA0703D0E26B42F008025C
:102F1000E263E26B002A33D0800604D5880602D52E
:102F2000204603F01DFC20684069E16BC0F380106F
:102F3000090700D428B3204603F004FC2068416947
:102F400049061AD5416921F040014161606BA0B189
:102F50001B490165606BFEF7ABFB002810D0606B6E
:102F6000016DBDE870400847830610D58B060ED56D
:102F70002046BDE8704003F0F3BB2046FFF793FF07
:102F800070BD2046FFF78FFF0020E06370BD030691
:102F900006D50B0604D52046BDE8704003F082BD7F
:102FA0004006F3D54806F1D5D168204621F040010E
:102FB000D160202184F8391000F0CAF870BD0000FB
:102FC0003567000870B5040004D094F83900002576
:102FD00010B106E0012070BD84F83850204600F0A2
:102FE00023F8242084F839002068C16821F40051B6
:102FF000C160204603F000FC2068016921F4904183
:1030000001612068416921F02A0141612068C1689D
:1030100041F40051C160E563202084F8390084F850
:103020003A00002070BD000010B500681A4986B053
:1030300088422FD11948016841F001010160006800
:1030400000F00100059015481430016841F01001AE
:1030500001600068012100F0100005904FF400703D
:1030600000900220CDE90101039007200C4C049050
:1030700069462046FEF7A4FE2115009169462046C8
:10308000FEF79EFE2520FEF7D0FF032211462520E5
:10309000FEF7D8FF06B010BD0010014030380240E6
:1030A0000000024090F83A30202B22D1F9B1F2B161
:1030B00090F83830012B1CD081628285C2850021B6
:1030C000C163222280F83A2080F838100168CA686B
:1030D00042F48072CA6001684A6942F001024A61A2
:1030E0000068C16841F02001C160002070470120E4
:1030F000704702207047000030B5006811498842CF
:103100000CD1114A5088010408D4114644040978AE
:103110004FF0000306D50A2901D0538030BD40F49A
:1031200000400DE00D2909D0C0F30D04074D401CEF
:1031300080B229555080C728EFD830BD40F4804078
:10314000508030BD00100140140000208C0200208F
:103150007047FEE770B5144886B00025016841F05D
:1031600001010160016801F001010591016841F070
:10317000100101600068032400F010000590022097
:103180000126CDE90204CDE9006569460748FEF74E
:1031900017FE1C2003948DE8610069460448FEF781
:1031A0000FFE06B070BD0000303802400000024043
:1031B000001002402DE9F04101262E4C2E4F2F4DDC
:1031C00001281DD02078A0B110212846FEF7D8FE96
:1031D000C0B108212846FEF7D3FE98B10421284645
:1031E000FEF7CEFE70B101213846FEF7C9FE012878
:1031F00008D010212846FEF7C3FE012826D037E06C
:103200002670E1E70A2003F047FD0020207010211E
:103210002846FEF7B5FE80B108212846FEF7B0FE2D
:1032200070B104212846FEF7ABFE58B101213846A3
:10323000FEF7A6FE012807D01AE00120BDE8F081C4
:103240000220FBE70320F9E70420F7E708212846DE
:10325000FEF796FE01280BD104212846FEF790FECA
:10326000012805D101213846FEF78AFE00B92670F3
:103270000020E3E72400002000000240001002408C
:1032800010B51F2000F040F8C0F3820010BD000010
:103290007CB5194D0024C5F88C42322005F5237504
:1032A00003F0FAFC01212960144802788DF800200F
:1032B00042788DF8012082788DF80220C2788DF84E
:1032C000032002798DF8042040798DF805000D481F
:1032D0000B4AC0E900218A038260CA02C2600482EC
:1032E0006A46C0E90521C905C0E90741FEF7B6FAFB
:1032F000002800D001207CBD0080414280AE01202A
:10330000008002408C04002008B501466A4602484D
:10331000FEF714FC009808BD8C04002070B506462A
:103320000A4800240188458820464D43214602F082
:10333000F9FB02F06DFDB1B24FF0D84002E0A0F809
:103340008010641CAC42FAD370BD0000E40300207E
:103350002DE9F04F334B2C24194698712A25898882
:103360002B2645F2105B4FF4305E4FF448774FF058
:10337000F00949F2413A4FF4A07845F2103C4FF47D
:10338000F07258B1A3F80080A3F80290514501D023
:10339000614529D11C815D819E8139E0A3F80090AF
:1033A000A3F80280514501D0614508D11C815D819F
:1033B0009E81614531D1A3F800805A802DE05945A6
:1033C00008D1A3F808E04FF4285058814FF42C504E
:1033D000988106E0A1F5C85063381ED11C815E813A
:1033E0009D811A805F8018E0594508D1A3F808E054
:1033F0004FF4285058814FF42C50988106E0A1F5E5
:10340000C850633804D11C815D819E811F805A8021
:10341000614502D11A80A3F80280BDE8F04F002078
:1034200002F0A4BAE40300202DE9F041374D9046A4
:103430000C4602460F0AA8882946160A4989A0F5B3
:103440001343413B0CD0A0F5A643103B08D0A0F598
:10345000AA43103B11D0A0F5C853633B27D04BE0E3
:10346000084602F0C8FC304602F0B9FCD0B202F0C7
:10347000B6FCA88902F0BFFC38E0084602F0BBFCAD
:10348000304602F0ACFC6889401C80B202F0B3FC0C
:10349000D0B202F0A4FCA88902F0ADFC384602F0DC
:1034A0009EFCA889401C80B202F0A5FC21E0A8790E
:1034B00018B92888801A401E82B2084602F09BFC88
:1034C000160A304602F08BFCD0B202F088FC30467F
:1034D00002F085FCD0B202F082FCA88902F08BFCDD
:1034E000384602F07CFCE0B202F079FC384602F08B
:1034F00076FCE0B202F073FC4FF0D840298920F846
:103500007E1FA0F80280BDE8F0810000E4030020E7
:103510002DE9F0431F468146A2EB0900079B401CA2
:103520000C4686B29DB24FF0D84810E0214648467E
:1035300002F0F8FA02F06CFC0020414603E0A1F82A
:103540008050401C80B2B042F9D3641CA4B2BC428B
:10355000ECD9BDE8F08300002DE9F04FFF4895B0AD
:103560000024016841F00201016000684FF0010988
:1035700000F00200139003204FF4004ACDE91090B0
:10358000CDE90EA90EA9F648FEF71AFCF548F64952
:103590004FF02045C0E900510621C0E90214102176
:1035A000C0E9044184610902C461C0E9094189009C
:1035B000C0E90B4189014463C0E90E410F20CDE908
:1035C00007043C2009900920CDE9000408200D944F
:1035D000029003946A4607A90694E248FFF7AAFA04
:1035E000322003F059FBD32002F005FC02F08CF9E5
:1035F000DC4A5032908002F087F9908002F084F922
:103600004FF6FF7B0BEA0020908002F07DF9918855
:1036100045F210360843A0F51341908045F210544E
:1036200041F66317413949D0D42002F0E4FB02F09F
:103630006BF9908002F068F9908002F065F90BEA6E
:103640000020D846908002F05FF99188084390806E
:10365000B04233D04FF45A4002F0CDFB02F054F99F
:1036600090804FF45B4002F0C6FB02F04DF908EA8F
:10367000002090804FF45C4002F0BDFB02F044F962
:10368000918808439080504501D1948016E0A04273
:1036900014D0A12002F0AFFB02F036F9908002F0C6
:1036A00033F908EA0020908002F02EF9918808434F
:1036B000A0F5AE419080613900D197809246918803
:1036C000AAA0FCF779FEBAF8040049F24138404557
:1036D0007ED1CF2002F08FFB002002F080FBC120C2
:1036E00002F07DFB302002F07AFBED2002F083FB3C
:1036F000642002F074FB032002F071FB122002F040
:103700006EFB812002F06BFBE82002F074FB852049
:1037100002F065FB102002F062FB7A2002F05FFBF2
:10372000CB2002F068FB392002F059FB2C2002F07C
:1037300056FB002002F053FB342002F050FB022025
:1037400002F04DFBF72002F056FB202002F047FB71
:10375000EA2002F050FB002002F041FB002002F0C2
:103760003EFBC02002F047FB1B2002F038FBC120CB
:1037700002F041FB012002F032FBC52002F03BFBCE
:10378000302002F02CFB302002F029FBC72002F091
:1037900032FBB72002F023FB362002F02CFB48203E
:1037A00002F01DFB3A2002F026FB552002F017FB29
:1037B000B12002F020FB002002F011FB1A2002F0E1
:1037C0000EFBB62002F017FB0A2002F008FB00E017
:1037D00095E0A22002F003FBF22002F00CFB002097
:1037E00002F0FDFA262002F006FB012002F0F7FAB3
:1037F000E02002F000FB0F2002F0F1FA2A2002F094
:10380000EEFA282002F0EBFA082002F0E8FA0E2087
:1038100002F0E5FA082002F0E2FA542002F0DFFAA2
:10382000A92002F0DCFA432002F0D9FA0A2002F0C3
:10383000D6FA0F2002F0D3FA002002F0D0FA0020CE
:1038400002F0CDFA002002F0CAFA002002F0C7FA16
:10385000E12002F0D0FA002002F0C1FA152002F0B7
:10386000BEFA172002F0BBFA072002F0B8FA1120C6
:1038700002F0B5FA062002F0B2FA2B2002F0AFFAFD
:10388000562002F0ACFA3C2002F0A9FA052002F022
:10389000A6FA102002F0A3FA0F2002F0A0FA3F20AF
:1038A00002F09DFA3F2002F09AFA0F2002F097FAF8
:1038B0002B2002F0A0FA002002F091FA002002F082
:1038C0008EFA012002F08BFA3F2002F088FA2A20BB
:1038D00002F091FA002002F082FA002002F07FFA52
:1038E000002002F07CFAEF2002F079FA112002F0B9
:1038F00082FA782003F0D0F9292001F010BFB042FD
:103900007ED1ED2002F077FA012002F068FAFE2065
:1039100002F065FAEE2002F06EFADE2002F05FFAA5
:10392000212002F05CFAF12002F065FA012002F099
:1039300056FADF2002F05FFA102002F050FAC4209D
:1039400002F059FA8F2002F04AFAC62002F053FA28
:10395000002002F044FAE22010E00000303802407B
:103960000004024094030020040100A0204C4344C2
:103970002049443A25780D0A0000000002F02FFA91
:10398000E22002F02CFAE22002F029FABF2002F035
:1039900032FAAA2002F023FAB02002F02CFA0D200D
:1039A00002F01DFA002002F01AFA0D2002F017FAB8
:1039B000002002F014FA112002F011FA002002F0A7
:1039C0000EFA192002F00BFA002002F008FA21206A
:1039D00002F005FA002002F002FA2D2002F0FFF9B1
:1039E000002002F0FCF93D2002F0F9F9002002F07D
:1039F000F6F95D2002F0F3F9002002F0F0F900E0A2
:103A0000FDE35D2002F0EBF9002002F0E8F9B120BF
:103A100002F0F1F9802002F0E2F9002002F0DFF973
:103A20008B2002F0DCF9002002F0D9F9962002F098
:103A3000D6F9002002F0D3F9B22002F0DCF9002020
:103A400002F0CDF9002002F0CAF9022002F0C7F915
:103A5000002002F0C4F9032002F0C1F9002002F0B6
:103A6000BEF9B32002F0C7F9002002F0B8F9002037
:103A700002F0B5F9002002F0B2F9002002F0AFF92F
:103A8000002002F0ACF9002002F0A9F9002002F0B9
:103A9000A6F9002002F0A3F9002002F0A0F900200E
:103AA00002F09DF9002002F09AF9002002F097F947
:103AB000002002F094F9002002F091F9002002F0B9
:103AC0008EF9002002F08BF9002002F088F9002026
:103AD00002F085F9002002F082F9002002F07FF95F
:103AE000002002F07CF9002002F079F9002002F0B9
:103AF00076F9002002F073F9B42002F07CF98B20F3
:103B000002F06DF9002002F06AF9962002F067F9E0
:103B1000002002F064F9A12002F061F9002002F017
:103B20005EF9B52002F067F9022002F058F9002092
:103B300002F055F9032002F052F9002002F04FF98B
:103B4000042002F04CF9002002F049F9B62002F0FE
:103B500052F9002002F043F9002002F040F9B720AA
:103B600002F049F9002002F03AF9002002F037F99A
:103B70003F2002F034F9002002F031F95E2002F01B
:103B80002EF9002002F02BF9642002F028F9002021
:103B900002F025F98C2002F022F9002002F01FF932
:103BA000AC2002F01CF9002002F019F9DC2002F030
:103BB00016F9002002F013F9702002F010F900202D
:103BC00002F00DF9902002F00AF9002002F007F946
:103BD000EB2002F004F9002002F001F9DC2002F0F1
:103BE000FEF8002002F0FBF8B82002F004F90020F3
:103BF00002F0F5F8002002F0F2F8002002F0EFF8F1
:103C0000002002F0ECF8002002F0E9F8002002F0B9
:103C1000E6F8002002F0E3F8002002F0E0F8BA2015
:103C200002F0E9F8242002F0DAF8002002F0D7F8D8
:103C3000002002F0D4F8002002F0D1F8C12002F0F8
:103C4000DAF8202002F0CBF8002002F0C8F8542067
:103C500002F0C5F8002002F0C2F8FF2002F0BFF821
:103C6000002002F0BCF8C22002F0C5F80A2002F0E1
:103C7000B6F8002002F0B3F8042002F0B0F80020FB
:103C800002F0ADF8C32002F0B6F83C2002F0A7F82D
:103C9000002002F0A4F83A2002F0A1F8002002F07F
:103CA0009EF8392002F09BF8002002F098F83720A7
:103CB00002F095F8002002F092F83C2002F08FF814
:103CC000002002F08CF8362002F089F8002002F083
:103CD00086F8322002F083F8002002F080F82F20CE
:103CE00002F07DF8002002F07AF82C2002F077F83C
:103CF000002002F074F8292002F071F8002002F090
:103D00006EF8262002F06BF8002002F068F82420FC
:103D100002F065F8002002F062F8242002F05FF85B
:103D2000002002F05CF8232002F059F8002002F095
:103D300056F83C2002F053F8002002F050F83620EC
:103D400002F04DF8002002F04AF8322002F047F865
:103D5000002002F044F82F2002F041F8002002F089
:103D60003EF82C2002F03BF8002002F038F8292021
:103D700002F035F8002002F032F8262002F02FF889
:103D8000002002F02CF8242002F029F8002002F094
:103D900026F8242002F023F8002002F020F8232047
:103DA00002F01DF8002002F01AF8C42002F023F8F7
:103DB000622002F014F8002002F011F8052002F051
:103DC0000EF8002002F00BF8842002F008F8002022
:103DD00002F005F8F02002F002F8002001F0FFFFE9
:103DE000182001F0FCFF002001F0F9FFA42001F0F1
:103DF000F6FF002001F0F3FF182001F0F0FF002093
:103E000001F0EDFF502001F0EAFF002001F0E7FF94
:103E10000C2001F0E4FF002001F0E1FF172001F089
:103E2000DEFF002001F0DBFF952001F0D8FF00202D
:103E300001F0D5FFF32001F0D2FF002001F0CFFF09
:103E4000E62001F0CCFF002001F0C9FFC52001F001
:103E5000D2FF322001F0C3FF002001F0C0FF442058
:103E600001F0BDFF002001F0BAFF652001F0B7FFAF
:103E7000002001F0B4FF762001F0B1FF002001F036
:103E8000AEFF882001F0ABFF002001F0A8FFC620A4
:103E900001F0B1FF202001F0A2FF002001F09FFF00
:103EA000172001F09CFF002001F099FF012001F094
:103EB00096FF002001F093FFC72001F09CFF002037
:103EC00001F08DFF002001F08AFF002001F087FF44
:103ED000002001F084FFC82001F08DFF002001F0D8
:103EE0007EFF002001F07BFF002001F078FF002022
:103EF00001F075FFC92001F07EFF002001F06FFF87
:103F0000002001F06CFF002001F069FF002001F0AB
:103F100066FF002001F063FF002001F060FF002039
:103F200001F05DFF002001F05AFF002001F057FF73
:103F3000002001F054FF002001F051FF002001F0AB
:103F40004EFF002001F04BFF002001F048FF002051
:103F500001F045FF002001F042FFE02001F04BFF9F
:103F6000162001F03CFF002001F039FF1C2001F079
:103F700036FF002001F033FF212001F030FF002048
:103F800001F02DFF362001F02AFF002001F027FF6D
:103F9000462001F024FF002001F021FF522001F013
:103FA0001EFF002001F01BFF642001F018FF00201D
:103FB00001F015FF7A2001F012FF002001F00FFF41
:103FC0008B2001F00CFF002001F009FF992001F087
:103FD00006FF002001F003FFA82001F000FF0020F1
:103FE00001F0FDFEB92001F0FAFE002001F0F7FE1D
:103FF000C42001F0F4FE002001F0F1FECA2001F01F
:10400000EEFE002001F0EBFED22001F0E8FE0020E1
:1040100001F0E5FED92001F0E2FE002001F0DFFE14
:10402000E02001F0DCFE002001F0D9FEF32001F0D9
:10403000D6FE002001F0D3FEE12001F0DCFE1620C8
:1040400001F0CDFE002001F0CAFE1C2001F0C7FEE9
:10405000002001F0C4FE222001F0C1FE002001F08A
:10406000BEFE362001F0BBFE002001F0B8FE452068
:1040700001F0B5FE002001F0B2FE522001F0AFFECB
:10408000002001F0ACFE642001F0A9FE002001F048
:10409000A6FE7A2001F0A3FE002001F0A0FE8B20F6
:1040A00001F09DFE002001F09AFE992001F097FE9C
:1040B000002001F094FEA82001F091FE002001F004
:1040C0008EFEB92001F08BFE002001F088FEC42096
:1040D00001F085FE002001F082FECA2001F07FFE83
:1040E000002001F07CFED22001F079FE002001F0DA
:1040F00076FED82001F073FE002001F070FEE02073
:1041000001F06DFE002001F06AFEF32001F067FE71
:10411000002001F064FEE22001F06DFE052001F0B8
:104120005EFE002001F05BFE0B2001F058FE002037
:1041300001F055FE1B2001F052FE002001F04FFE61
:10414000342001F04CFE002001F049FE442001F033
:1041500046FE002001F043FE4F2001F040FE00200B
:1041600001F03DFE612001F03AFE002001F037FE33
:10417000792001F034FE002001F031FE882001F0AA
:104180002EFE002001F02BFE972001F028FE0020DB
:1041900001F025FEA62001F022FE002001F01FFE06
:1041A000B72001F01CFE002001F019FEC22001F032
:1041B00016FE002001F013FEC72001F010FE0020C3
:1041C00001F00DFED12001F00AFE002001F007FEF3
:1041D000D62001F004FE002001F001FEDD2001F0F8
:1041E000FEFD002001F0FBFDF32001F0F8FD0020B2
:1041F00001F0F5FDE32001F0FEFD052000E00CE3F9
:1042000001F0EDFD002001F0EAFD0A2001F0E7FDDC
:10421000002001F0E4FD1C2001F0E1FD002001F090
:10422000DEFD332001F0DBFD002001F0D8FD44204D
:1042300001F0D5FD002001F0D2FD502001F0CFFDAE
:10424000002001F0CCFD622001F0C9FD002001F04A
:10425000C6FD782001F0C3FD002001F0C0FD8820DC
:1042600001F0BDFD002001F0BAFD972001F0B7FD7F
:10427000002001F0B4FDA62001F0B1FD002001F006
:10428000AEFDB72001F0ABFD002001F0A8FDC2207B
:1042900001F0A5FD002001F0A2FDC72001F09FFD67
:1042A000002001F09CFDD12001F099FD002001F0DB
:1042B00096FDD52001F093FD002001F090FDDD205A
:1042C00001F08DFD002001F08AFDF32001F087FD53
:1042D000002001F084FDE42001F08DFD012001F0BB
:1042E0007EFD002001F07BFD012001F078FD002023
:1042F00001F075FD022001F072FD002001F06FFD5C
:104300002A2001F06CFD002001F069FD3C2001F045
:1043100066FD002001F063FD4B2001F060FD0020F0
:1043200001F05DFD5D2001F05AFD002001F057FD18
:10433000742001F054FD002001F051FD842001F0B3
:104340004EFD002001F04BFD932001F048FD0020C0
:1043500001F045FDA22001F042FD002001F03FFDEB
:10436000B32001F03CFD002001F039FDBE2001F03A
:1043700036FD002001F033FDC42001F030FD0020A7
:1043800001F02DFDCD2001F02AFD002001F027FDD8
:10439000D32001F024FD002001F021FDDD2001F0FB
:1043A0001EFD002001F01BFDF32001F018FD002090
:1043B00001F015FDE52001F01EFD002001F00FFDCC
:1043C000002001F00CFD002001F009FD002001F0AB
:1043D00006FD022001F003FD002001F000FD292070
:1043E00001F0FDFC002001F0FAFC3C2001F0F7FC9C
:1043F000002001F0F4FC4B2001F0F1FC002001F062
:10440000EEFC5D2001F0EBFC002001F0E8FC7420E4
:1044100001F0E5FC002001F0E2FC842001F0DFFC6B
:10442000002001F0DCFC932001F0D9FC002001F019
:10443000D6FCA22001F0D3FC002001F0D0FCB32078
:1044400001F0CDFC002001F0CAFCBE2001F0C7FC49
:10445000002001F0C4FCC42001F0C1FC002001F0E8
:10446000BEFCCD2001F0BBFC002001F0B8FCD32045
:1044700001F0B5FC002001F0B2FCDC2001F0AFFC43
:10448000002001F0ACFCF32001F0A9FC002001F0B9
:10449000A6FCE62001F0AFFC112001F0A0FC0020FA
:1044A00001F09DFC342001F09AFC002001F097FC03
:1044B000562001F094FC002001F091FC762001F0E0
:1044C0008EFC002001F08BFC772001F088FC00209E
:1044D00001F085FC662001F082FC002001F07FFCE9
:1044E000882001F07CFC002001F079FC992001F08B
:1044F00076FC002001F073FCBB2001F070FC002072
:1045000001F06DFC992001F06AFC002001F067FCCD
:10451000662001F064FC002001F061FC552001F0F0
:104520005EFC002001F05BFC552001F058FC0020EF
:1045300001F055FC452001F052FC002001F04FFC39
:10454000432001F04CFC002001F049FC442001F024
:1045500046FC002001F043FCE72001F04CFC322037
:1045600001F03DFC002001F03AFC552001F037FC41
:10457000002001F034FC762001F031FC002001F035
:104580002EFC662001F02BFC002001F028FC6720A7
:1045900001F025FC002001F022FC672001F01FFC47
:1045A000002001F01CFC872001F019FC002001F024
:1045B00016FC992001F013FC002001F010FCBB2038
:1045C00001F00DFC002001F00AFC992001F007FC2D
:1045D000002001F004FC772001F001FC002001F034
:1045E000FEFB442001F0FBFB002001F0F8FB56200D
:1045F00001F0F5FB002001F0F2FB232001F0EFFBBE
:10460000002001F0ECFB332001F0E9FB002001F079
:10461000E6FB452001F0E3FB002001F0E0FBE82091
:1046200001F0E9FB002001F0DAFB002001F0D7FBEC
:10463000992001F0D4FB002001F0D1FB872001F08C
:10464000CEFB002001F0CBFB882001F0C8FB00204E
:1046500001F0C5FB772001F0C2FB002001F0BFFB99
:10466000662001F0BCFB002001F0B9FB882001F0BE
:10467000B6FB002001F0B3FBAA2001F0B0FB002044
:1046800001F0ADFBBB2001F0AAFB002001F0A7FB6D
:10469000992001F0A4FB002001F0A1FB662001F0AD
:1046A0009EFB002001F09BFB552001F098FB0020B1
:1046B00001F095FB552001F092FB002001F08FFBEB
:1046C000442001F08CFB002001F089FB442001F024
:1046D00086FB002001F083FB552001F080FB0020C9
:1046E00001F07DFBE92001F086FBAA2001F077FBB9
:1046F000002001F074FB002001F071FB002001F0AC
:104700006EFB002001F077FBAA2001F068FBCF20B0
:1047100001F071FB002001F062FB002001F05FFB63
:10472000002001F05CFB002001F059FB002001F0AB
:1047300056FB002001F053FB002001F050FB00204D
:1047400001F04DFB002001F04AFB002001F047FB87
:10475000002001F044FB002001F041FB002001F0AB
:104760003EFB002001F03BFB002001F038FB002065
:1047700001F035FB002001F032FBF02001F03BFBA3
:10478000002001F02CFB502001F029FB002001F05B
:1047900026FB002001F023FB002001F020FBF3208A
:1047A00001F029FB002001F01AFBF92001F023FBA6
:1047B000062001F014FB102001F011FB292001F06C
:1047C0000EFB002001F00BFB3A2001F014FB5520FA
:1047D00001F005FB112001F00EFB642002F05CFAF1
:1047E000292001F008FB352001F005FB002001F035
:1047F000F6FA512001F0FFFAFF2001F0F0FA532001
:1048000001F0F9FA2C2001F0EAFA552001F0F3FA50
:10481000822001F0E4FA2C20FDE3A0427ED14FF487
:1048200070435521184601F0FDFAAA214FF201000C
:1048300001F0F8FA52214FF2020001F0F3FA0821D8
:104840004FF2030001F0EEFA01214FF2040001F0F3
:10485000E9FA0D214FF4304001F0E4FA0D214BF25A
:10486000010001F0DFFA0D214BF2020001F0DAFA4B
:1048700034214FF4364001F0D5FA34214BF2016077
:1048800001F0D0FA34214BF2026001F0CBFA0D2195
:104890004FF4314001F0C6FA0D214BF2011001F046
:1048A000C1FA0D214BF2021001F0BCFA34214FF491
:1048B000374001F0B7FA34214BF2017001F0B2FA3F
:1048C00034214BF2027001F0ADFA00214FF4324076
:1048D00001F0A8FA00214BF2012001F0A3FA002117
:1048E0004BF2022001F09EFA24214FF4384001F0EF
:1048F00099FA24214BF6010001F094FA24214BF699
:10490000020001F08FFA01214FF43F4001F08AFAD2
:104910000F214FF4334001F085FA00E0FEE30F2150
:104920004BF2013001F07EFA0F214BF2023001F020
:1049300079FA34214FF4394001F074FA34214BF6FE
:10494000011001F06FFA34214BF6021001F06AFAFF
:1049500008214FF4354001F065FA08214BF201506F
:1049600001F060FA08214BF2025001F05BFA0321DA
:104970004FF4424001F056FA24214FF43A4001F03E
:1049800051FA24214BF6012001F04CFA24214BF678
:10499000022001F047FA00214FF43C4001F042FAB6
:1049A00078214BF6014001F03DFA00214BF6024020
:1049B00001F038FA00214FF43D4001F033FA78213C
:1049C0004BF6015001F02EFA00214BF6025001F097
:1049D00029FA00214FF43E4001F024FA64214BF6FD
:1049E000016001F01FFA00214FF4514001F01AFA62
:1049F00033214DF2011001F015FA00214DF20210A1
:104A000001F010FA34214DF2031001F00BFA0021ED
:104A10004DF2041001F006FA3A214DF2051001F0B2
:104A200001FA00214DF2061001F0FCF94A214DF285
:104A3000071001F0F7F900214DF2081001F0F2F92A
:104A40005C214DF2091001F0EDF900214DF20A1040
:104A500001F0E8F981214DF20B1001F0E3F900219A
:104A60004DF20C1001F0DEF9A6214DF20D1001F00F
:104A7000D9F900214DF20E1001F0D4F9E5214DF2E3
:104A80000F1001F0CFF901214DF2101001F0CAF919
:104A900013214DF2111001F0C5F901214DF2121050
:104AA00001F0C0F954214DF2131001F0BBF90121BE
:104AB0004DF2141001F0B6F982214DF2151001F0FB
:104AC000B1F901214DF2161001F0ACF9CA214DF2F5
:104AD000171001F0A7F902214DF2181001F0A2F908
:104AE00000214DF2191001F09DF902214DF21A102A
:104AF00001F098F901214DF21B1001F093F9022108
:104B00004DF21C1001F08EF934214DF21D1001F010
:104B100089F902214DF21E1001F084F967214DF24E
:104B20001F1001F07FF902214DF2201001F07AF9F7
:104B300084214DF2211001F075F902214DF222106D
:104B400001F070F9A4214DF2231001F06BF902215C
:104B50004DF2241001F066F9B7214DF2251001F055
:104B600061F902214DF2261001F05CF9CF214DF2DE
:104B7000271001F057F902214DF2281001F052F9E7
:104B8000DE214DF2291001F04DF902214DF22A10DB
:104B900001F048F9F2214DF22B1001F043F9022106
:104BA0004DF22C1001F03EF9FE214DF22D1001F0D6
:104BB00039F903214DF22E1001F034F910214DF294
:104BC0002F1001F02FF903214DF2301001F02AF9D6
:104BD00033214DF2311001F025F903214DF232104D
:104BE00001F020F96D214DF2331001F01BF9002185
:104BF0004FF4524001F016F933214DF2012001F03B
:104C000011F900214DF2022001F00CF934214DF28E
:104C1000032001F007F900214DF2042001F002F910
:104C20003A214DF2052001F0FDF800214DF2062059
:104C300001F0F8F84A214DF2072001F0F3F80021C5
:104C40004DF2082001F0EEF85C214DF2092001F050
:104C5000E9F800214DF20A2001F0E4F881214DF23B
:104C60000B2001F0DFF800214DF20C2001F0DAF802
:104C7000A6214DF20D2001F0D5F800214DF20E20B5
:104C800001F0D0F8E5214DF20F2001F0CBF8012121
:104C90004DF2102001F0C6F813214DF2112001F061
:104CA000C1F801214DF2122001F0BCF854214DF25F
:104CB000132001F0B7F801214DF2142001F0B2F8F1
:104CC00082214DF2152001F0ADF801214DF21620A0
:104CD00001F0A8F8CA214DF2172001F0A3F8022133
:104CE0004DF2182001F09EF800214DF2192001F03C
:104CF00099F802214DF21A2001F094F801214DF2A9
:104D00001B2001F08FF802214DF21C2001F08AF8DF
:104D100034214DF21D2001F085F802214DF21E20B4
:104D200001F080F867214DF21F2001F07BF802218D
:104D30004DF2202001F076F884214DF2212001F07F
:104D400071F802214DF2222001F06CF8A4214DF2FD
:104D5000232001F067F802214DF2242001F062F8CF
:104D6000B7214DF2252001F05DF802214DF22620F9
:104D700001F058F8CF214DF2272001F053F802211D
:104D80004DF2282001F04EF8DE214DF2292001F0ED
:104D900049F802214DF22A2001F044F8F2214DF2A7
:104DA0002B2001F03FF802214DF22C2001F03AF8BF
:104DB000FE214DF22D2001F035F803214DF22E2079
:104DC00001F030F810214DF22F2001F02BF80321D3
:104DD0004DF2302001F026F833214DF2312001F060
:104DE00021F803214DF2322001F01CF86D214DF223
:104DF000332001F017F800214FF4534001F012F86E
:104E000033214DF2013001F00DF800214DF2023056
:104E100001F008F834214DF2033001F003F80021CD
:104E20004DF2043000F0FEFF3A214DF2053000F063
:104E3000F9FF00214DF2063000F0F4FF4A214DF257
:104E4000073000F0EFFF00214DF2083000F0EAFFDC
:104E50005C214DF2093000F0E5FF00214DF20A30EF
:104E600000F0E0FF81214DF20B3000F0DBFF00216C
:104E70004DF20C3000F0D6FFA6214DF20D3000F0BF
:104E8000D1FF00214DF20E3000F0CCFFE5214DF2B4
:104E90000F3000F0C7FF01214DF2103000F0C2FFCB
:104EA00013214DF2113000F0BDFF01214DF21230FF
:104EB00000F0B8FF54214DF2133000F0B3FF012190
:104EC0004DF2143000F0AEFF82214DF2153000F0AB
:104ED000A9FF01214DF2163000F0A4FFCA214DF2C6
:104EE000173000F09FFF02214DF2183000F09AFFBA
:104EF00000214DF2193000F095FF02214DF21A30D9
:104F000000F090FF01214DF21B3000F08BFF0221D9
:104F10004DF21C3000F086FF34214DF21D3000F0C0
:104F200081FF02214DF21E3000F07CFF67214DF21F
:104F30001F3000F077FF02214DF2203000F072FFA9
:104F400084214DF2213000F06DFF02214DF222301C
:104F500000F068FFA4214DF2233000F063FF02212E
:104F60004DF2243000F05EFFB7214DF2253000F005
:104F700059FF02214DF2263000F054FFCF214DF2AF
:104F8000273000F04FFF02214DF2283000F04AFF99
:104F9000DE214DF2293000F045FF02214DF22A308A
:104FA00000F040FFF2214DF22B3000F03BFF0221D8
:104FB0004DF22C3000F036FFFE214DF22D3000F086
:104FC00031FF03214DF22E3000F02CFF10214DF265
:104FD0002F3000F027FF03214DF2303000F022FF88
:104FE00033214DF2313000F01DFF03214DF23230FC
:104FF00000F018FF6D214DF2333000F013FF002157
:105000004FF4544000F00EFF33214DF2014000F008
:1050100009FF002100E082E34DF2024000F002FFB0
:1050200034214DF2034000F0FDFE00214DF204401A
:1050300000F0F8FE3A214DF2054000F0F3FE0021A9
:105040004DF2064000F0EEFE4A214DF2074000F01E
:10505000E9FE00214DF2084000F0E4FE5C214DF233
:10506000094000F0DFFE00214DF20A4000F0DAFEB8
:1050700081214DF20B4000F0D5FE00214DF20C4095
:1050800000F0D0FEA6214DF20D4000F0CBFE002135
:105090004DF20E4000F0C6FEE5214DF20F4000F04B
:1050A000C1FE01214DF2104000F0BCFE13214DF273
:1050B000114000F0B7FE01214DF2124000F0B2FEA7
:1050C00054214DF2134000F0ADFE01214DF2144089
:1050D00000F0A8FE82214DF2154000F0A3FE012150
:1050E0004DF2164000F09EFECA214DF2174000F02E
:1050F00099FE02214DF2184000F094FE00214DF27D
:10510000194000F08FFE02214DF21A4000F08AFE95
:1051100001214DF21B4000F085FE00E002E3022178
:105120004DF21C4000F07EFE34214DF21D4000F097
:1051300079FE02214DF21E4000F074FE67214DF20F
:105140001F4000F06FFE02214DF2204000F06AFE89
:1051500084214DF2214000F065FE02214DF22240F3
:1051600000F060FEA4214DF2234000F05BFE02211E
:105170004DF2244000F056FEB7214DF2254000F0DC
:1051800051FE02214DF2264000F04CFECF214DF29F
:10519000274000F047FE02214DF2284000F042FE79
:1051A000DE214DF2294000F03DFE02214DF22A4061
:1051B00000F038FEF2214DF22B4000F033FE0221C8
:1051C0004DF22C4000F02EFEFE214DF22D4000F05D
:1051D00029FE03214DF22E4000F024FE10214DF255
:1051E0002F4000F01FFE03214DF2304000F01AFE68
:1051F00033214DF2314000F015FE03214DF23240D3
:1052000000F010FE6D214DF2334000F00BFE002146
:105210004FF4554000F006FE33214DF2015000F0EE
:1052200001FE00214DF2025000F0FCFD34214DF250
:10523000035000F0F7FD00214DF2045000F0F2FDA4
:105240003A214DF2055000F0EDFD00214DF20650DF
:1052500000F0E8FD4A214DF2075000F0E3FD002187
:105260004DF2085000F0DEFD5C214DF2095000F0D7
:10527000D9FD00214DF20A5000F0D4FD81214DF2FC
:105280000B5000F0CFFD00214DF20C5000F0CAFD94
:10529000A6214DF20D5000F0C5FD00214DF20E503B
:1052A00000F0C0FDE5214DF20F5000F0BBFD0121E3
:1052B0004DF2105000F0B6FD13214DF2115000F0E8
:1052C000B1FD01214DF2125000F0ACFD54214DF220
:1052D000135000F0A7FD01214DF2145000F0A2FD83
:1052E00082214DF2155000F09DFD01214DF2165026
:1052F00000F098FDCA214DF2175000F093FD0221F5
:105300004DF2185000F08EFD00214DF2195000F0C2
:1053100089FD02214DF21A5000F084FD01214DF269
:105320001B5000F07FFD02214DF21C5000F07AFD71
:1053300034214DF21D5000F075FD02214DF21E503A
:1053400000F070FD67214DF21F5000F06BFD02214F
:105350004DF2205000F066FD84214DF2215000F006
:1053600061FD02214DF2225000F05CFDA4214DF2BE
:10537000235000F057FD02214DF2245000F052FD61
:10538000B7214DF2255000F04DFD02214DF226507F
:1053900000F048FDCF214DF2275000F043FD0221DF
:1053A0004DF2285000F03EFDDE214DF2295000F074
:1053B00039FD02214DF22A5000F034FDF2214DF268
:1053C0002B5000F02FFD02214DF22C5000F02AFD51
:1053D000FE214DF22D5000F025FD03214DF22E50FF
:1053E00000F020FD10214DF22F5000F01BFD032195
:1053F0004DF2305000F016FD33214DF2315000F0E7
:1054000011FD03214DF2325000F00CFD6D214DF2E3
:10541000335000F007FD00214FF4564000F002FD2C
:1054200033214DF2016000F0FDFC00214DF20260DD
:1054300000F0F8FC34214DF2036000F0F3FC002191
:105440004DF2046000F0EEFC3A214DF2056000F0F0
:10545000E9FC00214DF2066000F0E4FC4A214DF227
:10546000076000F0DFFC00214DF2086000F0DAFC7C
:105470005C214DF2096000F0D5FC00214DF20A607C
:1054800000F0D0FC81214DF20B6000F0CBFC00213C
:105490004DF20C6000F0C6FCA6214DF20D6000F04C
:1054A000C1FC00214DF20E6000F0BCFCE5214DF284
:1054B0000F6000F0B7FC01214DF2106000F0B2FC6B
:1054C00013214DF2116000F0ADFC01214DF212608C
:1054D00000F0A8FC54214DF2136000F0A3FC012160
:1054E0004DF2146000F09EFC82214DF2156000F038
:1054F00099FC01214DF2166000F094FCCA214DF296
:10550000176000F08FFC02214DF2186000F08AFC59
:1055100000214DF2196000F085FC02214DF21A6065
:1055200000F080FC01214DF21B6000F07BFC0221A9
:105530004DF21C6000F076FC34214DF21D6000F04D
:1055400071FC02214DF21E6000F06CFC67214DF2EF
:105550001F6000F067FC02214DF2206000F062FC49
:1055600084214DF2216000F05DFC02214DF22260A9
:1055700000F058FCA4214DF2236000F053FC0221FE
:105580004DF2246000F04EFCB7214DF2256000F092
:1055900049FC02214DF2266000F044FCCF214DF27F
:1055A000276000F03FFC02214DF2286000F03AFC39
:1055B000DE214DF2296000F035FC02214DF22A6017
:1055C00000F030FCF2214DF22B6000F02BFC0221A8
:1055D0004DF22C6000F026FCFE214DF22D6000F013
:1055E00021FC03214DF22E6000F01CFC10214DF235
:1055F0002F6000F017FC03214DF2306000F012FC28
:1056000033214DF2316000F00DFC03214DF2326088
:1056100000F008FC6D214DF2336000F003FC5521D1
:10562000184600F0FFFBAA214FF2010000F0FAFB40
:1056300052214FF2020000F0F5FB08214FF2030067
:1056400000F0F0FB00214FF2040000F0EBFBCC2156
:105650004FF4314000F0E6FB00214BF2011000F066
:10566000E1FB05214FF4364000F0DCFB70214FF4E4
:10567000374000F0D7FB70214BF2017000F0D2FBF5
:1056800001214FF4384000F0CDFB03214BF601001F
:1056900000F0C8FB03214BF6020000F0C3FB03211E
:1056A0004BF6030000F0BEFB02214FF43C4000F03B
:1056B000B9FB00214BF6014000F0B4FB00214BF692
:1056C000024000F0AFFBD0214FF4494000F0AAFBAC
:1056D00002214CF6011000F0A5FB50214CF60210FF
:1056E00000F0A0FB50214CF6031000F09BFB502172
:1056F0004CF6041000F096FB00214FF4545000F0DB
:1057000091FB55214FF4685000F08CFB4FF488500A
:1057100000F071FB782001F0CDFA4FF4245000F036
:105720006AFBB9E0B842FCD1E22000F064FB1D2026
:1057300000F055FB022000F052FB042000F04FFB6C
:10574000642001F0B7FAE02000F055FB012000F0E2
:1057500046FB0A2001F0A0FAE02000F04CFB0320F9
:1057600000F03DFB0C2001F097FA012000F043FB14
:105770000A2001F091FAE62000F03DFB2F2000F016
:105780002EFBFF2000F02BFBFF2000F028FBB020B9
:1057900000F031FB202000F022FB002000F01FFB76
:1057A000032000F01CFB40F21F3000F018FB01202A
:1057B00000F015FB40F2DF1000F011FB002000F0BC
:1057C0000EFBB42000F017FB042000F008FB40F2B1
:1057D0001F4000F004FB002000F001FB2E2000F031
:1057E000FEFA002000F0FBFA002000F0F8FA00209A
:1057F00000F0F5FA002000F0F2FAB62000F0FBFA13
:10580000022000F0ECFA4FF4037000F0E8FA0020F8
:1058100000F0E5FA172000F0E2FA152000F0DFFAB8
:10582000002000F0DCFA002000F0D9FAF02000F0AF
:10583000E2FA032000F0D3FA292000F0DCFAD020AD
:1058400000F0D9FA002000F0CAFABE2000F0D3FA26
:10585000052000F0C4FAFE2000F0C1FA012000F09B
:10586000BEFA002000F0BBFA002000F0B8FA0020D9
:1058700000F0B5FAB82000F0BEFA032000F0AFFA4D
:10588000012000F0ACFABA2000F0B5FA012000F0D7
:10589000A6FA642000F042F8BAF80400404505D0AA
:1058A000B04203D0A04201D0B84217D1D5F81C01B4
:1058B00020F00F00C5F81C01D5F81C0120F4706021
:1058C000C5F81C01D5F81C0140F00300C5F81C0107
:1058D000D5F81C0140F40070C5F81C010020FDF74C
:1058E00037FD0449C1F8BC925846FDF717FD15B0C5
:1058F000BDE8F08F008040420346012000E058439D
:10590000491EC9B2FBD2704708B54FF0D840B0F875
:105910008000ADF80000BDF8000008BD10B50246DB
:10592000BE2000F068FA052000F059FA10460EF08B
:10593000C6FC9FED0C1B53EC112B0EF0D3FC0EF0AC
:1059400091FC80B200F04BFA012000F048FAFF20F1
:1059500000F045FA002000F042FABDE810400020B7
:1059600000F03DBA6666666666660440F0B56C4D4A
:1059700000232946AA79898841F66314012A01D0B7
:105980001AB11BE0A14202D118E0A14216D10828A9
:1059900014D2DFE800F00406080A0C0E10120620EC
:1059A0000CE007200AE0042008E0052006E00120C2
:1059B00004E0002002E0032000E00220A1F51347EC
:1059C00045F2103245F21056413F05D0914203D0C6
:1059D000B14201D0A14277D1082812D2DFE800F00D
:1059E000110406080A0C0E1080230AE0402308E088
:1059F000C02306E0202304E0602302E0A02300E0AF
:105A0000E023B14202D14FF4585000E036209142D9
:105A100005D0B14203D0A14201D043F0080319469A
:105A200000F000FAAA88A2420AD09806288869885D
:105A300002D5884202D303E0884201D929806880D8
:105A40006889B24241D100F0D6F9002000F0C7F9D0
:105A50006889401C80B200F0CEF9002000F0BFF948
:105A60006889801C80B200F0C6F92888401EC0F307
:105A70000F2000F0B4F96889C01C80B200F0BBF9B7
:105A80002878401EC0B200F0AAF9A88900F0B3F946
:105A9000002000F0A4F9A889401C80B200F0ABF906
:105AA000002000F09CF9A889801C80B200F0A3F9C6
:105AB0006888401EC0F30F2000F091F9A889C01C2F
:105AC00080B200F098F922E028E000F094F900207C
:105AD00000F085F9002000F082F92888401EC0F30C
