:020000040800F2
:1000000038C6072449030008D1360008CD36000859
:10001000C9410090D3050008293E000800000000F7
:10002000000000000000000000000000653D000826
:10003000D705000800000000D3360008673D00081F
:1000400063030008630300086303000863030008F8
:1000500063030008630300086303000863030008E8
:1000600063030008630300086303000863030008D8
:1000700063030008630300086303000863030008C8
:1000800063030008630300086303000863030008B8
:1000900063030008630300086303000863030008A8
:1000A0006303000863030008630300086303000898
:1000B0006303000863030008630300086303000888
:1000C0006303000863030008630300086303000878
:1000D00063030008193E0008630300086303000877
:1000E00063030008630300080000000063030008C6
:1000F0006303000863030008630300086303000848
:100100006303000863030008630300086303000837
:100110006303000863030008630300086303000827
:100120006303000863030008630300086303000817
:100130006303000863030008630300086303000807
:1001400000000000000000000000000000000000AF
:1001500063030008630300086303000863030008E7
:1001600063030008630300086303000863030008D7
:1001700063030008630300086303000863030008C7
:1001800063030008630300086303000863030008B7
:1001900063030008630300086303000863030008A7
:1001A0006303000863030008630300086303000897
:1001B0006303000863030008630300086303000887
:1001C0006303000863030008630300086303000877
:1001D0006303000863030008630300086303000867
:1001E0006303000863030008630300086303000857
:1001F0006303000863030008630300086303000847
:100200006303000863030008630300086303000836
:100210006303000863030008630300086303000826
:100220006303000863030008630300080000000084
:100230006303000863030008000000006303000874
:1002400063030008630300086303000863030008F6
:1002500063030008630300086303000863030008E6
:1002600063030008630300086303000863030008D6
:100270006303000863030008630300080000000034
:100280006303000863030008630300080000000024
:10029000000000006303000800F002F800F044F8DA
:1002A0000AA090E8000C82448344AAF10107DA45D1
:1002B00001D100F039F8AFF2090EBAE80F0013F0DF
:1002C000010F18BFFB1A43F001031847584B0000F9
:1002D000784B0000103A24BF78C878C1FAD852078A
:1002E00024BF30C830C144BF04680C6070470000B0
:1002F0000023002400250026103A28BF78C1FBD82F
:10030000520728BF30C148BF0B6070471FB504F0CB
:100310007BFD00F0B5F804000020002104F05EFD34
:10032000E0601FBD10B510BD00F0B2F81146FFF738
:10033000EDFF03F045FE00F0D0F803B4FFF7F2FF45
:1003400003BC03F08FFD00000948804709480047BF
:10035000FEE7FEE7FEE7FEE7FEE7FEE7FEE7FEE775
:10036000FEE7FEE704480549054A064B70470000D2
:10037000713D00089902000838BC072438C60724DC
:1003800038BE072438BE0724704753EA020C00F039
:1003900069802DE9F04B4FF00006002B1FBFB3FA28
:1003A00083F503FA05F424FA05F65E4012BF1643FE
:1003B000B2FA82F502FA05F4C5F120051EBF22FA51
:1003C00005FC44EA0C04203556EA044C4FEA144478
:1003D00018BF641C4FF000084FF00009904271EB09
:1003E000030C39D3002919BFB1FA81F701FA07F6D6
:1003F000B0FA80F700FA07F6C7F120071EBF20FA0F
:1004000007FC46EA0C062037B6FBF4FCA7EB050711
:10041000103F07F01F0BCBF120060CFA0BFB2CFA58
:1004200006F644BFB3460026202FA4BF5E464FF019
:10043000000B5BEA060C08BF4FF0010B19EB0B0930
:10044000ABFB027C48EB0608C01B06FB02CC0BFB97
:1004500003CC71EB0C01C1E70B460246414648460E
:10046000BDE8F08B13B54FF000004FF00001AFF383
:100470000080BDE81C407047704770477047704768
:1004800000487047F4BB072400487047D4BB0724DA
:100490007546FFF7F9FFAE4605006946534620F062
:1004A0000700854618B020B5FFF75CFFBDE8204087
:1004B0004FF000064FF000074FF000084FF0000B20
:1004C00021F00701AC46ACE8C009ACE8C009ACE8D3
:1004D000C009ACE8C0098D46704710B50446AFF3BB
:1004E00000802046BDE81040FFF727BF44F2890C8A
:1004F000C9F2000C604743F6056CC9F2000C604776
:100500004BF2354CC9F2000C60474CF20D6CC9F24D
:10051000000C60474CF23D0CC9F2000C60474BF2F6
:10052000E54CC9F2000C604748F2C96CC9F2000CF6
:1005300060474CF2917CC9F2000C604747F6751C8D
:10054000C9F2000C604747F6B91CC9F2000C6047BD
:1005500040F2590CC9F2000C60474BF6A56CC9F289
:10056000000C60474BF2E13CC9F2000C604747F6D3
:10057000852CC9F2000C60474CF6354CC9F2000CD2
:10058000604748F6613CC9F2000C604748F2717C54
:10059000C9F2000C60474CF6FD4CC9F2000C6047F4
:1005A00048F6110CC9F2000C604741F6DD3CC9F277
:1005B000000C604741F6F10CC9F2000C604744F2B0
:1005C000110CC9F2000C604742F2110CC9F2000C88
:1005D000604700BFFEE7704770B504460CB90120C4
:1005E00070BD94F83500022803D08020606501209A
:1005F000F6E7DC492068884249D0DA49183120689A
:10060000884244D0D7493031206888423FD0D5490C
:100610004831206888423AD0D24960312068884207
:1006200035D0D04978312068884230D0CD499031DA
:10063000206888422BD0CB49A8312068884226D038
:10064000C9492068884222D0C749183120688842A9
:100650001DD0C54930312068884218D0C249483180
:100660002068884213D0C0496031206888420ED08B
:10067000BD4978312068884209D0BB499031206853
:10068000884204D0B849A8312068884201D10120AD
:1006900000E00020F0B3042084F83500B149206860
:1006A00088424BD0AF4918312068884246D0AD49C6
:1006B00030312068884241D0AA49483120688842B8
:1006C0003CD0A84960312068884237D0A5497831AC
:1006D0002068884232D0A3499031206888422DD0CA
:1006E000A049A8312068884228D09F4920688842C4
:1006F00024D09D491831206888421FD09A49303152
:10070000206888421AD0984948312068884215D01C
:10071000954900E020E06031206888420ED092497F
:1007200078312068884209D08F499031206888420A
:1007300004D08D49A8312068884206D1206800681D
:1007400020F001002168086009E12068006820F0BD
:1007500001002168086002E12068006820F00E00B6
:10076000216808607F492068884249D07D49183156
:100770002068884244D07B493031206888423FD08D
:1007800078494831206888423AD0764960312068FB
:10079000884235D0734978312068884230D0714919
:1007A0009031206888422BD06E49A8312068884259
:1007B00026D06D492068884222D06B4918312068C4
:1007C00088421DD0684930312068884218D0664977
:1007D00048312068884213D06349603120688842DC
:1007E0000ED0614978312068884209D05E49903145
:1007F0002068884204D05C49A8312068884206D12C
:100800002068006820F001002168086005E0206889
:10081000006820F001002168086052492068884281
:1008200070D050491831206888426BD04D49303122
:100830002068884266D04B4948312068884261D0A0
:1008400048496031206888425CD046497831206848
:10085000884257D0434990312068884252D041495C
:10086000A831206888424DD03F492068884249D04D
:100870003D4918312068884244D03B4930312068D6
:1008800088423FD038494831206888423AD03649BA
:1008900060312068884235D03349783120688842F9
:1008A00030D031499031206888422BD02E49A83170
:1008B0002068884226D02D492068884222D02B49C2
:1008C0001431206888421DD0284928312068884288
:1008D00018D026493C312068884213D02349503132
:1008E000206888420ED0214964312068884209D0AE
:1008F0001E4978312068884204D01C498C31206818
:10090000884201D1012000E00020D8B1206E0068AB
:1009100020F48070216E0860A56D94F85C0000F0F2
:100920001F01012088406860D4E919104860E06E1A
:1009300040B1E06E006820F48070E16E0860D4E998
:100940001C10486000BF002084F8340000BF012064
:1009500084F83500206D10B12046216D88470020B5
:100960003EE6000010000240100402400854025805
:1009700010B50446A0B203F07DFA10BD034800682C
:1009800040F0010001490860704700002004005851
:10099000F8B502460023734DDEE001279F400E6844
:1009A00006EA0704002C71D04E68022E02D04E6871
:1009B000122E13D1DF0802F1200656F827005E0739
:1009C000F70E0F26BE40B0435F07FF0E0E69BE4014
:1009D0003043DF0802F1200646F8270010685F0068
:1009E0000326BE40B0430E7906F003065F00BE400A
:1009F000304310604E68012E08D04E68022E05D09C
:100A00004E68112E02D04E68122E13D190685F00EE
:100A10000326BE40B0435F00CE68BE4030439060C6
:100A2000506801269E40B0430E79C6F300169E40E2
:100A300030435060D0685F000326BE40B0435F0083
:100A40008E68BE403043D0604E6806F08056B6F1E6
:100A5000805F1BD100BF444E366846F00206424F0D
:100A60003E603E46366806F00206009600BF00BFB4
:100A70003E4E9F0856F827009E07370F0F26BE40B0
:100A8000B0433B4EB24202D100262EE063E0394E25
:100A9000B24201D1012628E0374EB24201D10226EE
:100AA00023E0364EB24201D103261EE0344EB2425C
:100AB00001D1042619E0334EB24201D1052614E0DB
:100AC000314EB24201D106260FE0304EB24201D182
:100AD00007260AE02E4EB24201D1082605E02D4E2F
:100AE000B24201D1092600E00A269F073F0FBE400F
:100AF00030431E4E9F0846F827002868A0434E68E2
:100B000006F48036B6F5803F00D12043286068683F
:100B1000A0434E6806F40036B6F5003F00D12043EE
:100B200068604FF0B0463068A0434E6806F4801607
:100B3000B6F5801F00D120434FF0B046306070689A
:100B4000A0434E6806F40016B6F5001F00D12043FE
:100B50004FF0B04670605B1C0E68DE40002E7FF4E4
:100B60001CAFF8BD80000058F44402580804005837
:100B7000000002580004025800080258000C0258F5
:100B8000001002580014025800180258001C0258A5
:100B90000020025800240258024613690B400BB192
:100BA000012000E00020704742690A408A4202D1D9
:100BB0000A04826100E0816170470AB1816101E04D
:100BC0000B0483617047000001480068000C704707
:100BD0000010005C01480068704700001400002409
:100BE00003480068034909780844014908607047D0
:100BF000140000241C00002410B5052000F00AF9A0
:100C000001F0C6FF10490968C1F303210F4A515C86
:100C100001F01F01C8400E4908600B48006800F051
:100C20000F001146085C00F01F0109480068C84029
:100C3000084908600F2000F00FF808B1012010BD2E
:100C400000F09AF80020FAE718440258124E000803
:100C5000000000240400002470B504461148007808
:100C600008B9012070BD0F4800784FF47A71B1FBCC
:100C7000F0F00D490968B1FBF0F5284602F05EFC82
:100C800008B10120EEE7102C07D200222146501EA9
:100C900000F083F80548046001E00120E2E700204D
:100CA000E0E700001C0000240000002418000024DD
:100CB0004178154A11600178F9B1121D416811603F
:100CC000017B0907C27A41EA0261827A41EAC241A4
:100CD000427B41EA8241827B41EA4241C27B41EA56
:100CE0000241427A41EA0221027A41EA4201027853
:100CF0001143054A0832116005E00021024A121D25
:100D00001160121D1160704798ED00E000BF00BF38
:100D100000BFBFF35F8F00BF00BF00BF0548006882
:100D200020F48030034908600020024970310860D7
:100D30007047000024ED00E040F001010D4A116011
:100D40000C497039096841F480310A4A703A1160DF
:100D500000BF00BF00BFBFF34F8F00BF00BF00BF89
:100D600000BF00BF00BFBFF36F8F00BF00BF00BF59
:100D70007047000094ED00E07047014608460028E7
:100D800009DB00F01F0301229A4043099B0003F195
:100D9000E023C3F8002100BF70472DE9F05F8046D3
:100DA0000D46164603F042F8074639462A463346B2
:100DB00001F00700C0F1070ABAF1040F02D94FF0A1
:100DC000040A01E0C0F1070AD14600F1040ABAF1B1
:100DD000070F02D24FF0000A01E0A0F1030AD44647
:100DE0004FF0010A0AFA09FAAAF1010A0AEA020A0C
:100DF0000AFA0CFA4FF0010B0BFA0CFBABF1010BEA
:100E00000BEA030B4AEA0B042146404603F016F8AE
:100E1000BDE8F09F00BF00F00702064B19684FF6CF
:100E2000FF031940044B0B4343EA0221014B1960B5
:100E300000BF70470CED00E00000FA0503480068B1
:100E400040F0807001490860704700000C4802586B
:100E50002DE9F84304460D461746FFF7BBFE8046D2
:100E6000A86900B100BFE86900B100BF286A00B1FD
:100E700000BF00BF94F84000012802D10220BDE865
:100E8000F883012084F8400000BF94F84100012855
:100E900028D100206064022084F8410043460022EB
:100EA00020212046009702F009FD0646DEB9002207
:100EB0002946204602F00EFC686A78B943460122B2
:100EC00002212046009702F0F9FC06465EB9022096
:100ED0002168C860012084F8410004E0012084F802
:100EE000410000E0022600BF002084F8400000BF5F
:100EF0003046C4E7F8B50446FFF76CFE06460CB969
:100F00000120F8BD206A402800D000BF00BF94F83F
:100F10004000012801D10220F3E7012084F84000BD
:100F200000BF94F8410050B9002084F840002046EA
:100F300000F04CF841F28831204600F035F9206885
:100F4000006820F47061A068401E41EA002021681A
:100F50000860A06C3346002220210090204602F059
:100F6000ADFC054635BB2179E06840EA0160E169E6
:100F70000843216A084321680968124A114008435E
:100F800021680860208A616941EA0040A16908433C
:100F9000216849680C4A114008432168486020686C
:100FA000006840F0010021680860002060640120B2
:100FB00084F8410000BF002084F8400000BF2846AC
:100FC0009FE700002FFFFF00FEF8E0FF10B586B09E
:100FD000044600BF3748006840F480403549086047
:100FE0000846006800F48040009000BF00BF00BFCA
:100FF00030480C30006840F002002E490C31086087
:101000000846006800F00200009000BF00BF00BF6B
:101010000846006840F0080008600846006800F0D4
:101020000800009000BF00BF00BF0846006840F005
:10103000100008600846006800F01000009000BF33
:1010400000BF402001900220029001200390032065
:1010500004900A20059001A91748FFF799FC042085
:1010600001900220029001200390032004900920A7
:10107000059001A91048FFF78BFC4FF40060019028
:1010800001A90E48FFF784FC4FF48050019001A99C
:101090000A48FFF77DFC4FF40050019001A9074872
:1010A000FFF776FC0420019001A90548FFF770FCCA
:1010B00006B010BDD444025800040258000C025877
:1010C000001002582DE9F84F04460E461746002539
:1010D000FFF780FD80462068D0F81890206800F166
:1010E000200A00BF94F84000012802D10220BDE888
:1010F000F88F012084F8400000BF94F841000128D7
:101100004AD100206064002E40D0222084F84100A3
:1011100020680069401CA06320680069401C60636F
:1011200026632068406920F0406040F080602168BC
:1011300048612068C0F8189013E043460122062158
:101140002046009702F0BAFB054605B10CE09AF87C
:101150000000216B0870206B401C2063A06B401EB8
:10116000A063A06B0028E8D100BF5DB9434601220F
:1011700002212046009702F0A1FB054615B9022086
:101180002168C860012084F8410006E0606C40F0EE
:1011900008006064012500E0022500BF002084F8FB
:1011A000400000BF2846A2E7816470472DE9F8435C
:1011B00004460E4617460025FFF70CFD80462068C2
:1011C00000F1200900BF94F84000012802D102205C
:1011D000BDE8F883012084F8400000BF94F8410086
:1011E000012845D100206064002E3BD0122084F8F5
:1011F000410020680069401CE06220680069401CD2
:10120000A06266622068406920F040602168486101
:1012100013E04346012204212046009702F04EFBD2
:10122000054605B10CE0606A007889F80000606A44
:10123000401C6062E06A401EE062E06A0028E8D17B
:1012400000BF5DB94346012202212046009702F00B
:1012500035FB054615B902202168C860012084F8D5
:10126000410006E0606C40F008006064012500E089
:10127000022500BF002084F8400000BF2846A7E7F1
:1012800010B501F085FC07490968C1F30321064A3E
:10129000515C01F01F01C84004490860084600681D
:1012A00010BD000018440258124E0008000000242F
:1012B00010B501F031FC05490968C1F30211044A77
:1012C000515C01F01F01C84010BD000020440258CD
:1012D000124E000870B50146844D2D6805F00303D9
:1012E000824D2D68C5F30510804D2D1D2D6805F02C
:1012F00001047E4D0C352D68C5F3CC0515FB04F5B6
:1013000001EE105AB8EE411AF0EE410A00286FD0F3
:1013100023B1012B4ED0022B6BD16BE0734D283DD6
:101320002D68C5F340153DB3704D283D2D68C5F3BC
:10133000C1066F4D25FA06F201EE102AF8EE411AA9
:1013400001EE100AB8EE411A81EE812A9FED691A6A
:10135000C0EE811A654D08352D68C5F3080501EE0C
:10136000105AB8EE411A31EE811AF7EE001A31EE3A
:10137000211A22EE010A1CE001EE100AB8EE411A11
:10138000DFED5D1A81EE812A9FED5A1AC0EE811AB7
:10139000564D08352D68C5F3080501EE105AB8EE14
:1013A000411A31EE811AF7EE001A31EE211A22EEBF
:1013B000010A5BE001EE100AB8EE411ADFED4F1AA8
:1013C00081EE812A9FED4B1AC0EE811A474D0835F8
:1013D0002D68C5F3080501EE105AB8EE411A31EE3A
:1013E000811AF7EE001A31EE211A22EE010A3DE0D1
:1013F00077E01DE001EE100AB8EE411A9FED402A99
:10140000C2EE011A9FED3B1A80EE812A374D083556
:101410002D68C5F3080501EE105AB8EE411A32EEF8
:10142000011AB7EE002A31EE021A21EE810A1DE000
:1014300001EE100AB8EE411ADFED301A81EE812A72
:101440009FED2C1AC0EE811A284D08352D68C5F382
:10145000080501EE105AB8EE411A31EE811AF7EE86
:10146000001A31EE211A22EE010A00BF00BF1F4D03
:1014700008352D68C5F3462501EE105AB8EE411A1D
:10148000F7EE001A31EE211AC0EE011ABCEEE11A95
:1014900081ED001A154D08352D68C5F3064501EE9E
:1014A000105AB8EE411AF7EE001A31EE211AC0EECA
:1014B000011ABCEEE11A81ED011A0C4D08352D68B8
:1014C000C5F3066501EE105AB8EE411AF7EE001AA0
:1014D00031EE211AC0EE011ABCEEE11A81ED021ABA
:1014E00003E000250D604D608D6070BD28440258FA
:1014F0000090D003000000460024744C0024744A7D
:101500000024F44A70B50146844D2D6805F00303AC
:10151000824D2D68C5F30530804D2D1D2D68C5F316
:1015200000147E4D14352D68C5F3CC0515FB04F56C
:1015300001EE105AB8EE411AF0EE410A00286FD0C1
:1015400023B1012B4ED0022B6BD16BE0734D283DA4
:101550002D68C5F340153DB3704D283D2D68C5F38A
:10156000C1066F4D25FA06F201EE102AF8EE411A77
:1015700001EE100AB8EE411A81EE812A9FED691A38
:10158000C0EE811A654D10352D68C5F3080501EED2
:10159000105AB8EE411A31EE811AF7EE001A31EE08
:1015A000211A22EE010A1CE001EE100AB8EE411ADF
:1015B000DFED5D1A81EE812A9FED5A1AC0EE811A85
:1015C000564D10352D68C5F3080501EE105AB8EEDA
:1015D000411A31EE811AF7EE001A31EE211A22EE8D
:1015E000010A5BE001EE100AB8EE411ADFED4F1A76
:1015F00081EE812A9FED4B1AC0EE811A474D1035BE
:101600002D68C5F3080501EE105AB8EE411A31EE07
:10161000811AF7EE001A31EE211A22EE010A3DE09E
:1016200077E01DE001EE100AB8EE411A9FED402A66
:10163000C2EE011A9FED3B1A80EE812A374D10351C
:101640002D68C5F3080501EE105AB8EE411A32EEC6
:10165000011AB7EE002A31EE021A21EE810A1DE0CE
:1016600001EE100AB8EE411ADFED301A81EE812A40
:101670009FED2C1AC0EE811A284D10352D68C5F348
:10168000080501EE105AB8EE411A31EE811AF7EE54
:10169000001A31EE211A22EE010A00BF00BF1F4DD1
:1016A00010352D68C5F3462501EE105AB8EE411AE3
:1016B000F7EE001A31EE211AC0EE011ABCEEE11A63
:1016C00081ED001A154D10352D68C5F3064501EE64
:1016D000105AB8EE411AF7EE001A31EE211AC0EE98
:1016E000011ABCEEE11A81ED011A0C4D10352D687E
:1016F000C5F3066501EE105AB8EE411AF7EE001A6E
:1017000031EE211AC0EE011ABCEEE11A81ED021A87
:1017100003E000250D604D608D6070BD28440258C7
:101720000090D003000000460024744C0024744A4A
:101730000024F44A70B50146844D2D6805F003037A
:10174000824D2D68C5F30550804D2D1D2D68C5F3C4
:1017500000247E4D1C352D68C5F3CC0515FB04F522
:1017600001EE105AB8EE411AF0EE410A00286FD08F
:1017700023B1012B4ED0022B6BD16BE0734D283D72
:101780002D68C5F340153DB3704D283D2D68C5F358
:10179000C1066F4D25FA06F201EE102AF8EE411A45
:1017A00001EE100AB8EE411A81EE812A9FED691A06
:1017B000C0EE811A654D18352D68C5F3080501EE98
:1017C000105AB8EE411A31EE811AF7EE001A31EED6
:1017D000211A22EE010A1CE001EE100AB8EE411AAD
:1017E000DFED5D1A81EE812A9FED5A1AC0EE811A53
:1017F000564D18352D68C5F3080501EE105AB8EEA0
:10180000411A31EE811AF7EE001A31EE211A22EE5A
:10181000010A5BE001EE100AB8EE411ADFED4F1A43
:1018200081EE812A9FED4B1AC0EE811A474D183583
:101830002D68C5F3080501EE105AB8EE411A31EED5
:10184000811AF7EE001A31EE211A22EE010A3DE06C
:1018500077E01DE001EE100AB8EE411A9FED402A34
:10186000C2EE011A9FED3B1A80EE812A374D1835E2
:101870002D68C5F3080501EE105AB8EE411A32EE94
:10188000011AB7EE002A31EE021A21EE810A1DE09C
:1018900001EE100AB8EE411ADFED301A81EE812A0E
:1018A0009FED2C1AC0EE811A284D18352D68C5F30E
:1018B000080501EE105AB8EE411A31EE811AF7EE22
:1018C000001A31EE211A22EE010A00BF00BF1F4D9F
:1018D00018352D68C5F3462501EE105AB8EE411AA9
:1018E000F7EE001A31EE211AC0EE011ABCEEE11A31
:1018F00081ED001A154D18352D68C5F3064501EE2A
:10190000105AB8EE411AF7EE001A31EE211AC0EE65
:10191000011ABCEEE11A81ED011A0C4D18352D6843
:10192000C5F3066501EE105AB8EE411AF7EE001A3B
:1019300031EE211AC0EE011ABCEEE11A81ED021A55
:1019400003E000250D604D608D6070BD2844025895
:101950000090D003000000460024744C0024744A18
:101960000024F44A2DE9F0418AB00646B6F5807F9E
:1019700032D1DC48006800F00707052F29D2DFE8E4
:1019800007F003080D26120007A8FFF7A3FC089C28
:1019900021E004A8FFF7B6FD049C1CE001A8FFF7B6
:1019A000C9FE019C17E0CF48001F006800F04055B9
:1019B0000DB9CD4C0AE0B5F1805F01D1CB4C05E00B
:1019C000B5F1005F01D1CA4C00E0002403E0C94C2E
:1019D00001E0002400BF80E1B6F5007F38D1C148A6
:1019E000006800F4E077802F14D003DC47B1402F6B
:1019F0002BD10AE0C02F26D0B7F5807F25D10EE08D
:101A000007A8FFF767FC089C21E004A8FFF77AFD10
:101A1000049C1CE001A8FFF78DFE019C17E0B14873
:101A2000001F006800F040550DB9AF4C0AE0B5F159
:101A3000805F01D1AD4C05E0B5F1005F01D1AC4C48
:101A400000E0002403E0AB4C01E0002400BF44E1CF
:101A5000B6F5806F3CD1A3480830006800F46007F9
:101A6000B7F5800F16D004DC57B1B7F5001F2CD1A5
:101A70000BE0B7F5C00F26D0B7F5000F25D10EE06B
:101A800007A8FFF727FC089C21E004A8FFF73AFD10
:101A9000049C1CE001A8FFF74DFE019C17E0914853
:101AA000001F006800F040550DB98F4C0AE0B5F1F9
:101AB000805F01D18D4C05E0B5F1005F01D18C4C08
:101AC00000E0002403E08B4C01E0002400BF04E1AF
:101AD000B6F5006F3CD183480830006800F0E0673D
:101AE000B7F1007F16D004DC57B1B7F1807F2CD15D
:101AF0000BE0B7F1407F26D0B7F1806F25D10EE023
:101B000007A8FFF7E7FB089C21E004A8FFF7FAFC11
:101B1000049C1CE001A8FFF70DFE019C17E0714832
:101B2000001F006800F040550DB96F4C0AE0B5F198
:101B3000805F01D16D4C05E0B5F1005F01D16C4CC7
:101B400000E0002403E06B4C01E0002400BFC4E08F
:101B5000B6F5805F3DD16348006800F4E048B8F511
:101B6000005F18D006DCB8F1000F0AD0B8F5805F2E
:101B70002CD10BE0B8F5405F26D0B8F5804F25D1C9
:101B80000EE007A8FFF7A6FB089C21E004A8FFF7DA
:101B9000B9FC049C1CE001A8FFF7CCFD019C17E0F8
:101BA0005048001F006800F040550DB94E4C0AE047
:101BB000B5F1805F01D14D4C05E0B5F1005F01D179
:101BC0004B4C00E0002403E04A4C01E0002400BF3D
:101BD00083E0B6F5002F2FD142480830006800F4AA
:101BE0004038B8F1000F06D0B8F5803F08D0B8F5FE
:101BF000003F1ED109E004A8FFF784FC049C1AE012
:101C000001A8FFF797FD039C15E03648001F006808
:101C100000F040550DB9344C0AE0B5F1805F01D1B8
:101C2000324C05E0B5F1005F01D1314C00E00024F9
:101C300001E0002400BF50E0B6F5803F18D12948EC
:101C4000001F006800F48038B8F1000F03D0B8F529
:101C5000803F0AD104E007A8FFF73CFB089C06E0A0
:101C600004A8FFF74FFC069C01E0002400BF34E00D
:101C7000B6F5804F30D11B480830006800F0E048CE
:101C8000B8F1405F1FD009DCB8F1000F0DD0B8F1FA
:101C9000805F0ED0B8F1005F1BD10FE0B8F1804F2C
:101CA00013D0B8F1A04F14D111E0FFF701FB0446A7
:101CB00011E004A8FFF726FC059C0CE001A8FFF743
:101CC00039FD029C07E0084C05E0084C03E0084C95
:101CD00001E0002400BF00E0002420460AB0BDE877
:101CE000F0810000504402580090D00300093D00EC
:101CF00000127A000080BB002DE9F0410446002567
:101D0000A846206800F00060B0F1006F30D1606E2E
:101D100048B1B0F5801F0DD0B0F5001F10D0B0F560
:101D2000401F15D113E0F948006840F40030F7492E
:101D300008600FE00221201D01F0E6FD054609E0E4
:101D4000022104F1240001F091FE054602E001E0C9
:101D5000012500BF00BF55B9EC482430006820F4CD
:101D60004010616E0843E9492431086000E0A8464C
:101D7000208800F48070B0F5807F2DD1606D05283B
:101D80001AD2DFE800F0030A10171800DF480068D5
:101D900040F40030DD49086010E00021201D01F012
:101DA000B3FD05460AE0002104F1240001F05EFEC7
:101DB000054603E002E001E0012500BF00BF55B980
:101DC000D2482430006820F00700616D0843CF49F5
:101DD0002431086000E0A846208800F40070B0F5C7
:101DE000007F33D1A06D802817D003DC40B140289C
:101DF0001CD10CE0C02817D0B0F5807F16D114E0BC
:101E0000C248006840F40030C049086010E000217A
:101E1000201D01F079FD05460AE0002104F12400AF
:101E200001F024FE054603E002E001E0012500BFC9
:101E300000BF55B9B5482430006820F4E070A16DAA
:101E40000843B2492431086000E0A846208800F425
:101E50008060B0F5806F38D1D4F8A400B0F5800F61
:101E600019D004DC50B1B0F5001F1DD10DE0B0F564
:101E7000C00F17D0B0F5000F16D114E0A3480068CA
:101E800040F40030A149086010E00021201D01F05D
:101E90003BFD05460AE0002104F1240001F0E6FDC7
:101EA000054603E002E001E0012500BF00BF5DB987
:101EB00096482C30006820F46000D4F8A410084341
:101EC00092492C31086000E0A846208800F40060A8
:101ED000B0F5006F38D1D4F8A800B0F1007F19D068
:101EE00004DC50B1B0F1807F1DD10DE0B0F1407F36
:101EF00017D0B0F1806F16D114E08448006840F428
:101F000000308249086010E00021201D01F0FCFC37
:101F100005460AE0002104F1240001F0A7FD054672
:101F200003E002E001E0012500BF00BF5DB9774892
:101F30002C30006820F0E060D4F8A8100843734902
:101F40002C31086000E0A846206800F00070B0F175
:101F5000007F27D1A06CA0B1102804D0202809D080
:101F600030280FD10CE06948006840F40030674920
:101F7000086009E00221201D01F0C6FC054603E0CF
:101F800002E001E0012500BF00BF55B95F482030E5
:101F9000006820F03000A16C08435C4920310860E3
:101FA00000E0A846208800F48050B0F5805F36D16C
:101FB000E06DB0F5005F19D004DC50B1B0F5805F82
:101FC0001DD10DE0B0F5405F17D0B0F5804F16D1B0
:101FD00014E04E48006840F400304C49086010E0BE
:101FE0000021201D01F090FC05460AE0002104F1CB
:101FF000240001F03BFD054603E002E001E001257D
:1020000000BF00BF55B941482430006820F4E040CB
:10201000E16D08433D492431086000E0A84620886E
:1020200000F40050B0F5005F34D1206EB0F5403FB1
:102030001DD007DC68B1B0F5803F0BD0B0F5003F94
:1020400018D10DE0B0F5802F12D0B0F5A02F11D12E
:102050000FE011E00121201D01F056FC05460BE0C8
:10206000012104F1240001F001FD054604E003E034
:1020700002E001E0012500BF00BF55B9234824302C
:10208000006820F4E020216E0843204924310860D4
:1020900000E0A846208800F48040B0F5804F38D199
:1020A000D4F8AC00B0F1405F1DD007DC68B1B0F1EE
:1020B000805F0BD0B0F1005F18D10DE0B0F1804F20
:1020C00012D0B0F1A04F11D10FE011E00121201D7D
:1020D00001F01AFC05460BE0012104F1240001F097
:1020E000C5FC054604E003E002E001E0012500BF75
:1020F00000BF6DB905482C30006820F0E040D4F8EE
:10210000AC10084301492C31086002E02C4402580D
:10211000A846208800F40040B0F5004F26D1E06EBC
:1021200098B1B0F1805F03D0B0F1005F0ED106E04E
:10213000F948006840F40030F749086008E00121E0
:10214000201D01F0E1FB054602E001E0012500BF92
:1021500000BF55B9F0482430006820F04050E16ECF
:102160000843ED492431086000E0A846206800F0EB
:102170008070B0F1807F27D1606CA0B1012804D0BD
:10218000022809D003280FD10CE0E348006840F48E
:102190000030E149086009E00221201D01F0B4FB94
:1021A000054603E002E001E0012500BF00BF55B98C
:1021B000D9482030006820F00300616C0843D649FC
:1021C0002031086000E0A846206800F48000B0F5E7
:1021D000800F7DD1D148006840F48070CF490860FD
:1021E000FEF7F8FC064606E0FEF7F4FC801B6428C8
:1021F00001D9032505E0C948006800F48070002873
:10220000F2D000BF85BBC4484430006800F4407081
:10221000B4F8B01001F44071884213D0BE48443085
:10222000006820F44077BC484430006840F48030B7
:10223000B949443108600846006820F480300860DD
:1022400008460760D4F8B000B0F5807F15D1FEF7DE
:10225000C1FC064609E0FEF7BDFC801B41F2883157
:10226000884202D9032507E038E0AB4844300068D3
:10227000C0F340000028EED000BF55BB00BFB4F84B
:10228000B00000F44070B0F5407F0ED1A2481C3879
:10229000006820F47C51A24AD4F8B000104041EA12
:1022A00010109D491C39086007E09B481C380068E5
:1022B00020F47C5098491C390860974844300068E5
:1022C000B4F8B010C1F30B0108439349443101E065
:1022D00005E001E0086002E0A84600E0A84620789A
:1022E00000F0010068B3A06F182819D005DC48B1D0
:1022F000082808D0102816D10BE0202811D0282853
:1023000011D10FE011E00121201D01F0FDFA054679
:102310000BE0012104F1240001F0A8FB054604E0D4
:1023200003E002E001E0012500BF00BF55B97A4893
:102330002830006820F03800A16F08437649283122
:10234000086000E0A846207800F00200022828D1AA
:10235000606F062815D2DFE800F003040A1112139B
:1023600011E00121201D01F0CFFA05460BE001210B
:1023700004F1240001F07AFB054604E003E002E0EA
:1023800001E0012500BF00BF55B96348283000684F
:1023900020F00700616F08435F492831086000E0C2
:1023A000A846207800F0040004282AD1D4F8900030
:1023B000062815D2DFE800F003040A11121311E019
:1023C0000121201D01F0A0FA05460BE0012104F1D6
:1023D000240001F04BFB054604E003E002E001E0CD
:1023E000012500BF00BF5DB94B482C30006820F0CC
:1023F0000700D4F89010084347492C31086000E0EA
:10240000A846207800F02000202836D1D4F88C008F
:10241000B0F1405F1DD007DC68B1B0F1805F0BD038
:10242000B0F1005F18D10DE0B0F1804F12D0B0F1E3
:10243000A04F11D10FE011E00021201D01F064FA3E
:1024400005460BE0022104F1240001F00FFB0546D4
:1024500004E003E002E001E0012500BF00BF5DB938
:102460002D482830006820F0E040D4F88C10084354
:1024700029492831086000E0A846207800F0400093
:10248000402836D1D4F89800B0F5406F1DD007DC55
:1024900068B1B0F5806F0BD0B0F5006F18D10DE0CA
:1024A000B0F5805F12D0B0F5A05F11D10FE011E060
:1024B0000021201D01F028FA05460BE0022104F15D
:1024C000240001F0D3FA054604E003E002E001E055
:1024D000012500BF00BF5DB90F482C30006820F413
:1024E000E050D4F8981008430B492C31086000E004
:1024F000A846207800F0800080283AD1D4F89C00CB
:10250000B0F5C04F23D00DDC98B1B0F5005F11D00D
:10251000B0F5804F1ED113E02C44025800480258F9
:10252000FFFCFF0FB0F5004F12D0B0F5204F11D1D6
:102530000FE011E00021201D01F0E6F905460BE057
:10254000022104F1240001F091FA054604E003E0C1
:1025500002E001E0012500BF00BF4DB9AD480068B1
:1025600020F46040D4F89C100843AA49086000E0B9
:10257000A846207800F00800082817D1D4F8800079
:10258000B0F5805F07D1022104F1240001F06EFA5A
:1025900008B14FF001089F48001F006820F4405028
:1025A000D4F8801008439B49091F0860207800F088
:1025B0001000102815D1D4F89400B0F5807F07D111
:1025C000022104F1240001F051FA08B14FF0010892
:1025D0009048006820F44070D4F8941008438D4966
:1025E0000860206800F40020B0F5002F26D1D4F850
:1025F000A00030B1B0F5803F09D0B0F5003F0ED15A
:102600000CE00021201D01F07FF9054609E00221C0
:1026100004F1240001F02AFA054602E001E0012558
:1026200000BF00BF4DB97B48006820F44030D4F8AB
:10263000A01008437749086000E0A846206800F42D
:102640008020B0F5802F2DD1D4F88400B0F5801F04
:1026500006D0B0F5001F0CD0B0F5401F11D10FE02F
:102660006C482C38006840F400306A492C39086006
:1026700009E0012104F1240001F0F8F9054602E027
:1026800001E0012500BF00BF5DB96248001F00687E
:1026900020F44010D4F8841008435E49091F0860F4
:1026A00000E0A846206800F48030B0F5803F24D1D7
:1026B000E06C18B1B0F5803F0FD108E055482C38D8
:1026C000006840F4003053492C39086007E00221CB
:1026D000201D01F019F9054601E0012500BF00BFEA
:1026E00055B94C480C38006820F48030E16C084340
:1026F00048490C39086000E0A846206800F0005006
:10270000B0F1005F07D1022104F1240001F0AEF91D
:1027100008B14FF00108206800F40030B0F5003F28
:1027200027D1E06FA0B1B0F5807F06D0B0F5007F73
:102730000CD0B0F5407F0CD109E036482C38006849
:1027400040F4003033492C39086004E003E002E033
:1027500001E0012500BF00BF55B92E48001F0068E9
:1027600020F44070E16F08432A49091F086000E027
:10277000A846206800F48010B0F5801F09D12548D4
:102780000838006820F00040216F084321490839CB
:102790000860206800F40010B0F5001F09D11D4842
:1027A0000838006820F08070A16E08431949083984
:1027B0000860206800F08040B0F1804F11D100BF68
:1027C00014484838006820F400401249483908602D
:1027D00008460068D4F8B81008430E494839086024
:1027E00000BF206800F00040B0F1004F09D1094857
:1027F0000C38006820F04050216D084305490C3921
:102800000860B8F1000F02D10020BDE8F08101207E
:10281000FBE70000584402582DE9F04104460D46FC
:1028200014B90120BDE8F081B648006800F00F003F
:10283000A8420ED2B348006820F00F002843B149E7
:1028400008600846006800F00F00A84201D001208F
:10285000E8E7207800F0040004280ED1AA49206996
:10286000096801F07001884207D9A748006820F084
:10287000700021690843A4490860207800F008002E
:10288000082811D1A049091D6069096801F070018B
:10289000884209D99C48001D006820F070006169D9
:1028A00008439949091D0860207800F0100010289D
:1028B00011D19549091DA069096801F4E0618842B8
:1028C00009D99148001D006820F4E060A16908431F
:1028D0008D49091D0860207800F02000202811D1C2
:1028E00089490831E069096801F07001884209D915
:1028F00085480830006820F07000E169084382498B
:1029000008310860207800F0020002280ED17E49CC
:10291000E068096801F00F01884207D97A48006829
:1029200020F00F00E168084377490860207800F044
:102930000100002850D07448006820F47060A1683D
:102940000843714908606068022807D16E4818384A
:102950000068C0F34040F8B9012063E760680328CD
:1029600007D1694818380068C0F34060A0B9012059
:1029700058E76068012807D1634818380068C0F339
:10298000002048B901204DE75F4818380068C0F3BF
:10299000800008B9012045E75B480838006820F04E
:1029A000070061680843584908390860FEF712F9C2
:1029B000064608E0FEF70EF9801B41F28831884296
:1029C00001D903202EE750480838006800F038008D
:1029D0006168B0EBC10FEDD1207800F00200022851
:1029E0000ED14949E068096801F00F01884207D219
:1029F0004548006820F00F00E1680843424908603C
:102A00004048006800F00F00A8420ED93D48006819
:102A100020F00F0028433B4908600846006800F09A
:102A20000F00A84201D00120FCE6207800F004004D
:102A300004280ED134492069096801F070018842E8
:102A400007D23148006820F07000216908432E4900
:102A50000860207800F00800082811D12A49091DD3
:102A60006069096801F07001884209D22648001D9A
:102A7000006820F07000616908432349091D08605F
:102A8000207800F01000102811D11F49091DA069FD
:102A9000096801F4E061884209D21B48001D006802
:102AA00020F4E060A16908431749091D08602078F7
:102AB00000F02000202811D113490831E06909688D
:102AC00001F07001884209D20F480830006820F0F8
:102AD0007000E16908430C490831086000F058F8BB
:102AE00009490968C1F30321084A515C01F01F013B
:102AF000C8400749086007480068FEF7ADF8074678
:102B000038468FE60020005218440258124E000842
:102B1000000000241800002410B5FEF7B1FB07499F
:102B2000096801F00F01064A515C01F01F01C8401D
:102B3000044908600846006810BD000018440258A7
:102B4000124E00080400002410B5FFF7E5FF054908
:102B50000968C1F30211044A515C01F01F01C84029
:102B600010BD00001C440258124E000810B5FFF7BB
:102B7000D3FF05490968C1F30221044A515C01F001
:102B80001F01C84010BD00001C440258124E00082E
:102B9000F0B5824E366806F0380636B1082E15D0EC
:102BA000102E15D0182E7DD114E07C4E103E3668C4
:102BB000C6F3401646B1794E103E3668C6F3C107DB
:102BC000774E26FA07F000E07548E5E07548E3E047
:102BD0007548E1E0714E1836366806F003046F4E12
:102BE00018363668C6F305116C4E1C36366806F08A
:102BF00001056A4E24363668C6F3CC0616FB05F688
:102C000001EE106AB8EE410A002971D024B1012CFE
:102C100050D0022C6DD16DE0604E103E3668C6F388
:102C200040163EB35D4E103E3668C6F3C1075C4E9B
:102C300026FA07F301EE103AF8EE411A01EE101AE7
:102C4000B8EE411A81EE812A9FED581AC0EE011AA2
:102C5000524E20363668C6F3080601EE106AB8EE0A
:102C6000411A31EE811AF7EE001A31EE211A62EEA6
:102C7000010A1EE001EE101AB8EE411ADFED4C1AFF
:102C800081EE812A9FED491AC0EE011A434E20368B
:102C90003668C6F3080601EE106AB8EE411A31EE46
:102CA000811A00E076E0F7EE001A31EE211A62EEAA
:102CB000010A5BE001EE101AB8EE411A9FED3D2AC1
:102CC000C2EE011A9FED391A80EE012A334E2036EA
:102CD0003668C6F3080601EE106AB8EE411A32EE05
:102CE000011AB7EE002A31EE021A61EE810A3DE0C8
:102CF0004EE01DE001EE101AB8EE411ADFED2E1A7B
:102D000081EE812A9FED291AC0EE011A234E20364A
:102D10003668C6F3080601EE106AB8EE411A31EEC5
:102D2000811AF7EE001A31EE211A62EE010A1DE057
:102D300001EE101AB8EE411A9FED1E2AC2EE011ADA
:102D40009FED1A1A80EE012A144E20363668C6F31B
:102D5000080601EE106AB8EE411A32EE011AB7EE1B
:102D6000002A31EE021A61EE810A00BF00BF0B4E4D
:102D700020363668C6F34626721C01EE102AB8EEDD
:102D8000411AC0EE811ABCEEE11A11EE100A00E001
:102D9000002001E0034800BF00BFF0BD104402580E
:102DA0000090D00300093D0000127A0000000046A8
:102DB0000024744C0024744A0024F44A2DE9F0479E
:102DC000044614B90120BDE8F087207800F0010026
:102DD000002872D0F948006800F03808F748183029
:102DE000D0F80090B8F1100F06D0B8F1180F0FD13D
:102DF00009F0030002280BD1F04810380068C0F336
:102E0000404000286ED0606800286BD10120DAE7CE
:102E100000BF6068B0F5803F08D1E848103800680E
:102E200040F48030E549103908602EE0606868B9E8
:102E3000E2481038006820F48030E049103908601A
:102E40000846006820F4802008601EE06068B0F545
:102E5000A02F0DD1D9481038006840F48020D74900
:102E6000103908600846006840F4803008600CE0C3
:102E7000D2481038006820F48030D04910390860FA
:102E80000846006820F48020086000BF6068A8B190
:102E9000FDF7A0FE054608E0FDF79CFE401B41F251
:102EA0008831884201D903208DE7C4481038006872
:102EB000C0F340400028EFD014E014E0FDF78AFE94
:102EC000054608E0FDF786FE401B41F28831884246
:102ED00001D9032077E7B94810380068C0F34040B3
:102EE0000028EFD100BF207800F0020002286BD14B
:102EF000B248006800F03808B0481830D0F80090A8
:102F0000B8F1000F05D0B8F1180F2BD109F003006C
:102F100040BBAA4810380068C0F3800018B1E068D0
:102F200008B901204FE700BFFDF74EFE41F2030153
:102F300088420BD8A1480C38006820F47C30216905
:102F400040EA01309D490C3908600AE09B480C3882
:102F5000006820F0FE40217C40EA016097490C396E
:102F6000086058E0E06870B394481038006820F0BA
:102F70001900E1680843914910390860FDF72AFEFD
:102F8000054606E0FDF726FE401B022801D9032076
:102F900019E78A4810380068C0F380000028F1D093
:102FA00000BFFDF711FE41F2030188420DD88348AE
:102FB0000C38006820F47C30216940EA01307F49F8
:102FC0000C3908600CE00CE026E07C480C38006806
:102FD00020F0FE40217C40EA016078490C3908600D
:102FE00019E076481038006820F001007349103964
:102FF0000860FDF7EFFD054606E0FDF7EBFD401B21
:10300000022801D90320DEE66C4810380068C0F3BE
:1030100080000028F1D100BF207800F010001028B7
:103020006ED16648006800F0380864481830D0F85F
:103030000090B8F1080F06D0B8F1180F2FD109F0A1
:10304000030001282BD15D4810380068C0F3002030
:1030500020B1E069802801D00120B4E600BFFDF76F
:10306000B3FD41F2030188420CD854480C38006883
:1030700020F0F84094F8201040EA81604F490C3964
:1030800008600BE04D48001F006820F07C5094F869
:10309000201040EA01604949091F086058E0E069D2
:1030A00068B346481038006840F080004349103942
:1030B0000860FDF78FFD054606E0FDF78BFD401B20
:1030C000022801D903207EE63C4810380068C0F38E
:1030D00000200028F1D000BFFDF776FD41F203018A
:1030E00088420ED835480C38006820F0F84094F833
:1030F000201040EA816031490C3908600DE00DE094
:1031000027E02E48001F006820F07C5094F8201023
:1031100040EA01602949091F086019E02748103872
:10312000006820F08000254910390860FDF752FD45
:10313000054606E0FDF74EFD401B022801D903209D
:1031400041E61E4810380068C0F300200028F1D185
:1031500000BF207800F00800082837D16069D0B19E
:1031600016486430006840F001001449643108607A
:10317000FDF730FD054606E0FDF72CFD401B02285B
:1031800001D903201FE60D4864300068C0F34000F9
:103190000028F1D01AE009486430006820F00100EE
:1031A000064964310860FDF715FD054608E0FDF7A6
:1031B00011FD401B022803D9032004E610440258E5
:1031C000DC480068C0F340000028F0D1207800F00F
:1031D0002000202836D1A069D0B1D64874380068C4
:1031E00040F48050D34974390860FDF7F3FC05467C
:1031F00006E0FDF7EFFC401B022801D90320E2E5C1
:10320000CC4874380068C0F340300028F1D019E091
:10321000C8487438006820F48050C6497439086082
:10322000FDF7D8FC054606E0FDF7D4FC401B02285C
:1032300001D90320C7E5BF4874380068C0F34030A7
:103240000028F1D1207800F0040004287DD1BA488C
:10325000006840F48070B8490860FDF7BBFC054683
:1032600006E0FDF7B7FC401B642801D90320AAE55E
:10327000B148006800F480700028F2D000BFA06858
:10328000012808D1AB48001F006840F00100A9499F
:10329000091F08602DE0A06868B9A648001F0068F3
:1032A00020F00100A349091F08600846006820F0CB
:1032B000040008601DE0A06805280DD19D48001F8E
:1032C000006840F004009B49091F08600846006838
:1032D00040F0010008600CE09648001F006820F0F4
:1032E00001009449091F08600846006820F00400A6
:1032F000086000BFA068A0B1FDF76CFC054608E0BF
:10330000FDF768FC401B41F28831884201D9032057
:1033100059E58848001F0068C0F340000028EFD03E
:1033200013E0FDF757FC054608E0FDF753FC401B92
:1033300041F28831884201D9032044E57D48001FCD
:103340000068C0F340000028EFD1606A00287DD0FB
:1033500078486438006800F03800182877D0606A30
:10336000022875D173487438006820F08070714964
:1033700074390860FDF72EFC054606E0FDF72AFCCF
:10338000401B022801D903201DE56A4874380068F3
:10339000C0F340600028F1D100BFD4E90A1041EA2F
:1033A000001064494C39096840F2F33291430843F4
:1033B00060494C390860208E401EC0F30800616BE4
:1033C000491E4FF47E4202EA41210843218F491EE3
:1033D000D20102EA014108433C21095D491E120263
:1033E00002EA0161084353494439086000BF081FDD
:1033F000006820F00100091F08604E48403800684E
:103400004FF6F8718843A16C40EAC1004949403940
:10341000086048484838006820F00C00216C0843D8
:103420004449483908600846006820F00200616C91
:1034300008434049483908600846006840F4803035
:1034400008600846006840F4003002E06FE041E0A8
:1034500025E008600846006840F4802008600846BF
:10346000006840F00100086032487438006840F09D
:103470008070304974390860FDF7ACFB054606E002
:10348000FDF7A8FB401B022801D903209BE4294833
:1034900074380068C0F340600028F1D047E0254848
:1034A0007438006820F08070224974390860FDF794
:1034B00091FB054606E0FDF78DFB401B022801D974
:1034C000032080E41B4874380068C0F34060002883
:1034D000F1D12CE017484C38076816484438066884
:1034E000606A012821D007F00301A06A81421CD143
:1034F000C7F30511E06A884217D1C6F30801206BB3
:10350000401E814211D1606B401EC6F346218842A5
:103510000BD1A06B401EC6F30641884205D1E06B7B
:10352000401EC6F30661884201D001204BE4002012
:1035300049E40000744402580048025870B504463B
:103540002546681EB0F1807F01D301200FE0681E80
:103550004FF0E02148610F214FF0FF3000F06EFC8A
:1035600000204FF0E021886107200861002070BD35
:1035700010B586B004462B492068884250D100BF60
:1035800000BF2948006840F010002749086008463D
:10359000006800F01000009000BF00BF00BF00BF37
:1035A00000BF21481038006840F001001E49103962
:1035B00008600846006800F00100009000BF00BFEE
:1035C00000BF00BF00BF0846006840F0010008606F
:1035D0000846006800F00100009000BF00BF00BF77
:1035E0004FF400700190022002900120039002200D
:1035F00004900720059001A90C48FDF7C9F94FF484
:10360000806001900720059001A90848FDF7C0F9E6
:103610002520FDF7B2FB032211462520FDF7BDFB57
:1036200006B010BD00100140F044025800000258DE
:1036300010B504462049206888423BD11F480088C5
:1036400000F4004088BB1D48008800F4804070B141
:103650001B4800780A2803D000201849088024E07D
:103660001648008840F40040144908801DE01448C2
:1036700000780D2806D11148008840F480400F4999
:10368000088012E00E4800780C490988C1F30D014A
:103690000C4A505409480088401C084908800846D4
:1036A0000088C72801DD002008800122044906485F
:1036B000FCF71CFF10BD00000010014010000024AA
:1036C0001200002400040024C804002400BFFEE708
:1036D0007047704710B54B6A33B1B2F1406F03D0F9
:1036E0008B6A5B1E046823618B69002B76D00B6AA2
:1036F000E3B38B680468E361CB69FBB1D1E90B34B8
:1037000023434C6B23434C6A23438C8A43EA844310
:103710000C6923430C6A2343CC682343CC692343BD
:103720008C6923430C682343134304686361B2F13B
:10373000406F02D04B680468A361BEE0D1E90B344E
:1037400023434C6B23434C6A23438C8A43EA8443D0
:103750000C6923430C6A2343CC6923438C692343BC
:103760000C682343134304686361A6E0FFE7CB6959
:10377000EBB1D1E90B3423434C6B23434C6A234315
:103780008C8A43EA84430C6A2343CC682343CC6984
:1037900023438C6923430C68234313430468636108
:1037A000B2F1406FC9D04B680468A36185E0D1E9EC
:1037B0000B3423434C6B23434C6A23438C8A43EAE8
:1037C00084430C6A2343CC6923438C6923430C68EC
:1037D00023431343046863616FE0FFE70B6AC3B3DD
:1037E0008B680468E361CB69EBB1D1E90B34234307
:1037F0004C6B23434C6A23438C8A43EA84430C6911
:1038000023430C6A2343CC682343CC6923438C694C
:103810002343134304686361B2F1406F4DD04B689A
:103820000468A36149E0D1E90B3423434C6B234383
:103830004C6A23438C8A43EA84430C6923430C6A11
:103840002343CC6923438C69234313430468636196
:1038500033E0FFE7CB69DBB1D1E90B3423434C6B99
:1038600023434C6A23438C8A43EA84430C6A2343F0
:10387000CC682343CC6923438C69234313430468F6
:103880006361B2F1406F18D04B680468A36114E023
:103890004B6A93B1D1E90B3423434C6B23434C6AFD
:1038A00023438C8A43EA84430C6A2343CC69234331
:1038B0008C69234313430468636110BD2DE9F04113
:1038C00004460E4617469846069D12E0681C80B1D5
:1038D000FDF780F9A0EB0800A84200D84DB90420FC
:1038E00084F84100606C40F0010060640120BDE894
:1038F000F08120688068304008B1012000E000209D
:10390000B842E3D10020F2E72DE9F04104460E462B
:1039100000275548006800F00300032802D1012069
:10392000BDE8F08150482838006820F080604E499A
:1039300028390860FDF74EF9054606E0FDF74AF91B
:10394000401B022801D90320EAE7474828380068CD
:10395000C0F3C0600028F1D100BF4348006820F4E4
:103960007C30216840EA01303F490860A088401E51
:10397000C0F30800A168491E4FF47E4202EA4121CB
:103980000843A189491ED20102EA01410843217C72
:10399000491E120202EA01610843334910310860EE
:1039A00000BF3148001D006820F0C0006169084375
:1039B0002D49091D08600846006820F02000A16913
:1039C00008432949091D08600846006820F01000D6
:1039D00008602548143000684FF6F8718843E169A3
:1039E00040EAC1002049143108601F48001D0068EA
:1039F00040F010001C49091D08602EB908460068F7
:103A000040F40020086012E0012E08D11648001D85
:103A1000006840F480101449091D086007E012484E
:103A2000001D006840F400100F49091D08600E4891
:103A30002838006840F080600B4928390860FDF79D
:103A4000C9F8054606E0FDF7C5F8401B022801D974
:103A5000032065E7044828380068C0F3C0600028E8
:103A6000F1D038465CE70000284402582DE9F041C7
:103A700004460E4600275548006800F0030003285E
:103A800002D10120BDE8F08150482838006820F0BC
:103A900080504E4928390860FDF79CF8054606E03D
:103AA000FDF798F8401B022801D90320EAE74748B0
:103AB00028380068C0F340700028F1D100BF4348A7
:103AC000006820F07C70218840EA01503F4908607E
:103AD000A088401EC0F30800A168491E4FF47E4232
:103AE00002EA41210843A189491ED20102EA0141AB
:103AF0000843217C491E120202EA0161084333494E
:103B00001831086000BF3148001D006820F4406093
:103B1000616908432D49091D08600846006820F4C2
:103B20000070A16908432949091D0860084600681A
:103B300020F48070086025481C3000684FF6F8714A
:103B40008843E16940EAC10020491C3108601F48F0
:103B5000001D006840F480701C49091D08602EB9E2
:103B60000846006840F48000086012E0012E08D189
:103B70001648001D006840F400001449091D086043
:103B800007E01248001D006840F080700F49091DD1
:103B900008600E482838006840F080500B492839EA
:103BA0000860FDF717F8054606E0FDF713F8401B1F
:103BB000022801D9032065E7044828380068C0F3CB
:103BC00040700028F1D038465CE7000028440258D5
:103BD00010B50023234C236000BF00BF00BFBFF31C
:103BE0004F8F00BF00BF00BF231F1868C0F34E31C6
:103BF00000BFC0F3C90200BF43F6E07303EA4113FC
:103C00004FF0404404EA82742343174C236000BF02
:103C100000BF131EA2F10102EED10B1EA1F10101A2
:103C2000E7D100BF00BF00BFBFF34F8F00BF00BF91
:103C300000BF0C4B703B1B6843F48033094C703C55
:103C4000236000BF00BF00BFBFF34F8F00BF00BFA6
:103C500000BF00BF00BF00BFBFF36F8F00BF00BF3A
:103C600000BF10BD84ED00E060EF00E000BF00BFCA
:103C700000BFBFF34F8F00BF00BF00BF00BF00BF3A
:103C800000BFBFF36F8F00BF00BF00BF002014490B
:103C9000086000BF00BF00BFBFF34F8F00BF00BF71
:103CA00000BF00BF00BF00BFBFF36F8F00BF00BFEA
:103CB00000BF0C48006840F400300A49086000BFAB
:103CC00000BF00BFBFF34F8F00BF00BF00BF00BFEA
:103CD00000BF00BFBFF36F8F00BF00BF00BF7047C2
:103CE00050EF00E014ED00E010B500231B4C236002
:103CF00000BF00BF00BFBFF34F8F00BF00BF00BFBA
:103D0000231F1868C0F34E3100BFC0F3C90200BFC3
:103D100043F6E07303EA41134FF0404404EA82742F
:103D200023430F4C236000BF00BF131EA2F101020A
:103D3000EED10B1EA1F10101E7D100BF00BF00BF12
:103D4000BFF34F8F00BF00BF00BF00BF00BF00BF69
:103D5000BFF36F8F00BF00BF00BF10BD84ED00E058
:103D600060EF00E0704710B5FCF73AFF10BD0000AF
:103D70002448006840F47000224908602248006826
:103D800040F001002049086000201F491031086000
:103D90001D4800681D4908401B49086000201A4959
:103DA00018310860091D0860091D0860164928318E
:103DB0000860091D0860091D0860091D0860091DCB
:103DC0000860091D0860091D0860091D08600E488B
:103DD000006820F480200C49086000200A49603106
:103DE00008600B4800686FF30F00B0F1005F02D26B
:103DF0000120084908604FF00060024980390860DE
:103E00007047000088ED00E0004402587FEDF6EABC
:103E10000010005C0881005110B50248FCF76BFBF4
:103E200010BD0000C804002400BFFEE7024800687F
:103E3000C0F30220704700000CED00E010B5002830
:103E400004DB0A07130E054A135406E00A07140E92
:103E5000034A00F00F031B1FD45410BD00E400E020
:103E600018ED00E000BF704701490860704700008E
:103E70000800002410B504464FF47A7104FB01F0E9
:103E800000F002F810BD000070B5034600224FF0AC
:103E9000E02675690D4E366803FB06F44FF0E02608
:103EA000B16910E04FF0E026B06988420BD088423B
:103EB00002D20E1A324402E02E1A0E443244014657
:103EC000A24200D300E0EDE700BF70BD080000246F
:103ED00000BF054AD26902F04002002AF9D0C2B2FE
:103EE000014B9A6270470000001001402DE9FF4F1E
:103EF00085B080468946129F002003900290B84505
:103F000007DB0798B84204DBB94502DB0898B842E2
:103F100002DA09B0BDE8F08F0798A0EB0804089812
:103F2000A0EB0905CDF80480CDF80090002C02DD4F
:103F30004FF0010A06E014B94FF0000A02E04FF01A
:103F4000FF3A6442002D02DD4FF0010B06E015B987
:103F50004FF0000B02E04FF0FF3B6D42AC4201DD41
:103F6000264600E02E460020049023E0009A91B2FD
:103F7000019A90B23A46139BFCF7C2FA0398204488
:103F800003900298284402900398B04205DD0398FC
:103F9000801B03900198504401900298B04205DDC7
:103FA0000298801B02900098584400900498401C8E
:103FB00080B20490711C04988842D7DD00BFA8E746
:103FC00088B00027B8460024042600F039FDFCF72D
:103FD00013FE042302221146F02000F02FFE4FF4BE
:103FE000F070FFF741FF4FF4E13000F0DBFEFCF72B
:103FF0008CFAFCF78FFAFCF792FAFCF795FAF34982
:10400000086880470020FCF794FA0120FCF791FA39
:104010000220FCF78EFA0320FCF78BFA0420FCF751
:1040200088FAFCF78BFAEA4901220868E9A1FCF753
:104030008AFAE74901224868E7A1FCF784FAFCF70D
:1040400087FA1BE04FF47840E4A110221346CDE933
:1040500000210290C82232213C20FCF77EFAC820C1
:10406000FFF708FF4FF6FF704223F0223221009045
:104070003C20FCF777FAC820FFF7FCFEFCF777FA44
:104080000028DFD100BF4FF4784000211022D6A3D2
:10409000CDE90032CDE902101346C8220A213C20A6
:1040A000FCF76AFA4FF4784000211022D3A3CDE93F
:1040B0000032CDE902101346C8221E213C20FCF735
:1040C0005BFA4FF4784000211022D0A3CDE90032F2
:1040D000CDE902101346C82232213C20FCF74CFAED
:1040E0004FF4784000211022CCA3CDE90032CDE975
:1040F00002101346C82246213C20FCF73DFA4FF43B
:10410000784000211022CBA3CDE90032CDE9021086
:104110001346C8225A213C20FCF72EFA4FF478406F
:104120000090C7484088401F83B2C54800881438B3
:1041300082B272211320FCF724FA1F2000211022E2
:10414000C0A3CDE90032CDE902101346C822CF2129
:104150006020FCF711FA4FF0640836E10020FCF70C
:1041600015FA0546022D0CD1984890F8440000F04D
:10417000800030B9FCF70FFA4FF6FF70FCF710FA29
:1041800081E7012D56D14FF6FF704FF49D73DB226E
:10419000732100901420FCF7E5F9701CC6B2042EC0
:1041A00000DD0126012E06D0022E13D0032E20D0D2
:1041B000042E3CD12CE01F2000211022A3A3CDE926
:1041C0000032CDE902101346C822CF215020FCF75F
:1041D000D3F92CE01F20002110229FA3CDE900324B
:1041E000CDE902101346C822CF214020FCF7C4F9C4
:1041F0001DE01F20002110229BA3CDE90032CDE954
:1042000002101346C822CF214020FCF7B5F90EE07A
:104210001F200021102298A3CDE90032CDE9021021
:104220001346C822CF215820FCF7A6F900BF00BFD3
:104230004FF0640865484168002088476348808ED5
:1042400000F4004000287AD00120FFF713FE4FF061
:1042500000085E4881897A480088163881425BDA16
:104260005A488089162857DB5848018C7448408882
:10427000C01F8142F3DA5548008C7528F3DBBDF886
:1042800010004FF6FF71884207D150488089ADF881
:1042900010004E48008CADF812001F200221DFF8FC
:1042A0002CC1CDE90010BCF82030BCF80C20BDF8C2
:1042B0001210BDF81000FFF719FE44488089ADF8D0
:1042C00010004248008CADF81200C82C74DA24B3F8
:1042D000601E6C4901EB8000B0F902003B49098C7B
:1042E000884269D0601E674901EB8000B0F9000088
:1042F0003649898988425FD03448808900B2614953
:1043000001EB840108803148008C00B25D4901EB6B
:1043100084014880601C84B24EE02C48808900B241
:10432000584901EB840108802848008C00B25549A7
:1043300001EB84014880601C84B23DE0FFE74FF64A
:10434000FF70ADF8100008F1010000F0FF080A202E
:10435000FFF790FD781CC7B2B8F1280F2CD1E4B15B
:10436000214649A0FCF721F905A83346062221463B
:1043700000904448FCF71EF905A946A0FCF715F982
:1043800000241F2005A910221346CDE90021029028
:10439000C8225A218420FCF7E0F84FF6FF70009005
:1043A00027484088801F83B225480088153882B28C
:1043B00073211420FCF7D6F81E2F06D1002700BF6A
:1043C00010213848FCF7F0FB00BFC7E6300000249E
:1043D000BC000024303A0000313A0000466F6E7491
:1043E000204572726F722100D5FDB5E3D4ADD7D3ED
:1043F00053544D3332BFAAB7A2B0E500CAD6D0B4E9
:10440000CAB6B1F0CAB5D1E90000000041544F4D21
:1044100040414C49454E54454B0000004B455930F6
:104420003A4D4F4445204B4559313A41646A7573C2
:1044300074000000CAB6B1F0BDE1B9FB3A0000005B
:10444000A0050024CAD6D0B4C7F80000BDF6CAB68D
:10445000B1F0CAFDD7D60000BDF6CAB6B1F0B4F3CC
:10446000D0B4D7D6C4B80000BDF6CAB6B1F0D0A15A
:10447000D0B4D7D6C4B80000C8ABB2BFCAB6B1F08A
:1044800000000000E0000024D7DCB5E3CAFD3A25B7
:10449000640D0A00CAB6B1F0BDE1B9FB3A25730D4F
:1044A0000A0000000004025810B50446240300F07E
:1044B00095F900F02DF907480078002141EA001035
:1044C000401DC2B20B462146202000F00BFA00F03E
:1044D0001FF910BD2A00002410B5002400BF1A489F
:1044E000806800F020000028F9D14FF4837016494D
:1044F000486100BF1448806800F002000028F9D02D
:104500001148C06840F002000F49C8604FF6FF72C2
:104510000021202000F07AFA98B9EB2444F480744A
:1045200044F440640948007844EA003444F44044C8
:1045300000BF44F4801444F0407444F040640248E6
:10454000446100F08DFA10BD005000522A00002492
:1045500010B5002400F082FA00BF00BF00BF00BF0A
:1045600000BFBFF34F8F00BF00BF00BF00BF00BF41
:1045700000BFBFF36F8F00BF00BF00BF002019490D
:10458000086000BF00BF00BFBFF34F8F00BF00BF78
:1045900000BF00BF00BF00BFBFF36F8F00BF00BFF1
:1045A00000BF00BFFFF7A0FB0F48006820F001002C
:1045B0000D4908600846006840F0020008604FF6A8
:1045C000FF720021202000F021FA04463CB90020AF
:1045D000054948610846006840F00100086020462F
:1045E00010BD000050EF00E0005000522DE9F041F6
:1045F00006460D4617460024A5F1E04500F02EFAC8
:1046000000BF03E0285D3055601C84B2BC42F9DB7A
:1046100000F026FABDE8F08170B500240025FFF710
:1046200097FF044614B900F033F80546FFF754FF2E
:10463000284670BD2DE9F04105460E461746002478
:10464000FFF786FF044624B93A463146284600F073
:1046500069F8FFF741FF2046BDE8F08170B50546D7
:104660000E46144609480078C02141EA001040F087
:104670000C00401CC2B206233146EB2000F032F998
:104680002146284600F01AF970BD00002A000024D7
:1046900038B500F0EBF8002365221946902000F0B1
:1046A00021F90221684600F009F99DF801009DF802
:1046B000001040EA01244EF61870844202D1032013
:1046C00001490870204638BD2A00002438B5044648
:1046D000002000900025012C04D0022C04D0032CD3
:1046E00006D103E0052505E0352503E0152501E0A9
:1046F000052500BF00BF002341221946284600F0CF
:10470000F1F80121684600F0D9F89DF8000038BDA5
:1047100010B500BF0120FFF7D9FF00F0010000280D
:10472000F8D110BD2DE9F05F81460F461646DFF83F
:10473000A8B04FEA1738C7F30B0ACAF58054A6424F
:1047400000DC344644E04FEA08314FF480525846CA
:10475000FFF784FF002508E00AEB05001BF80000C6
:10476000FF2800D003E0681C85B2A542F4DB00BF3F
:10477000A54216DA4046FFF797FE002507E019F834
:10478000050005EB0A010BF80100681C85B2A54283
:10479000F5DB4FEA08314FF48052584600F026F816
:1047A00004E022463946484600F020F8A64200D1EF
:1047B0000FE008F101084FF0000AA1442744301B24
:1047C00086B2B6F5805F02DD4FF4805400E03446D7
:1047D000B9E700BFBDE8F09F9C06002410B5002398
:1047E00001221946062000F07DF810BD2DE9F041A8
:1047F00007460E461446F0B2C0F58075AC4200DCA8
:10480000254612E02A463146384600F013F8AC42FD
:1048100000D10BE02F442E44601B84B2B4F5807F9E
:1048200002DD4FF4807500E02546EBE700BFBDE8F0
:10483000F081000070B505460E461446FFF7CEFF26
:1048400009480078C02141EA0010401DC2B200238F
:104850003146322000F046F82146284600F0C2F8E2
:10486000FFF756FF70BD00002A00002410B5114864
:10487000114908600120486004210F48816010211F
:10488000C160480590FAA0F0B0FA80F0401E0A49D5
:1048900008614FF4007108484161012181610021E4
:1048A000C1610162FCF726FB08B9002010BD0120A0
:1048B000FCE70000005000525006002470B504468A
:1048C0000D46681E06490968086141F28832214692
:1048D0000348FCF7F7FB08B9002070BD0120FCE796
:1048E00050060024F0B58FB007460D4614461E460C
:1048F00001970295069604F0030010B90020079076
:1049000013E004F00300012802D1000207900CE03C
:1049100004F00300022802D10002079005E004F031
:104920000300032801D100020790C4F3810010B9ED
:104930000020089013E0C4F38100012802D1800216
:1049400008900CE0C4F38100022802D18002089094
:1049500005E0C4F38100032801D180020890C4F36C
:10496000011010B90020049013E0C4F301100128D5
:1049700002D1000304900CE0C4F30110022802D11C
:104980000003049005E0C4F30110032801D10003E3
:104990000490A00910B900200A9013E00120B0EBA8
:1049A000941F02D100060A900CE00220B0EB941F85
:1049B00002D100060A9005E00320B0EB941F01D15C
:1049C00000060A9000200E9009900C900D9041F284
:1049D000883201A90248FCF73BFA0FB0F0BD000095
:1049E0005006002470B504460D46681E0649096845
:1049F000086141F2883221460348FCF7D7FB08B929
:104A0000002070BD0120FCE75006002410B50346CD
:104A100000240BE009488068184008B1012000E03C
:104A2000002004468C4200D102E0521E002AF1D13F
:104A300000BF0AB1002010BD0120FCE70050005269
:104A400010B5FFF713F9FFF7C3F80348006840F00B
:104A500004000149086010BD9CEF00E072B6704789
:104A600062B6704730B587B00546002400BF6A487B
:104A7000006840F00200684908600846006800F0DD
:104A80000200019000BF00BF00BF0846006840F070
:104A9000080008600846006800F00800019000BFA8
:104AA00000BF00BF0846006840F0100008600846DC
:104AB000006800F01000019000BF00BF00BF564822
:104AC0000C38006840F4804053490C3908600846AF
:104AD000006800F48040019000BF00BF40200290B9
:104AE0000220039003200590012004900A200690E4
:104AF00002A94A48FBF74CFF0420029009200690C7
:104B000002A94648FBF744FF4FF460500290092089
:104B1000069002A94248FBF73BFF042002900920BF
:104B2000069002A93F48FBF733FF3B486438006812
:104B300040F480403849643908600846006820F431
:104B40008040086000BF3848806800F020000028DE
:104B5000F9D136483449086035484860084600684D
:104B600040F00100086000BF2F48806800F020007E
:104B70000028F9D14FF483702B49486100BF2A48BF
:104B8000806800F002000028F9D02748C06840F093
:104B900002002549C86000BF2348806800F020005B
:104BA0000028F9D12049C861EB2444F4807444F40E
:104BB0004064A81C44EA003444F4404400BF44F478
:104BC000801444F0407444F040640846446119483D
:104BD000006820F48030174908601648703000687B
:104BE00020F001001349703108600020091D0860A1
:104BF0004FF01040091D08600F48091D086005208E
:104C00000C49703108600B48006840F48030094955
:104C1000086007B030BD0000E044025800040258AC
:104C2000000C0258001002580050005210030001FE
:104C30000102180024ED00E02D0003032DE9F041EE
:104C4000CCB080460D4616461F46002451480068E9
:104C500020F004004F49086000BF002001904D483B
:104C60000C30006840F440404A490C310860084666
:104C7000006800F4404001904748006840F001009F
:104C8000454908600846006800F00100019000BF37
:104C900000BF00BF3F480C30006800F40050B0F582
:104CA000005FF7D1212039904FF480303A900020F6
:104CB0003C90409001203F9002204290022139A870
:104CC0008162CDF81481C562466387630021416427
:104CD0000821016400218164FEF770F804461CB1CC
:104CE00001204CB0BDE8F0813F203190032032908C
:104CF00000203390082034904020369000013790F7
:104D0000402035903890042131A8FDF785FD0446F8
:104D10000CB10120E5E721480290082003904FF4F0
:104D2000DC710491022105910691079100210891FF
:104D300009910A91022013902020149000201F90C6
:104D400020904FF44010239002A8FCF7D5FF0446B2
:104D50000CB10120C5E70020FFF784FEFCF76EF8D8
:104D60000F48006840F080000D49086000BF0C4803
:104D7000F430006840F002000949F4310860084648
:104D8000006800F00200019000BF00BFFBF7F6FDD5
:104D90000020A6E70C4802582C0400580300040326
:104DA0000044025810B5044609480A4908600846FC
:104DB000446000218160C160016181610C21416119
:104DC000FBF7FDFB012204490248FBF78FFB10BDF6
:104DD00000100140C80400241200002410B500296E
:104DE0000AD00878002807D005487844FBF7ECFB88
:104DF000002801D0002010BD0248784410BD0000FA
:104E00005A000000520000004FF04070E1EE100A1E
:104E100070470000000001020304010203040607BA
:104E200008090000604E000800000024E0000000B7
:104E3000D4020008404F0008E000002458C50700D5
:104E4000F00200081C00000043000000F8FFFFFF14
:104E50000C0000000E0000000F0000002E000000FB
:104E60000090D0030090D00300000000000000007C
:104E70000000000000000000100000000101000020
:104E800000F80000FFFF000017EF0200050000001F
:104E9000A9D200903DD70090FDCC0090000000000A
:104EA0000000000000000000000000000000000002
:104EB00000000000000000000000000000000000F2
:104EC00000000000000000000000000000000000E2
:104ED000000000000000000091C7009069C8009029
:104EE000C016002400000030000000380000002040
:104EF00000000000C07E072400E0033000F8003806
:104F000000F0012000F80000000000000000000098
:104F10000000000000000000000000000000000091
:104F20000000000000000000000000000000000081
:104F30000000000000000000000000000000000071
:0200000490006A
:1000000066290DF07785642901F03286782901F0A0
:100010006B86732902F017830020704710B5FF48E4
:10002000006807F086F9FE48006807F082F9FD488D
:10003000006807F07EF9FC48006807F07AF9FB4891
:10004000006807F076F9FA48006807F072F9F94895
:10005000006807F06EF910BD10B500244FF4007071
:1000600007F06EF9ED4908600846006800B9012400
:100070004FF4007007F064F9E94908600846006829
:1000800000B901244FF4007007F05AF9E5490860FF
:100090000846006800B90124A02007F051F9E249A0
:1000A00008600846006800B90124402007F048F9BC
:1000B000DE4908600846006800B90124402007F0C6
:1000C0003FF9DB4908600846006800B901244FF495
:1000D000F87007F035F9D74908600846006800B99C
:1000E00001240CB1FFF79AFF204610BD2DE9F0471F
:1000F00004460D461646701B00EBD07105EB6109F6
:1001000054F8397004EBC90148680DF074FC80465E
:1001100054F8350044F8390004EBC500406804EB9E
:10012000C9014860A94605F1010A1DE054F83A00EA
:1001300039460DF06FFC15D854F83A0044F83900F0
:1001400004EBCA00406804EBC901486009F10109E9
:1001500054F8390044F83A0004EBC900406804EB55
:10016000CA0148600AF1010AB245DFDDA9EB0500CA
:10017000012805DDA9F1010229462046FFF7B6FF57
:10018000A6EB0900012805DD324609F101012046F0
:10019000FFF7ACFF44F8397040460DF033FC04EB38
:1001A000C9014860BDE8F0872DE9F84F04460D46C7
:1001B00016461F464FF0000828E04FF0000920E0E7
:1001C0004FF0000BDA4612E00B9A0AFB029255F848
:1001D00022100A9A08FB02A254F822000DF032FC09
:1001E000594600900DF0E9FB83460AF1010A0A988E
:1001F0008245E9DB0B9808FB009046F820B009F136
:1002000001090B988145DBDB08F10108B845D4DB17
:10021000BDE8F88F024612B909B900207047002ADC
:1002200002DD09B90020F9E7002903DD8A4201DD7A
:100230000120F3E7002A03DD914201D10220EDE71E
:10024000002A03DD8A4201DA0320E7E71AB9002910
:1002500001DD0420E2E7002A08DA101E01DB034674
:1002600000E043428B4201DA0520D7E7002A08DA92
:10027000101E01DB034600E043428B4201D1062001
:10028000CCE7002A0ADA101E01DB034600E04342F5
:100290008B4203DD002901DD0720BFE719B9002AE1
:1002A00001DA0820BAE7002903DA914201DD0920CA
:1002B000B4E7002A03DA914201D10A20AEE7002A0E
:1002C00003DA914201DA0B20A8E71AB9002901DA12
:1002D0000C20A3E700290ADA081E01DB034600E030
:1002E0004342934203DD002A01DD0D2096E70029F9
:1002F00008DA081E01DB034600E04342934201D1C5
:100300000E208BE7002908DA081E01DB034600E017
:100310004342934201DA0F2080E700207EE730B5A8
:10032000034601B10AB9002030BD412901D0412A5C
:1003300001D10020F8E7491E521E03EBC20000EB7A
:10034000E100047801F007050120A840044201D033
:100350000120E9E70020E7E72DE9FE4F04460D46BE
:1003600016461F4600200190781C8200002132486A
:1003700006F0EDFF781C82000021304806F0E7FF10
:100380004FF0000819E04FF0000912E004EBC8003C
:1003900000EBE900017809F00702012090400142DA
:1003A00005D04FF07E5101980DF007FB019009F147
:1003B0000109B145EADB08F10108A845E3DB38464D
:1003C0000DF020FB8246014601980DF00BFB0190D9
:1003D0000120029049E04FF0000AD0463AE04FF089
:1003E000000912E004EBC90000EBE800017808F016
:1003F000070201209040014205D04FF07E51504647
:100400000DF0DBFA824609F10109A945EADB029801
:100410000DF0F8FA0090019912E00000C4000024E9
:10042000C8000024CC000024D0000024D400002404
:10043000D8000024DC000024ACBB0724C0BB072488
:100440000DF000FB834651460DF0E4FA00D804E0BD
:1004500008F10108701E4045C1DC00BFFD4802994B
:1004600040F821800298401C0290781C0299814239
:10047000B1DB0120029035E04FF0000AD14626E0C2
:100480004FF0000812E004EBC90000EBE80001782F
:1004900008F0070201209040014205D04FF07E5144
:1004A00050460DF08AFA824608F10108B045EADBB1
:1004B00002980DF0A7FA009001990DF0C3FA834657
:1004C00051460DF0A7FA00D804E009F10109681EB1
:1004D0004845D5DC00BFE049029841F820900298D9
:1004E000401C0290781C02998142C5DB00200290DA
:1004F00032E0029991FBF7F1D74A52F82120029994
:1005000091FBF7F1491CD44B53F82110501800EB24
:10051000D0714910D14A1268029B42F82310029907
:1005200091FBF7F207FB1211CA4A52F821200299F7
:1005300091FBF7F307FB1311491CC64B53F821102D
:10054000501800EBD0714910C54A1268029B42F85E
:1005500023100298401C029007FB07F00299884282
:10056000C7DCBDE8FE8F2DE9F34F8FB0402440205B
:100570000A901025AA000021B948006806F0E7FE9D
:10058000AA000021B548006806F0E1FE04232146D8
:100590000A9A0F98FFF7E0FEE2000021B1480068D8
:1005A00006F0D5FE00200B9060E3AC4801680B9884
:1005B00051F820000290AA4801680B9851F82000D9
:1005C000019002980830402801DD402001E00298A7
:1005D0000830089001980830402801DD402001E0F3
:1005E0000198083006900298083801D5002001E0F3
:1005F0000298083809900198083801D5002001E0D8
:1006000001980838079009980E9027E307980D90F5
:100610001CE3DDE90D120F98FFF781FE8146DDE94D
:100620000D12491C0F98FFF77AFE022101FB009979
:10063000DDE90D12891C0F98FFF771FE81440E9AB7
:10064000921C0D990F98FFF76AFEA9EB00090E9A0C
:10065000921C0D99491C0F98FFF761FE022101FBC6
:1006600010990E9A921C0D99891C0F98FFF757FE4E
:10067000A9EB000007B2DDE90D12891C0F98FFF706
:100680004EFE81460E9A521C0D99891C0F98FFF759
:1006900046FE022101FB00990E9A921C0D99891CBD
:1006A0000F98FFF73CFE8144DDE90D120F98FFF72C
:1006B00036FEA9EB00090E9A521C0D990F98FFF710
:1006C0002EFE022101FB10990E9A921C0D990F9893
:1006D000FFF725FEA9EB00000FFA80F8002F02DBE0
:1006E000B8F1000F00DA00BF41463846FFF792FD2F
:1006F0000390039841100B9801FB05060398401CDA
:1007000040100B9900FB0510059002990E98401AB5
:10071000083000EB0010019A0D99891A084408303E
:10072000514951F820000490039810281CD2DFE8AA
:1007300000F0081C4A629FB3F2F0EFEEEDECEBEA3A
:10074000E9E838460DF05EF9824604990DF07AF931
:1007500081464448006850F8261048460DF02DF9AF
:100760004049096841F826006CE2A7EB08000DF04B
:1007700049F9824604990DF065F9814639480068C7
:1007800050F8261048460DF018F93649096841F826
:10079000260040460DF036F9834634490DF052F9F3
:1007A000824604990DF04EF981462E48026805985C
:1007B00052F8201048460DF000F92A490968059AB8
:1007C00041F822003EE240460DF01CF983462749DD
:1007D0000DF038F9824604990DF034F9814621482C
:1007E000006850F8261048460DF0E7F81D490968E2
:1007F00041F8260026E238460DF004F983461B49ED
:100800000DF020F9824604990DF01CF98146154837
:10081000006850F8261048460DF0CFF811490968D5
:1008200041F82600A8EB07000DF0ECF88246049989
:100830000DF008F981460B480268059852F820101F
:1008400048460DF0BAF807490A68059942F82100B0
:10085000F8E10000ACBB0724C0BB0724D80000248B
:10086000D4000024C800002464260190F704B53F9A
:1008700040460DF0C7F8824604990DF0E3F8814632
:10088000FE48006850F8261048460DF096F8FB49DF
:10089000096841F82600D5E107EB08000DF0B2F831
:1008A000824604990DF0CEF88146F448006850F86D
:1008B000261048460DF081F8F049096841F82600F5
:1008C000B7F1000901DB494601E0C9F10001084622
:1008D0000DF098F8EA4900900DF0B4F883460499B9
:1008E0000DF0B0F88246E5480068059A50F82210ED
:1008F00050460DF062F8E1490968059A41F8220076
:10090000A0E166E14DE111E1F5E0BFE09FE069E0C3
:100910004DE018E0FFE740460DF074F88346D849F3
:100920000DF090F8824604990DF08CF88146D3487A
:10093000006850F8261048460DF03FF8CF49096886
:1009400041F826007EE140460DF05CF88346CC4934
:100950000DF078F8824604990DF074F88146C74886
:10096000006850F8261048460DF027F8C34909687A
:1009700041F8260017EB080901D4494601E0C9F106
:10098000000108460DF03EF8834604990DF05AF830
:100990008246BA480068059A50F8221050460DF079
:1009A0000CF8B6490968059A41F822004AE1B7F106
:1009B000000901DB494601E0C9F1000108460DF0DC
:1009C00021F8834604990DF03DF88246AB48006853
:1009D00050F8261050460CF0F0FFA849096841F87D
:1009E00026002FE1A8EB07000DF00CF882460499D1
:1009F0000DF028F88146A148006850F826104846B6
:100A00000CF0DBFF9D49096841F82600B8F10009A8
:100A100001DB494601E0C9F1000108460CF0F2FF94
:100A2000974900900DF00EF8834604990DF00AF8EE
:100A3000824692480068059A50F8221050460CF001
:100A4000BCFF8E490A68059942F82100FAE0B8F126
:100A5000000901DB494601E0C9F1000108460CF03C
:100A6000D1FF874900900CF0EDFF834604990CF00C
:100A7000E9FF82468148006850F8261050460CF085
:100A80009CFF7E49096841F82600DBE0B7F10009C8
:100A900001DB494601E0C9F1000108460CF0B2FF54
:100AA000774900900CF0CEFF834604990CF0CAFF02
:100AB00082467248006850F8261050460CF07DFFC0
:100AC0006E49096841F82600A7EB08000CF09AFF70
:100AD000824604990CF0B6FF814668480268059882
:100AE00052F8201048460CF068FF64490A680599DE
:100AF00042F82100A6E0B8F1000901DB494601E017
:100B0000C9F1000108460CF07DFF834604990CF002
:100B100099FF82465948006850F8261050460CF05C
:100B20004CFF5649096841F826008BE017EB08098D
:100B300001D4494601E0C9F1000108460CF062FF0A
:100B4000834604990CF07EFF82464C48006850F8BA
:100B5000261050460CF031FF4849096841F826003C
:100B6000B7F1000901DB494601E0C9F1000108467F
:100B70000CF048FF424900900CF064FF8346049952
:100B80000CF060FF82463D480068059A50F822103C
