:020000040800F2
:1000000028F5072495030008A30300086D090008DC
:1000100085400190A9030008AB0300080000000020
:10002000000000000000000000000000AD03000818
:10003000AF030008000000003F190090A50B000866
:10004000B5030008B5030008B5030008915B0190F3
:10005000B5030008B5030008B5030008B5030008A0
:10006000B5030008B5030008B5030008B503000890
:10007000ED980090B5030008B5030008B50300082B
:10008000B5030008B5030008B5030008B503000870
:10009000B5030008B5030008B5030008B503000860
:1000A000B5030008097E0190B5030008D97C0190D2
:1000B000B5030008B50300088D7E0190B503000864
:1000C000B5030008B5030008B5030008B503000830
:1000D000B5030008B90B0008B57F0190B50300080F
:1000E000B5030008355B019000000000B50300086F
:1000F000517F0190B5030008B503000821990090D5
:10010000B5030008B5030008B5030008B5030008EF
:10011000B5030008B5030008C97E0190097F01906E
:10012000B5030008B5030008B5030008B5030008CF
:10013000B5030008B5030008B5030008B5030008BF
:1001400000000000000000000000000000000000AF
:10015000B5030008B5030008B5030008B50300089F
:10016000B5030008B5030008B5030008B50300088F
:10017000B5030008B5030008B5980090B503000862
:10018000B5030008B5030008B5030008B50300086F
:10019000B5030008B5030008B5030008B50300085F
:1001A000B5030008B5030008B5030008B50300084F
:1001B000B5030008B5030008B5030008B50300083F
:1001C000B5030008B5030008B5030008B50300082F
:1001D000B50300084D540190B5030008B5030008AD
:1001E000B5030008B5030008B5030008B50300080F
:1001F000B5030008B5030008B5030008B5030008FF
:10020000B5030008B5030008B5030008B5030008EE
:10021000B5030008B5030008B5030008B5030008DE
:10022000B503000821DB0090B53501900000000007
:10023000B5030008B503000800000000B50300087E
:10024000B5030008B5030008B5030008B5030008AE
:10025000B5030008B5030008B5030008B50300089E
:10026000B5030008B5030008B5030008B50300088E
:10027000B5030008B5030008B5030008000000003E
:10028000B5030008B5030008B5030008000000002E
:1002900000000000B503000800F002F800F06AF862
:1002A0000AA090E8000C82448344AAF10107DA45D1
:1002B00001D100F05FF8AFF2090EBAE80F0013F0B9
:1002C000010F18BFFB1A43F0010318479C340000CC
:1002D000BC3400000A444FF0000C10F8013B13F04E
:1002E000070408BF10F8014B1D1108BF10F8015B8F
:1002F000641E05D010F8016B641E01F8016BF9D182
:1003000013F0080F1EBF10F8014BAD1C0C1B09D1D8
:100310006D1E58BF01F801CBFAD505E014F8016B4A
:1003200001F8016B6D1EF9D59142D6D370470000DC
:100330000023002400250026103A28BF78C1FBD8EE
:10034000520728BF30C148BF0B6070471FB503F08C
:1003500005FA00F0C1F804000020002103F0E8F9DC
:10036000401C60600020002103F0CCF9E0601FBD5C
:1003700010B510BD00F0B4F81146FFF7E7FF00F02C
:1003800001FD00F0D2F803B4FFF7F2FF03BC00F068
:100390005FFC00000B48016841F4700101600A48ED
:1003A0000047FEE7FEE7FEE7FEE7FEE7FEE7FEE7C3
:1003B000FEE7FEE7FEE7000004480549034A054B57
:1003C0007047000088ED00E09902000828ED07243E
:1003D00028F5072428ED0724704753EA020C00F0A3
:1003E00069802DE9F04B4FF00006002B1FBFB3FAD8
:1003F00083F503FA05F424FA05F65E4012BF1643AE
:10040000B2FA82F502FA05F4C5F120051EBF22FA00
:1004100005FC44EA0C04203556EA044C4FEA144427
:1004200018BF641C4FF000084FF00009904271EBB8
:10043000030C39D3002919BFB1FA81F701FA07F685
:10044000B0FA80F700FA07F6C7F120071EBF20FABE
:1004500007FC46EA0C062037B6FBF4FCA7EB0507C1
:10046000103F07F01F0BCBF120060CFA0BFB2CFA08
:1004700006F644BFB3460026202FA4BF5E464FF0C9
:10048000000B5BEA060C08BF4FF0010B19EB0B09E0
:10049000ABFB027C48EB0608C01B06FB02CC0BFB47
:1004A00003CC71EB0C01C1E70B46024641464846BE
:1004B000BDE8F08B13B54FF000004FF00001AFF333
:1004C0000080BDE81C407047704770477047704718
:1004D00000487047C4EC072400487047E4EC072448
:1004E0007546FFF7F5FFAE4605006946534620F016
:1004F0000700854618B020B5FFF75EFFBDE8204035
:100500004FF000064FF000074FF000084FF0000BCF
:1005100021F00701AC46ACE8C009ACE8C009ACE882
:10052000C009ACE8C0098D46704710B50446AFF36A
:1005300000802046BDE81040FFF725BF43F2196C4C
:10054000C9F2000C604744F6275CC9F2010C604711
:1005500044F2791CC9F2010C604744F29D1CC9F2B7
:10056000010C604744F2392CC9F2010C604744F297
:10057000812CC9F2010C604744F6A13CC9F2010C80
:10058000604744F2F50CC9F2010C604744F25D4C3F
:10059000C9F2010C604744F2F12CC9F2010C60472A
:1005A00044F2093CC9F2050C604744F6D10CC9F28B
:1005B000050C604742F2BD0CC9F2050C604744F6D9
:1005C000F10CC9F2050C60474DF6115CC9F2020C42
:1005D000604745F6A96CC9F2040C604741F6D92C76
:1005E000C9F2040C60474CF6253CC9F2050C604783
:1005F0004AF28D0CC9F2020C604746F2C54CC9F2B2
:10060000050C604747F6216CC9F2020C604742F2C4
:10061000654CC9F2040C60474EF2797CC9F2020CB9
:10062000604743F6856CC9F2040C60474AF63D0CFE
:10063000C9F2020C60474EF6214CC9F2050C604726
:100640004AF2B55CC9F2050C60474EF2A16CC9F2E2
:10065000040C60474CF2192CC9F2040C604743F6B5
:100660009D5CC9F2030C60474DF6D15CC9F2050CE4
:10067000604746F26D5CC9F2020C60474AF2E14CF9
:10068000C9F2030C60474EF2E53CC9F2030C604727
:1006900044F6E15CC9F2040C604741F61D5CC9F206
:1006A000020C604742F6152CC9F2050C604744F66F
:1006B000796CC9F2050C604744F64D5CC9F2010C37
:1006C000604744F2393CC9F2010C604742F2212CE8
:1006D000C9F2020C604741F6AF0CC9F2000C60474A
:1006E00044F6C52CC9F2010C604741F6CB0CC9F2A7
:1006F000000C60474EF2D50CC9F2030C60474DF276
:10070000653CC9F2030C604747F2797CC9F2030CDF
:1007100060474AF29D6CC9F2030C604743F2C12C5A
:10072000C9F2030C60474EF6693CC9F2020C6047FF
:100730004AF28D4CC9F2050C604741F2512CC9F2C6
:10074000040C60474DF2B93CC9F2030C60474EF20D
:10075000553CC9F2030C60474AF2714CC9F2030CD4
:10076000604746F2355CC9F2020C604745F2A12CA5
:10077000C9F2020C604740F6796CC9F2020C60477E
:1007800040F6914CC9F2020C60474FF2053CC9F2A9
:10079000030C604749F2156CC9F2050C604741F241
:1007A000114CC9F2040C604747F6AD0CC9F2030CBA
:1007B000604745F6096CC9F2040C604741F65D7C60
:1007C000C9F2050C60474AF6713CC9F2050C604756
:1007D0004FF2791CC9F2020C604741F2615CC9F228
:1007E000040C60474AF27D7CC9F2030C604742F278
:1007F000E90CC9F2020C604741F2E13CC9F2020C7B
:10080000604743F6796CC9F2000C604743F6957C6B
:10081000C9F2000C604743F2316CC9F2000C60472A
:100820004EF23F1CC9F2030C60474FF23D5CC9F227
:10083000040C60474AF2790CC9F2020C60474AF294
:10084000550CC9F2020C604740F6311CC9F2030C8A
:1008500060474FF2011CC9F2020C60474FF6353C6D
:10086000C9F2020C604741F2590CC9F2030C60470F
:100870004AF6853CC9F2050C60474AF6B94CC9F204
:10088000050C604749F2696CC9F2050C604745F2F6
:10089000712CC9F2020C604743F27D2CC9F2030CA3
:1008A000604743F2653CC9F2030C604741F2991C72
:1008B000C9F2020C604742F22D2CC9F2020C6047CB
:1008C00042F2416CC9F2020C604749F6694CC9F228
:1008D000050C604749F2BD6CC9F2050C604742F255
:1008E000655CC9F2020C604741F23D5CC9F2040C40
:1008F000604749F2453CC9F2020C604745F2A17CD1
:10090000C9F2040C604741F6612CC9F2020C604741
:1009100041F2E94CC9F2040C604748F6E57CC9F2A3
:10092000020C604745F68D2CC9F2040C60474AF270
:10093000294CC9F2030C604740F64D6CC9F2050C16
:10094000604740F25D5CC9F2050C604746F2694CB5
:10095000C9F2030C604746F2852CC9F2030C6047CC
:1009600044F2192CC9F2000C604700002DE9F04157
:100970000126002517480768394617A0FFF7DEFD56
:100980001448001D0768394616A0FFF7D7FD114827
:1009900008300768394616A0FFF7D0FD0D4814301F
:1009A0000768394615A0FFF7C9FD0FE0681CC5B2FE
:1009B00086F00100064602464021134800F0B4FFCD
:1009C000002400E0641C11488442FBD3052DEDDBBC
:1009D000BDE8F08128ED00E0434653523A253858EF
:1009E0000D0A0000484653523A2538580D0A0000B7
:1009F000444653523A2538580D0A00004146535296
:100A00003A2538580D0A000000100258FFFF1F0059
:100A100010B50023234C236000BF00BF00BFBFF30D
:100A20004F8F00BF00BF00BF231F1868C0F34E31B7
:100A300000BFC0F3C90200BF43F6E07303EA4113ED
:100A40004FF0404404EA82742343174C236000BFF4
:100A500000BF131EA2F10102EED10B1EA1F1010194
:100A6000E7D100BF00BF00BFBFF34F8F00BF00BF83
:100A700000BF0C4B703B1B6843F48033094C703C47
:100A8000236000BF00BF00BFBFF34F8F00BF00BF98
:100A900000BF00BF00BF00BFBFF36F8F00BF00BF2C
:100AA00000BF10BD84ED00E060EF00E000BF00BFBC
:100AB00000BFBFF34F8F00BF00BF00BF00BF00BF2C
:100AC00000BFBFF36F8F00BF00BF00BF00201449FD
:100AD000086000BF00BF00BFBFF34F8F00BF00BF63
:100AE00000BF00BF00BF00BFBFF36F8F00BF00BFDC
:100AF00000BF0C48006840F400300A49086000BF9D
:100B000000BF00BFBFF34F8F00BF00BF00BF00BFDB
:100B100000BF00BFBFF36F8F00BF00BF00BF7047B3
:100B200050EF00E014ED00E010B500231B4C2360F3
:100B300000BF00BF00BFBFF34F8F00BF00BF00BFAB
:100B4000231F1868C0F34E3100BFC0F3C90200BFB5
:100B500043F6E07303EA41134FF0404404EA827421
:100B600023430F4C236000BF00BF131EA2F10102FC
:100B7000EED10B1EA1F10101E7D100BF00BF00BF04
:100B8000BFF34F8F00BF00BF00BF00BF00BF00BF5B
:100B9000BFF36F8F00BF00BF00BF10BD84ED00E04A
:100BA00060EF00E010B503480078012801D1FFF79D
:100BB000CAFC10BD8701002410B5FFF7C9FC21480D
:100BC000C06900F0200008B31E48406AC4B21E4845
:100BD000008800F40040C8B91B48008800F4804039
:100BE00060B10A2C03D000201749088020E0164885
:100BF000008840F400401449088019E00D2C06D10B
:100C00001148008840F480400F49088010E00E48E9
:100C10000088C0F30D000D490C540B480088401C9F
:100C20000949088008460088C72801DD002008809F
:100C30000448006A40F0080002490862FFF78DFC92
:100C400010BD000000100140C80000245A230024F9
:100C500000BF70474FF0E022126942F004024FF0EB
:100C6000E0231A610D4A10601A46126942F001022F
:100C70001A616FF070425A6101464FF47A72514323
:100C80000122074B1A804FF0E022126942F0020263
:100C90004FF0E0231A611A4651617047BC000024EE
:100CA000C000002470B504460F480078A0B10F487A
:100CB000007888B90E480088844206DB0C4800881A
:100CC00094FBF0F5284600F01DF80948008894FBD5
:100CD000F0F100FB114084B24FF47A7104FB01F093
:100CE00000F016F870BD0000870100247D0100248B
:100CF000C000002410B5FFF735FC10BD10B5FFF79C
:100D000036FC10BD10B504462046FFF735FC10BD7B
:100D10002DE9F047074600264FF0E020D0F8149068
:100D20001048006807FB00F8FFF7E4FF4FF0E020F1
:100D3000856911E04FF0E0208469AC420CD0AC42F0
:100D400002D2281B064403E0A9EB04002844064411
:100D50002546464500D300E0ECE700BFFFF7CEFF95
:100D6000BDE8F087BC00002400BF054AD26902F04C
:100D70004002002AF9D0C2B2014B9A6270470000CB
:100D80000010014000B585B001F09AF9FFF7F9FBBA
:100D9000072000214022094BCDE90132CDE90310A3
:100DA0000A200346054AFC3200900548FFF7EEFB97
:100DB000FFF7F1FB002005B000BD00000008002493
:100DC0008514000800250020FFF7EAFBFFF7EDFB84
:100DD0003849488AFFF7EEFB6BE0FFF7F0FB04466B
:100DE000002035490870172C52D2DFE804F00C0FB0
:100DF0001215181B1E2124272A2D303336393C3F6B
:100E00004245484B4E00FFF7DFFB41E0FFF7E1FBB7
:100E10003EE0FFF7E3FB3BE0FFF7E5FB38E0FFF7E1
:100E2000E7FB35E0FFF7E9FB32E0FFF7EBFB2FE0F4
:100E3000FFF7EDFB2CE0FFF7EFFB29E0FFF7F1FBFD
:100E400026E0FFF7F3FB23E0FFF7F5FB20E0FFF7D9
:100E5000F7FB1DE0FFF7F9FB1AE0FFF7FBFB17E0DC
:100E6000FFF7FDFB14E0FFF7FFFB11E0FFF701FCCC
:100E70000EE0FFF703FC0BE0FFF705FC08E0FFF7CF
:100E800007FC05E0FFF709FC02E0FFF70BFC00BFE1
:100E900000BFFF2C01D0FFF788FB0120FFF702FF06
:100EA000681C85B2B5F5FA7F03D100250020FFF755
:100EB000FEFB92E7C02100240200002410B5044686
:100EC000240300F0A1F900F039F907480078002167
:100ED00041EA0010401DC2B20B462146202000F01E
:100EE0002BFA00F02BF910BDE200002410B500240D
:100EF00000BF1A48806800F020000028F9D14FF4A4
:100F000083701649486100BF1448806800F00200F1
:100F10000028F9D01148C06840F002000F49C860AD
:100F20004FF6FF720021202000F092FA98B9EB24CE
:100F300044F4807444F440640948007844EA00347E
:100F400044F4404400BF44F4801444F0407444F03E
:100F500040640248446100F064FD10BD005000523E
:100F6000E200002470B50446002500F009F80546AB
:100F700015B92046FFF7A2FFFFF7B8FF70BD0000CC
:100F800010B5002400F04BFD00BF00BF00BF00BF44
:100F900000BFBFF34F8F00BF00BF00BF00BF00BF47
:100FA00000BFBFF36F8F00BF00BF00BF0020194913
:100FB000086000BF00BF00BFBFF34F8F00BF00BF7E
:100FC00000BF00BF00BF00BFBFF36F8F00BF00BFF7
:100FD00000BF00BFFFF7A8FD0F48006820F0010028
:100FE0000D4908600846006840F0020008604FF6AE
:100FF000FF720021202000F02BFA04463CB90020AB
:10100000054948610846006840F001000860204634
:1010100010BD000050EF00E0005000522DE9F041FB
:1010200006460D4617460024A5F1E04500F0F7FC02
:1010300000BF03E0285D3055601C84B2BC42F9DB80
:1010400000F0EFFCBDE8F08170B500240025FFF74B
:1010500097FF044614B900F033F80546FFF746FF42
:10106000284670BD2DE9F04105460E46174600247E
:10107000FFF786FF044624B93A463146284600F079
:1010800067F8FFF733FF2046BDE8F08170B50546ED
:101090000E46144609480078C02141EA001040F08D
:1010A0000C00401CC2B206233146EB2000F044F98C
:1010B0002146284600F0F0F870BD0000E200002450
:1010C00038B5002365221946902000F035F9022139
:1010D000684600F0E1F89DF801009DF8001040EA34
:1010E00001244EF61870844202D103200149087091
:1010F000204638BDE200002438B5044600200090A8
:101100000025012C04D0022C04D0032C06D103E0CE
:10111000052505E0352503E0152501E0052500BF7F
:1011200000BF002341221946284600F005F901219D
:10113000684600F0B1F89DF8000038BD10B500BF5A
:101140000120FFF7D9FF00F001000028F8D110BD01
:101150002DE9F05F81460F461646DFF8A8B04FEA4A
:101160001738C7F30B0ACAF58054A64200DC344690
:1011700044E04FEA08314FF480525846FFF786FFAB
:10118000002508E00AEB05001BF80000FF2800D04E
:1011900003E0681C85B2A542F4DB00BFA54216DA65
:1011A0004046FFF78BFE002507E019F8050005EB28
:1011B0000A010BF80100681C85B2A542F5DB4FEA75
:1011C00008314FF48052584600F026F804E02246D9
:1011D0003946484600F020F8A64200D10FE008F159
:1011E00001084FF0000AA1442744301B86B2B6F52F
:1011F000805F02DD4FF4805400E03446B9E700BF61
:10120000BDE8F09FA824002410B500230122194650
:10121000062000F091F810BD2DE9F04107460E467A
:101220001446F0B2C0F58075AC4200DC254612E0F1
:101230002A463146384600F013F8AC4200D10BE0A4
:101240002F442E44601B84B2B4F5807F02DD4FF43E
:10125000807500E02546EBE700BFBDE8F0810000A7
:1012600070B505460E461446FFF7CEFF09480078D4
:10127000C02141EA0010401DC2B200233146322095
:1012800000F05AF82146284600F096F8FFF756FF7E
:1012900070BD0000E20000242DE9F04306460D4633
:1012A00024484769D0F81880DFF8889009F12009B0
:1012B000681E2049086127F0406747F080670846AC
:1012C000C06840F00200C86008464761C0F8188056
:1012D0000EE04FF6FF720121062000F0B9F8044637
:1012E0002CB999F8000006F8010B6D1E00E001E032
:1012F000002DEED100BFD4B90E48006840F00400C4
:101300000C4908604FF6FF720121022000F0A0F89E
:10131000044664B90748C06840F002000549C86047
:101320004FF6FF720021202000F092F8044620467C
:10133000BDE8F083005000522DE9F043074688468F
:101340001546994600244FF6FF720021202000F038
:101350007FF868BB00BF00BF00BFA80944EA006473
:1013600044EA8944C5F3011044EA0034C5F381001E
:1013700044EA802405F0030044EA00243C430D487D
:10138000446105F00C0010B10A48C0F8188005F05F
:10139000C00068B94FF6FF720121022000F058F832
:1013A00006462EB90348C06840F002000149C860F3
:1013B000BDE8F083005000522DE9F04306460D468B
:1013C00022484769D0F81890DFF8808008F120089B
:1013D000681E1E49086127F0406700BF0846C068C4
:1013E00040F00200C860084647610DE04FF6FF720A
:1013F0000121042000F02CF8044604B106E016F8A0
:10140000010B88F800006D1E002DEFD100BFD4B98C
:101410000E48006840F004000C4908604FF6FF7267
:101420000121022000F014F8044664B90748C0689E
:1014300040F002000549C8604FF6FF7200212020ED
:1014400000F006F804462046BDE8F0830050005244
:1014500010B5034600240BE009488068184008B125
:10146000012000E0002004468C4200D102E0521E20
:10147000002AF1D100BF0AB1002010BD0120FCE715
:101480000050005270B586B00446002600BF244DBF
:101490002846FFF711F9FFF714F922480068FFF713
:1014A00015F900BF1020FFF716F9064600BF072008
:1014B00000214FF496621C4BCDE90132CDE90310B7
:1014C00006200346194A00901948FFF75FF80720E5
:1014D00000218022174BCDE90310CDE901320090A5
:1014E0000346154A1548FFF751F8072000214FF42D
:1014F0008072134BCDE90132CDE90310032003467E
:10150000104A00901048FFF741F80A20FFF7E8F86A
:1015100000BF3046FFF7E9F800BF06B070BD00001D
:1015200000530700AC010024000B0024BC1D002464
:10153000C50D000800090024FC0A0024313400080D
:10154000C01D0024BC2100244135000810B5FFF760
:10155000ADFAFFF75DFA0348006840F00400014966
:10156000086010BD9CEF00E0F0B504460D46002178
:1015700000200026CA4F3F6827F00407DFF820C389
:10158000CCF80070C64F0C373F6847F44047DFF88F
:1015900010C30CF10C0CCCF80070C24F3F6847F040
:1015A0000207DFF800C3CCF80070BF4F3F6847F078
:1015B0000107DFF8F4C2CCF8007000BFB84F0C3759
:1015C0003F6807F40057002FF8D0B64FF43F3F684C
:1015D00047F48037DFF8CCC2ACF1F40CCCF80070E3
:1015E00000E0491CAF4FF43F3F6807F400371FB9D4
:1015F00047F6FF77B942F4D347F6FF77B94201D1F6
:1016000001204BE1A74FCC3F3F6847F00207DFF8CE
:1016100094C2ACF1CC0CCCF8007067463F6847EA46
:101620000517CCF800709F4FC43F3F68A4F1010C30
:1016300047EA0C07DFF86CC2ACF1C40CCCF80070C0
:101640006746D7F800C0571E4CEA4727DFF854C258
:10165000ACF1C40CCCF800706746D7F800C05F1E30
:101660004CEA0747DFF83CC2ACF1C40CCCF8007080
:1016700067463F6847F08077CCF80070ACF104070C
:101680003F6847F00807ACF1040CCCF800706746DF
:101690003F68CCF8007067463F6847F44037CCF8A5
:1016A0000070804FF43F3F6847F08077DFF8F4C167
:1016B000ACF1F40CCCF80070002105E0491CB1F548
:1016C000001F01D3022006E0764FF43F3F6807F089
:1016D0000077002FF2D000BF724FCC3F3F6847F435
:1016E0000047DFF8C0C1ACF1CC0CCCF800706D4FF6
:1016F000BC3F3F6840F2B71C47EA0C07DFF8A4C1C3
:10170000ACF1BC0CCCF8007067463F6847F400773A
:10171000CCF8007067463F6847F08077CCF80070DF
:10172000604FC83F3F68DFF87CC1ACF1C80CCCF813
:10173000007067463F68CCF8007067463F6847F422
:101740000027CCF8007067463F6847F40017CCF8D4
:101750000070544FA83F3F6827F00307DFF844C1EB
:10176000ACF1A80CCCF8007067463F6847F0020760
:10177000CCF800704B4FF43F3F6847F08067DFF8CC
:1017800024C1ACF1F40CCCF80070002105E0491C38
:10179000B1F5001F01D3032006E0424FF43F3F683C
:1017A00007F00067002FF2D000BF3E4FDC3F3F68DC
:1017B00047F00807DFF8ECC0ACF1DC0CCCF80070A7
:1017C00067463F68CCF80070364FE43F3F6847F00B
:1017D0000307DFF8D0C0ACF1E40CCCF800700021B6
:1017E0000AE0304FE43F3F68C7F3C206491CB1F539
:1017F000001F01D3042001E0032EF2D100BF2B4FC4
:101800003F6847F00207DFF8A4C0CCF800706746D5
:101810003F6847F02007CCF80070224FDC3F3F685C
:1018200047F04007DFF87CC0ACF1DC0CCCF800706E
:101830000CF104073F6847F040070CF1040CCCF8AA
:10184000007067463F6847F48067CCF800700CF181
:1018500004073F6847F040070CF1040CCCF8007017
:10186000104FF43F3F6847F08007DFF838C0ACF115
:10187000F40CCCF800700B4F3F6847F00207DFF81C
:1018800024C0CCF80070084F0C3F3F6847F00107B8
:10189000DFF814C0ACF10C0CCCF80070F0BD000007
:1018A0000C480258F44402582C04005800200052FE
:1018B000F0B5034600200024002500BF29E00126E2
:1018C00006FA00F401EA0405A54221D1C70803F194
:1018D000200656F8276047074FEAD76C0F2707FA0C
:1018E0000CF7BE434FEAD00C03F1200747F82C60F9
:1018F000C70803F1200656F827604707FF0E02FAD3
:1019000007F73E434FEAD00C03F1200747F82C605D
:10191000401C1028D3D3F0BD02461069084008B11E
:10192000012070470020FCE702F001031BB183692E
:101930000B43836103E0836943EA0143836170479A
:101940002DE9F0470C46DDE90867002100258C46AB
:1019500000BF60E04FF0010808FA01F504EA050C49
:10196000AC4557D1D0F800804FEA410A4FF0030947
:1019700009FA0AF928EA0908C0F80080D0F80080BE
:101980004FEA410902FA09F948EA0908C0F800805B
:10199000012A01D0022A27D1D0F808804FEA410A53
:1019A0004FF0030909FA0AF928EA0908C0F8088083
:1019B000D0F808804FEA410906FA09F948EA09080F
:1019C000C0F80880D0F804904FF0010808FA01F838
:1019D00029EA0809C0F80490D0F8048003FA01F954
:1019E00048EA0908C0F80480D0F80C804FEA410AA0
:1019F0004FF0030909FA0AF928EA0908C0F80C802F
:101A0000D0F80C804FEA410907FA09F948EA0908B9
:101A1000C0F80C80491C10299CD3BDE8F08772B631
:101A2000704762B6704700BF80F3088800BF7047F8
:101A30002DE9F0410746884614461D46284600F029
:101A400033F8C5F1040007FA00F60F20284100EA38
:101A50000800064306F00F06E21704EBD2625211AB
:101A6000920002F1E022D2F800212146E31704EBB4
:101A7000D3635B11A4EB431C012303FA0CF31A4359
:101A80002046E31704EBD3635B119B0003F1E023D3
:101A9000C3F800210348005D40EA061001490855DB
:101AA000BDE8F08100E400E00146072323EA0102DB
:101AB0001202054B18684FF6FF031840034B1843FA
:101AC0001043014B186070470CED00E00000FA0570
:101AD0004A0A52020243014B1A60704708ED00E0C7
:101AE0003CB5054600247248006840F00200704989
:101AF00008600846006840F0080008600846006872
:101B000040F0100008606A480C38006840F48040DB
:101B100067490C3908600120032100230222CDE926
:101B2000001004216348FFF70BFF0120032100236D
:101B30000222CDE9001040215E48FFF701FF01209D
:101B4000032100230222CDE900104FF460515A48CE
:101B5000FFF7F6FE0120032100230222CDE9001049
:101B600004215648FFF7ECFE092204215148FFF7F3
:101B70009FFE0A2240214F48FFF79AFE09224FF4A8
:101B800000614D48FFF794FE09224FF480514A4806
:101B9000FFF78EFE09224FF400514748FFF788FEF9
:101BA000092204214548FFF783FE41486438006854
:101BB00040F480403E49643908600846006820F4DB
:101BC0008040086000BF3E48806800F02000002888
:101BD000F9D137489438006820F0300034499439FE
:101BE00008600846006840F0200008603548344925
:101BF0000860354848600846006840F00100086009
:101C000000BF2F48806800F020000028F9D14FF471
:101C100083702B49486100BF2948806800F00200AA
:101C20000028F9D02648C06840F002002449C86066
:101C300000BF2348806800F020000028F9D1204927
:101C4000C861EB2444F4807444F44064A81C44EA62
:101C5000003444F4404400BF44F4801444F0407421
:101C600044F04064084644611848006820F480301D
:101C70001649086015487030006820F001001349CB
:101C8000703108600020091D08604FF01040091DE8
:101C900008600F48091D086005200C497031086074
:101CA0000A48006840F48030084908603CBD0000E4
:101CB000E044025800040258000C02580010025878
:101CC00000500052100300010102180024ED00E052
:101CD0002D00030301480249086070470400FA051B
:101CE0000CED00E02DE9F04104460D4616461F4676
:101CF000012015490860002013491031086012497D
:101D000018310860091D0860091D08600E49283156
:101D10000860091D08600C496031086001200B490A
:101D200008603B46324629462046FFF71DFC00204E
:101D3000FFF7D6FEFFF70AFC00214FF00060FFF727
:101D4000C7FEBDE8F0810000004402580881005140
:101D50000EB507460D4616461C464FF0010826E014
:101D60004FF47840CDE9004602901148438802883C
:101D700029463846FEF7BEFC4FF4C870FEF792FFC6
:101D800000200090281983B209480088401E82B2C2
:101D900029463846FEF7B3FC6420FEF783FF88F03F
:101DA00001008046024610210248FFF7BDFDD7E73B
:101DB0002224002400040258FEB506460F461446AD
:101DC0001D46012210210C48FFF7AEFD4FF478406C
:101DD000CDE90045029009484388028839463046DB
:101DE000FEF788FC4FF4FA60FEF75CFF002210213A
:101DF0000148FFF799FDFEBD00100258222400247F
:101E00002DE9FE4F81460D4614464FF0010A4FF072
:101E1000000800274FF478404FA1CDE9004102901F
:101E200053484388028829464846FEF763FC91E000
:101E300008F1010000F0FF08B8F1140F0DD14FF4C4
:101E400078404CA1CDE9004102904948438802887E
:101E5000281981B24846FEF74DFCB8F1280F13D17E
:101E60000020009042480288281981B22346484643
:101E7000FEF74AFC4FF000088AF001008246024655
:101E800010214148FFF750FD0020FEF742FC0646B6
:101E9000012E14D1002063000090354802882946A5
:101EA0004846FEF731FC4FF6FF70384908600122C2
:101EB00010213548FFF738FD0020BDE8FE8F022EC7
:101EC00045D1012210213048FFF72EFD4FF4784014
:101ED0002FA1CDE9004102902548438802882819A6
:101EE00081B24846FEF706FCC82719E04FF4784156
:101EF000A7F1C800162204FB02FB0BEBDB7209EB17
:101F00006202CDE9000190B22A1991B240F637730E
:101F10002246FEF703FC3846FFF724F8781C87B208
:101F2000B7F5805FE2DB4FF478401FA1CDE90041B7
:101F300002900F4843880288281981B24846FEF76C
:101F4000D9FB4FF41670FEF7ADFE0120B5E70A206D
:101F5000FEF7A8FE6CE70000457261736520616CB6
:101F60006C2073797374656D2066696C65733F00CE
:101F7000222400244B4559303A4E4F202F204B4508
:101F800059313A594553000000040258CC0000244E
:101F900045726173696E672053504920464C415326
:101FA000482E2E2E0000000045726173696E672076
:101FB00053504920464C415348204F4B202020206D
:101FC000202000002DE9FE4F80460E4614464FF0BB
:101FD00001090027BA464FF478402D4908602DA129
:101FE000CDE9004102902F4843880288314640469F
:101FF000FEF780FB35E0781CC7B2142F0DD14FF4EB
:10200000784029A1CDE90041029026484388028802
:10201000301981B24046FEF76DFB282F12D1002007
:10202000009020480288301981B223464046FEF7CE
:102030006BFB002789F001008146024610211F48F2
:10204000FFF772FC0020FEF764FB0546012D00D16E
:1020500008E0022D02D14FF0010A03E00A20FEF74A
:1020600021FEC8E700BF012210211448FFF75CFCE5
:102070000020630000900B48028831464046FEF77E
:1020800043FB4FF6FF70024908605046BDE8FE8FE3
:10209000CC00002455706461746520666F6E743FD7
:1020A00000000000222400244B4559303A4E4F20B6
:1020B0002F204B4559313A5945530000000402582E
:1020C00000B595B0A22014900020139012901190AA
:1020D0000D900C90042302221146F020FFF702FE1F
:1020E0004FF4F070FEF7B6FD4FF4E131782001F0C7
:1020F0002DF9FEF718FB4FF4E1317820FEF718FBBD
:10210000FE4840680690F02006998847FEF715FBC8
:10211000FEF718FBFEF71BFBFEF71EFBFEF721FB8D
:10212000FEF724FBFEF727FBFEF72AFBFEF72DFB4D
:1021300045F6BF516320FEF72DFB0020FEF72FFB75
:102140000120FEF72CFB0220FEF729FB0320FEF7FF
:1021500026FB0420FEF723FBE94800680690804731
:10216000FEF722FBFEF725FBFEF728FBFEF72BFB15
:10217000FEF72EFB1F210020FEF72FFB0C9000BF67
:102180000020FEF72FFB4FF6FF70DE4908600020AD
:10219000DD490860129002201390DC480088B0F5F9
:1021A000887F13DC0C20089018200790BE20149024
:1021B00000204FF6E071D64A1823CDE900210290A5
:1021C0000520079A1399FEF712FB31E0CF480088EB
:1021D000B0F5A07F13D11020089020200790FA209E
:1021E000149000204FF6E071CA4A2023CDE9002167
:1021F00002900520079A1399FEF7F9FA18E0C348F0
:102200000088B0F5F07F13DB18200890302007908D
:102210004FF4B970149000204FF6E071BE4A30239D
:10222000CDE9002102900520079A1399FEF7DFFA05
:10223000B448008880B2B9A20899CDE90012029092
:10224000B24840880690B148008805901298411C19
:1022500089B21291089A139902FB001080B204907F
:102260000146DDE906300A30059AFEF743FAA54833
:10227000008880B2AEA20899CDE900120290A3486E
:1022800040880690A148008805901298411C89B2A8
:102290001291089A139902FB001080B20490014633
:1022A000DDE906300A30059AFEF724FA02220F21F2
:1022B00009A8FEF7A1FAA4A10C98FEF7A2FA09A9B1
:1022C0000C98FEF7A3FAA3A10C98FEF79FFA03223D
:1022D000C82109A8FEF790FA09A90C98FEF796FA0A
:1022E0008848008880B20C9A0899CDE900120290C3
:1022F0008648408806908548008805901298411CC1
:1023000089B21291089A139902FB001080B20490CE
:1023100001460520DDE90523FEF7ECF97B488088BE
:1023200002468FA1069009A8FEF775FA7548008845
:1023300080B209AA0899CDE900120290734840883A
:1023400006907248008805901298411C89B212913B
:10235000089A139902FB001080B2049001460520F0
:10236000DDE90523FEF7C6F9002210217F48FFF7BB
:10237000DBFA002240217E48FFF7D6FA0022202116
:102380007B48FFF7D1FA5F48008880B279A20899AC
:10239000CDE9001202905D48408806905B480088B5
:1023A00005901298411C89B21291089A139902FB68
:1023B000001080B2049001460520DDE90523FEF7F8
:1023C00099F95048008880B271A20899CDE90012AD
:1023D00002904E48408806904C480088059012981C
:1023E000411C89B21291089A139902FB001080B225
:1023F000049001460520DDE90523FEF77BF9012263
:1024000010215A48FFF790FA012240215848FFF75F
:102410008BFA012220215648FFF786FAFEF714FEB8
:1024200046F61701884212D0FEF70EFE4EF61771DF
:1024300088420CD0089ADDE9120102FB001080B23C
:1024400013465BA2014606900520FFF781FC4FF47E
:10245000804011902B48008880B25AA20899CDE99B
:10246000001202902948408806902848008805906C
:10247000DDE9122001FB020080B204900146052034
:10248000DDE90523FEF736F91E48008880B20022F8
:102490000899CDE900120691029001EBD17040102D
:1024A00000EB400101EBC000401D80B20490DDE96B
:1024B0001220089901FB020080B205230590014615
:1024C000119A0498FEF7ACF90E48008880B242A237
:1024D0000899CDE9001202900C48408806900B48FC
:1024E000008805901298411C89B21291089A13999C
:1024F00002FB001080B2049014986FE06002002488
:10250000FC000024CC000024D0000024222400245D
:10251000EC06069034070690B4070690414C4945F6
:102520004E54454B2053544D33324837353000001C
:10253000436F7079726967687420284329203230AC
:1025400031392D32303239004841524457415245D9
:102550003A0000002C20534F4654574152453A0050
:102560004C43442049443A25303458000004025872
:10257000001002584350553A53544D3332483735C2
:102580003056425436203438304D687A000000000E
:10259000464C4153483A3132384B422B31364D424A
:1025A000205352414D3A313036304B42000000004A
:1025B0005153504920466C617368204572726F72A6
:1025C000212100005153504920466C6173683A2024
:1025D000202020204B4200004F4B0000401D80B2C5
:1025E000039004A90EC9FEF785F80120FEF791F8C3
:1025F0001090109803280FD1DDE91220089901FBF3
:10260000020080B20A46014606900520FFF7F8FB5B
:102610001090109800B1B3E5FD48008880B2FDA28B
:102620000899CDE900120290FE4840880690FD48C6
:1026300000880590DDE9122001FB020080B20490C1
:1026400001460520DDE90523FEF754F8FEF7EDF815
:1026500090B11298411C89B21291089A139902FB09
:10266000001080B206901498401D80B2EEA3059031
:102670000699FFF7A1FB26E0ED48FEF7DBF8EC48F2
:10268000FEF7DDF8E248008880B2AFF2B4020899A4
:10269000CDE900120290E34840880690E1480088A6
:1026A00005901298411C89B21291089A139902FB65
:1026B000001080B204901498401D80B2039004A9C9
:1026C0000EC9FEF717F8D248008880B2D9A208993F
:1026D000CDE900120290D34840880690D148008886
:1026E0000590DDE9122001FB020080B20490014652
:1026F0000520DDE90523FDF7FDFFD2480068012232
:10270000D1A10690FEF7A0F8CE4840680122CFA1E3
:102710000690FEF799F8BE48008880B2AFF24812E2
:102720000899CDE900120290BE4840880690BD4845
:10273000008805901298411C89B21291089A139949
:1027400002FB001080B204901498401D80B20390E8
:1027500004A90EC9FDF7CEFFAD48008880B2BCA227
:102760000899CDE900120290AE4840880690AD4825
:1027700000880590DDE9122001FB020080B2049080
:1027800001460520DDE90523FDF7B4FF0020119087
:1027900000BF1198401C80B211900EAA0FA9AAA0E8
:1027A000FEF757F81090C820FEF77CFA109810B189
:1027B00011980528EDDB109878B9A948B0F8010008
:1027C00040F00100A649A1F801000F98C0F38F2046
:1027D0001190AFF2FC100D9003E00020119092A038
:1027E0000D908B48008881B200220898CDE9000244
:1027F0000291069000EBD0704010C000401D80B2E6
:102800000490DDE91221089800FB021080B2052334
:1028100005900146119A0498FEF702F87C4800885A
:1028200080B20D9A0899CDE9001202907D48408847
:1028300006907C48008805901298411C89B212913C
:10284000089A139902FB001080B204901498401D5E
:1028500080B2039004A90EC9FDF74CFF002011902F
:1028600000BF1198401C80B211900EAA0FA977A04A
:10287000FDF7EFFF1090C820FEF714FA109810B182
:1028800011981428EDDB10980D284DD16048008870
:1028900080B274A20899CDE9001202906148408884
:1028A0000690604800880590DDE9122001FB0200D7
:1028B00080B2049001460520DDE90523FDF71AFFEB
:1028C0004FF400730022114660A0FDF7C7FF10907F
:1028D000109848BB6BA0FDF7C6FF4D48008880B23A
:1028E000AFF20C320899CDE9001202904D484088B1
:1028F00006904C48008805901298411C89B21291AC
:10290000089A139902FB001080B204901498401D9D
:1029100080B2039004A90EC9FDF7ECFE0EAA0FA920
:102920004AA0FDF796FF1090109828BB4C48B0F8CD
:10293000010040F002004A49A1F801003448008833
:1029400080B253A20899CDE9001202903548408820
:102950000690344800880590DDE9122001FB020052
:1029600080B2049001460520DDE90523FDF7C2FE93
:102970000F9880B211900DE0DDE91201401C089A19
:1029800002FB001080B2134647A2014606900520C4
:10299000FFF7DEF91E48008880B200220899CDE9D1
:1029A00000120691029001EBD1704010C0EB0010B4
:1029B000401D80B20490DDE91221089800FB02104E
:1029C00080B2052305900146119A0498FDF728FF6F
:1029D0000F48008880B2AFF200420899CDE900129A
:1029E00002901048408806900E4800880590129882
:1029F000411C89B21291089A139902FB001080B20F
:102A000004901498401D80B2039004A90EC955E0AB
:102A1000CC00002452544320436865636B2E2E2E55
:102A200000000000222400244552524F52000000B2
:102A300040230024464154465320436865636B2E6F
:102A40002E2E00008CD90724303A0000313A0000C5
:102A5000534420436172643A20202020204D4200DC
:102A600010DD072453504920466C61736820446987
:102A7000736B20466F726D617474696E672E2E2EB3
:102A800000000000313A414C49454E54454B00008E
:102A900053504920466C617368204469736B3A2037
:102AA000202020204B420000466C61736820466164
:102AB00074204572726F722100000000FDF71AFE4B
:102AC0000020FDF7D5FE0020119012E0FDF7D5FEA5
:102AD000FE48007800F0400020B91198B0F5967FCC
:102AE00000DD0DE00520FEF7DDF81198401C80B2F6
:102AF0001190F648407818B91198B0F5C86FE5DB29
:102B000000BFF248407801281CD145F6BF51632030
:102B1000FDF7B8FE0220EE4989684870EC488068ED
:102B20000122ECA10690FDF78FFE0EAA0FA9E9A0E5
:102B3000FDF78FFE1090E848006820F00100E6499C
:102B4000086001E0FF201090E448008880B2E4A211
:102B50000899CDE900120290E54840880690E448C3
:102B600000880590DDE9122001FB020080B204908C
:102B700001460520DDE90523FDF7BCFD109878B975
:102B8000DC48B0F8010040F00400DA49A1F8010087
:102B90000F98C0F38F201190AFF2C4500D9004E055
:102BA00000201190AFF280100D90CC48008880B2C8
:102BB00000220899CDE900120691029001EBD17034
:102BC0004010C0EBC000401D80B20490DDE912212E
:102BD000089800FB021080B2052305900146119A67
:102BE0000498FDF71DFEBD48008880B20D9A089933
:102BF000CDE900120290BE4840880690BC4800888B
:102C000005901298411C89B21291089A139902FBFF
:102C1000001080B204901498401D80B2039004A963
:102C20000EC9FDF767FDAD48008880B2B2A20899D1
:102C3000CDE900120290AE4840880690AC4800886A
:102C40000590DDE9122001FB020080B204900146EC
:102C50000520DDE90523FDF74DFDFDF718FE68B100
:102C6000DDE91201401C089A02FB001080B21346F5
:102C7000A5A2014606900520FFF76AF8974800884C
:102C800080B2AFF2AC620899CDE900120290984888
:102C9000408806909648008805901298411C89B299
:102CA0001291089A139902FB001080B204901498B4
:102CB000401D80B2039004A90EC9FDF71BFD874893
:102CC000008880B294A20899CDE900120290884849
:102CD00040880690864800880590DDE9122001FBB7
:102CE000020080B2049001460520DDE90523FDF7CE
:102CF00001FD0120FDF70DFD1090109802280ED166
:102D0000DDE91202401C089901FB002080B20A464E
:102D1000014606900520FFF755F9109001E00020CC
:102D20001090FDF7B9FD10B91098012874D100205A
:102D300010906A48008880B20090DDE9122008995E
:102D400001FB020080B2AFF200330A460146069052
:102D50000520FDF7A6FD50B345F6BF516320FDF7F2
:102D600091FD5E48008880B20090DDE9122008994C
:102D700001FB020080B257A30A46014606900520D7
:102D8000FDF78FFD68B1DDE91201401C089A02FBD6
:102D9000001080B2134664A2014606900520FEF79B
:102DA000D7FF4D48006820F001004B490860002023
:102DB0000090DDE91202401C089901FB002080B25E
:102DC00006904B480088401E80B205901046129A2B
:102DD00001FB020080B2049001460520DDE90523D5
:102DE000FDF78DFC3D48008880B24BA20899CDE9E3
:102DF000001202903E48408806903D4800880590A9
:102E0000DDE9122001FB020080B20490014605209A
:102E1000DDE90523FDF76EFC3048008880B2AFF68F
:102E200048020899CDE90012029031484088069086
:102E30002F48008805901298411C89B21291089A77
:102E4000139902FB001080B204901498401D80B2C8
:102E5000039004A90EC9FDF74DFC2048008880B2FC
:102E600034A20899CDE900120290214840880690CA
:102E70001F4800880590DDE9122001FB020080B2A6
:102E8000049001460520DDE90523FDF733FC09E147
:102E900000200090DDE91202401C089901FB00208F
:102EA00080B2069012480088401E80B205901046FD
:102EB000129A01FB020080B2049001460520DDE970
:102EC0000523FDF71CFC054800883FE0740400243E
:102ED0008CD90724323A000000040140CC000024C1
:102EE00055204469736B3A20202020204D42000079
:102EF0002224002410DD072432344330322043687A
:102F000065636B2E2E2E0000323443303220457222
:102F1000726F722100000000466F6E742043686576
:102F2000636B2E2E2E000000466F6E742045727269
:102F30006F72210053595354454D2046696C657397
:102F400020436865636B2E2E2E00000080B2D2A253
:102F50000899CDE900120691029001EBD170401062
:102F60004FF6FF7101EAC0000590DDE912210898D3
:102F700000FB021080B2049001460520089B059AD0
:102F8000FDF7B8FBDDE91220089901FB020080B2D1
:102F90000A46014606900520FDF788FC00201190A6
:102FA00045F6BF516320FDF76DFCBEA0FDF783FC25
:102FB00048B1BDA0FDF77FFC10B10920109004E0DE
:102FC0000220109001E000201090109810B110988D
:102FD000022817D1B5A109A8109AFDF71CFC09A970
:102FE000B348FDF76DFC68B1DDE91201401C089A99
:102FF00002FB001080B21346AEA2014606900520E7
:10300000FEF7A6FEB048006820F00100AE49086057
:1030100000200090DDE91201401C089A02FB00101C
:1030200080B20690A9480088401E80B205900846EC
:103030001146129A01FB020080B20490014605205D
:10304000DDE90523FDF75BFBA148008880B2AFF204
:103050001C120899CDE9001202909C484088069005
:103060009A4800880590DDE9122001FB020080B239
:10307000049001460520DDE90523FDF73BFB95A003
:10308000FDF719FC68B1DDE91202401C089901FB4B
:10309000002080B20B4690A2014606900520FEF764
:1030A00057FE05E08BA0FDF706FC00287FF4F0AE8C
:1030B00000BF8748008880B2AFF6E4220899CDE9C6
:1030C0000012029081484088069080480088059050
:1030D0001298411C89B21291089A139902FB0010B0
:1030E00080B204901498401D80B2039004A90EC9C8
:1030F000FDF700FB7648008880B27CA20899CDE9F4
:10310000001202907148408806907048008805902F
:10311000DDE9122001FB020080B204900146052087
:10312000DDE90523FDF7E6FA0120FDF7F2FA10903C
:10313000FDF7CBFB40B9109801280DD16F4890F8EE
:10314000440000F0800038B91098012801D1FDF743
:10315000C1FB00BFFFF714B85D48008880B2AFF62E
:1031600088320899CDE900120290584840880690AC
:103170005648008805901298411C89B21291089A0D
:10318000139902FB001080B204901498401D80B285
:10319000039004A90EC9FDF7ADFA4D48008880B22E
:1031A00057A20899CDE9001202904848408806903D
:1031B000464800880590DDE9122001FB020080B23C
:1031C000049001460520DDE90523FDF793FAFDF79C
:1031D00086FB68B1DDE91201401C089A02FB001071
:1031E00080B213464DA2014606900520FEF7B0FDC1
:1031F0003748008880B2AFF620420899CDE9001226
:103200000290324840880690304800880590129815
:10321000411C89B21291089A139902FB001080B2E6
:1032200004901498401D80B2039004A90EC9FDF7C4
:1032300061FA2748008881B23EA20898CDE90121B1
:103240000090224840880690204800880590DDE9DB
:103250001220089901FB020080B20490014605206B
:10326000DDE90523FDF746FA012210213648FEF775
:103270005BFB6420FDF716FD002210213248FEF7AB
:1032800053FB00200C99FDF72FFB40F2DC50FDF7BB
:1032900009FD15B000BD00005570646174696E676A
:1032A00000000000300000003200000025643A00F9
:1032B0000510029053595354454D2046696C6520C2
:1032C0004572726F72210000000401402224002424
:1032D000CC0000243100000053595354454D204682
:1032E000696C65204C6F737421000000546F756326
:1032F0006820436865636B2E2E2E0000FC000024BE
:1033000053595354454D20506172616D6574657217
:10331000204C6F61642E2E2E0000000050617261FF
:103320006D65746572204C6F6164204572726F72B6
:103330002100000053595354454D20537461727459
:10334000696E672E2E2E0000001002587CB50646CE
:103350000C4600BF3248006840F001003049086068
:1033600000BF00BF0846006840F00100086000BFD1
:1033700000BF2B481030006840F010002849103181
:10338000086000BF0120009000230222410201904A
:103390002448FEF7D5FA0120009000230222810282
:1033A00001902048FEF7CCFA07224FF400711D4827
:1033B000FEF77EFA07224FF480611A48FEF778FA8A
:1033C0001948704300EB5400B0FBF4F51748C56092
:1033D0000020164908600846006808600846006832
:1033E00008600846006808600846006840F0080069
:1033F00008600846006840F004000860084600685D
:1034000040F0200008600223252203210846FEF731
:103410000FFB0648006840F00100044908607CBDCD
:10342000E04402580000025840420F0000100140E2
:103430002DED0A8B84B0002400BF66E04FF47A7053
:10344000FDF730FC3148407800F0800088B12F490A
:10345000497801F00300FDF74CFA601C84B2B4F522
:10346000967F0DDD2948407820F08000274948707C
:1034700006E02CB10024002210212548FEF754FA62
:1034800024484078032801D1FDF738FA22484078D3
:1034900008B9FDF738FA21480078012835D1002015
:1034A000FDF736FA00EE100AB8EE408A0120FDF76B
:1034B0002FFA00EE100AF8EE408A0320FDF728FAF2
:1034C00000EE100AB8EE409AB2EE040AC9EE000A05
:1034D000B7EEE00AB0EE40ABB2EE040AC8EE800AE6
:1034E000B7EEE00AB0EE40BBB2EE040AC8EE000A46
:1034F000B7EEE00AB0EE40CB8DED02AB8DED00BB38
:1035000053EC1C2B06A0FDF719F897E740000024A8
:1035100000100258C83700242A00002401000024AB
:10352000696E3A25332E31662C31323A25332E31ED
:10353000662C6474636D3A25332E31660D0A0000E3
:103540000027002400BFC4E06248407800F08000FB
:1035500088B1614A5288A2F1A00808EBD872C2F380
:103560004F015D4A1288A2F1C80909EBD972C2F372
:103570004F00FDF7D2F95948007848B1FDF7D2F96C
:103580000646012E01D0032E02D1002053490870B7
:103590005348007870B9042C04D1012210215148FD
:1035A000FEF7C2F9772C05D1002210214D48FEF715
:1035B000BBF90024601CC4B2FDF7B9F90646012E20
:1035C00007D1494908704548007810B100204349A7
:1035D00008703C2094FBF0F100FB1140002862D100
:1035E0004248006800F0010018BB00BF1020FDF742
:1035F00072F8074600BFFDF79FF9054600BF384641
:10360000FDF773F800BFFF2D14D13948B0F8010061
:1036100020F001003649A1F8010000BF1020FDF79D
:103620005AF8074600BFFDF78CF900BF3846FDF792
:103630005CF812E02E48407800F0010068B92D498E
:10364000012208682CA1FDF7FFF82948B0F8010015
:1036500040F001002649A1F80100284840780128DF
:1036600017D12348407800F00400D0B90220214946
:10367000896848701F490122886821A1FDF7E4F894
:103680001B48B0F8010040F004001949A1F80100FE
:1036900007E01748B0F8010020F004001449A1F831
:1036A0000100FDF753F9FDF756F91448807868B921
:1036B00004E0FDF7E2F80220FDF7F4FA0F48007885
:1036C00000F0C0004028F4D0FDF7D7F80A20FDF73D
:1036D000E9FA39E74000002422240024F401002400
:1036E00003000024000402580200002400000248E5
:1036F00010DD07248CD90724303A0000740400241C
:10370000323A000010B500290AD00878002807D006
:1037100005487844FDF724F9002801D0002010BDA9
:103720000248784410BD0000760000006E000000E2
:1037300010B500290AD00878002807D00548784439
:10374000FDF70EF9002801D0002010BD0248784492
:1037500010BD0000660000005E0000004FF04070E9
:10376000E1EE100A70470000B438000800000024A1
:10377000FC070000D4020008EC3A0008FC07002413
:103780002CED0700300300081C000000430000007F
:10379000F8FFFFFF0C0000000E0000000F0000000B
:1037A0002E0000001001000043000000F8FFFFFFA2
:1037B0000040404040404040404041414141414044
:1037C00040404040404040404040404040404040F9
:1037D0004005020202020202020202020202020288
:1037E000022020202020202020202002020202028D
:1037F00002029090909090901010101010101010E5
:1038000010101010101010101010101002020202F0
:103810000202888888888888080808080808080834
:103820000808080808080808080808080202020230
:103830004000000000000000000000000000000048
:103840000000000000000000000000000000000078
:103850000000000000000000000000000000000068
:103860000000000000000000000000000000000058
:103870000000000000000000000000000000000048
:103880000000000000000000000000000000000038
:103890000000000000000000000000000000000028
:1038A0000000000000000000000000000000000018
:1038B0000000000011021E01091D1F018E22F81BCD
:1038C000FFFFB499B5041417EF024205000DA86973
:1038D0009C05908DA00590BD9605901E1114049036
:1038E000E90413C046322432303238422015C09EDB
:1038F000072414E003301AF8141CF00120080135E5
:10390000180AA81508902C41089034041A20041AAB
:103910003C041A1C041A24041EA1D2049094081E0C
:1039200079F00590680813A50C1B08B80813110D51
:103930001B08D4081E45030490400829A41AF00867
:10394000133002180B24A5B5059001AE0590B10403
:103950001AD50C220602E90185B57703903AFF05D6
:1039600039063644510890081E8FAB019035043853
:103970000CD9A901902DAD019045BB012F1A48200B
:1039800032034813319A0190D5990190CF95019057
:103990007B9D0190699E200114880B218A019091E2
:1039A000890190858B241A6D101A7F04C11A012891
:1039B0001AF1141A11081AE108140902202008014A
:1039C0000104C0320904100A0208065005070581E7
:1039D0000212022C07050107091420224029201990
:1039E000070B1C0907201B0A064521B340011AD109
:1039F000781ACD801ADD041A09B01A6D041A391428
:103A00001A95104B12013015830420571D02010234
:103A10000339071A040309041A031E797301900D70
:103A2000041A99041AB1041AB9041E317401905D84
:103A30000805595B5D079019E0017C8B1A73DC9ACD
:103A4000210C5A2B0C1A38081A47041A57045A68C2
:103A5000145A7A085A8E085AA4085ABC085AD6082A
:103A60005AF2084B1074085A30085A52085A76080D
:103A70005A9C085AC4085AEE084B1A75085A480846
:103A80005A78085AAA085ADE084B1476085A4C0885
:103A90005A86085AC208114A77085A40085A8208BA
:103AA000012202714013908A100890EBFD0590E707
:103AB00060180B902DFA059007FE059037041A4503
:103AC000041A53041A61041AF9201AD5201A5D2029
:103AD0001A17101AE110A9041112056A24042A0405
:0C3AE00008013313D58E02209000000076
:0200000490006A
:100000006E2903F0C983702903F0ED84662920F07E
:1000100096A0652920F093A0672920F090A061297F
:1000200020F08FA003681B0A28BF41F080016929D6
:1000300003F07683642903F07383752903F07083DA
:100040006F2903F07A84782903F0B984E92903F051
:100050001584E42903F01284F52903F00F84EF29B5
:1000600003F07784F82903F0B8840368DB0928BF1C
:1000700041F08001632904F0E283732904F0E783EF
:10008000E32904F00584F32904F00A840020704772
:100090002DE9FE5F5FEA000A0D46A87F10F0800F91
:1000A00005D01AF0030018BF0438BDE8FE9FB5F86C
:1000B0000C90A879C0F3001360F3451060F384003E
:1000C00063F3C30060F342004FEA00662F69D5F87E
:1000D00014C0D5F8188028F007084FEA992B57F874
:1000E0002BB01BF8094009F10109C0F2000900F02A
:1000F00019F8BAF1040AEED5A5F80C9096FAA6F014
:1001000060F31D6660F3DA5660F3195660F3985693
:100110004FEA166000F0D700A871C5F81880504665
:10012000BDE8FE9FDFE814F0610AE40730086907C4
:10013000FF04D704B7073B0594084107CD077B07A9
:10014000FF04D704B7073005D905E407300869076D
:10015000FF04D704B7072305EC054107CD077B074C
:10016000FF04D704B7071605E005E4075708690739
:10017000FF04D704B707EE09E305410708087B072A
:10018000FF04D704B707D009E605E2072A08670786
:10019000F004C8043D089C09E9053F07C707790733
:1001A000FF04D704B70793098807880788078807DB
:1001B00088078807A90788078807880788078807A6
:1001C00088078807A9078807880788078807880796
:1001D00088078807A9078807880788078807880786
:1001E00088078807A9078807880788078807880776
:1001F00088078807A9078807880788078807880766
:1002000088078807A90788071F081F081F081F08F5
:100210001F081F08570A1F088807880788078807CC
:1002200088078807A9078807750375037503750391
:100230007503750371037503A203A203A203A2034E
:10024000A203A2039E03A203D403D403D403D403C2
:10025000D403D403D003D40303040304030403042A
:1002600003040304FF03030437043704370437048B
:100270003704370433043704610461046104610402
:10028000610461045D0461048904890489048904AA
:100290008904890485048904B104B104B104B1045A
:1002A000B104B104AD04B1045F06CF06010619061E
:1002B0003C0692065E0335066206AF0604060001A0
:1002C0003F0654068B0335066506CF0607068C0BE2
:1002D00042069206BD0335066806B4080A06080BF6
:1002E00045064101EC0335066B06CF060D066C088A
:1002F00048069206200435066E06CC051006C10895
:100300004B067D024A0435067106BC0613064D0AEB
:100310004E067E0672043506740616081606520A44
:10032000510641019A04350671464FEA992B57F858
:100330002BB01BF8094009F10109C0F200094FEA8E
:10034000D403082BA4BFDB0843F0080304F0070024
:10035000062804D000F014F8BAF1040A084700F0A7
:10036000DEF9092B07D000F00BF8A87901F03EF96F
:10037000BAF1040A084700F003F8BAF1050A084781
:1003800003F00F03DFE813F053044904410434047D
:1003900026042B0416041D04100081047404670451
:1003A000100010001000100070474FEA541464F35E
:1003B00042084FEA992B57F82BB01BF8094009F176
:1003C0000109C0F20009AAF1040ADFE814F00E09DD
:1003D0009106DD061606AC0384036406E8034107B4
:1003E000EE057A062806AC0384036406DD03860462
:1003F0009106DD061606AC0384036406D003990457
:10040000EE057A062806AC0384036406C3038D0454
:100410008A0602070F06A6037E035E069B08900469
:10042000E705B5062106A6037E035E067D08930454
:100430008F06D70614069D037503E806490896043F
:10044000EC0574062606AC038403640640083506F2
:100450003506350635063C063C0656063506350695
:100460003506350635063C063C0656063506350685
:100470003506350635063C063C0656063506350675
:100480003506350635063C063C06560635064C064E
:100490004C064C064C064606460656064C064C06CE
:1004A0004C064C064C064606460656064C06CC063E
:1004B000CC06CC06CC06CC06CC060409CC06350608
:1004C0003506350635063C063C065606350622023C
:1004D000220222022202180218021E0222024F02E7
:1004E0004F024F024F02450245024B024F0281026A
:1004F000810281028102770277027D028102B002CD
:10050000B002B002B002A602A602AC02B002E4023F
:10051000E402E402E402DA02DA02E002E4020E0398
:100520000E030E030E03040304030A030E03360333
:100530003603360336032C032C03320336035E03E3
:100540005E035E035E03540354035A035E030C050B
:100550007C05AE04C604E9043F050B02E2040F0566
:100560005C05B1040001EC0401053802E204120547
:100570007C05B404390AEF043F056A02E20415055C
:100580006107B704B509F20429019902E2041805CC
:100590006405BA041907F5042605CD02E2041B051B
:1005A0007904BD046E07F8042A01F702E2041E056F
:1005B0006905C004FA08FB042B051F03E2042105AA
:1005C000C306C304FF08FE0429014703E204714681
:1005D00000F0A5F84FEA992B57F82BB01BF809B09B
:1005E00009F10109C0F200094FEADB03082BA4BF9F
:1005F000DB0843F008030BF0F80444F0060463F34F
:10060000071BFFF7BDFE4FEA1B13092B08BF084766
:10061000A8790BF0070B05F80B0000F0E7FF08477F
:10062000C3E64FEA992B57F82BB01BF8094009F1A4
:100630000109C0F20009AAF1040A4FEA5413DFE8E5
:1006400003F004040A0A04070404AAF1040A704728
:10065000A4F1600301E0A4F14003DFE813F07C089B
:10066000FD087C04B7053C07C107A9078F077C0874
:10067000FD08580468053C07C107A907A6077C08C0
:10068000FD087C04B7053C07C107A90782077C0861
:10069000FD08580468053C07C107A90792077C08B4
:1006A000FD087C04B7053C07C107A90706077C08BD
:1006B000FD08580468053C07C107A90706077C0820
:1006C000C6077904B4053C07C107A907C6077C081B
:1006D000FD08550465053C07C107A907C6072B0699
:1006E000AC065408D408C607C607C607C6073506B1
:1006F000AC065408D408C607C607C607C60757067F
:10070000BE063508B108C607C607C607C6077C0679
:10071000BE063508B108C607C607C607C607AAF150
:10072000030A18F0060B0BF1040B35F80B2052BA34
:100730000CD0AAF1080A4FEA992B57F82BB01BF9F5
:1007400009B05A4409F10109C0F200094FEA922B9D
:1007500057F82BB01BF802B085F806B07047AAF125
:10076000030A18F0060B0BF1040B35F80B2052BAF4
:1007700008BF7047AAF1080A4FEA992B57F82BB027
:100780001BF909B05A4409F10109C0F20009704788
:100790004FEA992B57F82BB01BF8092009F10109F2
:1007A000C0F200094FEA992B57F82BB01BF809B09B
:1007B00009F10109C0F2000942EA0B2270474FEA31
:1007C000922B57F82BB01BF8020002F10102C0F285
:1007D00000024FEA922B57F82BB01BF802B040EA08
:1007E0000B2070474FEA992B57F82BB01BF80940A4
:1007F00009F10109C0F20009AAF1030A0CE008F0AE
:10080000060004F00504044405E07146FFF787FF85
:100810008E4604F007042C5DE8794FEA006313EB81
:100820000463EFF300864FEA1363EB7180EA040080
:1008300080EA030000F0100060F3DB5670474FEAD7
:10084000992B57F82BB01BF8094009F10109C0F2A8
:100850000009AAF1030A0CE008F0060004F0050400
:10086000044405E07146FFF75AFF8E4604F0070482
:100870002C5DE8794FF0FF3360F31F63F60053EB14
:100880000463EFF300861B0EEB7108BF46F0804651
:1008900080EA040080EA030000F0100060F3DB56F9
:1008A00070474FEA992B57F82BB01BF8094009F114
:1008B0000109C0F20009AAF1030A0CE008F00600E1
:1008C00004F00504044405E07146FFF728FF8E4656
:1008D00004F007042C5DE8794FEA0063B3EB04638E
:1008E000EFF300864FEA1363EB7180EA040080EABD
:1008F000030000F0100060F3DB5686F010567047DE
:100900004FEA992B57F82BB01BF8094009F1010960
:10091000C0F20009AAF1030A0CE008F0060004F096
:100920000504044405E07146FFF7F9FE8E4604F025
:1009300007042C5DE8794FEA006386F00056F60064
:1009400073EB0463EFF300861B0EEB7108BF46F0F8
:10095000804680EA040080EA030000F0100060F3A3
:10096000DB5686F0105670474FEA992B57F82BB09C
:100970001BF8094009F10109C0F20009AAF1030AB4
:100980000CE008F0060004F00504044405E071469C
:10099000FFF7C5FE8E4604F007042C5DE87900EAF7
:1009A0000400E8710306EFF300865CF820304FF096
:1009B000100040EA431060F3DD5670474FEA992B70
:1009C00057F82BB01BF8094009F10109C0F20009E2
:1009D000AAF1030A0CE008F0060004F00504044440
:1009E00005E07146FFF79BFE8E4604F007042C5D80
:1009F000E87980EA0400E8710306EFF300865CF80A
:100A000020304FEA431060F3DD5670474FEA992BD0
:100A100057F82BB01BF8094009F10109C0F2000991
:100A2000AAF1030A0CE008F0060004F005040444EF
:100A300005E07146FFF773FE8E4604F007042C5D57
:100A4000E87940EA0400E8710306EFF300865CF8F9
:100A500020304FEA431060F3DD5670474FEA992B80
:100A600057F82BB01BF8094009F10109C0F2000941
:100A7000AAF1030A0CE008F0060004F0050404449F
:100A800005E07146FFF74BFE8E4604F007042C5D2F
:100A9000E8794FEA0063B3EB0463EFF300864FEAB3
:100AA000136380EA040080EA030000F0100060F3A2
:100AB000DB5686F0105670477146FFF730FE00F0A7
:100AC0000AF8A87900F092FD0847C4F3C20408F0C0
:100AD0000600044401E0C4F3C2042B5D4FEA036046
:100AE000B0F180704FEA106028554FEA5674EFF36A
:100AF000008664F35D761B0708BF43F0080343F0EC
:100B0000040363F31B6670477146FFF708FE00F0AD
:100B10000AF8A87900F06AFD0847C4F3C20408F097
:100B20000600044401E0C4F3C204285D4FEA0060FB
:100B300010F180704FEA10632B554FEA5674EFF3B3
:100B4000008664F35D76000108BF40F0080060F3A2
:100B50001B667047E879C6F3407360F35D764FEA31
:100B6000500063F3C71006F07046E8717047E879EB
:100B7000C6F3407343EA40034FEAD01060F35D765A
:100B800006F07046EB717047E87960F35D7660F3CC
:100B900008204FEA500006F07046E8717047E87987
:100BA00040EA00204FEAD01060F35D7606F0704610
:100BB000E871704704F00704285D400640F080703B
:100BC0003DE004F00704285D60F3492020F00100B7
:100BD000C00534E004F00704285D40062FE004F06F
:100BE0000704285760F3492020F00100C00526E0E3
:100BF00004F00704285D60F34920C6F3407363F3F3
:100C0000082020F00100C00519E004F00704285D69
:100C1000C6F3407343EA400010E004F00704285D87
:100C200040EA002060F349204FEA500006E004F05B
:100C30000704285D40EA00204FEAD0100006EFF3D9
:100C400000864FEA106028555CF820304FEA031305
:100C500063F31C6670474FF00103C4F3C20003FA4C
:100C600000F304F00704285D40EA030028557047AC
:100C70004FF00103C4F3C20003FA00F304F00704C9
:100C8000285D20EA0300285570474FF00103C4F3A4
:100C9000C20003FA00F304F00704285D00EA030031
:100CA00003064FEA5674EFF3008664F35D765CF852
:100CB00020304FEA031343F0080363F31C667047C8
:100CC00008F0060404F1040435F80490A5F80C902B
:100CD00099FA99F9BAF1040A7047AAF1010A287839
:100CE000013828700CD119E0B30009D316E0B30025
:100CF00006D213E0F30003D310E0F30000D20DE0BE
:100D00004FEA992B57F82BB01BF9090009F101099B
:100D10008144C0F20009BAF1080A704709F10109DB
:100D2000C0F20009BAF1030A7047B30015D329E0F5
:100D3000B30012D226E0F3000FD323E0F3000CD26D
:100D400020E0330109D31DE0330106D21AE073001D
:100D500003D317E0730000D214E04FEA992B57F841
:100D60002BB01BF8090009F10109C0F200094FEA94
:100D7000992B57F82BB01BF8099040EA0929BAF1D2
:100D8000060A704709F10209C0F20009BAF1060A21
:100D9000704799FA99F304F038090AF1040A59E006
:100DA000B30015D3EEE7B30012D2EBE7F3000FD395
:100DB000E8E7F3000CD2E5E7330109D3E2E73301BA
:100DC00006D2DFE7730003D3DCE7730000D2D9E774
:100DD000714609F10203C0F200035BBAFFF7BDFFE1
:100DE0000AF1040A37E0B3004BD313E0B30048D252
:100DF00010E0F30045D30DE0F30042D20AE03301E6
:100E00003FD307E033013CD204E0730039D301E063
:100E1000730036D2BAF1010A7047C8F3410404F1F5
:100E2000020415E096FAA6F0334660F31D6360F302
:100E3000DA5360F3195360F398534FEA136000F0EC
:100E4000D700A871EB7943EA002303E0C4F301144F
:100E500035F814307146EA8952BAA2F10102C0F2A3
:100E60000002184600F0C2FBA2F10102C0F200022B
:100E70004FEA132000F0BAFB52BAEA81BAF1030A32
:100E80000847AAF1010A71464FF0060400F01DF868
:100E900093FA93F90847C8F3410404F1020414E0FB
:100EA000714600F010F8E88840BAE880C0F30013FB
:100EB00060F3451060F3840063F3C30060F3420005
:100EC0004FEA00660847C4F30114EA8952BA4FEAB0
:100ED000922B57F82BB01BF8020002F10102C0F26E
:100EE00000024FEA922B57F82BB01BF8023002F1A8
:100EF0000102C0F2000243EA002325F8143052BA7E
:100F0000EA81BAF1060A70474FF0070401E0C4F322
:100F1000011435F81440CFF6FF7424BAA88800BA3B
:100F2000F60050EB040380EA040080EA03004FEA75
:100F300010704FEA4000EFF3008660F39B661BBA27
:100F4000AB801B0408BF46F08046BAF1070A704721
:100F50004FF0070401E0C4F3011435F8144024BA3B
:100F6000A88800BA86F00056F60070EB040380EA09
:100F7000040080EA03004FEA1070EFF3008660F38C
:100F8000DB661BBAAB801B0408BF46F0804646F008
:100F9000806686F00056BAF1070A704708F006042A
:100FA00004F1040403E04FF070044FEAD40404F0A9
:100FB0001E042C5B64BA08F0060B0BF1040B35F829
:100FC0000B0040BA00EB040380EA040080EA03004F
:100FD00000F4805060F3DB364FEA134060F35D7637
:100FE0005BBA25F80B30BAF1070A704708F006041F
:100FF00004F1040403E04FF070044FEAD404285BCA
:1010000040BA00F1010040BA2853BAF1020A704711
:1010100008F0060404F1040405E04FF070044FEA00
:10102000D40404F01E04285B40BAA0F1010040BAC9
:101030002853BAF1020A704704F00703E85CC4F3CE
:10104000C2042855704708F0060004F00503034465
:10105000E85CC4F3C2042855704708F0060004F0A9
:101060000503034401E004F00703E85C08F006030D
:10107000C4F3C2042344E85470477146FFF74FFBA2
:10108000C4F3C20405F804B0084708F00603C4F32B
:10109000C2041C4401E0C4F3C2044FEA992B57F880
:1010A0002BB01BF8090009F10109C0F2000928550D
:1010B000BAF1030A70477146FFF76AFBAAF1060A04
:1010C00005E071464FEA141435F8142052BA4FEA7D
:1010D000922B57F82BB01BF80200E871BAF1030A03
:1010E000084708F0060404F1040403E04FF070041C
:1010F0004FEAD4044FEA992B57F82BB01BF809009C
:1011000009F10109C0F200094FEA992B57F82BB0F9
:101110001BF8093009F10109C0F2000943EA002077
:101120002853AAF1060A70474FF00E0408E0C4F3F2
:1011300001144FEA440403E008F0060404F1040437
:101140007146FFF725FBFFF73AFB40BA2853AAF197
:101150000C0A084708F0060404F10404285BE8813F
:10116000AAF1020A7047714604F00704285DFFF7F0
:10117000F6FA00F03BFA0AF1040A08477146FFF755
:1011800007FBAAF1060A04E071464FEAD4042A5B81
:1011900052BAE87900F02AFA0AF1010A08470AF17E
:1011A000030A7146FFF7DBFA4FEA992B57F82BB089
:1011B0001BF8090009F10109C0F2000900F016FA54
:1011C0000AF1010A08474FF00E0408E0C4F3C20414
:1011D00005E0AAF1040A08F0060404F104047146CB
:1011E000FFF7D6FA2B5B58BA00F000FA02F10102C1
:1011F000C0F20002184600F0F9F9BAF1040A0847F3
:10120000714608F0060404F104042B5BEA8952BA23
:101210004FEA922B57F82BB01BF802B04FEA13207D
:101220006BF30F2300F0E2F902F10102C0F20002B9
:101230004FEA922B57F82BB01BF802B003F0FF00D7
:101240006BF3070300F0D2F92B53AAF1070A084702
:1012500096FAA6F060F31D6660F3DA5660F319564D
:1012600060F398564FEA166000F0D700A871EB883B
:10127000E88CEB84E880C0F3001360F3451060F362
:10128000840063F3C30060F342004FEA00667047D6
:101290002B88288C2B8428806B88688C6B846880D2
:1012A000AB88A88CAB84A88070476B88A888AB807B
:1012B000688070477146AC8864BA04F101036A889B
:1012C00052BA02F1010008E07146AC8864BAA4F198
:1012D00001036A8852BAA2F101005BBAAB8040BA3E
:1012E00068804FEA942B57F82BB01BF8040000F0ED
:1012F0007DF92A8852BA013A52BA2A8006F060462D
:1013000018BF46F08056AAF1040A08477146AC8817
:1013100064BA6A8852BA2B885BBA4FEA942B57F8A2
:101320002BB01BF8040000F061F904F10104C0F2D5
:10133000000402F10102C0F20002013B30D0BAF118
:10134000090AEAD506F0604646F08066A9F102096E
:10135000C0F2000928E07146AC8864BA6A8852BAC3
:101360002B885BBA4FEA942B57F82BB01BF804007C
:1013700000F03CF9A4F10104C0F20004A2F1010262
:10138000C0F20002013B0BD0BAF1090AEAD5A9F17B
:101390000209C0F2000906F0604646F0806603E0EC
:1013A000AAF1040A06F060465BBA2B8052BA6A8042
:1013B00064BAAC800847C4F38104C4F10104E8793D
:1013C000AA8852BA2B885BBA4FEA922B57F82BB0F7
:1013D0001BF802B02244013B1BE0C4F38104C4F1BA
:1013E0000104E879AA8852BA2B885BBA4FEA922B9B
:1013F00057F82BB01BF802B02244013B09D08345BB
:1014000007D0BAF10D0AF1D5A9F10209C0F200091D
:1014100001E0AAF1080A5BBA2B8052BAAA80C6F38F
:101420004076A0EB0B0480EA0B0080EA040000F099
:10143000100040F0080040EA86102406EFF3008612
:1014400060F3DD56002B18BF46F080567047C6F398
:10145000407363F3DB6606F0784686F0005670470B
:1014600006F0704646F0005670477146AA8852BA98
:101470004FEA922B57F82BB01BF802B0EB7914F01F
:10148000080406D14FEA1B1063F307106BF3030344
:1014900006E018466BF307104FEA1B1B6BF30303C0
:1014A000EB7100F0A3F806F000505FEA036BEFF376
:1014B000008606F0404646EA00065CF8230060F32A
:1014C0001C76AAF1060A0847E87980F0FF00E87167
:1014D00046F0406670474FF00003E879B3EB0063D5
:1014E000EFF300864FEA1363EB7183EA000303F026
:1014F0001003802808BF43F0200363F3DC5686F016
:1015000010567047E8794FF0000316F0006F18BFCF
:1015100043F0060300F00F04092CC8BF43F0060394
:1015200016F0005F18BF43F060039928C8BF43F06E
:10153000600316F0806F0EBFC418C41A43F008038E
:1015400080EA040000F0100043EA0003EC71240676
:10155000EFF3008663F3DD565CF8230060F31C763E
:101560007047287FE87106F000530006EFF300860D
:10157000A87F60F31C7363F31D067047E879287732
:101580007047687FEFF3008300EB536080EA0A0046
:101590006877E87106F000530006EFF30086A87F35
:1015A00060F31C7363F31D067047E8796877704732
:1015B000A87F04F0180420F0180040EA0400A8777F
:1015C0007047A87F20F00300A8777047A87F40F0FD
:1015D0000300A8777047A87F40F08000A877704785
:1015E000A87F60F34100A8774DE47047AAF1040A90
:1015F000B2EB184F38BF70474FEA922B57F82BB019
:101600000BF8020042F38D0BBBF1FF3F18BF704790
:1016100012F0030BDFE80BF03C02142895F81FB022
:1016200000EA0B00D5F82CB00BEB80304FF0010B2B
:1016300047F82B000BF1010BBBF1100FF8D17047ED
:1016400095F81FB000EA0B00D5F82CB00BEB8030FA
:10165000A0F580404FF0100B47F82B000BF1010B69
:10166000BBF1200FF8D1704785F82B0095F82AB010
:101670001BF0080F14D1CCF2000895F81FB000EA57
:101680000B00D5F82CB00BEB803BABF5004B12E018
:1016900085F82A0010F0080F08BF95F82B00EAD053
:1016A000C8F20008D5F830B0ABF5804B10F0040F4D
:1016B00008BFABF5804B4FF0200047F820B000F199
:1016C00001003028F9D170477146C4F38104C4F198
:1016D0000104AA8852BA2B7800F051F8FFF786FF70
:1016E0002244013B07D0BAF10D0AF5D5A9F1020950
:1016F000C0F2000901E0AAF1080A2B7052BAAA80D0
:1017000046F088460847714600F039F8AA8852BA70
:10171000FFF76CFFC4F38104C4F10104224452BA00
:10172000AA8006F03C462B78013B2B7008BF46F0A0
:10173000804646F08066084771464FEA992B57F875
:101740002BB01BF809B009F10109C0F2000900F043
:1017500018F8E8710847714600F011F8C4F3C204A4
:10176000062C18BF285506F000530006EFF300863C
:1017700063F31D065CF8230060F31C76084795F8B8
:1017800001B01BF0800F0AD01BF0400F11D04FF0BA
:10179000FF001BF0010B08BF95F8280070474FF0C1
:1017A000FF000BF0410BBBF1400F08BF95F829007B
:1017B00070472DE9FE5F58461CF038FBBDE8FE9FE0
:1017C0007146C4F38104C4F10104AA8852BA2B788B
:1017D0004FEA922B57F82BB01BF8020000F03FF8AD
:1017E0002244013B07D0BAF10D0AF1D5A9F1020953
:1017F000C0F2000901E0AAF1080A2B7052BAAA80CF
:1018000046F0884608477146AA8852BA4FEA922B9A
:1018100057F82BB01BF8020000F021F8C4F3810444
:10182000C4F10104224452BAAA8006F03C462B7847
:10183000013B2B7008BF46F0804646F080660847A3
:101840004FEA992B57F82BB01BF809B009F10109A1
:10185000C0F20009E87904E0C4F3C204285D95F8F9
:1018600001B00BF0CF0B1BF0800F06D02DE9FE5F0F
:1018700059461CF011FBBDE8FE9F1BF0400F08BF4E
:1018800070472DE9FE5F15F087FBBDE8FE9F000065
:10189000EFF3098121B120ED108A42490A681060F6
:1018A0007047B0EC108A40490A681060704772B601
:1018B00002B4EFF3118180F31188BFF34F8FBFF3B0
:1018C0006F8F084602BC62B6704772B680F311880B
:1018D000BFF34F8FBFF36F8F62B6704772B6334856
:1018E0004FF0FF010170002080F309883048016843
:1018F00081F3088813F044F92E48012101702E4825
:101900002E490A780270274827490A680260106841
:1019100080F30988EFF3148040F0020080F314880C
:10192000BFF36F8FBDE8F04F0FBCBDE8005006BCA1
:1019300062B6084722484FF080510160704772B686
:1019400040F26012C2F20042116881F31188BFF3C5
:101950004F8FBFF36F8F62B6EFF3098020E9F04F2E
:10196000104D29680860744613F00AF912481349AB
:101970000A7802700C490A682A6044F0040E106864
:10198000B0E8F04F80F3098840F20002C0F2000294
:1019900072B682F31188BFF34F8FBFF36F8F62B6B9
:1019A00070470000900100249801002422ED00E01F
:1019B0005C010024870100247F01002480010024B1
:1019C00004ED00E010B5FF4800681FF0F1FAFE4892
:1019D00000681FF0EDFAFD4800681FF0E9FAFC48C6
:1019E00000681FF0E5FAFB4800681FF0E1FAFA48CA
:1019F00000681FF0DDFAF94800681FF0D9FA10BD41
:101A000010B500244FF400701FF0D9FAED490860BA
:101A10000846006800B901244FF400701FF0CFFAA7
:101A2000E94908600846006800B901244FF40070D5
:101A30001FF0C5FAE54908600846006800B90124AE
:101A4000A0201FF0BCFAE24908600846006800B90F
:101A5000012440201FF0B3FADE4908600846006800
:101A600000B9012440201FF0AAFADB4908600846AB
:101A7000006800B901244FF4F8701FF0A0FAD749AC
:101A800008600846006800B901240CB1FFF79AFF0E
:101A9000204610BD2DE9F04704460D461646701B42
:101AA00000EBD07105EB610954F8397004EBC90102
:101AB00048685EF0C2FA804654F8350044F83900B0
:101AC00004EBC500406804EBC9014860A94605F174
:101AD000010A1DE054F83A0039465EF0BDFA15D807
:101AE00054F83A0044F8390004EBCA00406804EBAB
:101AF000C901486009F1010954F8390044F83A0075
:101B000004EBC900406804EBCA0148600AF1010A0D
:101B1000B245DFDDA9EB0500012805DDA9F10102D1
:101B200029462046FFF7B6FFA6EB0900012805DD90
:101B3000324609F101012046FFF7ACFF44F8397045
:101B400040465EF081FA04EBC9014860BDE8F087C9
:101B50002DE9F84F04460D4616461F464FF0000883
:101B600028E04FF0000920E04FF0000BDA4612E0C9
:101B70000B9A0AFB029255F822100A9A08FB02A25D
:101B800054F822005EF080FA594600905EF037FA71
:101B900083460AF1010A0A988245E9DB0B9808FBA3
:101BA000009046F820B009F101090B988145DBDB74
:101BB00008F10108B845D4DBBDE8F88F024612B938
:101BC00009B900207047002A02DD09B90020F9E7B1
:101BD000002903DD8A4201DD0120F3E7002A03DD4D
:101BE000914201D10220EDE7002A03DD8A4201DAA9
:101BF0000320E7E71AB9002901DD0420E2E7002A03
:101C000008DA101E01DB034600E043428B4201DA92
:101C10000520D7E7002A08DA101E01DB034600E0A2
:101C200043428B4201D10620CCE7002A0ADA101E7B
:101C300001DB034600E043428B4203DD002901DD66
:101C40000720BFE719B9002A01DA0820BAE70029FE
:101C500003DA914201DD0920B4E7002A03DA914258
:101C600001D10A20AEE7002A03DA914201DA0B2003
:101C7000A8E71AB9002901DA0C20A3E700290ADA3B
:101C8000081E01DB034600E04342934203DD002AC5
:101C900001DD0D2096E7002908DA081E01DB034666
:101CA00000E04342934201D10E208BE7002908DA7D
:101CB000081E01DB034600E04342934201DA0F2095
:101CC00080E700207EE730B5034601B10AB9002065
:101CD00030BD412901D0412A01D10020F8E7491E39
:101CE000521E03EBC20000EBE100047801F007058F
:101CF0000120A840044201D00120E9E70020E7E7E5
:101D00002DE9FE4F04460D4616461F460020019061
:101D1000781C8200002132481FF058F9781C82009C
:101D2000002130481FF052F94FF0000819E04FF041
:101D3000000912E004EBC80000EBE900017809F0AB
:101D4000070201209040014205D04FF07E510198DA
:101D50005EF055F9019009F10109B145EADB08F19E
:101D60000108A845E3DB38465EF06EF9824601467D
:101D700001985EF059F901900120029049E04FF07E
:101D8000000AD0463AE04FF0000912E004EBC90027
:101D900000EBE800017808F00702012090400142C2
:101DA00005D04FF07E5150465EF029F9824609F188
:101DB0000109A945EADB02985EF046F90090019915
:101DC00012E00000BC060024C0060024C406002463
:101DD000C8060024CC060024D0060024D406002423
:101DE000E0EB0724F4EB07245EF04EF983465146FE
:101DF0005EF032F900D804E008F10108701E404599
:101E0000C1DC00BFFD48029940F821800298401CC7
:101E10000290781C02998142B1DB0120029035E0EA
:101E20004FF0000AD14626E04FF0000812E004EB24
:101E3000C90000EBE800017808F00702012090409B
:101E4000014205D04FF07E5150465EF0D8F88246F0
:101E500008F10108B045EADB02985EF0F5F8009061
:101E600001995EF011F9834651465EF0F5F800D80D
:101E700004E009F10109681E4845D5DC00BFE049CE
:101E8000029841F820900298401C0290781C029918
:101E90008142C5DB0020029032E0029991FBF7F10C
:101EA000D74A52F82120029991FBF7F1491CD44BF3
:101EB00053F82110501800EBD0714910D14A126824
:101EC000029B42F82310029991FBF7F207FB1211D3
:101ED000CA4A52F82120029991FBF7F307FB13112C
:101EE000491CC64B53F82110501800EBD071491013
:101EF000C54A1268029B42F823100298401C0290C7
:101F000007FB07F002998842C7DCBDE8FE8F2DE988
:101F1000F34F8FB0402440200A901025AA000021E2
:101F2000B94800681FF052F8AA000021B5480068BF
:101F30001FF04CF8042321460A9A0F98FFF7E0FEA1
:101F4000E2000021B14800681FF040F800200B902B
:101F500060E3AC4801680B9851F820000290AA4851
:101F600001680B9851F82000019002980830402831
:101F700001DD402001E00298083008900198083007
:101F8000402801DD402001E00198083006900298C9
:101F9000083801D5002001E002980838099001981E
:101FA000083801D5002001E0019808380790099809
:101FB0000E9027E307980D901CE3DDE90D120F98B2
:101FC000FFF781FE8146DDE90D12491C0F98FFF7EE
:101FD0007AFE022101FB0099DDE90D12891C0F98A0
:101FE000FFF771FE81440E9A921C0D990F98FFF72E
