:020000040800F2
:1000000050C1072489030008AD030008AF030008AE
:10001000D1130090B3030008B503000800000000EE
:10002000000000000000000000000000B70300080E
:10003000B903000800000000BB030008BD0300086E
:10004000BF030008BF030008BF030008BF03000888
:10005000BF030008BF030008BF030008BF03000878
:10006000BF030008BF030008BF030008BF03000868
:10007000BF030008BF030008BF030008BF03000858
:10008000BF030008BF030008BF030008BF03000848
:10009000BF030008BF030008BF030008BF03000838
:1000A000BF030008BF030008BF030008BF03000828
:1000B000BF030008BF03000831140090BF0300080D
:1000C000BF030008BF030008BF030008BF03000808
:1000D000BF030008B1060008BF030008BF03000803
:1000E000BF030008BF03000800000000BF030008B2
:1000F000BF030008BF030008BF030008BF030008D8
:10010000BF030008BF030008BF030008BF030008C7
:10011000BF030008BF030008BF030008BF030008B7
:10012000BF030008BF030008BF030008BF030008A7
:10013000BF030008BF030008BF030008BF03000897
:1001400000000000000000000000000000000000AF
:10015000BF030008BF030008BF030008BF03000877
:10016000BF030008BF030008BF030008BF03000867
:10017000BF030008BF030008BF030008BF03000857
:10018000BF030008BF030008BF030008BF03000847
:10019000BF030008BF030008BF030008BF03000837
:1001A000BF030008BF030008BF030008BF03000827
:1001B000BF030008BF030008BF030008BF03000817
:1001C000BF030008BF030008BF030008BF03000807
:1001D000BF030008BF030008BF030008BF030008F7
:1001E000BF030008BF030008BF030008BF030008E7
:1001F000BF030008BF030008BF030008BF030008D7
:10020000BF030008BF030008BF030008BF030008C6
:10021000BF030008BF030008BF030008BF030008B6
:10022000BF030008BF030008BF0300080000000070
:10023000BF030008BF03000800000000BF03000860
:10024000BF030008BF030008BF030008BF03000886
:10025000BF030008BF030008BF030008BF03000876
:10026000BF030008BF030008BF030008BF03000866
:10027000BF030008BF030008BF0300080000000020
:10028000BF030008BF030008BF0300080000000010
:1002900000000000BF03000800F002F800F064F85E
:1002A0000AA090E8000C82448344AAF10107DA45D1
:1002B00001D100F059F8AFF2090EBAE80F0013F0BF
:1002C000010F18BFFB1A43F001031847D81C0000A8
:1002D000F81C00000A444FF0000C10F8013B13F02A
:1002E000070408BF10F8014B1D1108BF10F8015B8F
:1002F000641E05D010F8016B641E01F8016BF9D182
:1003000013F0080F1EBF10F8014BAD1C0C1B09D1D8
:100310006D1E58BF01F801CBFAD505E014F8016B4A
:1003200001F8016B6D1EF9D59142D6D370470000DC
:100330000023002400250026103A28BF78C1FBD8EE
:10034000520728BF30C148BF0B6070471FB501F08E
:10035000FBFD00F04DF804000020002101F0DEFD5F
:10036000E0601FBD10B510BD00F04AF81146FFF760
:10037000EDFF00F037FA00F068F803B4FFF7F2FF82
:1003800003BC00F0DBF90000DFF84000016841F435
:1003900070010160BFF34F8FDFF83400016821F076
:1003A00040410160BFF36F8F0A480047FEE7FEE758
:1003B000FEE7FEE7FEE7FEE7FEE7FEE7FEE7FEE715
:1003C00005480649044A064B7047000088ED00E0E6
:1003D00034EF00E09902000850B9072450C1072407
:1003E00050B9072470477047704770477047000046
:1003F000004870470CB9072400487047ECB8072440
:100400007546FFF7F9FFAE4605006946534620F0F2
:100410000700854618B020B5FFF7D2FFBDE82040A1
:100420004FF000064FF000074FF000084FF0000BB0
:1004300021F00701AC46ACE8C009ACE8C009ACE863
:10044000C009ACE8C0098D46704710B50446AFF34B
:1004500000802046BDE81040FFF78FBF46F28D6C4C
:10046000C9F2000C604745F2F53CC9F2000C604748
:1004700046F2A10CC9F2000C604742F2F96CC9F2D5
:10048000000C604746F6310CC9F2000C604741F69B
:100490002D2CC9F2000C604741F6712CC9F2000CFA
:1004A000604745F6097CC9F2000C604745F2A13C63
:1004B000C9F2000C604741F63D3CC9F2000C6047B0
:1004C00047F6D16CC9F2000C604746F6491CC9F2E8
:1004D000000C604745F6716CC9F2000C604742F2AF
:1004E000697CC9F2000C604742F6090CC9F2000CA5
:1004F000604747F6997CC9F2000C604742F6213C00
:10050000C9F2000C604740F2290CC9F2000C6047A8
:1005100040F2F93CC9F2000C6047000010B500231E
:10052000234C236000BF00BF00BFBFF34F8F00BF4D
:1005300000BF00BF231F1868C0F34E3100BFC0F3D7
:10054000C90200BF43F6E07303EA41134FF0404491
:1005500004EA82742343174C236000BF00BF131EBC
:10056000A2F10102EED10B1EA1F10101E7D100BF02
:1005700000BF00BFBFF34F8F00BF00BF00BF0C4BD9
:10058000703B1B6843F48033094C703C236000BF10
:1005900000BF00BFBFF34F8F00BF00BF00BF00BF51
:1005A00000BF00BFBFF36F8F00BF00BF00BF10BD13
:1005B00084ED00E060EF00E000BF00BF00BFBFF3CC
:1005C0004F8F00BF00BF00BF00BF00BF00BFBFF321
:1005D0006F8F00BF00BF00BF00201449086000BF3C
:1005E00000BF00BFBFF34F8F00BF00BF00BF00BF01
:1005F00000BF00BFBFF36F8F00BF00BF00BF0C483C
:10060000006840F400300A49086000BF00BF00BF26
:10061000BFF34F8F00BF00BF00BF00BF00BF00BFD0
:10062000BFF36F8F00BF00BF00BF704750EF00E007
:1006300014ED00E010B500231B4C236000BF00BF89
:1006400000BFBFF34F8F00BF00BF00BF231F18685C
:10065000C0F34E3100BFC0F3C90200BF43F6E073E0
:1006600003EA41134FF0404404EA827423430F4CE1
:10067000236000BF00BF131EA2F10102EED10B1ECA
:10068000A1F10101E7D100BF00BF00BFBFF34F8F51
:1006900000BF00BF00BF00BF00BF00BFBFF36F8F30
:1006A00000BF00BF00BF10BD84ED00E060EF00E0C0
:1006B0001F49C96901F0200109B31D49496AC8B23F
:1006C0001C49098801F40041C9B91A49098801F493
:1006D000804161B10A2803D00021164A118020E030
:1006E0001449098841F40041124A118019E00D288B
:1006F00006D11049098841F480410E4A118010E06A
:100700000C490988C1F30D010B4A50540949098865
:10071000491C084A118011460988C72901DD0021BA
:1007200011800349096A41F00801014A11627047CA
:1007300000100140580000247802002400BF7047D8
:100740004FF0E021096941F004014FF0E02211610E
:10075000054908601146096941F0010111616FF016
:1007600070415161704700005000002410B50446EC
:100770004FF47A7104FB01F000F002F810BD0000A4
:1007800070B5034600224FF0E02675690D4E3668BD
:1007900003FB06F44FF0E026B16910E04FF0E026CD
:1007A000B06988420BD0884202D20E1A324402E06D
:1007B0002E1A0E4432440146A24200D300E0EDE777
:1007C00000BF70BD5000002400BF054AD26902F08E
:1007D0004002002AF9D0C2B2014B9A627047000071
:1007E0000010014086B04FF0000804230222114699
:1007F000F02001F0EBFA4FF4F070FFF7A1FF4FF497
:10080000E131782001F018FBCB4841687820884717
:10081000FFF724FEFFF727FEFFF72AFEFFF72DFE66
:10082000C649086880470020FFF72CFE0120FFF72B
:1008300029FE0220FFF726FE0320FFF723FE0420F7
:10084000FFF720FEFFF723FEBD4901220868BDA186
:10085000FFF722FEBA4901224868BBA1FFF71CFE40
:1008600000BF1BE04FF47840B8A110221346CDE939
:1008700000210290C82232213C20FFF712FEC8203E
:10088000FFF774FF4FF6FF704223F02232210090F1
:100890003C20FFF70BFEC820FFF768FFFFF70BFEB9
:1008A0000028DFD14FF4784000211022AAA3CDE91F
:1008B0000032CDE902101346C82205211E20FFF7A1
:1008C000FFFD4FF4784000211022A8A3CDE90032AB
:1008D000CDE902101346C82219211E20FFF7F0FDB2
:1008E0004FF4784000211022A4A3CDE90032CDE9D5
:1008F00002101346C8222D211E20FFF7E1FD4FF400
:10090000784000211022A1A3CDE90032CDE90210E8
:100910001346C82241211E20FFF7D2FD4FF4784034
:10092000002110229CA3CDE90032CDE9021013462C
:10093000C82255211E20FFF7C3FD4FF47840002147
:1009400010229BA3CDE90032CDE902101346C82244
:1009500069211E20FFF7B4FD4FF4784000211022DA
:1009600099A3CDE90032CDE902101346C8227D21BA
:100970001E20FFF7A5FD4FF478400021102298A318
:10098000CDE90032CDE902102023D22291211E2090
:10099000FFF796FD9448808845F21031884206D1D1
:1009A0005620924908802B209149088012E08E48F9
:1009B000808845F21051884206D18C208B490880EE
:1009C00046208B49088005E03C2088490880282083
:1009D00087490880C3211E2000F036FC0722002131
:1009E00004A8FFF772FD002400260027A3E008F109
:1009F000010000F0FF080A20FFF7B8FEC3211E2007
:100A000000F0DCFA0546002D58D0012D06D10CB1BE
:100A1000601EC4B2002004A9085507E005F13000AB
:100A200004A90855072C01DA601CC4B29DF8100017
:100A3000F0B17048016804A88847054695B105F0F3
:100A40007F06012705F08000A0B105F07F0400209B
:100A500004A90855012C0DDD6648016804A88847E3
:100A6000064607E0601EC4B2002004A9085501E054
:100A7000002700264FF6FF707E2376226921009022
:100A80004620FFF713FD1F20102101233246CDE938
:100A900000106921AE20FFF71DFD1F20002110224C
:100AA00004ABCDE90032CDE902101346C82269211A
:100AB0004620FFF705FD384600F060FC0020FFF7F8
:100AC0000EFD0546032D0BD11C4890F8440038B9A3
:100AD0001A49886880474FF6FF70FFF705FDC0E6AA
:100AE000E6B1012D02D0022D17D109E0B74202DA9A
:100AF000781CC7B200E00127384600F03FFC0CE04C
:100B00004FF6FF70009038480088401E82B2C12323
:100B100091214620FFF7CAFCA3E600BFB8F11E0FE3
:100B200009D14FF0000800BF3348006880F0100082
:100B30003149086000BF5AE784010024780000248E
:100B400004010024303A0000313A0000466F6E7410
:100B5000204572726F722100D5FDB5E3D4ADD7D3B5
:100B600053544D3332BFAAB7A2B0E500C6B4D2F495
:100B7000CAE4C8EBB7A8CAB5D1E9000041544F4D4B
:100B800040414C49454E54454B0000004B45595F90
:100B900055503AD0A3D7BC004B4559303AB7ADD2E7
:100BA000B320204B4559313AC7E5B3FD00000000A2
:100BB000CAE4C8EB3A2020202020202020C6A5C56A
:100BC000E43A202000000000C6B4D2F43A202020ED
:100BD0002020202020B5B1C7B03A2020000000001E
:100BE000BDE1B9FB3A0000004003002448000024A6
:100BF0004A0000240C0100241404025810B50446D5
:100C0000240300F093F900F02BF907480078002145
:100C100041EA0010401DC2B20B462146202000F0E0
:100C200067FC00F01DF910BD7200002410B500240F
:100C300000BF1A48806800F020000028F9D14FF466
:100C400083701649486100BF1448806800F00200B4
:100C50000028F9D01148C06840F002000F49C86070
:100C60004FF6FF720021202000F0CEFC98B9EB2453
:100C700044F4807444F440640948007844EA003441
:100C800044F4404400BF44F4801444F0407444F001
:100C900040640248446100F03CFF10BD0050005227
:100CA0007200002410B5002400F031FF00BF00BF27
:100CB00000BF00BF00BFBFF34F8F00BF00BF00BF2A
:100CC00000BF00BF00BFBFF36F8F00BF00BF00BFFA
:100CD00000201949086000BF00BF00BFBFF34F8F5D
:100CE00000BF00BF00BF00BF00BF00BFBFF36F8FDA
:100CF00000BF00BF00BF00BFFFF79CFC0F480068AB
:100D000020F001000D4908600846006840F002002C
:100D100008604FF6FF720021202000F075FC0446A9
:100D20003CB90020054948610846006840F00100D0
:100D30000860204610BD000050EF00E00050005257
:100D40002DE9F04106460D4617460024A5F1E04581
:100D500000F0DDFE00BF03E0285D3055601C84B26A
:100D6000BC42F9DB00F0D5FEBDE8F08170B500248F
:100D70000025FFF797FF044614B900F033F8054645
:100D8000FFF754FF284670BD2DE9F04105460E4699
:100D900017460024FFF786FF044624B93A46314639
:100DA000284600F067F8FFF741FF2046BDE8F081D4
:100DB00070B505460E46144609480078C02141EA40
:100DC000001040F00C00401CC2B206233146EB205C
:100DD00000F08EFB2146284600F03AFB70BD000073
:100DE0007200002438B5002365221946902000F0D7
:100DF0007FFB0221684600F02BFB9DF801009DF867
:100E0000001040EA01244EF61870844202D10320FB
:100E100001490870204638BD7200002438B50446E8
:100E2000002000900025012C04D0022C04D0032CBB
:100E300006D103E0052505E0352503E0152501E091
:100E4000052500BF00BF002341221946284600F0B7
:100E50004FFB0121684600F0FBFA9DF8000038BD09
:100E600010B500BF0120FFF7D9FF00F001000028F6
:100E7000F8D110BD2DE9F05F81460F461646DFF828
:100E8000A8B04FEA1738C7F30B0ACAF58054A64238
:100E900000DC344644E04FEA08314FF480525846B3
:100EA000FFF786FF002508E00AEB05001BF80000AD
:100EB000FF2800D003E0681C85B2A542F4DB00BF28
:100EC000A54216DA4046FFF799FE002507E019F81B
:100ED000050005EB0A010BF80100681C85B2A5426C
:100EE000F5DB4FEA08314FF48052584600F026F8FF
:100EF00004E022463946484600F020F8A64200D1D8
:100F00000FE008F101084FF0000AA1442744301B0C
:100F100086B2B6F5805F02DD4FF4805400E03446BF
:100F2000B9E700BFBDE8F09FC803002410B5002357
:100F300001221946062000F0DBFA10BD2DE9F04130
:100F400007460E461446F0B2C0F58075AC4200DC90
:100F5000254612E02A463146384600F013F8AC42E6
:100F600000D10BE02F442E44601B84B2B4F5807F87
:100F700002DD4FF4807500E02546EBE700BFBDE8D9
:100F8000F081000070B505460E461446FFF7CEFF0F
:100F900009480078C02141EA0010401DC2B2002378
:100FA0003146322000F0A4FA2146284600F0E0FA4B
:100FB000FFF756FF70BD0000720000242DE9F041DC
:100FC000074688460026384841680020884736484A
:100FD000808E00F40040002854D000244FE000250B
:100FE0002DE0314880893149098805FB01712F4A7C
:100FF00012881144884220DA2B4880892B490988BD
:1010000005FB0171884218DD2748008C28490988B2
:1010100004FB0181264A1288114488420DDA2248D5
:10102000008C2349098804FB0181884205DD04EB1B
:1010300044002844401CC6B203E0681C85B2032D5E
:10104000CFDB00BFCEB11B480078B04201D10026F3
:1010500012E018480078401EC2B2002341463846CC
:1010600000F02AF8134806700078401EC2B201232F
:101070004146384600F020F803E0601C84B2032C9F
:10108000ADDB0EE00B48007858B10A480078401EEE
:10109000C2B200234146384600F00EF80020054950
:1010A00008703046BDE8F081780000244800002434
:1010B0004A0000244C0000242DE9FC4704460D465C
:1010C00016469946032096FBF0F087B2032096FB64
:1010D000F0F100FB11601FFA80F8082E01DDBDE879
:1010E000FC87B9F1000F37D04FF4FC60DFF848C13E
:1010F0000090BCF800C007FB0C5CDFF83CA1BAF81C
:1011000000A0D444ACF1010C1FFA8CF3DFF82CC121
:10111000BCF800C008FB0C4CDFF820A1BAF800A016
:10112000D444ACF1010C1FFA8CF2DFF80CC1BCF80E
:1011300000C007FB0C5C0CF1010C1FFA8CF1DFF80E
:10114000FCC0BCF800C008FB0C4C0CF1010C1FFAF1
:101150008CF0FFF7ABF936E04FF6FF70DFF8D8C040
:101160000090BCF800C007FB0C5CDFF8CCA0BAF81C
:1011700000A0D444ACF1010C1FFA8CF3DFF8BCC022
:10118000BCF800C008FB0C4CDFF8B0A0BAF800A017
:10119000D444ACF1010C1FFA8CF2DFF89CC0BCF80F
:1011A00000C007FB0C5C0CF1010C1FFA8CF1DFF89E
:1011B0008CC0BCF800C008FB0C4C0CF1010C1FFAF1
:1011C0008CF0FFF773F91F201C4909881C4BCDE9EF
:1011D000001053F826202B1DDFF85CC0BCF800C0BF
:1011E0000CFB073399B2154B1B8808FB034398B2DD
:1011F0001023FFF77EF91F20104909880E4BCDE917
:101200000010B3F800A00AEBDA7305EB6303DFF814
:1012100028C0BCF800C00CFB073399B2094B53F847
:101220002620064B1B8808FB034398B21023FFF7C8
:1012300060F900BF53E700004A0000244800002482
:1012400000000024240000242DE9FC4705460E463A
:101250004FF4784000904548008800EB400030444F
:1012600083B24348008800EB4000284482B23146F4
:101270002846FFF743F94FF478403C49009009882D
:1012800001EB410131448BB23949098805EB410139
:101290008AB237490988294488B23146FFF72EF9C6
:1012A0004FF4784000903148008806EB400083B24C
:1012B0002F48008800EB4000284482B22B48008869
:1012C000304481B22846FFF719F9002449E0032091
:1012D00094FBF0F1301D254A128802FB010087B211
:1012E000032094FBF0F100FB11402149098800FB29
:1012F00001501FFA80F81F201D490988CDE9001010
:101300001C4850F82420102339464046FFF7F1F8D6
:10131000032094FBF0F015490F8807EBD77106EB1B
:101320006101124A128802FB00101FFA80F80320A4
:1013300094FBF0F100FB11400D49098800FB0150BE
:101340001FFA80F91F200A490988CDE900100A48D0
:1013500050F82420102341464846FFF7CAF8601C85
:1013600084B2092CB3DBBDE8FC8700004A000024EE
:101370004800002400000024240000247FB5044617
:101380001F20102101232246CDE900107D21AE202F
:10139000FFF7A0F84FF6FF70922376227D21009090
:1013A0004620FFF783F84FF6FF7000902048008832
:1013B000401E82B2C12391214620FFF777F8002C0E
:1013C00035D01F2200231025601E1A4951F8200035
:1013D0004068CDE90153039200902B46C8227D213D
:1013E0004620FFF76DF81F220023601E114951F8B7
:1013F00020008068CDE90153039200900C480088DA
:10140000463882B2302391214620FFF759F8601EFA
:10141000084A52F82000416807A0FFF774F8601EE0
:10142000044A52F82000816806A0FFF76CF87FBDDF
:1014300040030024100100240D0AC6B4D2F43A255A
:10144000730D0A00BDE1B9FB3A25730D0A000000D7
:101450002DE9F04306460D4624484769D0F8188028
:10146000DFF8889009F12009681E2049086127F0FB
:10147000406747F080670846C06840F00200C860D7
:1014800008464761C0F818800EE04FF6FF72012150
:10149000062000F0B9F804462CB999F8000006F8C7
:1014A000010B6D1E00E001E0002DEED100BFD4B9AC
:1014B0000E48006840F004000C4908604FF6FF72C7
:1014C0000121022000F0A0F8044664B90748C06872
:1014D00040F002000549C8604FF6FF72002120204D
:1014E00000F092F804462046BDE8F0830050005218
:1014F0002DE9F043074688461546994600244FF6E5
:10150000FF720021202000F07FF868BB00BF00BF01
:1015100000BFA80944EA006444EA8944C5F3011005
:1015200044EA0034C5F3810044EA802405F0030056
:1015300044EA00243C430D48446105F00C0010B11E
:101540000A48C0F8188005F0C00068B94FF6FF726D
:101550000121022000F058F806462EB90348C06861
:1015600040F002000149C860BDE8F083005000521D
:101570002DE9F04306460D4622484769D0F81890F9
:10158000DFF8808008F12008681E1E49086127F0F6
:10159000406700BF0846C06840F00200C8600846C7
:1015A00047610DE04FF6FF720121042000F02CF896
:1015B000044604B106E016F8010B88F800006D1E21
:1015C000002DEFD100BFD4B90E48006840F00400F0
:1015D0000C4908604FF6FF720121022000F014F858
:1015E000044664B90748C06840F002000549C86075
:1015F0004FF6FF720021202000F006F80446204636
:10160000BDE8F0830050005210B5034600240BE003
:1016100009488068184008B1012000E00020044615
:101620008C4200D102E0521E002AF1D100BF0AB163
:10163000002010BD0120FCE70050005210B5FEF75D
:10164000BBFFFEF76BFF0348006840F00400014950
:10165000086010BD9CEF00E0F0B504460D46002187
:1016600000200026CA4F3F6827F00407DFF820C398
:10167000CCF80070C64F0C373F6847F44047DFF89E
:1016800010C30CF10C0CCCF80070C24F3F6847F04F
:101690000207DFF800C3CCF80070BF4F3F6847F087
:1016A0000107DFF8F4C2CCF8007000BFB84F0C3768
:1016B0003F6807F40057002FF8D0B64FF43F3F685B
:1016C00047F48037DFF8CCC2ACF1F40CCCF80070F2
:1016D00000E0491CAF4FF43F3F6807F400371FB9E3
:1016E00047F6FF77B942F4D347F6FF77B94201D105
:1016F00001204BE1A74FCC3F3F6847F00207DFF8DE
:1017000094C2ACF1CC0CCCF8007067463F6847EA55
:101710000517CCF800709F4FC43F3F68A4F1010C3F
:1017200047EA0C07DFF86CC2ACF1C40CCCF80070CF
:101730006746D7F800C0571E4CEA4727DFF854C267
:10174000ACF1C40CCCF800706746D7F800C05F1E3F
:101750004CEA0747DFF83CC2ACF1C40CCCF800708F
:1017600067463F6847F08077CCF80070ACF104071B
:101770003F6847F00807ACF1040CCCF800706746EE
:101780003F68CCF8007067463F6847F44037CCF8B4
:101790000070804FF43F3F6847F08077DFF8F4C176
:1017A000ACF1F40CCCF80070002105E0491CB1F557
:1017B000001F01D3022006E0764FF43F3F6807F098
:1017C0000077002FF2D000BF724FCC3F3F6847F444
:1017D0000047DFF8C0C1ACF1CC0CCCF800706D4F05
:1017E000BC3F3F6840F2B71C47EA0C07DFF8A4C1D2
:1017F000ACF1BC0CCCF8007067463F6847F400774A
:10180000CCF8007067463F6847F08077CCF80070EE
:10181000604FC83F3F68DFF87CC1ACF1C80CCCF822
:10182000007067463F68CCF8007067463F6847F431
:101830000027CCF8007067463F6847F40017CCF8E3
:101840000070544FA83F3F6827F00307DFF844C1FA
:10185000ACF1A80CCCF8007067463F6847F002076F
:10186000CCF800704B4FF43F3F6847F08067DFF8DB
:1018700024C1ACF1F40CCCF80070002105E0491C47
:10188000B1F5001F01D3032006E0424FF43F3F684B
:1018900007F00067002FF2D000BF3E4FDC3F3F68EB
:1018A00047F00807DFF8ECC0ACF1DC0CCCF80070B6
:1018B00067463F68CCF80070364FE43F3F6847F01A
:1018C0000307DFF8D0C0ACF1E40CCCF800700021C5
:1018D0000AE0304FE43F3F68C7F3C206491CB1F548
:1018E000001F01D3042001E0032EF2D100BF2B4FD3
:1018F0003F6847F00207DFF8A4C0CCF800706746E5
:101900003F6847F02007CCF80070224FDC3F3F686B
:1019100047F04007DFF87CC0ACF1DC0CCCF800707D
:101920000CF104073F6847F040070CF1040CCCF8B9
:10193000007067463F6847F48067CCF800700CF190
:1019400004073F6847F040070CF1040CCCF8007026
:10195000104FF43F3F6847F08007DFF838C0ACF124
:10196000F40CCCF800700B4F3F6847F00207DFF82B
:1019700024C0CCF80070084F0C3F3F6847F00107C7
:10198000DFF814C0ACF10C0CCCF80070F0BD000016
:101990000C480258F44402582C040058002000520D
:1019A000F0B5034600200024002500BF29E00126F1
:1019B00006FA00F401EA0405A54221D1C70803F1A3
:1019C000200656F8276047074FEAD76C0F2707FA1B
:1019D0000CF7BE434FEAD00C03F1200747F82C6008
:1019E000C70803F1200656F827604707FF0E02FAE2
:1019F00007F73E434FEAD00C03F1200747F82C606D
:101A0000401C1028D3D3F0BD02461069084008B12D
:101A1000012070470020FCE702F001031BB183693D
:101A20000B43836103E0836943EA014383617047A9
:101A30002DE9F0470C46DDE90867002100258C46BA
:101A400000BF60E04FF0010808FA01F504EA050C58
:101A5000AC4557D1D0F800804FEA410A4FF0030956
:101A600009FA0AF928EA0908C0F80080D0F80080CD
:101A70004FEA410902FA09F948EA0908C0F800806A
:101A8000012A01D0022A27D1D0F808804FEA410A62
:101A90004FF0030909FA0AF928EA0908C0F8088092
:101AA000D0F808804FEA410906FA09F948EA09081E
:101AB000C0F80880D0F804904FF0010808FA01F847
:101AC00029EA0809C0F80490D0F8048003FA01F963
:101AD00048EA0908C0F80480D0F80C804FEA410AAF
:101AE0004FF0030909FA0AF928EA0908C0F80C803E
:101AF000D0F80C804FEA410907FA09F948EA0908C9
:101B0000C0F80C80491C10299CD3BDE8F08772B640
:101B1000704762B6704700002DE9F04107468846DD
:101B200014461D46284600F033F8C5F1040007FAB4
:101B300000F60F20284100EA0800064306F00F06D1
:101B4000E21704EBD2625211920002F1E022D2F8C5
:101B500000212146E31704EBD3635B11A4EB431C84
:101B6000012303FA0CF31A432046E31704EBD36373
:101B70005B119B0003F1E023C3F800210348005DE3
:101B800040EA061001490855BDE8F08100E400E094
:101B90000146072323EA01021202054B18684FF69B
:101BA000FF031840034B18431043014B1860704764
:101BB0000CED00E00000FA054A0A52020243014B14
:101BC0001A60704708ED00E03CB5054600247248F5
:101BD000006840F00200704908600846006840F064
:101BE000080008600846006840F0100008606A4875
:101BF0000C38006840F4804067490C3908600120C7
:101C0000032100230222CDE9001004216348FFF7DD
:101C10000FFF0120032100230222CDE90010402103
:101C20005E48FFF705FF0120032100230222CDE9D2
:101C300000104FF460515A48FFF7FAFE01200321CB
:101C400000230222CDE9001004215648FFF7F0FEE0
:101C5000092204215148FFF7A3FE0A2240214F48E0
:101C6000FFF79EFE09224FF400614D48FFF798FEF2
:101C700009224FF480514A48FFF792FE09224FF49F
:101C800000514748FFF78CFE092204214548FFF721
:101C900087FE41486438006840F480403E4964391A
:101CA00008600846006820F48040086000BF3E4895
:101CB000806800F020000028F9D137489438006887
:101CC00020F030003449943908600846006840F03C
:101CD00020000860354834490860354848600846A7
:101CE000006840F00100086000BF2F48806800F0E5
:101CF00020000028F9D14FF483702B49486100BFC0
:101D00002948806800F002000028F9D02648C06801
:101D100040F002002449C86000BF2348806800F0FA
:101D200020000028F9D12049C861EB2444F48074D4
:101D300044F44064A81C44EA003444F4404400BF26
:101D400044F4801444F0407444F040640846446114
:101D50001848006820F48030164908601548703033
:101D6000006820F001001349703108600020091D4F
:101D700008604FF01040091D08600F48091D0860F9
:101D800005200C49703108600A48006840F4803032
:101D9000084908603CBD0000E044025800040258B5
:101DA000000C0258001002580050005210030001AD
:101DB0000102180024ED00E02D0003030148024950
:101DC000086070470400FA050CED00E02DE9F041D1
:101DD00004460D4616461F4601201549086000209E
:101DE000134910310860124918310860091D086054
:101DF000091D08600E4928310860091D08600C495A
:101E00006031086001200B4908603B463246294694
:101E10002046FFF721FC0020FFF7D6FEFFF70EFC5F
:101E200000214FF00060FFF7C7FEBDE8F081000021
:101E300000440258088100517CB506460C4600BF9C
:101E40003248006840F001003049086000BF00BF20
:101E50000846006840F00100086000BF00BF2B4842
:101E60001030006840F0100028491031086000BFB1
:101E70000120009000230222410201902448FFF734
:101E8000D7FD01200090002302228102019020480A
:101E9000FFF7CEFD07224FF400711D48FFF780FDCC
:101EA00007224FF480611A48FFF77AFD1948704302
:101EB00000EB5400B0FBF4F51748C560002016494C
:101EC0000860084600680860084600680860084620
:101ED000006808600846006840F00800086008468E
:101EE000006840F0040008600846006840F02000E8
:101EF00008600223252203210846FFF70DFE06484D
:101F0000006840F00100044908607CBDE0440258CC
:101F10000000025840420F000010014010B5002997
:101F20000AD00878002807D005487844FEF7F0FA70
:101F3000002801D0002010BD0248784410BD0000E8
:101F40009A000000920000004FF04070E1EE100A8D
:101F50007047000032000000330000003400000031
:101F60003500000036000000370000003800000097
:101F70003900000044454C006162630064656600FE
:101F8000676869006A6B6C006D6E6F0070717273C8
:101F900000000000747576007778797A0000000000
:101FA000A1FB0000E01F00080000002478020000F0
:101FB000D4020008B420000878020024D8BE07002C
:101FC000300300081C00000043000000F8FFFFFF82
:101FD0000C0000000E0000000F0000002E000000AA
:101FE00013A01F1B0854041A58041A5C041A600436
:101FF0001A64041A68041A6C041A70041A74041A15
:1020000078041A7C041A80041A84041A88041A8C2E
:10201000041A94041A9804011522F823FFFFB20150
:102020001417EF02320513B9851490DD8914900D51
:1020300080023C901331681C9009694412143224C8
:10204000323032385220147C07241CE003308812CE
:10205000382CF0012090011C0B28A51F8C1E983FE6
:102060000190AC041AB4041AA0041ABC041A9C040B
:102070001AA4041AA9901AEC0813119D1B90C00809
:10208000136D071F089440019081081AB00813F1DE
:102090007D1B90100813ED7B1B90780813540114DE
:1020A00024019314905D8B14900D8C1B90310C22A5
:0420B0000602DC0147
:0200000490006A
:10000000662909F08786642900F07E80752900F052
:100010007B80782900F0B480632900F0F68473298E
:1000200000F0FB84002070470FB4044910B503AA08
:10003000029800F0F7FC10BC5DF814FB540000249B
:100040000FB41CB5074B06AA7B446946009005987F
:1000500000F0B9FC0020694600F0C8FC1CBC5DF84B
:1000600014FB0000A109000070B504468569006812
:10007000C10601D5302600E02026C00707D070BD9C
:10008000D4E9012130469047206A401C20626D1E51
:10009000F6D570BD70B5044685690078C00707D1F4
:1000A00070BDD4E9012120209047206A401C2062C5
:1000B0006D1EF6D570BD70B50C460546012A05D0FB
:1000C0002878800600D5EA69002302E0012305E0D4
:1000D0005B1C934202D2E05C0028F9D1A869E618C3
:1000E000C01AA861286A184428622846FFF7BCFF96
:1000F00004E0D5E9012114F8010B9047B442F8D38C
:100100002846FFF7C7FF70BD2DE9F04106460024E1
:1001100010687529314616A510D0AFF3008000286D
:1001200002DA404213A507E031688A0701D512A51B
:1001300002E0490704D511A5012401E0AFF30080D6
:1001400000210A2206F1240709E0B0FBF2FCB0FB13
:10015000F2F302FB1C00303078541846491C00288A
:10016000F3D123462A463046BDE8F04100F0BDB940
:10017000000000002D0000002B0000002000000007
:1001800070B504460D4621461068AFF30080218803
:10019000090502D50F4A7A4402E00E4A7A440E322B
:1001A000002104F1240305E000F00F060009965D2C
:1001B0005E54491C0028F7D120780023000704D59D
:1001C000702D02D009B1022311322046BDE87040E3
:1001D00000F08BB96A2F01002DE9F05F89460446D3
:1001E0004FF0000ADFF874B1FB44C0F820A02046AD
:1001F000E1688847002874D0252806D0D4E9012179
:100200009047206A401C2062F1E700265F462046A6
:10021000E16888472028054607DB312D05D278198B
:1002200010F8200C08B10643F1E7B00701D526F01D
:100230000406C4F81CA00027C4F818A02A2D09D071
:10024000284601F02BF938B304EB8708303DC8F895
:10025000185019E059F8041B204604EB87029161FD
:10026000E1688847012F054618D1E069002820DAA7
:1002700026F020061DE0D8F8180000EB800005EB02
:1002800040003038C8F818002046E1688847054625
:1002900001F004F90028EED1012F0AD02E2D08D14B
:1002A0002046E16888477F1C0546022F46F020065D
:1002B000C4DBA069002803DA404246F00106A061D1
:1002C000F00701D026F010066C2D0BD0682D09D058
:1002D0004C2D39D06A2D35D0742D35D07A2D33D0B0
:1002E00016E038E0E1682F4620468847B8420546C8
:1002F00009D16C2F26D04FF48060E1680643204678
:100300008847054604E06C2F1AD04FF480700643EE
:100310000DB3A5F14100192802D8203546F4006636
:100320004A462946204626604E46FFF769FE80B1C0
:1003300001280BD0F61D26F0070000F1080956E74A
:100340004020E4E78020D8E70020D6E706F1040942
:100350004DE7284652E7206ABDE8F09F402F010094
:1003600040EA010310B59B070FD1042A0DD310C832
:1003700008C9121F9C42F8D020BA19BA884201D984
:10038000012010BD4FF0FF3010BD1AB1D30703D0CC
:10039000521C07E0002010BD10F8013B11F8014B82
:1003A0001B1B07D110F8013B11F8014B1B1B01D19E
:1003B000921EF1D1184610BD10B5431C02E010F892
:1003C000011B71B18107FAD14FF0013202C88C1ABA
:1003D0008C4314EAC211F9D0C01A0A0603D0C01E19
:1003E00010BDC01A10BD0A0401D0801E10BD090244
:1003F000FCD0401E10BD00004FF0013C50F8042B13
:1004000051F8043B9A4215D1A2EB0C03934313EA33
:10041000CC130BD150F8042B51F8043B9A4209D16C
:10042000A2EB0C03934313EACC13E7D04FF0000088
:10043000704700BFD01A01BAB1FA81F101F018017A
:1004400022FA01F0CB40C1F12001DBB2C0B2C01AE8
:100450002CFA01F3D11A914311EAC311E6D1704786
:1004600030B5B0F10A024FEA900E71F100034EEA86
:10047000817EB0EB0E0061EB91014FEA101E4EEA57
:10048000017E10EB0E0041EB11114FEA102E4EEAE7
:10049000016E10EB0E0041EB11214FEA104E4EEAB7
:1004A000014E10EB0E0041EB1141401841F10001EB
:1004B0004FEAD00040EA41704FEAD10110EB8005CD
:1004C0004FEA810444EA907444EB01046D1944EB53
:1004D0000404521BA3414FF0000348BF0A3200D569
:1004E00030BD401C41F1000130BD2DE9F0470D4603
:1004F00099469246044600F124080168880604D50E
:10050000E06921F01001216000E00120A84201DD36
:10051000471B00E00027A1697A1902EB0900081ABD
:10052000A0612078C00602D42046FFF79DFD00267A
:1005300008E0D4E901211AF806009047206A401C1F
:10054000761C20624E45F4DB2078C0060AD5204692
:10055000FFF78AFD06E0D4E9012130209047206AA8
:10056000401C2062381EA7F10107F4DC07E0D4E943
:10057000012118F805009047206A401C2062281EBF
:10058000A5F10105F3DC2046FFF784FD2078000685
:1005900002D50220BDE8F0870120FBE770472DE976
:1005A000FF4F0C461E464FF0FF378BB0D2E90001DB
:1005B000DDF860800A908A46C1F30A5505B93D46C8
:1005C000002108464FF00000BAF1000F00F440008F
:1005D00005DA00EB80004FF4400101EA50004FEAD9
:1005E0009059B9F1010F00DDB9460A9850EA4A0066
:1005F0000ED044F61050A5F2FF3545432F14B8F144
:10060000000F1ED07542291E1EDDC9F100021CE03C
:10061000B8F1010F4FF0000001D0302103E0F243A8
:1006200005E02154401CB042FBDB30460022002193
:1006300021540B99C1F80880C1E900200FB0BDE832
:10064000F08FBD1B6D1CDEE74A4600DA694206A842
:1006500000F03AFA06AB93E8070003AB83E8070023
:1006600050460A9900F0A6FA8DE80700A0F5005060
:100670001F3800900398002D0ADD42F21F014A4600
:100680000844002303A90390684600F00FFD09E029
:10069000A0F500504A461F38002303A9039068467E
:1006A00000F019FD8DE807000004000C03D04FF0A6
:1006B000FF30410800E01046B8F1000F03D00022DF
:1006C000009215461EE0751E05D4FFF7C9FE3032B4
:1006D00062556D1EF9D5B3460122084302D00022AF
:1006E0007F1C04E02078302801D100227F1E002AE0
:1006F000099784D01DE0112D07DAFFF7B1FE3032E3
:1007000062556D1C50EA0102F5D1084302D00098F1
:10071000C8B10EE00021681E05E0235C625C6354F2
:100720002254401E491C8142F7DBAB46A81B401EE9
:100730000990002004F80B000B98099AC0F8088073
:10074000C0E9002B7AE711264FF0000857E72DE9A2
:10075000F04F88460446D21D22F0070191B0D1E93E
:100760000001CDE90A0100F081FE02460B98C00F9E
:1007700001D02D2007E02068810701D52B2002E061
:10078000202101EAC000032A099001D0072A05DBD5
:1007900003464146204600F057F90BE120788006D9
:1007A00001D5E06900E00620B8F1650F814606D06A
:1007B000B8F1660F18D0B8F1670F70D131E00020A2
:1007C000B9F1110F009001DB112301E009F10103E0
:1007D0000AAA01A90CA8FFF7E2FEDDE90C700026C9
:1007E00009F10105834647E001204B4600904FF098
:1007F00000470AAA01A90CA8FFF7D1FEDDE90DB058
:100800000C995D46002610B909F101000D18B9EBED
:10081000050003D4C0F1FF3609F10105A5EB09007D
:100820002BE0B9F1010F01DA4FF001090020B9F115
:10083000110F0090484601DD112300E003460AAA8B
:1008400001A90CA8FFF7ABFEDDE90C704D460026B0
:100850008346207800070AD4AB4500DA5D4601A83C
:10086000012D04DD411911F8011C302907D04F4535
:1008700002DA17F1040F04DA012082460FE06D1E40
:10088000EEE7002F02DCED1B3E4403E0781CA8429B
:1008900000DD7D1CB81B00F1010A4FF000472078F5
:1008A000000703D4AA4501DB4FF0FF3A0021B7F15E
:1008B000004F0DF143088DF8431024D002202B2364
:1008C000002F01DA7F422D230A21021EA0F1010030
:1008D00000DC5FB197FBF1FC97FBF1F201FB1C7CA4
:1008E00017460CF1300C08F801CDEEE7A8F1010035
:1008F00003702188090501D5452100E06521A0F19B
:10090000010800F8011C09980FA9A1EB0807FF1DB9
:1009100000B10120411901EBEA70A1693844081ABD
:10092000401EA0612078C00602D42046FFF79CFB41
:10093000099828B1D4E901219047206A401C20621F
:100940002078C00622D52046FFF78EFB1EE0002E41
:1009500004DBB34502DD01A8805D00E03020D4E96E
:1009600001219047206A401C2062761CAAF10100F8
:100970005FEA000A0AD100F0E5FCC0680168405C4B
:10098000D4E901219047206A401C2062281EA5F16D
:100990000105DCDC07E0D4E9012118F8010B9047E0
:1009A000206A401C2062381EA7F10107F3DC2046B4
:1009B000FFF770FB032011B041E6000001694A1CFB
:1009C00002610878704700B58FB0CDE90131002190
:1009D000059105497944CDE9031011466846FFF7B2
:1009E000FBFB0FB000BD0000E5FFFFFF0A6802F847
:1009F000010B0A60704710B5436913B1AFF3008073
:100A000001E0FFF758FB012010BD127800F124012E
:100A10000A7000224A700122EDE711684FF0FF32A0
:100A2000E9E70000074B70B50D467B44FFF7CBFFAD
:100A30000446284600F0BAF810B14FF0FF3070BD00
:100A4000204670BD9BFDFF772DE9F0411F4604460F
:100A500003260168072A01F4006004DB08B116A52B
:100A600005E016A503E008B115A500E015A521F0E5
:100A700010002060A069C01EA0610FB1401EA061DF
:100A80002046FFF7F1FA4FB1D4E9012138469047EB
:100A9000206A401C2062C01C206206E0206AFAE73F
:100AA000D4E9012115F8010B9047761EF8D22046B3
:100AB000FFF7F0FABDE8F0814E414E006E616E0026
:100AC000494E4600696E66002DE9F047814616469C
:100AD0008AB0354878440DC88DE80D003248784416
:100AE000801C03AC0DC884E80D0041F69B3008441F
:100AF000372190FBF1F290FBF1F5A5F1800501FBA8
:100B000012041B3C02D56442012000E00020DFF803
:100B100098A080460027FA44AAF1BE0A0EE0E0073A
:100B20000AD03246684607EB470101230AEB8101F0
:100B300000F0D1FA8DE8070064107F1C002CEED184
:100B4000194F7F44AE3F19E0E80715D007EB0410BA
:100B50000DF1180A90E80E008AE80E00C068F04215
:100B600001D1981908903246012306A903A800F084
:100B7000B2FA03AB83E807006D10641C002DE3D1CB
:100B80004FF0010332466946B8F1000F03A802D0C6
:100B900000F08CFA01E000F09EFAC9E90001C9F802
:100BA00008200AB0BDE8F087E4260100007B00F0D1
:100BB000800070475FEA400C08BF91F0000F4FEAD9
:100BC0008C234FEAC12243EA51514FEA1C5018BF0F
:100BD00000F5F0404FEA300018BF41F000415FEAF5
:100BE0006C5C00F02980BCF1FF3F08BF40F0804002
:100BF0007047130C06BF12044FF0100C4FF0000C9E
:100C0000130E04BF12020CF1080C130F04BF1201E3
:100C10000CF1040C930F04BF92000CF1020CD30FE3
:100C200004BF52000CF1010C11464FF00002A0F17C
:100C30001F00A0EB0C00704711F0004F08BF704779
:100C400031F000413FF4D5AF0B0C06BF09044FF063
:100C5000100C4FF0000C0B0E04BF09020CF1080C35
:100C60000B0F04BF09010CF1040C8B0F04BF8900AA
:100C70000CF1020CCB0F04BF49000CF1010CCCF1BC
:100C80002003A0EB0C0022FA03F302FA0CF241EA73
:100C9000030100F10100704720F07F4C80EA03005F
:100CA00023F07F47ACEB070303F57C5300F00040D3
:100CB00003F1FF032DE980494FEA154B09B44FEAD0
:100CC000144325EA0B4E24EA03480FF2042606EBF0
:100CD000132749083E785FEA320203FB0667C7F52F
:100CE000000707FB06F64FEA54374FEAD64606F1EF
:100CF000020607FB066CCCF1005C4FEA1C472CEAAD
:100D0000074C07FB06F40CFB06F504EB15464FEA0F
:100D1000961634BF00204FF000404FEAD13706FB53
:100D200007FC4FEA1C4C0CFB0BF7D21B03FB0CF728
:100D300061EB07010CFB0EF7B0EB074072EB1742BB
:100D40000CFB08F734BFA2EB0742B2EB074261EBA2
:100D500017414FEA0C444FEA910706FB07FC4FEAA4
:100D60001C4C0CFB0BF7B0EBC74072EB573203FB8C
:100D70000CF734BFA2EBC742B2EBC74261EB57316D
:100D80000CFB0EF7B0EBC70072EB57720CFB08F7C9
:100D900034BFA2EBC702B2EBC70261EB5771039FEE
:100DA0004FEA816141EA921104EBCC044FEAD1375A
:100DB0004FEA826206FB07FC42EA90124FEA80602B
:100DC0004FEA1C4C0CFB0BF7D21B03FB0CF761EB3F
:100DD00007010CFB0EF7B0EB074072EB17420CFB60
:100DE00008F734BFA2EB0742B2EB074261EB1741B1
:100DF0004FEA8C554FEA910704EB9C2406FB07FC55
:100E00004FEA1C4C0CFB0BF7B0EBC74072EB5732B0
:100E100003FB0CF734BFA2EBC742B2EBC74261EB56
:100E200057310CFB0EF7B0EBC70072EB57720CFB9F
:100E300008F734BFA2EBC702B2EBC70261EB5771F0
:100E400015EB4C254FEA816141EA92114FEA82622B
:100E50004FEAD13742EA901206FB07FC44F1000446
:100E60004FEA80604FEA1C4C0CFB0BF7D21B03FBD4
:100E70000CF761EB07010CFB0EF7B0EB074072EBD0
:100E800017420CFB08F734BFA2EB0742B2EB074254
:100E900061EB174115EB1C154FEA813141EA924194
:100EA0004FEA823242EA90424FEA80304FEA0C76B3
:100EB00044F1000448EA03434EEA0B484FF0000EA9
:100EC000B2EB080C71EB030724BF624639464EEBC8
:100ED0000E0E4FF0000B0018524149414BEB0B0B2B
:100EE000B2EB080C71EB03077BF1000B24BF6246E9
:100EF00039464EEB0E0E4FF0000B0018524149419F
:100F00004BEB0B0BB2EB080C71EB03077BF1000B07
:100F100024BF624639464EEB0E0E51EA020718BF57
:100F200046F0010616EB0E7655F1000254F1000171
:100F300003D5BDE88901BDE80088BDE88901BDE8A9
:100F40000048B619524141EB0101A3F1010370477A
:100F500080807F7E7D7C7B7A7978777676757473F6
:100F6000727171706F6E6E6D6C6C6B6A6A696868B5
:100F7000676666656464636362616160605F5F5E4B
:100F80005E5D5D5C5C5B5B5A5A59595858575756C1
:100F90005655555554545353525252515150505026
:100FA0004F4F4F4E4E4D4D4D4C4C4C4B4B4B4A4A78
:100FB0004A494949484848474747474646464545BC
:100FC00045444444444343434342424242414141F5
:100FD000002B9C4630D477002BD01CB54FEA370746
:100FE00003B44FF010004FF01001BAF1000F06D01B
:100FF000BCF1000FDCBF40F0080040F008014FF0EA
:1010000000000FBCBDE810400BF1010BBBF1010F5C
:1010100008BF5FEA170722BF12F1010211F10101B7
:101020004FF0004143F1000300F0004043EA0000AC
:101030007047F9D35708D0E746EA064613F1400F48
:101040004FEA16461FDD13F1200FDFBF16430A4695
:10105000002120335B42BED0C3F1200746EA06469A
:1010600002FA07F74FEA164646EA0706C3F12007D9
:1010700022FA03F201FA07F721FA03F14FF0000315
:1010800042EA0702A7E746EA020646EA06464FEAB0
:10109000164646EA0106BCBF46EA0646360C4FF045
:1010A00000034FF000024FF0000194E72DE9804C5F
:1010B0009A46934670B491E8380007C831EA400C6C
:1010C00048BF34EA430C03D5FFF7E6FDFFF780FF86
:1010D000F0BCBDE8008C2DE9804C9A46934670B474
:1010E00091E8380007C810F0804F08BF13F0804F18
:1010F00003D100F005F8FFF76BFFF0BCBDE8008CF2
:1011000020F07F4780EA030023F07F4C07EB0C03BD
:10111000A3F57C5300F00040A3F1FE0392F0000F12
:1011200000F0B38095F0000F00F077802DE90149C1
:101130004FEA11404FEA144621EA004800FB06FC42
:1011400024EA064708FB06F607FB08F800FB07F74A
:1011500018EB06484CEB164C4FEA124B18EB0748BD
:101160004FEA15464CEB174022EA0B4E0BFB06FCF0
:1011700025EA06470EFB06F607FB0EFE0BFB07F7FC
:101180001EEB064E4CEB164C4FF000061EEB074EC6
:101190004CEB174B18EB0B0840F1000018EB0E0B53
:1011A00058EB000840F100008F1A4FF000013CBFDF
:1011B000C943661B14BFB5EB040C00213CBFC943F7
:1011C000F61B4FEA17444EEA8E0E27EA04454FEA13
:1011D0001C4704FB07622CEA074C05FB07F70CFBD6
:1011E00005F604FB0CFC16EB074642EB174216EB28
:1011F0000C4642EB1C421BEB060658EB0202414137
:1012000046EA9E0601D5BDE80189B619524141EB77
:101210000101A3F10103BDE801894FEA14454FEA3A
:10122000114724EA054621EA074C05FB07F406FBB3
:1012300007F70CFB06F105FB0CFC11EB074144EB37
:1012400017444FEA124711EB0C4144EB1C4422EACD
:10125000074C05FB07F206FB07F70CFB06F605FB40
:101260000CFC16EB074642EB174216EB0C4642EB22
:101270001C456A1854F1000148BF7047B619524125
:1012800041EB0101A3F10103704795F0000F37D046
:101290004FEA11424FEA144721EA024624EA074C7A
:1012A00002FB07F106FB07F70CFB06F402FB0CFC44
:1012B00014EB074441EB17414FEA154714EB0C447C
:1012C00041EB1C4125EA074C02FB07F506FB07F73B
:1012D0000CFB06F602FB0CFC16EB074645EB17452C
:1012E00016EB0C4645EB1C42121951F1000148BFA8
:1012F0007047B619524141EB0101A3F10103704758
:101300004FEA14454FEA114724EA054621EA074C03
:1013100005FB07F106FB07F70CFB06F24FF0000692
:1013200005FB0CFC12EB074241EB174112EB0C42A0
:1013300051EB1C4148BF7047921841EB0101A3F1EA
:101340000103704740F2F13CC0F6000C604741F6E3
:10135000192CC0F6000C604740F26D7CC0F6000C02
:10136000604741F6BD5CC0F6000C604740F2817CEE
:10137000C0F6000C604741F6312CC0F6000C604707
:1013800041F6092CC0F6000C604740F66D5CC0F6D3
:10139000000C604740F6415CC0F6000C604740F628
:1013A000895CC0F6000C604741F6A11CC0F6000C39
:1013B000604741F60F3CC0F6000C604741F6133C15
:1013C000C0F6000C604741F6193CC0F6000C6047BF
:1013D00010B5002240210A48FFF7B9FF09A0FEF727
:1013E00023FE4FF47A70FFF7B7FF0CA0FEF71CFE48
:1013F0004FF47A70FFF7B0FFFFF7B3FF10BD0000A6
:10140000001002584D656D2041636365737320457C
:1014100072726F7221210D0A00000000536F667412
:10142000205265736574696E672E2E2E0D0A0000BA
:1014300010B50C48006800F0010058B10A4908696D
:10144000804700200749143108604FF47A7005493D
:101450001C3108600348006820F001000149086061
:1014600010BD0000100800408401002403B401985E
:101470004100009850EAC12018BF04204A0D18BF4F
:1014800040F0010040F2FF72B2EB515F08BF40F044
:101490000200012808BF052002B0704730380A2832
:1014A00001D2012070470020704710B501F024F8E8
:1014B00010BD70B505460C46164606E028466A1C67
:1014C00095B200F008F804F8010B301EA6F10101F6
:1014D0008EB2F3D170BD70B50446002601F0A4F8B9
:1014E0002112A02202EB4101C8B201F075F801F00F
:1014F000D5F82546E11704EB11610912A4EB01218F
:10150000C8B201F069F801F0C9F801F08DF8A12026
:1015100001F062F801F0C2F8002001F031F806464F
:1015200001F0A2F8304670BD70B505460C4616466F
:1015300006E02178284600F009F8681C85B2641C92
:10154000301EA6F101018EB2F3D170BD70B5044614
:101550000E4601F069F82112A02202EB4101C8B247
:1015600001F03AF801F09AF82546E11704EB116111
:101570000912A4EB0121C8B201F02EF801F08EF897
:10158000304601F029F801F089F801F06DF80A20E1
:10159000FFF7E2FE70BD00002DE9F04104468846E9
:1015A0000020E070401EA0634146204605F02AF866
:1015B00010B10420BDE8F08104F23A2004F069FD86
:1015C00007464AF65520874208D10B222DA104F187
:1015D0003C00FEF7C5FE08B90120EBE794F83C504B
:1015E000EB2D03D0E92D01D0E82D43D14AF655204B
:1015F000874208D1082226A104F18E00FEF7B0FE32
:1016000008B90020D6E704F1470004F042FD064681
:101610004920055D701E304060BBB6F5007F29DBB8
:10162000B6F5007F26DC2DB3681E284010BB04F100
:101630004A0004F02EFDE8B14C20005D401E012858
:1016400018D804F14D0004F024FD98B104F14F00C6
:1016500004F01FFD802806DA04F15C0004F0DCFCD5
:10166000B0F5803F06D304F1520004F012FD08B13A
:1016700000209FE74AF65520874201D1022099E7D2
:10168000032097E7EB7690455846415420202000F0
:101690004641543332202020000000000246891EBB
:1016A000D069801E884201D8002070475389106B92
:1016B00003FB0100F9E7000010B5002208210D48E6
:1016C000FFF745FE00F018F8012211460948FFF720
:1016D0003EFE00F011F8002201210648FFF737FE18
:1016E00000F00AF8012208210248FFF730FE00F05E
:1016F00003F810BD0004025810B50220FFF736FEB3
:1017000010BD00001CB500BF1148006840F0020089
:101710000F49086000BF00BF0846006840F00200A3
:10172000086000BF0120009000230246014601909E
:101730000848FFF720FE01200090034602460821DA
:1017400001900448FFF717FE00F08EF81CBD000062
:10175000E04402580004025810B5012208210A484A
:10176000FFF7F5FDFFF7C8FF012211460648FFF716
:10177000EEFDFFF7C1FF002201210348FFF7E7FD5F
:10178000FFF7BAFF10BD00000004025870B505460F
:101790000024002618E06006040E012211460F48BE
:1017A000FFF7D5FDFFF7A8FF08210C48FFF7E8FD7C
:1017B00008B1601CC4B2002201210848FFF7C7FD30
:1017C000FFF79AFF701CC6B2082EE4DB15B9FFF7CD
:1017D000C3FF01E0FFF770FF204670BD0004025810
:1017E00070B50446002516E0E20908210E48FFF70F
:1017F000AEFDFFF781FF012211460B48FFF7A7FD61
:10180000FFF77AFF002201210748FFF7A0FD6006DD
:10181000040E681CC5B2082DE6DB0122082102482F
:10182000FFF795FD70BD00000004025810B50122BD
:1018300008210C48FFF78BFD012211460948FFF7EC
:1018400086FDFFF759FF002208210648FFF77FFDBC
:10185000FFF752FF002201210248FFF778FDFFF752
:101860004BFF10BD0004025810B5002208210A48A1
:10187000FFF76DFDFFF740FF012211460648FFF715
:1018800066FDFFF739FF012208210348FFF75FFDDE
:10189000FFF732FF10BD00000004025870B50024AD
:1018A0000025012208211348FFF751FDFFF724FF0F
:1018B000012211460F48FFF74AFDFFF71DFF09E01F
:1018C000601CC4B2FA2C03DDFFF7CEFF012507E050
:1018D000FFF712FF08210748FFF752FD0028EFD15C
:1018E00000BF002201210348FFF731FDFFF704FF8D
:1018F000284670BD0004025870B50446002514B196
:10190000012C07D103E005F053F8054604E0FFF78A
:101910003CFD01E0012500BF00BF0DB1012070BDFD
:101920000020FCE72DE9F04180460E4614461D4696
:10193000002715B90420BDE8F081B8F1000F03D0ED
:10194000B8F1010F26D113E02A462146304605F0B2
:101950001BF9074609E0022F01D005F029F82A46B5
:101960002146304605F010F90746002FF3D113E069
:101970000CE04FF40C0000EB44214FF400723046B1
:10198000FFF708FD641C06F500766D1E002DF0D1F2
:10199000002701E0012700BF00BF0FB90020CAE700
:1019A0000120C8E70146002070472DE9F0410746B5
:1019B0000E4614461D464FF0000815B90420BDE838
:1019C000F08117B1012F25D112E02A462146304679
:1019D00005F0FAF8804607E004F0EAFF2A462146BF
:1019E000304605F0F1F88046B8F1000FF4D114E06C
:1019F0000CE04FF40C0000EB44214FF40072304631
:101A0000FFF7CDFC641C06F500766D1E002DF0D1AD
:101A1000A84602E04FF0010800BF00BFB8F1000F78
:101A200001D10020CBE70120C9E7000070B50025F7
:101A300000240EE04FF40F71002004F0A1FF0B49C9
:101A400041F82400084650F8240000B903E0601C67
:101A5000C4B2022CEEDB00BF04F07AFB0546022C78
:101A600002D10DB9002070BD0120FCE70401002463
:101A7000F7B582B016460398019001A800F02BFA42
:101A80000546002D02DA0B2005B0F0BD0C4850F8D9
:101A900025400CB100202070029810B1002002995E
:101AA00008700749029841F825000EB90020EBE7BD
:101AB000002202A903A804F06BFB07463846E3E7BF
:101AC000F80000242DE9FF4107460D460021384665
:101AD000FFF762FD0646022E06D0032E00D21DB986
:101AE000304604B0BDE8F08100BF00240AE007F5ED
:101AF000FD7101EB041101F1080004F08DFA4DF8BD
:101B00002400641C042CF2D30DB1681E00E00020F8
:101B1000044600BF5DF8240028B15DF82410384663
:101B2000FFF73AFD00E0032006462DB9022E03D34D
:101B3000601C04460428EDD33046D2E710B50024DB
:101B40000EE0601CC4B229220B490C48FFF722FCAE
:101B50000A480078AA2800D104E01420FFF7FCFB13
:101B60000A2CEEDB00BF05480078AA2801D001202E
:101B700010BD0020FCE7000000D02B00C0B80724F7
:101B80000EB500BF3A48006840F0040038490860CC
:101B900000BF00BF0846006840F00200086000BFB8
:101BA0000120009000230246202101903148FFF7D8
:101BB000E2FB0120009000231A46022101902E48EA
:101BC000FFF7D9FBFFF79EFD002220212948FFF7F0
:101BD000BEFB1420FFF7C0FB012220212548FFF7A0
:101BE000B6FB3220FFF7B8FB00208DF80800012279
:101BF00002A900F047F9012202A9A42000F042F94D
:101C000016208DF80800012202A9802000F03AF980
:101C10000C208DF80800012202A9882000F032F97A
:101C2000022202A9A12000F02FF89DF80800302818
:101C300003D19DF8090003280DD09DF80900012863
:101C400009D09DF80900022805D09DF8080068B960
:101C50009DF8090050B99DF809009DF8082000EB97
:101C6000022106A0FEF7E0F900200EBD0120FCE7EE
:101C7000E04402580008025800040258435450201F
:101C800049443A25780D0A002DE9F04106460F46F1
:101C90001546FFF7CBFD7020FFF7A2FDFFF7FEFD15
:101CA000F0B2FFF79DFDFFF7F9FDFFF7BFFD7120D3
:101CB000FFF796FDFFF7F2FD00240BE0691EA1423D
:101CC00001D0012100E000210846FFF75FFD3855F3
:101CD000601CC4B2AC42F1DBFFF7C6FDBDE8F08189
:101CE0002DE9FC41074600200190002400266148B0
:101CF0000078401C5F490870084600780A2190FB74
:101D0000F1F201FB120018B15A4800780A2867DA8C
:101D1000012201A90220FFF7B7FF9DF8040000F09F
:101D20000F0000285CD09DF8040000F00F0006288A
:101D30007BDA9DF8040000F00F014FF6FF70884039
:101D400085B2E84380B240F440404B498886042085
:101D5000FFF702FB00245AE04748808E0121A14092
:101D60000840E0B3454931F8140004226946FFF702
:101D70008BFF414890F8440000F00100C0B19DF88D
:101D800001009DF8001001F00F0100EB01203A491D
:101D9000203121F814009DF803009DF8021001F095
:101DA0000F0100EB012134480C3020F814101EE024
:101DB0009DF801009DF8001001F00F0100EB0120DB
:101DC0002F490988081A81B22B480C3020F81410CA
:101DD0009DF803009DF8021001F00F0101E014E0EE
:101DE00023E000EB01202449203121F814009DF864
:101DF000000000F0F000802807D000211E482030AD
:101E000020F81410143820F81410601CC4B2052CEB
:101E1000A2DB01261848808920B91748008C08B930
:101E2000002001900020134908709DF8040000F084
:101E30001F00A8B91048808E00F4004030B10E4851
:101E4000808E20F400400C49888609E04FF6FF7030
:101E50000949888108840846808E00F4604088869D
:101E600004480078F02802DD0A2002490870304654
:101E7000BDE8FC81730000247800002458E4009041
:101E8000400300242DE9F04105460E4617464FF069
:101E90000008FFF7CBFC7020FFF7A2FCFFF7FEFC69
:101EA000E8B2FFF79DFCFFF7F9FC00240BE0305D82
:101EB000FFF796FCFFF7F2FC8046B8F1000F00D068
:101EC00003E0601CC4B2BC42F1DB00BFFFF7CCFCF6
:101ED0004046BDE8F08170B504464FF0FF302668FB
:101EE0003146324601B970BD00BF12F8013B202BCC
:101EF00001D33A2BF9D13A2B11D102250E78302E8D
:101F000008DB0E78392E05DC8E1C964202D10E7845
:101F1000A6F13005022D01DA28462260E3E7002011
:101F200000BFE0E72DE9F04F81460E464FF0000A72
:101F3000D34600250027A846DFF864A040F28F1B97
:101F400000BF20E005EB4500154A52F82010484636
:101F500005F012FE0446A4B1FF2C0AD105EB4500A2
:101F60000F4901EB80023846791CCFB246F8202099
:101F700007E0444505DDA04605EB4500084901EBB7
:101F8000800A681C85B25D45DCDB37B9B8F1000F0B
:101F900003D0C6F800A048F080073846BDE8F08FAF
:101FA000501E019010B5044602492046FFF7BAFFC3
:101FB00010BD0000100100241FB500BF404800689C
:101FC00040F004003E49086000BF00BF08460068BA
:101FD00040F00200086000BF01200090002302468C
:101FE000202101903748FFF7C6F901200090002317
:101FF0001A46022101903448FFF7BDF9FFF782FB32
:10200000002220212F48FFF7A2F90A20FFF7A4F9A8
:10201000012220212B48FFF79AF90A20FFF79CF9AB
:102020000020012103460246CDE900100221264886
:10203000FFF7A1F96420FFF78FF9042202A948F203
:10204000401000F059F800208DF80C001FA102A8E4
:10205000FEF7D2F988B11EA102A8FEF7CDF960B152
:102060001DA102A8FEF7C8F938B11DA102A8FEF70C
:10207000C3F910B1012004B010BD02A91AA0FDF7E8
:10208000D3FF17A102A8FEF7B7F910B90A20194922
:10209000087002208DF80800012202A948F24000D1
:1020A00000F0D4F90A20FFF757F900208DF8080056
:1020B000012202A948F2400000F0C8F90020DAE746
:1020C000E044025800080258000402583931310037
:1020D000393134370000000031313538000000005C
:1020E00039323731000000004354502049443A252A
:1020F000730D0A00740000242DE9F04105460F46D7
:102100001646FFF793FB2820FFF76AFBFFF7C6FB95
:102110002812FFF765FBFFF7C1FBE8B2FFF760FB92
:10212000FFF7BCFBFFF782FB2920FFF759FBFFF706
:10213000B5FB00240BE0711EA14201D0012100E09B
:1021400000210846FFF722FB3855601CC4B2B44298
:10215000F1DBFFF789FBBDE8F081000071B583B0CA
:10216000002001900026B4480078401CB249087055
:10217000084601780A2091FBF0F200FB121018B11A
:10218000AD4800780A287DDA012203A948F24E10F2
:10219000FFF7B2FF9DF80C0000F0800078B19DF8C9
:1021A0000C0000F00F00A5490978884207DC0020E8
:1021B0000190012201A948F24E1000F047F99DF864
:1021C0000C0000F00F0000285CD09DF80C0000F01F
:1021D0000F009A490978884254DC9DF80C0000F001
:1021E0000F014FF6FF70884084B29548858EE0431A
:1021F00080B240F4404092498886084682898F48E0
:102200000078401E0C3121F810208D48028C8B483C
:102210000078401E143121F8102000200190A7E022
:102220008748808E9DF804200121914008400028B5
:102230003FD084499DF8042031F81200042202A9FD
:10224000FFF75AFF8048808845F2105188420BD032
:102250007D48808849F60601884205D07A48808802
:1022600047F29671884240D1754890F8440000F0DA
:102270000100F8B19DF80A009DF80B1000EB012059
:10228000714900E0B2E00988081A81B26C480C304C
:102290009DF8042020F812109DF808009DF8091000
:1022A00000EB012081B2664820309DF8042020F820
:1022B000121058E09DF808009DF8091000EB01206D
:1022C00081B25F480C309DF8042020F812109DF870
:1022D0000A009DF80B1000EB012081B25848203015
:1022E0009DF8042020F812103DE0554890F8440075
:1022F00000F00100D0B19DF808009DF8091000EB36
:10230000012081B24E480C309DF8042020F81210B4
:102310009DF80A009DF80B1000EB012081B248489F
:1023200020309DF8042020F812101CE09DF80A00CF
:102330009DF80B1000EB012043490988081A81B26F
:102340003F480C309DF8042020F812109DF808003A
:102350009DF8091000EB012081B2394820309DF82A
:10236000042020F812109DF80400401CC0B2019017
:102370009DF80400314909788842FFF651AF0126E3
:102380002F48808930490988884205DC2C48008C18
:102390002D494988884226DD9DF80C0000F00F0089
:1023A00001280ADD2648C089254988810846408CD5
:1023B000088400202049087018E020480078401E5A
:1023C0001F490C3131F810000C3988811B48007806
:1023D000401E203131F810002039088480200390FD
:1023E0000846858602E00020134908709DF80C001D
:1023F00000F08F00802815D11148808E00F4004035
:1024000030B10F48808E20F400400D49888609E0E5
:102410004FF6FF700A49888108840846808E00F4D0
:102420006040888604480078F02802DD0A200249CE
:102430000870304604B070BD75000024740000249C
:102440007800002462E40090400300242DE9F0416C
:1024500004460E4617464FF00008FFF7E7F928201C
:10246000FFF7BEF9FFF71AFA2012FFF7B9F9FFF7E5
:1024700015FAE0B2FFF7B4F9FFF710FA00250BE008
:10248000705DFFF7ADF9FFF709FA8046B8F1000F6C
:1024900000D003E0681CC5B2BD42F1DB00BFFFF70E
:1024A000E3F94046BDE8F08110B500224FF4006129
:1024B0000D48FEF74CFF00F019F8012291020A487E
:1024C000FEF745FF00F012F800224FF48061064845
:1024D000FEF73DFF00F00AF80122D1020248FEF7A4
:1024E00036FF00F003F810BD0004025810B50220BA
:1024F000FEF73CFF10BD00001CB500BF114800688E
:1025000040F002000F49086000BF00BF08460068A5
:1025100040F00200086000BF012000900023024646
:10252000810201900848FEF726FF01200090034633
:102530000246C10201900448FEF71DFF00F094F826
:102540001CBD0000E04402580004025810B50122EE
:10255000D1020A48FEF7FBFEFFF7C8FF01229102F5
:102560000648FEF7F4FEFFF7C1FF00224FF480613A
:102570000248FEF7ECFEFFF7B9FF10BD0004025859
:1025800070B50546002400261AE06006040E0122FC
:1025900091021048FEF7DBFEFFF7A8FF4FF4006141
:1025A0000C48FEF7EDFE08B1601CC4B200224FF4E7
:1025B00080610848FEF7CBFEFFF798FF701CC6B29B
:1025C000082EE2DB15B9FFF7C1FF01E0FFF76CFF52
:1025D000204670BD0004025870B50446002518E07E
:1025E000E2094FF400610F48FEF7B1FEFFF77EFFEE
:1025F000012291020B48FEF7AAFEFFF777FF0022A7
:102600004FF480610748FEF7A2FE6006040E681CC6
:10261000C5B2082DE4DB0122D1020248FEF797FE85
:1026200070BD00000004025810B50122D1020D480F
:10263000FEF78DFE012291020A48FEF788FEFFF7A1
:1026400055FF00224FF400610648FEF780FEFFF7B9
:102650004DFF00224FF480610248FEF778FEFFF73D
:1026600045FF10BD0004025810B500224FF4006170
:102670000948FEF76CFEFFF739FF01229102064878
:10268000FEF765FEFFF732FF0122D1020248FEF796
:102690005EFEFFF72BFF10BD0004025870B500244A
:1026A00000250122D1021348FEF751FEFFF71EFF5D
:1026B000012291020F48FEF74AFEFFF717FF07E0DD
:1026C000601CC4B2FA2C03DDFFF7CEFF012506E043
:1026D0004FF400610748FEF753FE0028F0D100BF19
:1026E00000224FF480610348FEF731FEFFF7FEFE43
:1026F000284670BD000402581CB500BF1848006889
:1027000040F001001649086000BF00BF084600689D
:1027100040F00100086000BF00BF0846006840F0BC
:102720000100086000BF0120009000231A4602212A
:1027300001900C48FEF71FFE0120009000231A466E
:10274000C10301900748FEF716FE02200121002375
:102750001A46CDE900100348FEF70DFE1CBD00002F
:10276000E04402580000025870B50446002514B138
:102770000120234908702248007858B302212148DB
:10278000FEF7FEFD58B14FF400411E48FEF7F8FD7C
:1027900028B101211B48FEF7F3FD01281AD10A20B8
:1027A000FEF7DAFD00201649087002211548FEF7F1
:1027B000E7FD00B901254FF400411248FEF7E0FDA6
:1027C00000B9022501210F48FEF7DAFD012815D1D5
:1027D000032513E002210B48FEF7D2FD01280DD19D
:1027E000C1030848FEF7CCFD012807D101210548A7
:1027F000FEF7C6FD10B9012001490870284670BDDA
:10280000640000240000025870B504460026094800
:102810000588408845430021084603F0F9F903F094
:10282000E9FB00BF02E004480480761CAE42FAD304
:1028300070BD0000400300240000106010B5044685
:1028400058488471002C58D1F020564908804FF424
:10285000A07048800846808845F21051884210D107
:102860004FF430504F4908814FF4285048814FF4BD
:102870002C5088814FF4F07008804FF448704880E5
:102880001AE04848808841F6631188420DD12C2017
:10289000444908812B2048812A2088814FF4F07018
:1028A00008804FF44870488006E02C203D4908819C
:1028B0002A2048812B2088813A48808845F21031AF
:1028C000884205D03748808847F29671884206D101
:1028D0004FF4A070334908804FF4F07048803148BD
:1028E000808849F60601884258D14FF4F0702D498E
:1028F00008804FF44870488050E04FF4A070294998
:102900000880F02048800846808845F210518842AF
:1029100010D14FF43050234908814FF4285048819A
:102920004FF42C5088814FF4487008804FF4F070B9
:10293000488020E01B48808841F66311884205D01A
:102940001848808849F6060188420DD12C20154987
:1029500008812A2048812B2088814FF44870088004
:102960004FF4F070488006E02C200E4908812A20A0
:1029700048812B2088810B48808845F2103188429D
:1029800005D00848808847F29671884206D14FF4F6
:10299000F070044908804FF4A0704880002003F0D4
:1029A00019F810BD400300242DE9F04706460F46F4
:1029B00090469A46002445460320A0EB480944E08F
:1029C0007A1B91B2321990B2524600F099F83A1B34
:1029D00091B2721990B2524600F092F83A1991B23F
:1029E000721990B2524600F08BF87A1991B23219EE
:1029F00090B2524600F084F87A1991B2321B90B22C
:102A0000524600F07DF83A1991B2721B90B25246CC
:102A100000F076F87A1B91B2321B90B2524600F069
:102A20006FF83A1B91B2721B90B2524600F068F8F0
:102A3000641CB9F1000F03DAA000801D814404E09A
:102A4000601B80000A3081446D1EAC42B8DDBDE8D9
:102A5000F0872DE9FF4F84B081468A46002002901E
:102A600083460698A0EB09050798A0EB0A06CDF867
:102A70000490CDF800A0002D01DD012705E00DB97F
:102A8000002702E04FF0FF376D42002E02DD4FF0CD
:102A9000010806E016B94FF0000802E04FF0FF38D9
:102AA0007642B54201DD2C4600E03446002003901A
:102AB0001EE0009A91B2019A90B2119A00F020F8AB
:102AC000029828440290B3440298A04205DD02987F
:102AD000001B0290019838440190A34504DDABEB44
:102AE000040B0098404400900398401C80B203906F
:102AF000611C03988842DCDD08B0BDE8F08F00005F
:102B000070B505460E4614463146284603F080F857
:102B100003F070FA01490C8070BD000000001060E5
:102B20002DE9F84105460E4617469846079C334660
:102B30003A46314628460094FFF78BFF43462A4623
:102B4000314628460094FFF784FF43463A46414603
:102B500028460094FFF77DFF43463A463146384603
:102B60000094FFF776FFBDE8F88110B5CF2003F0A1
:102B700035FA002003F026FAC12003F023FA3020B2
:102B800003F020FAED2003F029FA642003F01AFA8A
:102B9000032003F017FA122003F014FA812003F047
:102BA00011FAE82003F01AFA852003F00BFA10203E
:102BB00003F008FA7A2003F005FACB2003F00EFAAE
:102BC000392003F0FFF92C2003F0FCF9002003F07A
:102BD000F9F9342003F0F6F9022003F0F3F9F720B5
:102BE00003F0FCF9202003F0EDF9EA2003F0F6F9F8
:102BF000002003F0E7F9002003F0E4F9C02003F01F
:102C0000EDF91B2003F0DEF9C12003F0E7F9012004
:102C100003F0D8F9C52003F0E1F9302003F0D2F930
:102C2000302003F0CFF9C72003F0D8F9B72003F024
:102C3000C9F9362003F0D2F9482003F0C3F93A204D
:102C400003F0CCF9552003F0BDF9B12003F0C6F92B
:102C5000002003F0B7F91A2003F0B4F9B62003F00E
:102C6000BDF90A2003F0AEF9A22003F0ABF9F2207F
:102C700003F0B4F9002003F0A5F9262003F0AEF923
:102C8000012003F09FF9E02003F0A8F90F2003F0E2
:102C900099F92A2003F096F9282003F093F90820E7
:102CA00003F090F90E2003F08DF9082003F08AF963
:102CB000542003F087F9A92003F084F9432003F09E
:102CC00081F90A2003F07EF90F2003F07BF9002040
:102CD00003F078F9002003F075F9002003F072F991
:102CE000002003F06FF9E12003F078F9002003F0F1
:102CF00069F9152003F066F9172003F063F907203E
:102D000003F060F9112003F05DF9062003F05AF991
:102D10002B2003F057F9562003F054F93C2003F020
:102D200051F9052003F04EF9102003F04BF90F2064
:102D300003F048F93F2003F045F93F2003F042F942
:102D40000F2003F03FF92B2003F048F9002003F097
:102D500039F9002003F036F9012003F033F93F2060
:102D600003F030F92A2003F039F9002003F02AF9A2
:102D7000002003F027F9002003F024F9EF2003F0EE
:102D800021F9112003F02AF97820FEF7E5FA29202D
:102D900003F024F910BD10B5FF2003F01FF9FF2048
:102DA00003F010F9982003F00DF9062003F00AF95A
:102DB000BC2003F013F9012003F004F90F2003F005
:102DC00001F9612003F0FEF8FF2003F0FBF8012079
:102DD00003F0F8F8012003F0F5F80B2003F0F2F807
:102DE000102003F0EFF8372003F0ECF8632003F035
:102DF000E9F8FF2003F0E6F8FF2003F0E3F80120F4
:102E000003F0E0F8012003F0DDF8002003F0DAF829
:102E1000002003F0D7F8FF2003F0D4F8522003F08D
:102E2000D1F8012003F0CEF8002003F0CBF84020C9
:102E300003F0C8F8BD2003F0D1F8012003F0C2F878
:102E4000232003F0BFF8452003F0BCF8672003F00F
:102E5000B9F8012003F0B6F8232003F0B3F84520B9
:102E600003F0B0F8672003F0ADF8BE2003F0B6F829
:102E7000002003F0A7F8012003F0A4F8AB2003F032
:102E8000A1F8602003F09EF8222003F09BF8222096
:102E900003F098F8222003F095F8222003F092F82E
:102EA000222003F08FF8C72003F098F8362003F0B3
:102EB00089F8ED2003F092F87F2003F083F80F20CB
:102EC00003F080F8C02003F089F80F2003F07AF8AF
:102ED0000B2003F077F80A2003F074F8FC2003F0CD
:102EE0007DF8082003F06EF8DF2003F077F800206B
:102EF00003F068F8002003F065F8002003F062F8A2
:102F0000002003F05FF8002003F05CF8202003F0BD
:102F100059F8F32003F062F8742003F053F8B4205A
:102F200003F05CF8002003F04DF8002003F04AF8AD
:102F3000002003F047F8F72003F050F8822003F058
:102F400041F8B12003F04AF8002003F03BF81320C9
:102F500003F038F8132003F035F8F22003F03EF8C0
:102F6000802003F02FF8042003F02CF8402003F019
:102F700029F8282003F026F8C12003F02FF81720A5
:102F800003F020F8882003F01DF8882003F01AF8D9
:102F9000202003F017F8E02003F020F8002003F0D1
:102FA00011F80A2003F00EF8122003F00BF810209D
:102FB00003F008F80E2003F005F8202003F002F8D3
:102FC000CC2002F0FFFF072002F0FCFF062002F0F9
:102FD000F9FF0B2002F0F6FF0E2002F0F3FF0F20A6
:102FE00002F0F0FF0D2002F0EDFF152002F0EAFFE5
:102FF000102002F0E7FF002002F0E4FFE12002F0E1
:10300000EDFF002002F0DEFF0B2002F0DBFF1320BB
:1030100002F0D8FF0D2002F0D5FF0E2002F0D2FF03
:103020001B2002F0CFFF712002F0CCFF062002F03F
:10303000C9FF062002F0C6FF0A2002F0C3FF0F20DE
:1030400002F0C0FF0E2002F0BDFF0F2002F0BAFF19
:10305000152002F0B7FF0C2002F0B4FF002002F0B0
:10306000B1FF2A2002F0BAFF002002F0ABFF0020DF
:1030700002F0A8FF012002F0A5FFDF2002F0A2FF6E
:103080002B2002F0ABFF002002F09CFF002002F09A
:1030900099FF032002F096FF1F2002F093FF3A20D1
:1030A00002F09CFF552002F08DFF362002F096FFC3
:1030B000002002F087FF112002F090FF7820FEF739
:1030C0004BF9292002F08AFF1420FEF745F92C2045
:1030D00002F084FF10BD10B5ED2002F07FFF01204B
:1030E00002F070FFFE2002F06DFFEE2002F076FF8E
:1030F000DE2002F067FF212002F064FFF12002F0E1
:103100006DFF012002F05EFFDF2002F067FF10205C
:1031100002F058FFC42002F061FF8F2002F052FF3E
:10312000C62002F05BFF002002F04CFFE22002F01C
:1031300049FFE22002F046FFE22002F043FFBF20F9
:1031400002F04CFFAA2002F03DFFB02002F046FF43
:103150000D2002F037FF002002F034FF0D2002F0B6
:1031600031FF002002F02EFF112002F02BFF002083
:1031700002F028FF192002F025FF002002F022FFB4
:10318000212002F01FFF002002F01CFF2D2002F082
:1031900019FF002002F016FF3D2002F013FF00206F
:1031A00002F010FF5D2002F00DFF002002F00AFF88
:1031B0005D2002F007FF002002F004FFB12002F0C2
:1031C0000DFF802002F0FEFE002002F0FBFE8B20AF
:1031D00002F0F8FE002002F0F5FE962002F0F2FE6A
:1031E000002002F0EFFEB22002F0F8FE002002F014
:1031F000E9FE002002F0E6FE022002F0E3FE0020DD
:1032000002F0E0FE032002F0DDFE002002F0DAFE14
:10321000B32002F0E3FE002002F0D4FE002002F012
:10322000D1FE002002F0CEFE002002F0CBFE0020F6
:1032300002F0C8FE002002F0C5FE002002F0C2FE2F
:10324000002002F0BFFE002002F0BCFE002002F0D1
:10325000B9FE002002F0B6FE002002F0B3FE00200E
:1032600002F0B0FE002002F0ADFE002002F0AAFE47
:10327000002002F0A7FE002002F0A4FE002002F0D1
:10328000A1FE002002F09EFE002002F09BFE002026
:1032900002F098FE002002F095FE002002F092FE5F
:1032A000002002F08FFEB42002F098FE8B2002F086
:1032B00089FE002002F086FE962002F083FE0020A8
:1032C00002F080FEA12002F07DFE002002F07AFED6
:1032D000B52002F083FE022002F074FE002002F00E
:1032E00071FE032002F06EFE002002F06BFE04204F
:1032F00002F068FE002002F065FEB62002F06EFECD
:10330000002002F05FFE002002F05CFEB72002F019
:1033100065FE002002F056FE002002F053FE3F2022
:1033200002F050FE002002F04DFE5E2002F04AFE48
:10333000002002F047FE642002F044FE002002F06C
:1033400041FE8C2002F03EFE002002F03BFEAC204D
:1033500002F038FE002002F035FEDC2002F032FEE2
:10336000002002F02FFE702002F02CFE002002F060
:1033700029FE902002F026FE002002F023FEEB2022
:1033800002F020FE002002F01DFEDC2002F01AFEFA
:10339000002002F017FEB82002F020FE002002F00C
:1033A00011FE002002F00EFE002002F00BFE0020B5
:1033B00002F008FE002002F005FE002002F002FEEE
:1033C000002002F0FFFD002002F0FCFDBA2002F018
:1033D00005FE242002F0F6FD002002F0F3FD00209F
:1033E00002F0F0FD002002F0EDFDC12002F0F6FD3C
:1033F000202002F0E7FD002002F0E4FD542002F05E
:10340000E1FD002002F0DEFDFF2002F0DBFD0020E8
:1034100002F0D8FDC22002F0E1FD0A2002F0D2FD48
:10342000002002F0CFFD042002F0CCFD002002F0CD
:10343000C9FDC32002F0D2FD3C2002F0C3FD0020F4
:1034400002F0C0FD3A2002F0BDFD002002F0BAFDFE
:10345000392002F0B7FD002002F0B4FD372002F061
:10346000B1FD002002F0AEFD3C2002F0ABFD0020DB
:1034700002F0A8FD362002F0A5FD002002F0A2FD1A
:10348000322002F09FFD002002F09CFD2F2002F070
:1034900099FD002002F096FD2C2002F093FD002003
:1034A00002F090FD292002F08DFD002002F08AFD3F
:1034B000262002F087FD002002F084FD242002F087
:1034C00081FD002002F07EFD242002F07BFD002023
:1034D00002F078FD232002F075FD002002F072FD5D
:1034E0003C2002F06FFD002002F06CFD362002F05F
:1034F00069FD002002F066FD322002F063FD00202D
:1035000002F060FD2F2002F05DFD002002F05AFD68
:103510002C2002F057FD002002F054FD292002F07B
:1035200051FD002002F04EFD262002F04BFD002050
:1035300002F048FD242002F045FD002002F042FD8B
:10354000242002F03FFD002002F03CFD232002F089
:1035500039FD002002F036FDC42002F03FFD62205C
:1035600002F030FD002002F02DFD052002F02AFDC2
:10357000002002F027FD842002F024FD002002F04C
:1035800021FDF02002F01EFD002002F01BFD18209E
:1035900002F018FD002002F015FDA42002F012FD3B
:1035A000002002F00FFD182002F00CFD002002F0B8
:1035B00009FD502002F006FD002002F003FD0C2062
:1035C00002F000FD002002F0FDFC172002F0FAFCE2
:1035D000002002F0F7FC952002F0F4FC002002F03D
:1035E000F1FCF32002F0EEFC002002F0EBFCE62000
:1035F00002F0E8FC002002F0E5FCC52002F0EEFC41
:10360000322002F0DFFC002002F0DCFC442002F05B
:10361000D9FC002002F0D6FC652002F0D3FC00208B
:1036200002F0D0FC762002F0CDFC002002F0CAFCB3
:10363000882002F0C7FC002002F0C4FCC62002F083
:10364000CDFC202002F0BEFC002002F0BBFC1720C5
:1036500002F0B8FC002002F0B5FC012002F0B2FC40
:10366000002002F0AFFCC72002F0B8FC002002F0FE
:10367000A9FC002002F0A6FC002002F0A3FC002020
:1036800002F0A0FCC82002F0A9FC002002F09AFC85
:10369000002002F097FC002002F094FC002002F0D1
:1036A00091FCC92002F09AFC002002F08BFC002063
:1036B00002F088FC002002F085FC002002F082FC71
:1036C000002002F07FFC002002F07CFC002002F0D1
:1036D00079FC002002F076FC002002F073FC002050
:1036E00002F070FC002002F06DFC002002F06AFC89
:1036F000002002F067FC002002F064FC002002F0D1
:1037000061FC002002F05EFCE02002F067FC162065
:1037100002F058FC002002F055FC1C2002F052FC84
:10372000002002F04FFC212002F04CFC002002F0AF
:1037300049FC362002F046FC002002F043FC462003
:1037400002F040FC002002F03DFC522002F03AFC66
:10375000002002F037FC642002F034FC002002F06C
:1037600031FC7A2002F02EFC002002F02BFC8B2092
:1037700002F028FC002002F025FC992002F022FC37
:10378000002002F01FFCA82002F01CFC002002F028
:1037900019FCB92002F016FC002002F013FCC42032
:1037A00002F010FC002002F00DFCCA2002F00AFC1E
:1037B000002002F007FCD22002F004FC002002F0FE
:1037C00001FCD92002F0FEFB002002F0FBFBE02010
:1037D00002F0F8FB002002F0F5FBF32002F0F2FB10
:1037E000002002F0EFFBE12002F0F8FB162002F0CF
:1037F000E9FB002002F0E6FB1C2002F0E3FB0020C6
:1038000002F0E0FB222002F0DDFB002002F0DAFBF8
:10381000362002F0D7FB002002F0D4FB452002F056
:10382000D1FB002002F0CEFB522002F0CBFB0020A7
:1038300002F0C8FB642002F0C5FB002002F0C2FBCE
:103840007A2002F0BFFB002002F0BCFB8B2002F0CC
:10385000B9FB002002F0B6FB992002F0B3FB002078
:1038600002F0B0FBA82002F0ADFB002002F0AAFBA2
:10387000B92002F0A7FB002002F0A4FBC42002F054
:10388000A1FB002002F09EFBCA2002F09BFB00205F
:1038900002F098FBD22002F095FB002002F092FB90
:1038A000D82002F08FFB002002F08CFBE02002F019
:1038B00089FB002002F086FBF32002F083FB00204E
:1038C00002F080FBE22002F089FB052002F07AFB87
:1038D000002002F077FB0B2002F074FB002002F0C6
:1038E00071FB1B2002F06EFB002002F06BFB34200A
:1038F00002F068FB002002F065FB442002F062FB4E
:10390000002002F05FFB4F2002F05CFB002002F081
:1039100059FB612002F056FB002002F053FB792096
:1039200002F050FB002002F04DFB882002F04AFB21
:10393000002002F047FB972002F044FB002002F039
:1039400041FBA62002F03EFB002002F03BFBB7202B
:1039500002F038FB002002F035FBC22002F032FBFF
:10396000002002F02FFBC72002F02CFB002002F009
:1039700029FBD12002F026FB002002F023FBD620F9
:1039800002F020FB002002F01DFBDD2002F01AFBFC
:10399000002002F017FBF32002F014FB002002F0DD
:1039A00011FBE32002F01AFB052002F00BFB0020C4
:1039B00002F008FB0A2002F005FB002002F002FBE7
:1039C0001C2002F0FFFA002002F0FCFA332002F083
:1039D000F9FA002002F0F6FA442002F0F3FA00208F
:1039E00002F0F0FA502002F0EDFA002002F0EAFABC
:1039F000622002F0E7FA002002F0E4FA782002F0F8
:103A0000E1FA002002F0DEFA882002F0DBFA002062
:103A100002F0D8FA972002F0D5FA002002F0D2FA8C
