:020000040800F2
:10000000F0B207243903000859100090B30F009094
:10001000B90F0090D1060090FB2C0090000000006A
:100020000000000000000000000000001D00009023
:10003000ED060090000000007900009021300008DB
:100040005303000853030008530300085303000838
:100050005303000853030008530300085303000828
:100060005303000853030008530300085303000818
:100070005303000853030008530300085303000808
:1000800053030008530300085303000853030008F8
:1000900053030008530300085303000853030008E8
:1000A00053030008530300085303000853030008D8
:1000B000530300085D100090530300085303000829
:1000C00053030008530300085303000853030008B8
:1000D00053030008DD3000085303000853030008F1
:1000E00053030008530300080000000053030008F6
:1000F0005303000853030008530300085303000888
:100100005303000853030008530300085303000877
:100110005303000853030008530300085303000867
:100120005303000853030008530300085303000857
:100130005303000853030008530300085303000847
:1001400000000000000000000000000000000000AF
:100150005303000853030008530300085303000827
:100160005303000853030008530300085303000817
:100170005303000853030008530300085303000807
:1001800053030008530300085303000853030008F7
:1001900053030008530300085303000853030008E7
:1001A00053030008530300085303000853030008D7
:1001B00053030008530300085303000853030008C7
:1001C00053030008530300085303000853030008B7
:1001D00053030008530300085303000853030008A7
:1001E0005303000853030008530300085303000897
:1001F0005303000853030008530300085303000887
:100200005303000853030008530300085303000876
:100210005303000853030008530300085303000866
:1002200053030008530300085303000800000000B4
:1002300053030008530300080000000053030008A4
:100240005303000853030008530300085303000836
:100250005303000853030008530300085303000826
:100260005303000853030008530300085303000816
:100270005303000853030008530300080000000064
:100280005303000853030008530300080000000054
:10029000000000005303000800F002F800F03CF8F2
:1002A0000AA090E8000C82448344AAF10107DA45D1
:1002B00001D100F031F8AFF2090EBAE80F0013F0E7
:1002C000010F18BFFB1A43F0010318474433000025
:1002D00064330000103A24BF78C878C1FAD85207B6
:1002E00024BF30C830C144BF04680C6070470000B0
:1002F0000023002400250026103A28BF78C1FBD82F
:10030000520728BF30C148BF0B6070471FB503F0CC
:1003100071F91FBD10B510BD00F0AAF81146FFF726
:10032000F5FF02F07BFF00F0C8F803B4FFF7F2FF1F
:1003300003BC02F017FF0000094880470948004746
:10034000FEE7FEE7FEE7FEE7FEE7FEE7FEE7FEE785
:10035000FEE7FEE704480549054A064B70470000E2
:100360003530000899020008F0A80724F0B20724ED
:10037000F0AA0724F0AA0724704753EA020C00F001
:1003800069802DE9F04B4FF00006002B1FBFB3FA38
:1003900083F503FA05F424FA05F65E4012BF16430E
:1003A000B2FA82F502FA05F4C5F120051EBF22FA61
:1003B00005FC44EA0C04203556EA044C4FEA144488
:1003C00018BF641C4FF000084FF00009904271EB19
:1003D000030C39D3002919BFB1FA81F701FA07F6E6
:1003E000B0FA80F700FA07F6C7F120071EBF20FA1F
:1003F00007FC46EA0C062037B6FBF4FCA7EB050722
:10040000103F07F01F0BCBF120060CFA0BFB2CFA68
:1004100006F644BFB3460026202FA4BF5E464FF029
:10042000000B5BEA060C08BF4FF0010B19EB0B0940
:10043000ABFB027C48EB0608C01B06FB02CC0BFBA7
:1004400003CC71EB0C01C1E70B460246414648461E
:10045000BDE8F08B13B54FF000004FF00001AFF393
:100460000080BDE81C407047704770477047704778
:10047000754600F02BF8AE4605006946534620F05D
:100480000700854618B020B5FFF764FFBDE820409F
:100490004FF000064FF000074FF000084FF0000B40
:1004A00021F00701AC46ACE8C009ACE8C009ACE8F3
:1004B000C009ACE8C0098D46704710B50446AFF3DB
:1004C00000802046BDE81040FFF72FBF004870476E
:1004D0008CA8072448F24D4CC9F2000C604747F63F
:1004E000DD7CC9F2000C604740F6F13CC9F2000C1B
:1004F000604740F6DF3CC9F2000C604740F6756C7F
:10050000C9F2000C604746F23D1CC9F2000C60477E
:1005100046F2052CC9F2000C604745F2796CC9F22D
:10052000000C604742F6317CC9F2000C604746F28D
:10053000893CC9F2000C604742F6F95CC9F2000C34
:10054000604740F6FD5CC9F2000C604770B5044698
:100550000CB9012070BD94F83500022803D080202A
:1005600060650120F6E7DC492068884249D0DA4915
:1005700018312068884244D0D749303120688842F9
:100580003FD0D5494831206888423AD0D2496031BD
:100590002068884235D0D04978312068884230D0F0
:1005A000CD499031206888422BD0CB49A8312068B2
:1005B000884226D0C9492068884222D0C7491831CC
:1005C000206888421DD0C54930312068884218D043
:1005D000C24948312068884213D0C0496031206840
:1005E00088420ED0BD4978312068884209D0BB4985
:1005F00090312068884204D0B849A83120688842E8
:1006000001D1012000E00020F0B3042084F835007F
:10061000B149206888424BD0AF49183120688842E0
:1006200046D0AD4930312068884241D0AA4948318E
:10063000206888423CD0A84960312068884237D081
:10064000A54978312068884232D0A349903120688A
:1006500088422DD0A049A8312068884228D09F49DF
:100660002068884224D09D491831206888421FD0D4
:100670009A493031206888421AD098494831206818
:10068000884215D0954900E020E06031206888421A
:100690000ED0924978312068884209D08F49903134
:1006A0002068884204D08D49A8312068884206D14C
:1006B0002068006820F001002168086009E12068D6
:1006C000006820F001002168086002E120680068ED
:1006D00020F00E00216808607F492068884249D0D8
:1006E0007D4918312068884244D07B4930312068E8
:1006F00088423FD078494831206888423AD07649CC
:1007000060312068884235D073497831206888424A
:1007100030D071499031206888422BD06E49A83181
:100720002068884226D06D492068884222D06B49D3
:100730001831206888421DD06849303120688842CD
:1007400018D0664948312068884213D06349603127
:10075000206888420ED0614978312068884209D0EB
:100760005E4990312068884204D05C49A8312068F5
:10077000884206D12068006820F0010021680860E6
:1007800005E02068006820F00100216808605249F7
:100790002068884270D050491831206888426BD058
:1007A0004D4930312068884266D04B494831206835
:1007B000884261D048496031206888425CD046490F
:1007C00078312068884257D0434990312068884268
:1007D00052D04149A831206888424DD03F49206815
:1007E000884249D03D4918312068884244D03B496D
:1007F0003031206888423FD03849483120688842EB
:100800003AD0364960312068884235D03349783152
:100810002068884230D031499031206888422BD0FE
:100820002E49A8312068884226D02D492068884268
:1008300022D02B491431206888421DD02849283104
:100840002068884218D026493C312068884213D05D
:1008500023495031206888420ED0214964312068F4
:10086000884209D01E4978312068884204D01C494A
:100870008C312068884201D1012000E00020D8B1ED
:10088000206E006820F48070216E0860A56D94F8D9
:100890005C0000F01F01012088406860D4E9191055
:1008A0004860E06E40B1E06E006820F48070E16E58
:1008B0000860D4E91C10486000BF002084F83400B0
:1008C00000BF012084F83500206D10B12046216D55
:1008D000884700203EE6000010000240100402405D
:1008E000085402580348006840F0010001490860BC
:1008F0007047000020040058F8B502460023734DED
:10090000DEE001279F400E6806EA0704002C71D044
:100910004E68022E02D04E68122E13D1DF0802F16B
:10092000200656F827005E07F70E0F26BE40B0439C
:100930005F07FF0E0E69BE403043DF0802F120065C
:1009400046F8270010685F000326BE40B0430E79CA
:1009500006F003065F00BE40304310604E68012E73
:1009600008D04E68022E05D04E68112E02D04E6877
:10097000122E13D190685F000326BE40B0435F0083
:10098000CE68BE4030439060506801269E40B04320
:100990000E79C6F300169E4030435060D0685F0069
:1009A0000326BE40B0435F008E68BE403043D06037
:1009B0004E6806F08056B6F1805F1BD100BF444EF2
:1009C000366846F00206424F3E603E46366806F004
:1009D0000206009600BF00BF3E4E9F0856F8270053
:1009E0009E07370F0F26BE40B0433B4EB24202D1A6
:1009F00000262EE063E0394EB24201D1012628E004
:100A0000374EB24201D1022623E0364EB24201D126
:100A100003261EE0344EB24201D1042619E0334EC3
:100A2000B24201D1052614E0314EB24201D1062670
:100A30000FE0304EB24201D107260AE02E4EB242FC
:100A400001D1082605E02D4EB24201D1092600E071
:100A50000A269F073F0FBE4030431E4E9F0846F8B0
:100A600027002868A0434E6806F48036B6F5803F1C
:100A700000D1204328606868A0434E6806F4003621
:100A8000B6F5003F00D1204368604FF0B0463068B3
:100A9000A0434E6806F48016B6F5801F00D12043AF
:100AA0004FF0B04630607068A0434E6806F4001600
:100AB000B6F5001F00D120434FF0B04670605B1CBC
:100AC0000E68DE40002E7FF41CAFF8BD8000005899
:100AD000F444025808040058000002580004025868
:100AE00000080258000C0258001002580014025866
:100AF00000180258001C0258002002580024025816
:100B0000024613690B400BB1012000E00020704742
:100B10000AB1816101E00B048361704701480068FC
:100B2000000C70470010005C01480068704700002E
:100B30003C0000240348006803490978084401493F
:100B4000086070473C0000244400002410B50320D6
:100B500000F00AF901F0CCFA10490968C1F3032149
:100B60000F4A515C01F01F01C8400E4908600B4854
:100B7000006800F00F001146085C00F01F010948F2
:100B80000068C840084908600F2000F00FF808B15D
:100B9000012010BD00F09AF80020FAE7184402582E
:100BA000FE350008000000240400002470B504464F
:100BB0001148007808B9012070BD0F4800784FF443
:100BC0007A71B1FBF0F00D490968B1FBF0F52846E8
:100BD00001F078FF08B10120EEE7102C07D20022C7
:100BE0002146501E00F083F80548046001E0012012
:100BF000E2E70020E0E700004400002400000024B9
:100C0000400000244178154A11600178F9B1121DA5
:100C100041681160017B0907C27A41EA0261827A68
:100C200041EAC241427B41EA8241827B41EA424140
:100C3000C27B41EA0241427A41EA0221027A41EA58
:100C4000420102781143054A0832116005E0002193
:100C5000024A121D1160121D1160704798ED00E0EC
:100C600000BF00BF00BFBFF35F8F00BF00BF00BF6A
:100C70000548006820F480300349086000200249DC
:100C8000703108607047000024ED00E040F0010181
:100C90000D4A11600C497039096841F480310A4AE3
:100CA000703A116000BF00BF00BFBFF34F8F00BF9D
:100CB00000BF00BF00BF00BF00BFBFF36F8F00BF0A
:100CC00000BF00BF7047000094ED00E07047014690
:100CD0000846002809DB00F01F0301229A4043095F
:100CE0009B0003F1E023C3F8002100BF70472DE90A
:100CF000F05F80460D46164602F018FA0746394660
:100D00002A46334601F00700C0F1070ABAF1040F82
:100D100002D94FF0040A01E0C0F1070AD14600F100
:100D2000040ABAF1070F02D24FF0000A01E0A0F165
:100D3000030AD4464FF0010A0AFA09FAAAF1010A95
:100D40000AEA020A0AFA0CFA4FF0010B0BFA0CFB42
:100D5000ABF1010B0BEA030B4AEA0B0421464046B8
:100D600002F0ECF9BDE8F09F00BF00F00702064B6F
:100D700019684FF6FF031940044B0B4343EA022165
:100D8000014B196000BF70470CED00E00000FA0550
:100D90000348006840F08070014908607047000017
:100DA0000C48025810B501F0A3F907490968C1F3CE
:100DB0000321064A515C01F01F01C8400449086044
:100DC0000846006810BD000018440258FE350008AF
:100DD0000000002410B501F04FF905490968C1F37E
:100DE0000211044A515C01F01F01C84010BD00000F
:100DF00020440258FE35000870B50146844D2D6828
:100E000005F00303824D2D68C5F30530804D2D1D7F
:100E10002D68C5F300147E4D14352D68C5F3CC053F
:100E200015FB04F501EE105AB8EE411AF0EE410A36
:100E300000286FD023B1012B4ED0022B6BD16BE079
:100E4000734D283D2D68C5F340153DB3704D283DC9
:100E50002D68C5F3C1066F4D25FA06F201EE102A82
:100E6000F8EE411A01EE100AB8EE411A81EE812A1D
:100E70009FED691AC0EE811A654D10352D68C5F3D6
:100E8000080501EE105AB8EE411A31EE811AF7EE5C
:100E9000001A31EE211A22EE010A1CE001EE100ABE
:100EA000B8EE411ADFED5D1A81EE812A9FED5A1AE4
:100EB000C0EE811A564D10352D68C5F3080501EEB8
:100EC000105AB8EE411A31EE811AF7EE001A31EEDF
:100ED000211A22EE010A5BE001EE100AB8EE411A77
:100EE000DFED4F1A81EE812A9FED4B1AC0EE811A79
:100EF000474D10352D68C5F3080501EE105AB8EEC0
:100F0000411A31EE811AF7EE001A31EE211A22EE63
:100F1000010A3DE077E01DE001EE100AB8EE411A4B
:100F20009FED402AC2EE011A9FED3B1A80EE812A06
:100F3000374D10352D68C5F3080501EE105AB8EE8F
:100F4000411A32EE011AB7EE002A31EE021A21EEF2
:100F5000810A1DE001EE100AB8EE411ADFED301AE9
:100F600081EE812A9FED2C1AC0EE811A284D103592
:100F70002D68C5F3080501EE105AB8EE411A31EE9E
:100F8000811AF7EE001A31EE211A22EE010A00BF93
:100F900000BF1F4D10352D68C5F3462501EE105AD0
:100FA000B8EE411AF7EE001A31EE211AC0EE011A1E
:100FB000BCEEE11A81ED001A154D10352D68C5F310
:100FC000064501EE105AB8EE411AF7EE001A31EE5E
:100FD000211AC0EE011ABCEEE11A81ED011A0C4D86
:100FE00010352D68C5F3066501EE105AB8EE411AAA
:100FF000F7EE001A31EE211AC0EE011ABCEEE11A2A
:1010000081ED021A03E000250D604D608D6070BD1A
:10101000284402580090D003000000460024744C7D
:101020000024744A0024F44A70B50146844D2D68AA
:1010300005F00303824D2D68C5F30550804D2D1D2D
:101040002D68C5F300247E4D1C352D68C5F3CC05F5
:1010500015FB04F501EE105AB8EE411AF0EE410A04
:1010600000286FD023B1012B4ED0022B6BD16BE047
:10107000734D283D2D68C5F340153DB3704D283D97
:101080002D68C5F3C1066F4D25FA06F201EE102A50
:10109000F8EE411A01EE100AB8EE411A81EE812AEB
:1010A0009FED691AC0EE811A654D18352D68C5F39C
:1010B000080501EE105AB8EE411A31EE811AF7EE2A
:1010C000001A31EE211A22EE010A1CE001EE100A8C
:1010D000B8EE411ADFED5D1A81EE812A9FED5A1AB2
:1010E000C0EE811A564D18352D68C5F3080501EE7E
:1010F000105AB8EE411A31EE811AF7EE001A31EEAD
:10110000211A22EE010A5BE001EE100AB8EE411A44
:10111000DFED4F1A81EE812A9FED4B1AC0EE811A46
:10112000474D18352D68C5F3080501EE105AB8EE85
:10113000411A31EE811AF7EE001A31EE211A22EE31
:10114000010A3DE077E01DE001EE100AB8EE411A19
:101150009FED402AC2EE011A9FED3B1A80EE812AD4
:10116000374D18352D68C5F3080501EE105AB8EE55
:10117000411A32EE011AB7EE002A31EE021A21EEC0
:10118000810A1DE001EE100AB8EE411ADFED301AB7
:1011900081EE812A9FED2C1AC0EE811A284D183558
:1011A0002D68C5F3080501EE105AB8EE411A31EE6C
:1011B000811AF7EE001A31EE211A22EE010A00BF61
:1011C00000BF1F4D18352D68C5F3462501EE105A96
:1011D000B8EE411AF7EE001A31EE211AC0EE011AEC
:1011E000BCEEE11A81ED001A154D18352D68C5F3D6
:1011F000064501EE105AB8EE411AF7EE001A31EE2C
:10120000211AC0EE011ABCEEE11A81ED011A0C4D53
:1012100018352D68C5F3066501EE105AB8EE411A6F
:10122000F7EE001A31EE211AC0EE011ABCEEE11AF7
:1012300081ED021A03E000250D604D608D6070BDE8
:10124000284402580090D003000000460024744C4B
:101250000024744A0024F44A2DE9F0410446002594
:10126000A846206800F00060B0F1006F30D1606ED9
:1012700048B1B0F5801F0DD0B0F5001F10D0B0F50B
:10128000401F15D113E0F948006840F40030F749D9
:1012900008600FE00221201D01F0D2FC054609E0A4
:1012A000022104F1240001F07DFD054602E001E089
:1012B000012500BF00BF55B9EC482430006820F478
:1012C0004010616E0843E9492431086000E0A846F7
:1012D000208800F48070B0F5807F2DD1606D0528E6
:1012E0001AD2DFE800F0030A10171800DF48006880
:1012F00040F40030DD49086010E00021201D01F0BD
:101300009FFC05460AE0002104F1240001F04AFD9B
:10131000054603E002E001E0012500BF00BF55B92A
:10132000D2482430006820F00700616D0843CF499F
:101330002431086000E0A846208800F40070B0F571
:10134000007F33D1A06D802817D003DC40B1402846
:101350001CD10CE0C02817D0B0F5807F16D114E066
:10136000C248006840F40030C049086010E0002125
:10137000201D01F065FC05460AE0002104F124006F
:1013800001F010FD054603E002E001E0012500BF89
:1013900000BF55B9B5482430006820F4E070A16D55
:1013A0000843B2492431086000E0A846208800F4D0
:1013B0008060B0F5806F38D1D4F8A400B0F5800F0C
:1013C00019D004DC50B1B0F5001F1DD10DE0B0F50F
:1013D000C00F17D0B0F5000F16D114E0A348006875
:1013E00040F40030A149086010E00021201D01F008
:1013F00027FC05460AE0002104F1240001F0D2FC9C
:10140000054603E002E001E0012500BF00BF5DB931
:1014100096482C30006820F46000D4F8A4100843EB
:1014200092492C31086000E0A846208800F4006052
:10143000B0F5006F38D1D4F8A800B0F1007F19D012
:1014400004DC50B1B0F1807F1DD10DE0B0F1407FE0
:1014500017D0B0F1806F16D114E08448006840F4D2
:1014600000308249086010E00021201D01F0E8FBF7
:1014700005460AE0002104F1240001F093FC054632
:1014800003E002E001E0012500BF00BF5DB977483D
:101490002C30006820F0E060D4F8A81008437349AD
:1014A0002C31086000E0A846206800F00070B0F120
:1014B000007F27D1A06CA0B1102804D0202809D02B
:1014C00030280FD10CE06948006840F400306749CB
:1014D000086009E00221201D01F0B2FB054603E08F
:1014E00002E001E0012500BF00BF55B95F48203090
:1014F000006820F03000A16C08435C49203108608E
:1015000000E0A846208800F48050B0F5805F36D116
:10151000E06DB0F5005F19D004DC50B1B0F5805F2C
:101520001DD10DE0B0F5405F17D0B0F5804F16D15A
:1015300014E04E48006840F400304C49086010E068
:101540000021201D01F07CFB05460AE0002104F18A
:10155000240001F027FC054603E002E001E001253C
:1015600000BF00BF55B941482430006820F4E04076
:10157000E16D08433D492431086000E0A846208819
:1015800000F40050B0F5005F34D1206EB0F5403F5C
:101590001DD007DC68B1B0F5803F0BD0B0F5003F3F
:1015A00018D10DE0B0F5802F12D0B0F5A02F11D1D9
:1015B0000FE011E00121201D01F042FB05460BE088
:1015C000012104F1240001F0EDFB054604E003E0F5
:1015D00002E001E0012500BF00BF55B923482430D7
:1015E000006820F4E020216E08432049243108607F
:1015F00000E0A846208800F48040B0F5804F38D144
:10160000D4F8AC00B0F1405F1DD007DC68B1B0F198
:10161000805F0BD0B0F1005F18D10DE0B0F1804FCA
:1016200012D0B0F1A04F11D10FE011E00121201D27
:1016300001F006FB05460BE0012104F1240001F056
:10164000B1FB054604E003E002E001E0012500BF34
:1016500000BF6DB905482C30006820F0E040D4F898
:10166000AC10084301492C31086002E02C440258B8
:10167000A846208800F40040B0F5004F26D1E06E67
:1016800098B1B0F1805F03D0B0F1005F0ED106E0F9
:10169000F948006840F40030F749086008E001218B
:1016A000201D01F0CDFA054602E001E0012500BF52
:1016B00000BF55B9F0482430006820F04050E16E7A
:1016C0000843ED492431086000E0A846206800F096
:1016D0008070B0F1807F27D1606CA0B1012804D068
:1016E000022809D003280FD10CE0E348006840F439
:1016F0000030E149086009E00221201D01F0A0FA54
:10170000054603E002E001E0012500BF00BF55B936
:10171000D9482030006820F00300616C0843D649A6
:101720002031086000E0A846206800F48000B0F591
:10173000800F7DD1D148006840F48070CF490860A7
:10174000FFF7F2F9064606E0FFF7EEF9801B642882
:1017500001D9032505E0C948006800F4807000281D
:10176000F2D000BF85BBC4484430006800F440702C
:10177000B4F8B01001F44071884213D0BE48443030
:10178000006820F44077BC484430006840F4803062
:10179000B949443108600846006820F48030086088
:1017A00008460760D4F8B000B0F5807F15D1FFF788
:1017B000BBF9064609E0FFF7B7F9801B41F2883113
:1017C000884202D9032507E038E0AB48443000687E
:1017D000C0F340000028EED000BF55BB00BFB4F8F6
:1017E000B00000F44070B0F5407F0ED1A2481C3824
:1017F000006820F47C51A24AD4F8B000104041EABD
:1018000010109D491C39086007E09B481C3800688F
:1018100020F47C5098491C3908609748443000688F
:10182000B4F8B010C1F30B0108439349443101E00F
:1018300005E001E0086002E0A84600E0A846207844
:1018400000F0010068B3A06F182819D005DC48B17A
:10185000082808D0102816D10BE0202811D02828FD
:1018600011D10FE011E00121201D01F0E9F9054639
:101870000BE0012104F1240001F094FA054604E094
:1018800003E002E001E0012500BF00BF55B97A483E
:101890002830006820F03800A16F084376492831CD
:1018A000086000E0A846207800F00200022828D155
:1018B000606F062815D2DFE800F003040A11121346
:1018C00011E00121201D01F0BBF905460BE00121CB
:1018D00004F1240001F066FA054604E003E002E0AA
:1018E00001E0012500BF00BF55B9634828300068FA
:1018F00020F00700616F08435F492831086000E06D
:10190000A846207800F0040004282AD1D4F89000DA
:10191000062815D2DFE800F003040A11121311E0C3
:101920000121201D01F08CF905460BE0012104F195
:10193000240001F037FA054604E003E002E001E08C
:10194000012500BF00BF5DB94B482C30006820F076
:101950000700D4F89010084347492C31086000E094
:10196000A846207800F02000202836D1D4F88C003A
:10197000B0F1405F1DD007DC68B1B0F1805F0BD0E3
:10198000B0F1005F18D10DE0B0F1804F12D0B0F18E
:10199000A04F11D10FE011E00021201D01F050F9FE
:1019A00005460BE0022104F1240001F0FBF9054695
:1019B00004E003E002E001E0012500BF00BF5DB9E3
:1019C0002D482830006820F0E040D4F88C100843FF
:1019D00029492831086000E0A846207800F040003E
:1019E000402836D1D4F89800B0F5406F1DD007DC00
:1019F00068B1B0F5806F0BD0B0F5006F18D10DE075
:101A0000B0F5805F12D0B0F5A05F11D10FE011E00A
:101A10000021201D01F014F905460BE0022104F11C
:101A2000240001F0BFF9054604E003E002E001E014
:101A3000012500BF00BF5DB90F482C30006820F4BD
:101A4000E050D4F8981008430B492C31086000E0AE
:101A5000A846207800F0800080283AD1D4F89C0075
:101A6000B0F5C04F23D00DDC98B1B0F5005F11D0B8
:101A7000B0F5804F1ED113E02C44025800480258A4
:101A8000FFFCFF0FB0F5004F12D0B0F5204F11D181
:101A90000FE011E00021201D01F0D2F805460BE017
:101AA000022104F1240001F07DF9054604E003E081
:101AB00002E001E0012500BF00BF4DB9AD4800685C
:101AC00020F46040D4F89C100843AA49086000E064
:101AD000A846207800F00800082817D1D4F8800024
:101AE000B0F5805F07D1022104F1240001F05AF91A
:101AF00008B14FF001089F48001F006820F44050D3
:101B0000D4F8801008439B49091F0860207800F032
:101B10001000102815D1D4F89400B0F5807F07D1BB
:101B2000022104F1240001F03DF908B14FF0010851
:101B30009048006820F44070D4F8941008438D4910
:101B40000860206800F40020B0F5002F26D1D4F8FA
:101B5000A00030B1B0F5803F09D0B0F5003F0ED104
:101B60000CE00021201D01F06BF8054609E0022180
:101B700004F1240001F016F9054602E001E0012518
:101B800000BF00BF4DB97B48006820F44030D4F856
:101B9000A01008437749086000E0A846206800F4D8
:101BA0008020B0F5802F2DD1D4F88400B0F5801FAF
:101BB00006D0B0F5001F0CD0B0F5401F11D10FE0DA
:101BC0006C482C38006840F400306A492C390860B1
:101BD00009E0012104F1240001F0E4F8054602E0E7
:101BE00001E0012500BF00BF5DB96248001F006829
:101BF00020F44010D4F8841008435E49091F08609F
:101C000000E0A846206800F48030B0F5803F24D181
:101C1000E06C18B1B0F5803F0FD108E055482C3882
:101C2000006840F4003053492C39086007E0022175
:101C3000201D01F005F8054601E0012500BF00BFA9
:101C400055B94C480C38006820F48030E16C0843EA
:101C500048490C39086000E0A846206800F00050B0
:101C6000B0F1005F07D1022104F1240001F09AF8DD
:101C700008B14FF00108206800F40030B0F5003FD3
:101C800027D1E06FA0B1B0F5807F06D0B0F5007F1E
:101C90000CD0B0F5407F0CD109E036482C380068F4
:101CA00040F4003033492C39086004E003E002E0DE
:101CB00001E0012500BF00BF55B92E48001F006894
:101CC00020F44070E16F08432A49091F086000E0D2
:101CD000A846206800F48010B0F5801F09D125487F
:101CE0000838006820F00040216F08432149083976
:101CF0000860206800F40010B0F5001F09D11D48ED
:101D00000838006820F08070A16E0843194908392E
:101D10000860206800F08040B0F1804F11D100BF12
:101D200014484838006820F40040124948390860D7
:101D300008460068D4F8B81008430E4948390860CE
:101D400000BF206800F00040B0F1004F09D1094801
:101D50000C38006820F04050216D084305490C39CB
:101D60000860B8F1000F02D10020BDE8F081012029
:101D7000FBE70000584402582DE9F04104460D46A7
:101D800014B90120BDE8F081B648006800F00F00EA
:101D9000A8420ED2B348006820F00F002843B14992
:101DA00008600846006800F00F00A84201D001203A
:101DB000E8E7207800F0040004280ED1AA49206941
:101DC000096801F07001884207D9A748006820F02F
:101DD000700021690843A4490860207800F00800D9
:101DE000082811D1A049091D6069096801F0700136
:101DF000884209D99C48001D006820F07000616984
:101E000008439949091D0860207800F01000102847
:101E100011D19549091DA069096801F4E061884262
:101E200009D99148001D006820F4E060A1690843C9
:101E30008D49091D0860207800F02000202811D16C
:101E400089490831E069096801F07001884209D9BF
:101E500085480830006820F07000E1690843824935
:101E600008310860207800F0020002280ED17E4977
:101E7000E068096801F00F01884207D97A480068D4
:101E800020F00F00E168084377490860207800F0EF
:101E90000100002850D07448006820F47060A168E8
:101EA0000843714908606068022807D16E481838F5
:101EB0000068C0F34040F8B9012063E76068032878
:101EC00007D1694818380068C0F34060A0B9012004
:101ED00058E76068012807D1634818380068C0F3E4
:101EE000002048B901204DE75F4818380068C0F36A
:101EF000800008B9012045E75B480838006820F0F9
:101F0000070061680843584908390860FEF70CFE6D
:101F1000064608E0FEF708FE801B41F28831884241
:101F200001D903202EE750480838006800F0380037
:101F30006168B0EBC10FEDD1207800F002000228FB
:101F40000ED14949E068096801F00F01884207D2C3
:101F50004548006820F00F00E168084342490860E6
:101F60004048006800F00F00A8420ED93D480068C4
:101F700020F00F0028433B4908600846006800F045
:101F80000F00A84201D00120FCE6207800F00400F8
:101F900004280ED134492069096801F07001884293
:101FA00007D23148006820F07000216908432E49AB
:101FB0000860207800F00800082811D12A49091D7E
:101FC0006069096801F07001884209D22648001D45
:101FD000006820F07000616908432349091D08600A
:101FE000207800F01000102811D11F49091DA069A8
:101FF000096801F4E061884209D21B48001D0068AD
:1020000020F4E060A16908431749091D08602078A1
:1020100000F02000202811D113490831E069096837
:1020200001F07001884209D20F480830006820F0A2
:102030007000E16908430C490831086000F058F865
:1020400009490968C1F30321084A515C01F01F01E5
:10205000C8400749086007480068FEF7A7FD074623
:1020600038468FE60020005218440258FE3500081A
:10207000000000244000002410B5FEF793FE07493D
:10208000096801F00F01064A515C01F01F01C840C8
:10209000044908600846006810BD00001844025852
:1020A000FE3500080400002410B5FFF7E5FF0549E0
:1020B0000968C1F30211044A515C01F01F01C840D4
:1020C00010BD00001C440258FE35000810B5FFF793
:1020D000D3FF05490968C1F30221044A515C01F0AC
:1020E0001F01C84010BD00001C440258FE35000806
:1020F000F0B5824E366806F0380636B1082E15D097
:10210000102E15D0182E7DD114E07C4E103E36686E
:10211000C6F3401646B1794E103E3668C6F3C10785
:10212000774E26FA07F000E07548E5E07548E3E0F1
:102130007548E1E0714E1836366806F003046F4EBC
:1021400018363668C6F305116C4E1C36366806F034
:1021500001056A4E24363668C6F3CC0616FB05F632
:1021600001EE106AB8EE410A002971D024B1012CA9
:1021700050D0022C6DD16DE0604E103E3668C6F333
:1021800040163EB35D4E103E3668C6F3C1075C4E46
:1021900026FA07F301EE103AF8EE411A01EE101A92
:1021A000B8EE411A81EE812A9FED581AC0EE011A4D
:1021B000524E20363668C6F3080601EE106AB8EEB5
:1021C000411A31EE811AF7EE001A31EE211A62EE51
:1021D000010A1EE001EE101AB8EE411ADFED4C1AAA
:1021E00081EE812A9FED491AC0EE011A434E203636
:1021F0003668C6F3080601EE106AB8EE411A31EEF1
:10220000811A00E076E0F7EE001A31EE211A62EE54
:10221000010A5BE001EE101AB8EE411A9FED3D2A6B
:10222000C2EE011A9FED391A80EE012A334E203694
:102230003668C6F3080601EE106AB8EE411A32EEAF
:10224000011AB7EE002A31EE021A61EE810A3DE072
:102250004EE01DE001EE101AB8EE411ADFED2E1A25
:1022600081EE812A9FED291AC0EE011A234E2036F5
:102270003668C6F3080601EE106AB8EE411A31EE70
:10228000811AF7EE001A31EE211A62EE010A1DE002
:1022900001EE101AB8EE411A9FED1E2AC2EE011A85
:1022A0009FED1A1A80EE012A144E20363668C6F3C6
:1022B000080601EE106AB8EE411A32EE011AB7EEC6
:1022C000002A31EE021A61EE810A00BF00BF0B4EF8
:1022D00020363668C6F34626721C01EE102AB8EE88
:1022E000411AC0EE811ABCEEE11A11EE100A00E0AC
:1022F000002001E0034800BF00BFF0BD10440258B9
:102300000090D00300093D0000127A000000004652
:102310000024744C0024744A0024F44A2DE9F04748
:10232000044614B90120BDE8F087207800F00100D0
:10233000002872D0F948006800F03808F7481830D3
:10234000D0F80090B8F1100F06D0B8F1180F0FD1E7
:1023500009F0030002280BD1F04810380068C0F3E0
:10236000404000286ED0606800286BD10120DAE779
:1023700000BF6068B0F5803F08D1E84810380068B9
:1023800040F48030E549103908602EE0606868B993
:10239000E2481038006820F48030E04910390860C5
:1023A0000846006820F4802008601EE06068B0F5F0
:1023B000A02F0DD1D9481038006840F48020D749AB
:1023C000103908600846006840F4803008600CE06E
:1023D000D2481038006820F48030D04910390860A5
:1023E0000846006820F48020086000BF6068A8B13B
:1023F000FEF79AFB054608E0FEF796FB401B41F20C
:102400008831884201D903208DE7C448103800681C
:10241000C0F340400028EFD014E014E0FEF784FB46
:10242000054608E0FEF780FB401B41F288318842F8
:1024300001D9032077E7B94810380068C0F340405D
:102440000028EFD100BF207800F0020002286BD1F5
:10245000B248006800F03808B0481830D0F8009052
:10246000B8F1000F05D0B8F1180F2BD109F0030017
:1024700040BBAA4810380068C0F3800018B1E0687B
:1024800008B901204FE700BFFEF748FB41F2030106
:1024900088420BD8A1480C38006820F47C302169B0
:1024A00040EA01309D490C3908600AE09B480C382D
:1024B000006820F0FE40217C40EA016097490C3919
:1024C000086058E0E06870B394481038006820F065
:1024D0001900E1680843914910390860FEF724FBB0
:1024E000054606E0FEF720FB401B022801D9032029
:1024F00019E78A4810380068C0F380000028F1D03E
:1025000000BFFEF70BFB41F2030188420DD8834860
:102510000C38006820F47C30216940EA01307F49A2
:102520000C3908600CE00CE026E07C480C380068B0
:1025300020F0FE40217C40EA016078490C390860B7
:1025400019E076481038006820F00100734910390E
:102550000860FEF7E9FA054606E0FEF7E5FA401BDB
:10256000022801D90320DEE66C4810380068C0F369
:1025700080000028F1D100BF207800F01000102862
:102580006ED16648006800F0380864481830D0F80A
:102590000090B8F1080F06D0B8F1180F2FD109F04C
:1025A000030001282BD15D4810380068C0F30020DB
:1025B00020B1E069802801D00120B4E600BFFEF719
:1025C000ADFA41F2030188420CD854480C38006837
:1025D00020F0F84094F8201040EA81604F490C390F
:1025E00008600BE04D48001F006820F07C5094F814
:1025F000201040EA01604949091F086058E0E0697D
:1026000068B346481038006840F0800043491039EC
:102610000860FEF789FA054606E0FEF785FA401BDA
:10262000022801D903207EE63C4810380068C0F338
:1026300000200028F1D000BFFEF770FA41F203013C
:1026400088420ED835480C38006820F0F84094F8DD
:10265000201040EA816031490C3908600DE00DE03E
:1026600027E02E48001F006820F07C5094F82010CE
:1026700040EA01602949091F086019E0274810381D
:10268000006820F08000254910390860FEF74CFAF8
:10269000054606E0FEF748FA401B022801D9032050
:1026A00041E61E4810380068C0F300200028F1D130
:1026B00000BF207800F00800082837D16069D0B149
:1026C00016486430006840F0010014496431086025
:1026D000FEF72AFA054606E0FEF726FA401B022816
:1026E00001D903201FE60D4864300068C0F34000A4
:1026F0000028F1D01AE009486430006820F0010099
:10270000064964310860FEF70FFA054608E0FEF757
:102710000BFA401B022803D9032004E61044025898
:10272000DC480068C0F340000028F0D1207800F0B9
:102730002000202836D1A069D0B1D648743800686E
:1027400040F48050D34974390860FEF7EDF905462E
:1027500006E0FEF7E9F9401B022801D90320E2E573
:10276000CC4874380068C0F340300028F1D019E03C
:10277000C8487438006820F48050C649743908602D
:10278000FEF7D2F9054606E0FEF7CEF9401B022817
:1027900001D90320C7E5BF4874380068C0F3403052
:1027A0000028F1D1207800F0040004287DD1BA4837
:1027B000006840F48070B8490860FEF7B5F9054636
:1027C00006E0FEF7B1F9401B642801D90320AAE511
:1027D000B148006800F480700028F2D000BFA06803
:1027E000012808D1AB48001F006840F00100A9494A
:1027F000091F08602DE0A06868B9A648001F00689E
:1028000020F00100A349091F08600846006820F075
:10281000040008601DE0A06805280DD19D48001F38
:10282000006840F004009B49091F086008460068E2
:1028300040F0010008600CE09648001F006820F09E
:1028400001009449091F08600846006820F0040050
:10285000086000BFA068A0B1FEF766F9054608E071
:10286000FEF762F9401B41F28831884201D903200A
:1028700059E58848001F0068C0F340000028EFD0E9
:1028800013E0FEF751F9054608E0FEF74DF9401B4D
:1028900041F28831884201D9032044E57D48001F78
:1028A0000068C0F340000028EFD1606A00287DD0A6
:1028B00078486438006800F03800182877D0606ADB
:1028C000022875D173487438006820F0807071490F
:1028D00074390860FEF728F9054606E0FEF724F98A
:1028E000401B022801D903201DE56A48743800689E
:1028F000C0F340600028F1D100BFD4E90A1041EADA
:10290000001064494C39096840F2F332914308439E
:1029100060494C390860208E401EC0F30800616B8E
:10292000491E4FF47E4202EA41210843218F491E8D
:10293000D20102EA014108433C21095D491E12020D
:1029400002EA0161084353494439086000BF081F87
:10295000006820F00100091F08604E4840380068F8
:102960004FF6F8718843A16C40EAC10049494039EB
:10297000086048484838006820F00C00216C084383
:102980004449483908600846006820F00200616C3C
:1029900008434049483908600846006840F48030E0
:1029A00008600846006840F4003002E06FE041E053
:1029B00025E008600846006840F48020086008466A
:1029C000006840F00100086032487438006840F048
:1029D0008070304974390860FEF7A6F8054606E0B5
:1029E000FEF7A2F8401B022801D903209BE42948E6
:1029F00074380068C0F340600028F1D047E02548F3
:102A00007438006820F08070224974390860FEF73D
:102A10008BF8054606E0FEF787F8401B022801D92F
:102A2000032080E41B4874380068C0F3406000282D
:102A3000F1D12CE017484C3807681648443806682E
:102A4000606A012821D007F00301A06A81421CD1ED
:102A5000C7F30511E06A884217D1C6F30801206B5D
:102A6000401E814211D1606B401EC6F34621884250
:102A70000BD1A06B401EC6F30641884205D1E06B26
:102A8000401EC6F30661884201D001204BE40020BD
:102A900049E400007444025800480258042808D150
:102AA0004FF0E021096941F004014FF0E02211618B
:102AB00007E04FF0E021096921F004014FF0E02226
:102AC0001161704770B504462546681EB0F1807FDD
:102AD00001D301200FE0681E4FF0E02148610F2173
:102AE0004FF0FF3000F02AFB00204FF0E02188611A
:102AF00007200861002070BD10B586B004462B4940
:102B00002068884250D100BF00BF2948006840F0CB
:102B10001000274908600846006800F01000009087
:102B200000BF00BF00BF00BF00BF214810380068D1
:102B300040F001001E49103908600846006800F0A6
:102B40000100009000BF00BF00BF00BF00BF0846EB
:102B5000006840F0010008600846006800F00100CD
:102B6000009000BF00BF00BF4FF400700190022032
:102B7000029001200390022004900720059001A9F3
:102B80000C48FDF7B9FE4FF48060019007200590D6
:102B900001A90848FDF7B0FE2520FEF798F80322AA
:102BA00011462520FEF7A3F806B010BD0010014025
:102BB000F0440258000002581D4A0168914236D183
:102BC0001C49098801F4004189BB1A49098801F4AC
:102BD000804171B1184909780A2903D00021154AAA
:102BE000118024E01349098841F40041114A118001
:102BF0001DE0114909780D2906D10E49098841F4D3
:102C000080410C4A118012E00B490978094A128868
:102C1000C2F30D02094B995406490988491C054A1B
:102C2000118011460988C72901DD002111807047F4
:102C300000100140380000243A0000241401002450
:102C40002DE9F04104460E4600275548006800F083
:102C50000300032802D10120BDE8F0815048283844
:102C6000006820F080604E4928390860FDF75CFF5D
:102C7000054606E0FDF758FF401B022801D9032056
:102C8000EAE7474828380068C0F3C0600028F1D15F
:102C900000BF4348006820F47C30216840EA0130DE
:102CA0003F490860A088401EC0F30800A168491E83
:102CB0004FF47E4202EA41210843A189491ED20114
:102CC00002EA01410843217C491E120202EA016125
:102CD000084333491031086000BF3148001D0068C7
:102CE00020F0C000616908432D49091D08600846AD
:102CF000006820F02000A16908432949091D0860E7
:102D00000846006820F0100008602548143000686C
:102D10004FF6F8718843E16940EAC1002049143157
:102D200008601F48001D006840F010001C49091D84
:102D300008602EB90846006840F40020086012E0E0
:102D4000012E08D11648001D006840F48010144977
:102D5000091D086007E01248001D006840F40010DB
:102D60000F49091D08600E482838006840F080604F
:102D70000B4928390860FDF7D7FE054606E0FDF748
:102D8000D3FE401B022801D9032065E704482838F8
:102D90000068C0F3C0600028F1D038465CE700004E
:102DA000284402582DE9F04104460E4600275548B4
:102DB000006800F00300032802D10120BDE8F08183
:102DC00050482838006820F080504E492839086063
:102DD000FDF7AAFE054606E0FDF7A6FE401B022809
:102DE00001D90320EAE7474828380068C0F340705B
:102DF0000028F1D100BF4348006820F07C70218892
:102E000040EA01503F490860A088401EC0F3080016
:102E1000A168491E4FF47E4202EA41210843A1897C
:102E2000491ED20102EA01410843217C491E1202D7
:102E300002EA0161084333491831086000BF314894
:102E4000001D006820F44060616908432D49091D98
:102E500008600846006820F40070A1690843294909
:102E6000091D08600846006820F480700860254845
:102E70001C3000684FF6F8718843E16940EAC100F0
:102E800020491C3108601F48001D006840F4807014
:102E90001C49091D08602EB90846006840F48000EE
:102EA000086012E0012E08D11648001D006840F4A9
:102EB00000001449091D086007E01248001D006861
:102EC00040F080700F49091D08600E4828380068DE
:102ED00040F080500B4928390860FDF725FE054673
:102EE00006E0FDF721FE401B022801D9032065E71B
:102EF000044828380068C0F340700028F1D03846F4
:102F00005CE700002844025810B50023234C2360DE
:102F100000BF00BF00BFBFF34F8F00BF00BF00BFA7
:102F2000231F1868C0F34E3100BFC0F3C90200BFB1
:102F300043F6E07303EA41134FF0404404EA82741D
:102F40002343174C236000BF00BF131EA2F10102F0
:102F5000EED10B1EA1F10101E7D100BF00BF00BF00
:102F6000BFF34F8F00BF00BF00BF0C4B703B1B680F
:102F700043F48033094C703C236000BF00BF00BFA6
:102F8000BFF34F8F00BF00BF00BF00BF00BF00BF37
:102F9000BFF36F8F00BF00BF00BF10BD84ED00E026
:102FA00060EF00E000BF00BF00BFBFF34F8F00BF66
:102FB00000BF00BF00BF00BF00BFBFF36F8F00BFE7
:102FC00000BF00BF00201449086000BF00BF00BF61
:102FD000BFF34F8F00BF00BF00BF00BF00BF00BFE7
:102FE000BFF36F8F00BF00BF00BF0C48006840F404
:102FF00000300A49086000BF00BF00BFBFF34F8F19
:1030000000BF00BF00BF00BF00BF00BFBFF36F8F96
:1030100000BF00BF00BF704750EF00E014ED00E0BC
:1030200010B5FDF787FDFDF755FA012801D0FDF732
:1030300056FA10BD2448006840F470002249086028
:103040002248006840F001002049086000201F4924
:10305000103108601D4800681D4908401B49086080
:1030600000201A4918310860091D0860091D086010
:10307000164928310860091D0860091D0860091DEE
:103080000860091D0860091D0860091D0860091D08
:1030900008600E48006820F480200C490860002079
:1030A0000A49603108600B4800686FF30F00B0F107
:1030B000005F02D20120084908604FF00060024919
:1030C000803908607047000088ED00E00044025835
:1030D0007FEDF6EA0010005C0881005170B5002415
:1030E0000F4D1048FDF700FA00BF03E0641CAC422E
:1030F00000D904E00B48FDF7FCF92028F6D100BF09
:10310000002403E0641CAC4200D906E00122064919
:103110000448FDF7F3F90028F4D100BF70BD0000AA
:10312000FFFF0100DC0100243A000024024800688F
:10313000C0F30220704700000CED00E010B500283D
:1031400004DB0A07130E054A135406E00A07140E9F
:10315000034A00F00F031B1FD45410BD00E400E02D
:1031600018ED00E000BF704770B504460420FFF77B
:1031700095FC0A48046025464FF47A7045434FF0A9
:10318000E020006940F002004FF0E02108610846AD
:103190004561006940F00100086170BD3000002405
:1031A00030B50446002504E04FF47A7000F004F8CE
:1031B0006D1CA542F8D330BD70B5034600224FF018
:1031C000E02675690D4E366803FB06F44FF0E026E5
:1031D000B16910E04FF0E026B06988420BD0884218
:1031E00002D20E1A324402E02E1A0E443244014634
:1031F000A24200D300E0EDE700BF70BD3000002424
:1032000000BF054AD26902F04002002AF9D0C2B2DA
:10321000014B9A62704700000010014010B500F0A9
:103220001FF8FDF793FC042302221146F02000F062
:1032300011F94FF4F070FFF797FF4FF4E13000F011
:10324000BDF9FDF760F9FDF763F9FDF766F9FDF7E4
:1032500069F90020FDF76BF9FDF76EF9002010BD4C
:1032600010B5FFF79FFEFFF74FFE0348006840F0E0
:1032700004000149086010BD9CEF00E030B587B044
:103280000546002400BF6A48006840F00200684913
:1032900008600846006800F00200019000BF00BF0F
:1032A00000BF0846006840F0080008600846006853
:1032B00000F00800019000BF00BF00BF0846006892
:1032C00040F0100008600846006800F0100001900F
:1032D00000BF00BF00BF56480C38006840F4804073
:1032E00053490C3908600846006800F4804001909A
:1032F00000BF00BF402002900220039003200590F1
:10330000012004900A20069002A94A48FDF7F4FA29
:10331000042002900920069002A94648FDF7ECFA25
:103320004FF4605002900920069002A94248FDF730
:10333000E3FA042002900920069002A93F48FDF715
:10334000DBFA3B486438006840F48040384964390F
:1033500008600846006820F48040086000BF3848D4
:10336000806800F020000028F9D136483449086010
:10337000354848600846006840F00100086000BF1A
:103380002F48806800F020000028F9D14FF48370A6
:103390002B49486100BF2A48806800F002000028DD
:1033A000F9D02748C06840F002002549C86000BF36
:1033B0002348806800F020000028F9D12049C86126
:1033C000EB2444F4807444F44064A81C44EA0034C0
:1033D00044F4404400BF44F4801444F0407444F08A
:1033E0004064084644611948006820F48030174959
:1033F000086016487030006820F0010013497031F1
:1034000008600020091D08604FF01040091D086089
:103410000F48091D086005200C49703108600B48F1
:10342000006840F480300949086007B030BD0000F2
:10343000E044025800040258000C025800100258E0
:1034400000500052100300010102180024ED00E0BA
:103450002D0003032DE9F041CCB080460D46164601
:103460001F4600245148006820F004004F490860BE
:1034700000BF002001904E48006820F001004C4938
:1034800008600846006800F00100019047480C30D1
:10349000006840F4404045490C3108600846006827
:1034A00000F44040019000BF00BF00BF3F480C3017
:1034B000006800F40050B0F5005FF7D12120319092
:1034C0004FF48030329000203490389001203790B3
:1034D00002203A90022131A88162CDF8F480C562C1
:1034E00046638763002141640821016400218164EF
:1034F000FEF714FF04461CB101204CB0BDE8F0817A
:103500003F2044900320459000204690082047909B
:103510004020499000014A90402048904B9004215F
:1035200044A8FEF729FC04460CB10120E5E7214838
:103530000290082003904FF4DC7104910221059160
:10354000069107910021089109910A910220139098
:103550002020149000201F9020904FF440102390C2
:1035600002A8FDF779FE04460CB10120C5E7002052
:10357000FFF784FEFDF70CFC0F48006840F0800068
:103580000D49086000BF0C48F430006840F00200AC
:103590000949F43108600846006800F00200019013
:1035A00000BF00BFFDF79EF90020A6E70C480258B7
:1035B0002C040058030004030044025810B50446CC
:1035C00009480A4908600846446000218160C160DA
:1035D000016181610C214161FCF7B3FF01220449C3
:1035E0000248FCF78BFF10BD00100140DC010024F5
:1035F0003A0000244FF04070E1EE100A70470000DE
:103600000000010203040102030406070809000088
:10361000303600080000002414010000D402000825
:103620004437000814010024DCB10700F002000850
:103630000090D0030090D0030000000000000000C4
:103640000000000000000000FFFF00001F0000F865
:103650001FF8E007FF07E0FF40BC07FC30840000D4
:10366000000000000000000000000000000000005A
:10367000100000000101000000F80000FFFF000042
:103680000000000089630090616400904003002402
:1036900000000030000000380000002000000000A2
:1036A0004043072400E0033000F8003800F0012018
:1036B00000F8000000000000000000000000000012
:1036C00000000000000000000000000000000000FA
:1036D00000000000000000000000000000000000EA
:1036E00000000000000000000000000000000000DA
:1036F000000000001F0000000000000000000000AB
:1037000000000000000000000000000000000000B9
:1037100000000000000000000000000000000000A9
:103720000000000000000000000000000000000099
:103730000000000000000000AAAAAAAA00000000E1
:043740000000000085
:0200000490006A
:10000000642900F0EB80752900F0E880782900F081
:100010002181732900F08982002070472D4B1968D7
:100020000868B0E8F04F80F30988BFF36F8F4FF096
:10003000000080F311887047000000000848006845
:10004000006880F308884FF0000080F3148862B6DF
:1000500061B6BFF34F8FBFF36F8F00DF00BF00BFEC
:1000600008ED00E0DFF80C00016841F47001016068
:10007000704700BF88ED00E0EFF30980BFF36F8F9A
:10008000144B1A681EF0100F08BF20ED108A20E9EB
:10009000F04F106009B44FF0500072B680F3118831
:1000A000BFF34F8FBFF36F8F62B607F067FE4FF05D
:1000B000000080F3118809BC19680868B0E8F04FA7
:1000C0001EF0100F08BFB0EC108A80F30988BFF350
:1000D0006F8F70478C000024EFF30580704700009D
:1000E0000FB4044910B503AA029800F023FA10BC1B
:1000F0005DF814FB340000240FB41CB5074B06AAAE
:100100007B4469460090059800F0E5F900206946B7
:1001100000F0F4F91CBC5DF814FB0000F9030000CA
:100120002DE9F0410E460446002020622046E16899
:10013000884730B3252805D0D4E901219047206AAB
:10014000401CF2E7E168204600278847050018D0E8
:10015000A5F14100192802D820354FF40067324636
:10016000294620462760FFF74BFF40B1012804D005
:10017000F61D26F007060836D8E7361DD6E72846CE
:10018000DAE7206ABDE8F08170B50C460546012A21
:1001900005D02878800600D5EA69002302E0012313
:1001A00005E05B1C934202D2E05C0028F9D1A8690B
:1001B000E618C01AA861286A184428622846AFF3D6
:1001C000008004E0D5E9012114F8010B9047B44206
:1001D000F8D32846AFF3008070BD00002DE9F04150
:1001E0000646002410687529314616A510D0AFF3D5
:1001F0000080002802DA404213A507E031688A0730
:1002000001D512A502E0490704D511A5012401E09A
:10021000AFF3008000210A2206F1240709E0B0FBB9
:10022000F2FCB0FBF2F302FB1C00303078541846AD
:10023000491C0028F3D123462A463046BDE8F04148
:1002400000F0EBB8000000002D0000002B000000C3
:100250002000000070B504460D4621461068AFF33B
:1002600000802188090502D50F4A7A4402E00E4A2F
:100270007A440E32002104F1240305E000F00F0659
:100280000009965D5E54491C0028F7D120780023B0
:10029000000704D5702D02D009B102231132204687
:1002A000BDE8704000F0B9B8EACF000040EA0103B1
:1002B000024630B59B0710D14FF0013400E008C270
:1002C00008C91D1B9D4315EAC41FF8D013F0FF0198
:1002D00002F8011B0DD01B0AF8E711F8013B002BB7
:1002E00002F8013B05D011F8013B002B02F8013B5D
:1002F000F3D130BD10B5431C02E010F8011B71B101
:100300008107FAD14FF0013202C88C1A8C4314EAEB
:10031000C211F9D0C01A0A0603D0C01E10BDC01AFF
:1003200010BD0A0401D0801E10BD0902FCD0401E81
:1003300010BD032A40F2308010F0030C00F015804D
:1003400011F8013BBCF1020F624498BF11F801CBD8
:1003500000F8013B38BF11F8013BA2F1040298BF3D
:1003600000F801CB38BF00F8013B11F0030300F0A7
:10037000F380083AC0F0088051F8043B083A51F87D
:1003800004CBA0E80810F5E7121D5CBF51F8043B50
:1003900040F8043BAFF30080D20724BF11F8013BC3
:1003A00011F801CB48BF11F8012B24BF00F8013B25
:1003B00000F801CB48BF00F8012B704702F0FF03A3
:1003C00043EA032242EA024200F0FAB84FF0000288
:1003D00000B5134694469646203922BFA0E80C503B
:1003E000A0E80C50B1F12001BFF4F7AF090728BF16
:1003F000A0E80C5048BF0CC05DF804EB890028BF92
:1004000040F8042B08BF704748BF20F8022B11F0BA
:10041000804F18BF00F8012B70472DE9F0470D46BB
:1004200099469246044600F124080168880604D5DE
:10043000E06921F01001216000E00120A84201DD07
:10044000471B00E00027A1697A1902EB0900081A8E
:10045000A0612078C00602D42046AFF300800026B9
:1004600008E0D4E901211AF806009047206A401CF0
:10047000761C20624E45F4DB2078C0060AD5204663
:10048000AFF3008006E0D4E9012130209047206AD4
:10049000401C2062381EA7F10107F4DC07E0D4E914
:1004A000012118F805009047206A401C2062281E90
:1004B000A5F10105F3DC2046AFF3008020780006AB
:1004C00002D50220BDE8F0870120FBE701694A1C44
:1004D00002610878704700B58FB0CDE90131002185
:1004E000059105497944CDE9031011466846FFF7A7
:1004F00017FE0FB000BD0000E5FFFFFF0A6802F81D
:10050000010B0A60704710B5436913B1AFF3008067
:1005100001E0FFF739FE012010BD127800F124013F
:100520000A7000224A700122EDE711684FF0FF3295
:10053000E9E70000074B70B50D467B44FFF7CBFFA2
:100540000446284600F05CF810B14FF0FF3070BD53
:10055000204670BDC32C007810B5203AC0F00B8047
:10056000B1E81850203AA0E81850B1E81850A0E8B7
:100570001850BFF4F5AF5FEA027C24BFB1E8185011
:10058000A0E8185044BF18C918C0BDE810405FEA81
:10059000827C24BF51F8043B40F8043B08BF7047FD
:1005A000D20728BF31F8023B48BF11F8012B28BF02
:1005B00020F8023B48BF00F8012B70474FF00002C3
:1005C0000429C0F0128010F0030C3FF401AFCCF10D
:1005D000040CBCF1020F18BF00F8012BA8BF20F8D3
:1005E000022BA1EB0C01FFF7F3BE5FEAC17C24BF35
:1005F00000F8012B00F8012B48BF00F8012B7047D1
:10060000007B00F08000704740F6F90CC0F6000C4B
:10061000604740F6EF4CC0F6000C604740F6CF4C08
:10062000C0F6000C604740F24D5CC0F6000C60471D
:1006300042F6F92CC0F6000C604740F6113CC0F6BB
:10064000000C604743F2A11CC0F6000C604740F666
:10065000293CC0F6000C604742F6B93CC0F6000CDD
:10066000604740F6D55CC0F6000C604740F6F95C88
:10067000C0F6000C604741F2290CC0F6000C604740
:1006800040F27B3CC0F6000C604742F2A90CC0F679
:10069000000C604742F2CD0CC0F6000C604740F6FB
:1006A000013CC0F6000C604743F2B91CC0F6000CD8
:1006B000604740F6614CC0F6000C604740F6054CC0
:1006C000C0F6000C604740F68D4CC0F6000C604749
:1006D00000BFFEE710B500200349086040F65F1137
:1006E000092002F00DFB10BD5000002470470000EF
:1006F00070B50446B3F5804F13D1D1E9000540EA47
:1007000005108D6840EA05208D6928438D8940EAEF
:10071000054054F82250064E3540284344F8220044
:1007200003E06FF0704044F82200002070BD00002C
:100730000000F0CF30B50246086852F8200020F0E3
:1007400001000C6842F824008868082801D1402381
:1007500000E00023486818438C682043CC6820439D
:100760000C6920434C6920438C692043CC692043A9
:100770000C6A20434C6A20438C6A2043CC6A204395
:100780000C6B20434C6B20438C6B20430C6852F85D
:1007900024400D4D2C4020430C6842F82400086B87
:1007A000B0F5801F07D1086828B1106820F48010C8
:1007B0000C6B20431060086818B110684C6B204324
:1007C0001060002030BD00008004C0FF30B503463B
:1007D000D1E9000540EA05108D6840EA05208D89C1
:1007E00040EA0545088A401E45EA0055087D801EFE
:1007F00045EA00608D692843551C53F8255005F0E3
:1008000040452843551C43F82500186800F4801023
:10081000B0F5801F0BD1586820F47004088A401E80
:1008200044EA0054586820F47000204358600020C7
:1008300030BD000070B504460E4615460CB90120C7
:1008400070BD94F8450028B9002084F84400204683
:1008500000F028F804F108012068FFF76BFF31462B
:10086000A2682068FFF7B2FF2946E36AD4E90102D3
:10087000FFF73EFFA168206850F8210040F001001A
:10088000A268216841F822000548006840F0004055
:1008900003490860012084F845000020D0E70000EB
:1008A0000040005210B586B0044600BF20480068E2
:1008B00040F480501E4908600846006800F48050EB
:1008C000009000BF00BF00BF19480C30006840F026
:1008D000080017490C3108600846006800F008005D
:1008E000009000BF00BF00BF0846006840F0100045
:1008F00008600846006800F01000009000BF00BFCC
:100900004CF203700190022002900120039003201A
:1009100004900C20059001A90648FFF775FE4FF6DC
:100920008070019001A90448FFF76EFE06B010BD6B
:10093000D4440258000C0258001002587047704707
:10094000704710B504460CB9012010BD94F83D0065
:1009500028B9002084F83C00204600F00DF8022061
:1009600084F83D00211D206800F080FB012084F800
:100970003D000020E9E7000038B504460E49206834
:10098000884217D100BF00BF0C48006840F0020049
:100990000A4908600846006800F00200009000BFA5
:1009A00000BF00BF002204211D20FFF732FE1D20E2
:1009B000FFF734FE38BD000000040040E844025850
:1009C00001460868C06840F001000B68D8600868FC
:1009D0008068084B00EA0302062A08D0B2F5803F7F
:1009E00005D00868006840F001000B68186000201E
:1009F0007047000007000100704710B504462068EA
:100A00000069C0F34000D8B12068C068C0F340005E
:100A1000B0B16FF0020021680861012020772068E2
:100A2000806900F0030018B12046FFF7E5FF05E0FC
:100A3000204600F0BEF8204600F0BCF800202077E9
:100A400020680069C0F38000D8B12068C068C0F396
:100A50008000B0B16FF004002168086102202077A7
:100A60002068806900F4407018B12046FFF7C4FF89
:100A700005E0204600F09DF8204600F09BF800209D
:100A8000207720680069C0F3C000D8B12068C06832
:100A9000C0F3C000B0B16FF0080021680861042005
:100AA00020772068C06900F0030018B12046FFF7E6
:100AB000A3FF05E0204600F07CF8204600F07AF81D
:100AC0000020207720680069C0F30010D8B12068AA
:100AD000C068C0F30010B0B16FF010002168086169
:100AE000082020772068C06900F4407018B12046C3
:100AF000FFF782FF05E0204600F05BF8204600F09B
:100B000059F8002020772068006900F0010058B1F2
:100B10002068C06800F0010030B16FF0010021686A
:100B20000861204600F048F820680069C0F3C01052
:100B300058B12068C068C0F3C01030B16FF08000B9
:100B4000216808612046FFF7FAFE20680069C0F3BB
:100B5000002058B12068C068C0F3C01030B16FF4F5
:100B60008070216808612046FFF7E8FE2068006970
:100B7000C0F3801058B12068C068C0F3801030B155
:100B80006FF0400021680861204600F023F82068DB
:100B90000069C0F3401058B12068C068C0F340102D
:100BA00030B16FF02000216808612046FFF7C8FED1
:100BB00010BD7047704700000449884204D10449C1
:100BC0000968491C024A116070470000C4020024F1
:100BD00050000024704770477047704770470146C7
:100BE000D1F88030D1F8842043EA02007047000039
:100BF0002DE9F04704462068C5692068066820682A
:100C0000876840F60F0005EA0008B8F1000F0FD121
:100C100005F0200060B106F0200010B907F0805008
:100C200030B1E06E10B12046E16E8847BDE8F08734
:100C3000B8F1000F7ED06E48384018B96D4830408A
:100C40000028F7D005F0010058B106F4807040B1DB
:100C5000012021680862D4F8880040F00100C4F83F
:100C6000880005F0020058B107F0010040B10220F1
:100C700021680862D4F8880040F00400C4F88800B5
:100C800005F0040058B107F0010040B104202168CC
:100C90000862D4F8880040F00200C4F8880005F02B
:100CA000080070B106F0200010B95148384040B13A
:100CB000082021680862D4F8880040F00800C4F8D1
:100CC000880005F4006060B106F0806048B14FF420
:100CD000006021680862D4F8880040F02000C4F861
:100CE0008800D4F88800002844D005F0200050B1D6
:100CF00006F0200010B907F0805020B1E06E10B16E
:100D00002046E16E8847D4F888902068806800F01B
:100D10004000402802D009F0280028B3204600F007
:100D2000CDFA2068806800F04000402818D1206883
:100D3000806800E01FE020F0400021688860A06F1C
:100D400050B12D48A16F0865A06FFFF76CFC88B10A
:100D5000A06F016D88470DE02046FFF73FFF09E0D7
:100D60002046FFF73BFF05E02046FFF737FF002056
:100D7000C4F888005AE705F4801050B107F48000E9
:100D800038B14FF48010216808622046FFF725FF34
:100D90004CE705F0800058B106F0800010B907F468
:100DA000000028B1206F10B12046216F88473DE731
:100DB00005F0400030B106F0400018B1204600F0C8
:100DC00091FA33E705F4000030B106F0804018B125
:100DD0002046FFF701FF29E705F0807030B106F0EB
:100DE000004018B12046FFF7F6FE1FE700BF1DE7E1
:100DF0000100001020010004A512009010B5044667
:100E00000CB9012010BDA06900B100E000BFD4F80A
:100E1000800028B9002084F87C002046FFF708FCF9
:100E20002420C4F880002068006820F001002168B8
:100E30000860204600F08AFB012800D1E2E7A06AA2
:100E400010B1204600F078F92068406820F4904006
:100E5000216848602068806820F02A002168886046
:100E60002068006840F0010021680860204600F01A
:100E7000DFF9C7E710B50346D3F88400202874D102
:100E800001B10AB9012010BD00BF93F87C00012810
:100E900001D10220F7E7012083F87C0000BF9965AB
:100EA000A3F85C20A3F85E200020D86600BF9868F5
:100EB000B0F5805F0AD1186920B940F2FF10A3F89D
:100EC000600020E0FF20A3F860001CE0986848B9AB
:100ED000186918B9FF20A3F8600014E07F20A3F878
:100EE000600010E09868B0F1805F09D1186918B906
:100EF0007F20A3F8600006E03F20A3F8600002E036
:100F00000020A3F8600000BF0020C3F88800222062
:100F1000C3F884001868806840F001001C68A06075
:100F2000586EB0F1005F21D1B3F8680090421DDC2B
:100F30009868B0F5805F04D1186910B91848D86670
:100F400001E01848D86600BF002083F87C0000BF8D
:100F50001868006840F480701C6820601868806819
:100F600040F080501C68A06016E017E09868B0F56B
:100F7000805F04D1186910B90B48D86601E00B48AE
:100F8000D86600BF002083F87C0000BF18680068A6
:100F900040F490701C682060002074E7022072E723
:100FA0007913009099140090071300902D1400906D
:100FB000704700BFFEE7000000BF00224021184834
:100FC000FFF73BFB00BF17A0FFF78AF84FF47A70DA
:100FD000FFF738FB19A0FFF783F84FF47A70FFF79B
:100FE00031FB00BF00BF00BF00BF00BFBFF34F8F8A
:100FF00000BF00BF00BF1648006800F4E06015495C
:101000000843001D1249086000BF00BF00BFBFF3C6
:101010004F8F00BF00BF00BF00BF00BFFDE7000053
:10102000001002584D656D20416363657373204560
:1010300072726F7221210D0A00000000536F6674F6
:10104000205265736574696E672E2E2E0D0A00009E
:101050000CED00E00000FA057047000010B50248F2
:10106000FFF7CBFC10BD0000C402002410B50268DD
:10107000294B98420ED0B0F1804F0BD0274B9842AD
:1010800008D0274B984205D0264B984202D0264BD9
:10109000984203D122F070024B681A431E4B9842CB
:1010A00017D0B0F1804F14D01C4B984211D01C4B7C
:1010B00098420ED01B4B98420BD01B4B984208D045
:1010C0001A4B984205D01A4B984202D0194B9842BD
:1010D00003D122F44072CB681A4322F080034C699A
:1010E00043EA040202608B68C3620B6883620A4BA6
:1010F00098420BD00C4B984208D00C4B984205D02C
:101100000B4B984202D00B4B984201D10B69036301
:101110000123436110BD00000000014000040040B5
:1011200000080040000C0040000401400040014065
:10113000004401400048014090F8281001F00101EE
:1011400039B10168496821F40031C26A114302686B
:10115000516090F8281001F00201022907D10168BE
:10116000496821F48031026B11430268516090F8A4
:10117000281001F00401042907D10168496821F40D
:101180008021426B11430268516090F8281001F0F1
:101190000801082907D10168496821F40041826BE0
:1011A00011430268516090F8281001F010011029D5
:1011B00007D10168896821F48051C26B114302682C
:1011C000916090F8281001F02001202907D10168D2
:1011D000896821F40051026C11430268916090F813
:1011E000281001F04001402913D10168496821F419
:1011F0008011426C114302685160416CB1F5801F4F
:1012000007D10168496821F4C001826C114302686A
:10121000516090F8281001F08001802907D1016801
:10122000496821F40021C26C114302685160704783
:1012300038B504460020C4F88800FFF708FA0546D0
:101240002068006800F0080008280CD16FF07E408C
:101250002B4600224FF400110090204601F0EEFCD6
:1012600008B1032038BD2068006800F0040004289D
:101270000CD16FF07E402B4600224FF4800100908D
:10128000204601F0DBFC08B10320EBE72020C4F886
:101290008000C4F8840000BF002084F87C0000BFF8
:1012A00000BFDFE770B50546AC6B0020A4F85E0018
:1012B000A4F856002046FFF791FC70BD016809684C
:1012C00021F490710268116001688968044A114034
:1012D000026891602021C0F884100021C166704727
:1012E000FEFFFFEF10B504462068006820F04000C4
:1012F000216808602020C4F8800000202067204674
:10130000FFF756FE10BD2DE9F0410446B4F86070B9
:10131000D4F88400222826D12068406A86B2A56DC0
:1013200006EA07002880A06D801CA065B4F85E0066
:10133000401EA4F85E00B4F85E00D0B920680068D2
:1013400020F49070216808602068806820F0010017
:10135000216888602020C4F884000020E0662046D0
:10136000FFF77AF905E02068806940F008002168FD
:101370008861BDE8F08100002DE9F0470446B4F82B
:101380006090D4F88400222843D1B4F8685028E053
:101390002068406A1FFA80F8A76D08EA09003880C3
:1013A000A06D801CA065B4F85E00401EA4F85E002D
:1013B000B4F85E0098B92068006820F48070216855
:1013C00008602068806817490840216888602020EC
:1013D000C4F884000020E0662046FFF73DF9681E4F
:1013E00085B2002DD4D1B4F85E60C6B1B4F86800FF
:1013F000B04214DD2068806820F080502168886049
:101400000948E0662068006840F020002168086014
:1014100005E02068806940F0080021688861BDE827
:10142000F0870000FEFFFFEF0713009070B5044641
:10143000B4F86060D4F88400222826D12068406A7D
:1014400085B2F0B22840A16D0870A06D401CA06567
:10145000B4F85E00401EA4F85E00B4F85E00D0B997
:101460002068006820F49070216808602068806817
:1014700020F00100216888602020C4F8840000204A
:10148000E0662046FFF7E8F805E02068806940F054
:1014900008002168886170BD2DE9F0410446B4F868
:1014A0006080D4F88400222843D1B4F8685028E042
:1014B0002068406A87B208F0FF003840A16D0870CC
:1014C000A06D401CA065B4F85E00401EA4F85E004C
:1014D000B4F85E0098B92068006820F48070216834
:1014E00008602068806817490840216888602020CB
:1014F000C4F884000020E0662046FFF7ADF8681EBF
:1015000085B2002DD4D1B4F85E60C6B1B4F86800DD
:10151000B04214DD2068806820F080502168886027
:101520000948E0662068006840F0200021680860F3
:1015300005E02068806940F0080021688861BDE806
:10154000F0810000FEFFFFEF2D1400902DE9F04F19
:1015500089B004464FF00009002007908346F949FE
:101560002068884200D100E000BF2169A0680843DC
:1015700061690843E16940EA010A606E40EA0A0ACB
:1015800020680068F049084040EA0A0021680860C5
:101590002068406820F44050E168084321684860B2
:1015A000D4F818A0E7492068884202D0206A40EAAF
:1015B0000A0A20688068E549084040EA0A00216874
:1015C00088602068C06A20F00F00616A08432168C3
:1015D000C86200BFDE492068884220D1DD4800682B
:1015E00000F03800182811D005DC48B1082809D0CF
:1015F000102811D108E020280AD028280CD109E0B1
:1016000001250BE0042509E0082507E0102505E089
:10161000202503E0402501E0802500BFF8E0CE4909
:101620002068884219D1CB48006800F007000628DE
:1016300010D2DFE800F0030507090B0D00250BE0D1
:10164000042509E0082507E0102505E0202503E032
:10165000402501E0802500BFDAE0C04920688842CB
:1016600019D1BC48006800F00700062810D2DFE856
:1016700000F0030507090B0D00250BE0042509E028
:10168000082507E0102505E0202503E0402501E0BE
:10169000802500BFBCE0B2492068884219D1AD481E
:1016A000006800F00700062810D2DFE800F003050C
:1016B00007090B0D00250BE0042509E0082507E0CC
:1016C000102505E0202503E0402501E0802500BF2E
:1016D0009EE0A4492068884219D19E48006800F025
:1016E0000700062810D2DFE800F0030507090B0DFC
:1016F00000250BE0042509E0082507E0102505E09A
:10170000202503E0402501E0802500BF80E09649C8
:101710002068884220D18F48006800F038001828DF
:1017200011D005DC48B1082809D0102811D108E0F3
:1017300020280AD028280CD109E001250BE0042537
:1017400009E0082507E0102505E0202503E04025F5
:1017500001E0802500BF5BE084492068884219D100
:101760007C48006800F00700062810D2DFE800F08F
:10177000030507090B0D00250BE0042509E00825EA
:1017800007E0102505E0202503E0402501E0802545
:1017900000BF3DE076492068884219D16D48006855
:1017A00000F00700062810D2DFE800F00305070963
:1017B0000B0D00250BE0042509E0082507E01025A6
:1017C00005E0202503E0402501E0802500BF1FE063
:1017D0005C49206888421AD15E48001D006800F00C
:1017E0000700062810D2DFE800F0030507090B0DFB
:1017F00002250BE0042509E0082507E0102505E097
:10180000202503E0402501E0802500BF00E0802581
:1018100000BF4C492068884271D1102D70D006DC81
:10182000022D09D0042D49D0082D6AD1A6E0202D23
:1018300068D0402DF9D1B3E1FEF713FF616A09B911
:10184000012138E0616A012901D1022133E0616A96
:10185000022901D104212EE0616A032901D1062168
:1018600029E0616A042901D1082124E0616A05297F
:1018700001D10A211FE0616A062901D10C211AE079
:10188000616A072901D1102115E0616A082901D197
:10189000202110E0616A092901D140210BE0616A31
:1018A0000A2901D1802106E0616A0B2902D14FF497
:1018B000807100E00121B0FBF1FBB6E104A8FEF766
:1018C000D5FE0598616A09B9012154E0616A0129D0
:1018D00001D102214FE0616A022901D104214AE0CD
:1018E000616A032901D1062145E0616A042901D119
:1018F000082140E0616A052905D10A213BE0FDE3AA
:1019000080E08FE10BE1616A062901D10C2132E010
:10191000616A072901D110212DE0616A082901D1EE
:10192000202128E0616A092901D1402123E0616A70
:101930000A2901D180211EE0616A0B291AD14FF4D6
:10194000807118E0000C0058F369FFCFFFF4FF111D
:101950000010014054440258004400400048004038
:10196000004C00400050004000140140007800404E
:10197000007C00400121B0FBF1FB56E101A8FEF71D
:101980007AFE0298616A09B9012138E0616A012989
:1019900001D1022133E0616A022901D104212EE044
:1019A000616A032901D1062129E0616A042901D174
:1019B000082124E0616A052901D10A211FE0616A3A
:1019C000062901D10C211AE0616A072901D11021F1
:1019D00015E0616A082901D1202110E0616A092916
:1019E00001D140210BE0616A0A2901D1802106E082
:1019F000616A0B2902D14FF4807100E00121B0FB34
:101A0000F1FB12E1FA480068C0F3401088B3F848CF
:101A10000068C0F3C101F748C840616A09B90121F3
:101A200039E0616A012901D1022134E0616A0229A9
:101A300001D104212FE0616A032901D106212AE0A6
:101A4000616A042901D1082125E0616A052901D1D3
:101A50000A2120E0616A062901D10C211BE0616A9C
:101A6000072901D1102116E0616A082902D120213D
:101A700011E013E0616A092901D140210BE0616A9C
:101A80000A2901D1802106E0616A0B2902D14FF4B5
:101A9000807100E00121B0FBF1FB3FE0606A08B912
:101AA000012038E0606A012801D1022033E0606A39
:101AB000022801D104202EE0606A032801D106200B
:101AC00029E0606A042801D1082024E0606A052822
:101AD00001D10A201FE0606A062801D10C201AE01B
:101AE000606A072801D1102015E0606A082801D13A
:101AF000202010E0606A092801D140200BE0606AD4
:101B00000A2801D1802006E0606A0B2802D14FF438
:101B1000807000E00120B749B1FBF0FB85E0606A0E
:101B200008B9012038E0606A012801D1022033E0C1
:101B3000606A022801D104202EE0606A032801D1E6
:101B4000062029E0606A042801D1082024E0606AA8
:101B5000052801D10A201FE0606A062801D10C2067
:101B60001AE0606A072801D1102015E0606A082891
:101B700001D1202010E0606A092801D140200BE04B
:101B8000606A0A2801D1802006E0606A0B2802D131
:101B90004FF4807000E001209749B1FBF0FB44E076
:101BA000606A08B9012038E0606A012801D102208A
:101BB00033E0606A022801D104202EE0606A032825
:101BC00001D1062029E0606A042801D1082024E020
:101BD000606A052801D10A201FE0606A062801D149
:101BE0000C201AE0606A072801D1102015E0606A15
:101BF000082801D1202010E0606A092801D1402086
:101C00000BE0606A0A2801D1802006E0606A0B2898
:101C100002D14FF4807000E001204FF40041B1FB8D
:101C2000F0FB02E00120079000BF00BFBBF1000FF6
:101C300000F0F287606800EB4000584503D8606808
:101C40000003584503D20120079000F0E5BF102D96
:101C500075D006DC022D09D0042D67D0082D6FD178
:101C6000CCE0202D6DD0402DF9D14DE2FEF7F9FCEE
:101C70008046606A08B9012238E0606A012801D113
:101C8000022233E0606A022801D104222EE0606A59
:101C9000032801D1062229E0606A042801D1082224
:101CA00024E0606A052801D10A221FE0606A062844
:101CB00001D10C221AE0606A072801D1102215E038
:101CC000606A082801D1202210E0606A092801D149
:101CD00040220BE0606A0A2801D1802206E0606A97
:101CE0000B2802D14FF4807200E0012294460023B9
:101CF00040461946FEF7C4FC4FF4807300228C4620
:101D0000A0FB031E0CFB03E300FB023360684008EA
:101D10008C461CEB000643EB0201D4F804C062467B
:101D200000233046FEF7ACFC81464EE204A8FEF7E5
:101D30009DFCDDF814E0606A20B901223BE0BFE0C1
:101D400040E282E1606A012801D1022233E0606A48
:101D5000022801D104222EE0606A032801D1062264
:101D600029E0606A042801D1082224E0606A05287D
:101D700001D10A221FE0606A062801D10C221AE074
:101D8000606A072801D1102215E0606A082801D195
:101D9000202210E0606A092801D140220BE0606A2D
:101DA0000A2801D1802206E0606A0B2802D14FF494
:101DB000807200E001229446002370461946FEF727
:101DC0005FFC4FF4807C0022A0FB0C3E01FB0CE189
:101DD00000FB0211606840081E185141D4F804C08D
:101DE000624600233046FEF74BFC8146EDE10000E1
:101DF000004402580090D00300093D0001A8FEF7FE
:101E00003AFCDDF808C0606A08B9012238E0606A6F
:101E1000012801D1022233E0606A022801D10422A4
:101E20002EE0606A032801D1062229E0606A0428B6
:101E300001D1082224E0606A052801D10A221FE0AE
:101E4000606A062801D10C221AE0606A072801D1D5
:101E5000102215E0606A082801D1202210E0606A93
:101E6000092801D140220BE0606A0A2801D18022B2
:101E700006E0606A0B2802D14FF4807200E0012274
:101E80009646002360461946FEF7FAFB4FF480732E
:101E900000228C46A0FB031E0CFB03E300FB023375
:101EA000606840088C461CEB000643EB0201D4F846
:101EB00004C0624600233046FEF7E2FB814684E11F
:101EC000F8480068C0F3401090B3F6480068C0F3CB
:101ED000C101F54820FA01FE606A08B9012239E023
:101EE000606A012801D1022234E0606A022801D12F
:101EF00004222FE0606A032801D106222AE0606AEA
:101F0000042801D1082225E0606A052801D10A22AF
:101F100020E0606A062801D10C221BE0606A0728D5
:101F200001D1102216E0606A082802D1202211E0B7
:101F300030E0606A092801D140220BE0606A0A287B
:101F400001D1802206E0606A0B2802D14FF4807232
:101F500000E001229446002370461946FEF790FBEC
:101F60004FF4807300228C46A0FB031E0CFB03E39E
:101F700000FB0233606840088C461CEB000643EB14
:101F80000201D4F804C0624600233046FEF778FB15
:101F9000814659E0606A08B9012238E0606A012888
:101FA00001D1022233E0606A022801D104222EE02E
:101FB000606A032801D1062229E0606A042801D161
:101FC000082224E0606A052801D10A221FE0606A25
:101FD000062801D10C221AE0606A072801D11022DC
:101FE00015E0606A082801D1202210E0606A092803
:101FF00001D140220BE0606A0A2801D1802206E06C
:10200000606A0B2802D14FF4807200E001229446EE
:102010000023A5481946FEF733FB4FF480730022D6
:102020008C46A0FB031E0CFB03E300FB023360683D
:1020300040080E1843EB0201D4F804C062460023A6
:102040003046FEF71DFB8146BFE0606A08B90122F9
:1020500038E0606A012801D1022233E0606A022878
:1020600001D104222EE0606A032801D1062229E072
:10207000606A042801D1082224E0606A052801D1A1
:102080000A221FE0606A062801D10C221AE0606A69
:10209000072801D1102215E0606A082801D120220A
:1020A00010E0606A092801D140220BE0606A0A282A
:1020B00001D1802206E0606A0B2802D14FF48072C1
:1020C00000E001229446002378481946FEF7D8FA2A
:1020D0004FF4807300228C46A0FB031E0CFB03E32D
:1020E00000FB0233606840088C461CEB000643EBA3
:1020F0000201D4F804C06246002300E073E03046D9
:10210000FEF7BEFA814660E0606A08B9012238E055
:10211000606A012801D1022233E0606A022801D1FD
:1021200004222EE0606A032801D1062229E0606AB9
:10213000042801D1082224E0606A052801D10A227E
:102140001FE0606A062801D10C221AE0606A0728A5
:1021500001D1102215E0606A082801D1202210E088
:10216000606A092801D140220BE0606A0A2801D187
:10217000802206E0606A0B2802D14FF4807200E0F2
:102180000122944600234FF400401946FEF778FAE6
:102190004FF4807300228C46A0FB031E0CFB03E36C
:1021A00000FB0233606840088C461CEB000643EBE2
:1021B0000201D4F804C0624600233046FEF760FAFC
:1021C000814602E00120079000BF00BFB9F5407FC3
:1021D00006D3B9F5801F03D22068C0F80C9034E50F
:1021E0000120079031E5E069B0F5004F71D1082D6D
:1021F00070D005DC5DB1012D5AD0042D6BD1A7E064
:10220000102D69D0202D68D0402DF7D11EE2FEF7A9
:102210003CFA8046606A08B9012038E0606A01280B
:1022200001D1022033E0606A022801D104202EE0AF
:10223000606A032801D1062029E0606A042801D1E0
:10224000082024E0606A052801D10A201FE0606AA6
:10225000062801D10C201AE0606A072801D110205D
:1022600015E0606A082801D1202010E0606A092882
:1022700001D140200BE0606A0A2801D1802006E0ED
:10228000606A0B2802D14FF4807000E00120B8FB97
:10229000F0F04000616800EB5100B0FBF1F01FFA74
:1022A00080F920E2004402580090D00300093D006C
:1022B000FEF7F0F98046606A08B901203DE0606AE7
:1022C000012801D1022038E0606A022806D10420EA
:1022D00033E020E288E003E2D2E06EE1606A0328A6
:1022E00001D1062029E0606A042801D1082024E0F9
:1022F000606A052801D10A201FE0606A062801D122
:102300000C201AE0606A072801D1102015E0606AED
:10231000082801D1202010E0606A092801D140205E
:102320000BE0606A0A2801D1802006E0606A0B2871
:1023300002D14FF4807000E00120B8FBF0F04000C3
:10234000616800EB5100B0FBF1F01FFA80F9CAE1BF
:1023500004A8FEF78BF90598616A09B9012138E0F4
:10236000616A012901D1022133E0616A022901D1A8
:1023700004212EE0616A032901D1062129E0616A66
:10238000042901D1082124E0616A052901D10A212B
